{
	"stage02/task01/MyToken.sol": {
		"MyToken": {
			"abi": [
				{
					"inputs": [],
					"stateMutability": "nonpayable",
					"type": "constructor"
				},
				{
					"anonymous": false,
					"inputs": [
						{
							"indexed": true,
							"internalType": "address",
							"name": "owner",
							"type": "address"
						},
						{
							"indexed": true,
							"internalType": "address",
							"name": "spender",
							"type": "address"
						},
						{
							"indexed": true,
							"internalType": "uint256",
							"name": "value",
							"type": "uint256"
						}
					],
					"name": "Approval",
					"type": "event"
				},
				{
					"anonymous": false,
					"inputs": [
						{
							"indexed": true,
							"internalType": "address",
							"name": "from",
							"type": "address"
						},
						{
							"indexed": true,
							"internalType": "address",
							"name": "to",
							"type": "address"
						},
						{
							"indexed": true,
							"internalType": "uint256",
							"name": "value",
							"type": "uint256"
						}
					],
					"name": "Transfer",
					"type": "event"
				},
				{
					"inputs": [
						{
							"internalType": "address",
							"name": "spender",
							"type": "address"
						},
						{
							"internalType": "uint256",
							"name": "value",
							"type": "uint256"
						}
					],
					"name": "approve",
					"outputs": [
						{
							"internalType": "bool",
							"name": "",
							"type": "bool"
						}
					],
					"stateMutability": "nonpayable",
					"type": "function"
				},
				{
					"inputs": [
						{
							"internalType": "address",
							"name": "_address",
							"type": "address"
						}
					],
					"name": "balanceOf",
					"outputs": [
						{
							"internalType": "uint256",
							"name": "",
							"type": "uint256"
						}
					],
					"stateMutability": "view",
					"type": "function"
				},
				{
					"inputs": [
						{
							"internalType": "address",
							"name": "to",
							"type": "address"
						},
						{
							"internalType": "uint256",
							"name": "value",
							"type": "uint256"
						}
					],
					"name": "mint",
					"outputs": [],
					"stateMutability": "nonpayable",
					"type": "function"
				},
				{
					"inputs": [
						{
							"internalType": "address",
							"name": "to",
							"type": "address"
						},
						{
							"internalType": "uint256",
							"name": "value",
							"type": "uint256"
						}
					],
					"name": "transfer",
					"outputs": [],
					"stateMutability": "nonpayable",
					"type": "function"
				},
				{
					"inputs": [
						{
							"internalType": "address",
							"name": "from",
							"type": "address"
						},
						{
							"internalType": "address",
							"name": "to",
							"type": "address"
						},
						{
							"internalType": "uint256",
							"name": "value",
							"type": "uint256"
						}
					],
					"name": "transferFrom",
					"outputs": [
						{
							"internalType": "bool",
							"name": "",
							"type": "bool"
						}
					],
					"stateMutability": "nonpayable",
					"type": "function"
				}
			],
			"devdoc": {
				"kind": "dev",
				"methods": {},
				"version": 1
			},
			"evm": {
				"assembly": "    /* \"stage02/task01/MyToken.sol\":58:2198  contract MyToken {... */\n  mstore(0x40, 0x80)\n    /* \"stage02/task01/MyToken.sol\":239:319  constructor(){... */\n  callvalue\n  dup1\n  iszero\n  tag_1\n  jumpi\n  revert(0x00, 0x00)\ntag_1:\n  pop\n    /* \"stage02/task01/MyToken.sol\":271:281  msg.sender */\n  caller\n    /* \"stage02/task01/MyToken.sol\":263:268  owner */\n  0x02\n  0x00\n    /* \"stage02/task01/MyToken.sol\":263:281  owner = msg.sender */\n  0x0100\n  exp\n  dup2\n  sload\n  dup2\n  0xffffffffffffffffffffffffffffffffffffffff\n  mul\n  not\n  and\n  swap1\n  dup4\n  0xffffffffffffffffffffffffffffffffffffffff\n  and\n  mul\n  or\n  swap1\n  sstore\n  pop\n    /* \"stage02/task01/MyToken.sol\":292:311  mint(owner, 100000) */\n  tag_4\n    /* \"stage02/task01/MyToken.sol\":297:302  owner */\n  0x02\n  0x00\n  swap1\n  sload\n  swap1\n  0x0100\n  exp\n  swap1\n  div\n  0xffffffffffffffffffffffffffffffffffffffff\n  and\n    /* \"stage02/task01/MyToken.sol\":304:310  100000 */\n  0x0186a0\n    /* \"stage02/task01/MyToken.sol\":292:296  mint */\n  shl(0x20, tag_5)\n    /* \"stage02/task01/MyToken.sol\":292:311  mint(owner, 100000) */\n  0x20\n  shr\n  jump\t// in\ntag_4:\n    /* \"stage02/task01/MyToken.sol\":58:2198  contract MyToken {... */\n  jump(tag_6)\n    /* \"stage02/task01/MyToken.sol\":1941:2195  function mint(address to, uint256 value) public {... */\ntag_5:\n    /* \"stage02/task01/MyToken.sol\":2000:2014  address sender */\n  0x00\n    /* \"stage02/task01/MyToken.sol\":2017:2027  msg.sender */\n  caller\n    /* \"stage02/task01/MyToken.sol\":2000:2027  address sender = msg.sender */\n  swap1\n  pop\n    /* \"stage02/task01/MyToken.sol\":2051:2056  owner */\n  0x02\n  0x00\n  swap1\n  sload\n  swap1\n  0x0100\n  exp\n  swap1\n  div\n  0xffffffffffffffffffffffffffffffffffffffff\n  and\n    /* \"stage02/task01/MyToken.sol\":2041:2056  sender != owner */\n  0xffffffffffffffffffffffffffffffffffffffff\n  and\n    /* \"stage02/task01/MyToken.sol\":2041:2047  sender */\n  dup2\n    /* \"stage02/task01/MyToken.sol\":2041:2056  sender != owner */\n  0xffffffffffffffffffffffffffffffffffffffff\n  and\n  eq\n    /* \"stage02/task01/MyToken.sol\":2038:2103  if(sender != owner){... */\n  tag_8\n  jumpi\n    /* \"stage02/task01/MyToken.sol\":2072:2091  revert(\"not owner\") */\n  mload(0x40)\n  0x08c379a000000000000000000000000000000000000000000000000000000000\n  dup2\n  mstore\n  0x04\n  add\n  tag_9\n  swap1\n  tag_10\n  jump\t// in\ntag_9:\n  mload(0x40)\n  dup1\n  swap2\n  sub\n  swap1\n  revert\n    /* \"stage02/task01/MyToken.sol\":2038:2103  if(sender != owner){... */\ntag_8:\n    /* \"stage02/task01/MyToken.sol\":2113:2125  uint balance */\n  0x00\n    /* \"stage02/task01/MyToken.sol\":2128:2139  balancesMap */\n  0x00\n    /* \"stage02/task01/MyToken.sol\":2128:2143  balancesMap[to] */\n  0x00\n    /* \"stage02/task01/MyToken.sol\":2140:2142  to */\n  dup6\n    /* \"stage02/task01/MyToken.sol\":2128:2143  balancesMap[to] */\n  0xffffffffffffffffffffffffffffffffffffffff\n  and\n  0xffffffffffffffffffffffffffffffffffffffff\n  and\n  dup2\n  mstore\n  0x20\n  add\n  swap1\n  dup2\n  mstore\n  0x20\n  add\n  0x00\n  keccak256\n  sload\n    /* \"stage02/task01/MyToken.sol\":2113:2143  uint balance = balancesMap[to] */\n  swap1\n  pop\n    /* \"stage02/task01/MyToken.sol\":2182:2187  value */\n  dup3\n    /* \"stage02/task01/MyToken.sol\":2172:2179  balance */\n  dup2\n    /* \"stage02/task01/MyToken.sol\":2172:2187  balance + value */\n  tag_11\n  swap2\n  swap1\n  tag_12\n  jump\t// in\ntag_11:\n    /* \"stage02/task01/MyToken.sol\":2154:2165  balancesMap */\n  0x00\n    /* \"stage02/task01/MyToken.sol\":2154:2169  balancesMap[to] */\n  0x00\n    /* \"stage02/task01/MyToken.sol\":2166:2168  to */\n  dup7\n    /* \"stage02/task01/MyToken.sol\":2154:2169  balancesMap[to] */\n  0xffffffffffffffffffffffffffffffffffffffff\n  and\n  0xffffffffffffffffffffffffffffffffffffffff\n  and\n  dup2\n  mstore\n  0x20\n  add\n  swap1\n  dup2\n  mstore\n  0x20\n  add\n  0x00\n  keccak256\n    /* \"stage02/task01/MyToken.sol\":2154:2187  balancesMap[to] = balance + value */\n  dup2\n  swap1\n  sstore\n  pop\n    /* \"stage02/task01/MyToken.sol\":1989:2195  {... */\n  pop\n  pop\n    /* \"stage02/task01/MyToken.sol\":1941:2195  function mint(address to, uint256 value) public {... */\n  pop\n  pop\n  jump\t// out\n    /* \"#utility.yul\":7:176   */\ntag_13:\n    /* \"#utility.yul\":91:102   */\n  0x00\n    /* \"#utility.yul\":125:131   */\n  dup3\n    /* \"#utility.yul\":120:123   */\n  dup3\n    /* \"#utility.yul\":113:132   */\n  mstore\n    /* \"#utility.yul\":165:169   */\n  0x20\n    /* \"#utility.yul\":160:163   */\n  dup3\n    /* \"#utility.yul\":156:170   */\n  add\n    /* \"#utility.yul\":141:170   */\n  swap1\n  pop\n    /* \"#utility.yul\":7:176   */\n  swap3\n  swap2\n  pop\n  pop\n  jump\t// out\n    /* \"#utility.yul\":182:341   */\ntag_14:\n    /* \"#utility.yul\":322:333   */\n  0x6e6f74206f776e65720000000000000000000000000000000000000000000000\n    /* \"#utility.yul\":318:319   */\n  0x00\n    /* \"#utility.yul\":310:316   */\n  dup3\n    /* \"#utility.yul\":306:320   */\n  add\n    /* \"#utility.yul\":299:334   */\n  mstore\n    /* \"#utility.yul\":182:341   */\n  pop\n  jump\t// out\n    /* \"#utility.yul\":347:712   */\ntag_15:\n    /* \"#utility.yul\":489:492   */\n  0x00\n    /* \"#utility.yul\":510:576   */\n  tag_22\n    /* \"#utility.yul\":574:575   */\n  0x09\n    /* \"#utility.yul\":569:572   */\n  dup4\n    /* \"#utility.yul\":510:576   */\n  tag_13\n  jump\t// in\ntag_22:\n    /* \"#utility.yul\":503:576   */\n  swap2\n  pop\n    /* \"#utility.yul\":585:678   */\n  tag_23\n    /* \"#utility.yul\":674:677   */\n  dup3\n    /* \"#utility.yul\":585:678   */\n  tag_14\n  jump\t// in\ntag_23:\n    /* \"#utility.yul\":703:705   */\n  0x20\n    /* \"#utility.yul\":698:701   */\n  dup3\n    /* \"#utility.yul\":694:706   */\n  add\n    /* \"#utility.yul\":687:706   */\n  swap1\n  pop\n    /* \"#utility.yul\":347:712   */\n  swap2\n  swap1\n  pop\n  jump\t// out\n    /* \"#utility.yul\":718:1137   */\ntag_10:\n    /* \"#utility.yul\":884:888   */\n  0x00\n    /* \"#utility.yul\":922:924   */\n  0x20\n    /* \"#utility.yul\":911:920   */\n  dup3\n    /* \"#utility.yul\":907:925   */\n  add\n    /* \"#utility.yul\":899:925   */\n  swap1\n  pop\n    /* \"#utility.yul\":971:980   */\n  dup2\n    /* \"#utility.yul\":965:969   */\n  dup2\n    /* \"#utility.yul\":961:981   */\n  sub\n    /* \"#utility.yul\":957:958   */\n  0x00\n    /* \"#utility.yul\":946:955   */\n  dup4\n    /* \"#utility.yul\":942:959   */\n  add\n    /* \"#utility.yul\":935:982   */\n  mstore\n    /* \"#utility.yul\":999:1130   */\n  tag_25\n    /* \"#utility.yul\":1125:1129   */\n  dup2\n    /* \"#utility.yul\":999:1130   */\n  tag_15\n  jump\t// in\ntag_25:\n    /* \"#utility.yul\":991:1130   */\n  swap1\n  pop\n    /* \"#utility.yul\":718:1137   */\n  swap2\n  swap1\n  pop\n  jump\t// out\n    /* \"#utility.yul\":1143:1220   */\ntag_16:\n    /* \"#utility.yul\":1180:1187   */\n  0x00\n    /* \"#utility.yul\":1209:1214   */\n  dup2\n    /* \"#utility.yul\":1198:1214   */\n  swap1\n  pop\n    /* \"#utility.yul\":1143:1220   */\n  swap2\n  swap1\n  pop\n  jump\t// out\n    /* \"#utility.yul\":1226:1406   */\ntag_17:\n    /* \"#utility.yul\":1274:1351   */\n  0x4e487b7100000000000000000000000000000000000000000000000000000000\n    /* \"#utility.yul\":1271:1272   */\n  0x00\n    /* \"#utility.yul\":1264:1352   */\n  mstore\n    /* \"#utility.yul\":1371:1375   */\n  0x11\n    /* \"#utility.yul\":1368:1369   */\n  0x04\n    /* \"#utility.yul\":1361:1376   */\n  mstore\n    /* \"#utility.yul\":1395:1399   */\n  0x24\n    /* \"#utility.yul\":1392:1393   */\n  0x00\n    /* \"#utility.yul\":1385:1400   */\n  revert\n    /* \"#utility.yul\":1412:1603   */\ntag_12:\n    /* \"#utility.yul\":1452:1455   */\n  0x00\n    /* \"#utility.yul\":1471:1491   */\n  tag_29\n    /* \"#utility.yul\":1489:1490   */\n  dup3\n    /* \"#utility.yul\":1471:1491   */\n  tag_16\n  jump\t// in\ntag_29:\n    /* \"#utility.yul\":1466:1491   */\n  swap2\n  pop\n    /* \"#utility.yul\":1505:1525   */\n  tag_30\n    /* \"#utility.yul\":1523:1524   */\n  dup4\n    /* \"#utility.yul\":1505:1525   */\n  tag_16\n  jump\t// in\ntag_30:\n    /* \"#utility.yul\":1500:1525   */\n  swap3\n  pop\n    /* \"#utility.yul\":1548:1549   */\n  dup3\n    /* \"#utility.yul\":1545:1546   */\n  dup3\n    /* \"#utility.yul\":1541:1550   */\n  add\n    /* \"#utility.yul\":1534:1550   */\n  swap1\n  pop\n    /* \"#utility.yul\":1569:1572   */\n  dup1\n    /* \"#utility.yul\":1566:1567   */\n  dup3\n    /* \"#utility.yul\":1563:1573   */\n  gt\n    /* \"#utility.yul\":1560:1596   */\n  iszero\n  tag_31\n  jumpi\n    /* \"#utility.yul\":1576:1594   */\n  tag_32\n  tag_17\n  jump\t// in\ntag_32:\n    /* \"#utility.yul\":1560:1596   */\ntag_31:\n    /* \"#utility.yul\":1412:1603   */\n  swap3\n  swap2\n  pop\n  pop\n  jump\t// out\n    /* \"stage02/task01/MyToken.sol\":58:2198  contract MyToken {... */\ntag_6:\n  dataSize(sub_0)\n  dup1\n  dataOffset(sub_0)\n  0x00\n  codecopy\n  0x00\n  return\nstop\n\nsub_0: assembly {\n        /* \"stage02/task01/MyToken.sol\":58:2198  contract MyToken {... */\n      mstore(0x40, 0x80)\n      callvalue\n      dup1\n      iszero\n      tag_1\n      jumpi\n      revert(0x00, 0x00)\n    tag_1:\n      pop\n      jumpi(tag_2, lt(calldatasize, 0x04))\n      shr(0xe0, calldataload(0x00))\n      dup1\n      0x095ea7b3\n      eq\n      tag_3\n      jumpi\n      dup1\n      0x23b872dd\n      eq\n      tag_4\n      jumpi\n      dup1\n      0x40c10f19\n      eq\n      tag_5\n      jumpi\n      dup1\n      0x70a08231\n      eq\n      tag_6\n      jumpi\n      dup1\n      0xa9059cbb\n      eq\n      tag_7\n      jumpi\n    tag_2:\n      revert(0x00, 0x00)\n        /* \"stage02/task01/MyToken.sol\":1005:1277  function approve(address spender, uint256 value) public virtual returns (bool) {... */\n    tag_3:\n      tag_8\n      0x04\n      dup1\n      calldatasize\n      sub\n      dup2\n      add\n      swap1\n      tag_9\n      swap2\n      swap1\n      tag_10\n      jump\t// in\n    tag_9:\n      tag_11\n      jump\t// in\n    tag_8:\n      mload(0x40)\n      tag_12\n      swap2\n      swap1\n      tag_13\n      jump\t// in\n    tag_12:\n      mload(0x40)\n      dup1\n      swap2\n      sub\n      swap1\n      return\n        /* \"stage02/task01/MyToken.sol\":1285:1933  function transferFrom(address from, address to, uint256 value) public returns (bool) {... */\n    tag_4:\n      tag_14\n      0x04\n      dup1\n      calldatasize\n      sub\n      dup2\n      add\n      swap1\n      tag_15\n      swap2\n      swap1\n      tag_16\n      jump\t// in\n    tag_15:\n      tag_17\n      jump\t// in\n    tag_14:\n      mload(0x40)\n      tag_18\n      swap2\n      swap1\n      tag_13\n      jump\t// in\n    tag_18:\n      mload(0x40)\n      dup1\n      swap2\n      sub\n      swap1\n      return\n        /* \"stage02/task01/MyToken.sol\":1941:2195  function mint(address to, uint256 value) public {... */\n    tag_5:\n      tag_19\n      0x04\n      dup1\n      calldatasize\n      sub\n      dup2\n      add\n      swap1\n      tag_20\n      swap2\n      swap1\n      tag_10\n      jump\t// in\n    tag_20:\n      tag_21\n      jump\t// in\n    tag_19:\n      stop\n        /* \"stage02/task01/MyToken.sol\":500:611  function balanceOf(address _address) public view returns (uint) {... */\n    tag_6:\n      tag_22\n      0x04\n      dup1\n      calldatasize\n      sub\n      dup2\n      add\n      swap1\n      tag_23\n      swap2\n      swap1\n      tag_24\n      jump\t// in\n    tag_23:\n      tag_25\n      jump\t// in\n    tag_22:\n      mload(0x40)\n      tag_26\n      swap2\n      swap1\n      tag_27\n      jump\t// in\n    tag_26:\n      mload(0x40)\n      dup1\n      swap2\n      sub\n      swap1\n      return\n        /* \"stage02/task01/MyToken.sol\":619:997  function transfer(address  to, uint256 value) public {... */\n    tag_7:\n      tag_28\n      0x04\n      dup1\n      calldatasize\n      sub\n      dup2\n      add\n      swap1\n      tag_29\n      swap2\n      swap1\n      tag_10\n      jump\t// in\n    tag_29:\n      tag_30\n      jump\t// in\n    tag_28:\n      stop\n        /* \"stage02/task01/MyToken.sol\":1005:1277  function approve(address spender, uint256 value) public virtual returns (bool) {... */\n    tag_11:\n        /* \"stage02/task01/MyToken.sol\":1078:1082  bool */\n      0x00\n        /* \"stage02/task01/MyToken.sol\":1095:1109  address sender */\n      0x00\n        /* \"stage02/task01/MyToken.sol\":1112:1122  msg.sender */\n      caller\n        /* \"stage02/task01/MyToken.sol\":1095:1122  address sender = msg.sender */\n      swap1\n      pop\n        /* \"stage02/task01/MyToken.sol\":1194:1199  value */\n      dup3\n        /* \"stage02/task01/MyToken.sol\":1164:1174  allowances */\n      0x01\n        /* \"stage02/task01/MyToken.sol\":1164:1182  allowances[sender] */\n      0x00\n        /* \"stage02/task01/MyToken.sol\":1175:1181  sender */\n      dup4\n        /* \"stage02/task01/MyToken.sol\":1164:1182  allowances[sender] */\n      0xffffffffffffffffffffffffffffffffffffffff\n      and\n      0xffffffffffffffffffffffffffffffffffffffff\n      and\n      dup2\n      mstore\n      0x20\n      add\n      swap1\n      dup2\n      mstore\n      0x20\n      add\n      0x00\n      keccak256\n        /* \"stage02/task01/MyToken.sol\":1164:1191  allowances[sender][spender] */\n      0x00\n        /* \"stage02/task01/MyToken.sol\":1183:1190  spender */\n      dup7\n        /* \"stage02/task01/MyToken.sol\":1164:1191  allowances[sender][spender] */\n      0xffffffffffffffffffffffffffffffffffffffff\n      and\n      0xffffffffffffffffffffffffffffffffffffffff\n      and\n      dup2\n      mstore\n      0x20\n      add\n      swap1\n      dup2\n      mstore\n      0x20\n      add\n      0x00\n      keccak256\n        /* \"stage02/task01/MyToken.sol\":1164:1199  allowances[sender][spender] = value */\n      dup2\n      swap1\n      sstore\n      pop\n        /* \"stage02/task01/MyToken.sol\":1241:1246  value */\n      dup3\n        /* \"stage02/task01/MyToken.sol\":1232:1239  spender */\n      dup5\n        /* \"stage02/task01/MyToken.sol\":1215:1247  Approval(sender, spender, value) */\n      0xffffffffffffffffffffffffffffffffffffffff\n      and\n        /* \"stage02/task01/MyToken.sol\":1224:1230  sender */\n      dup3\n        /* \"stage02/task01/MyToken.sol\":1215:1247  Approval(sender, spender, value) */\n      0xffffffffffffffffffffffffffffffffffffffff\n      and\n      0x8c5be1e5ebec7d5bd14f71427d1e84f3dd0314c0f7b2291e5b200ac8c7c3b925\n      mload(0x40)\n      mload(0x40)\n      dup1\n      swap2\n      sub\n      swap1\n      log4\n        /* \"stage02/task01/MyToken.sol\":1265:1269  true */\n      0x01\n        /* \"stage02/task01/MyToken.sol\":1258:1269  return true */\n      swap2\n      pop\n      pop\n        /* \"stage02/task01/MyToken.sol\":1005:1277  function approve(address spender, uint256 value) public virtual returns (bool) {... */\n      swap3\n      swap2\n      pop\n      pop\n      jump\t// out\n        /* \"stage02/task01/MyToken.sol\":1285:1933  function transferFrom(address from, address to, uint256 value) public returns (bool) {... */\n    tag_17:\n        /* \"stage02/task01/MyToken.sol\":1364:1368  bool */\n      0x00\n        /* \"stage02/task01/MyToken.sol\":1381:1395  address sender */\n      0x00\n        /* \"stage02/task01/MyToken.sol\":1398:1408  msg.sender */\n      caller\n        /* \"stage02/task01/MyToken.sol\":1381:1408  address sender = msg.sender */\n      swap1\n      pop\n        /* \"stage02/task01/MyToken.sol\":1419:1433  uint allowance */\n      0x00\n        /* \"stage02/task01/MyToken.sol\":1436:1446  allowances */\n      0x01\n        /* \"stage02/task01/MyToken.sol\":1436:1452  allowances[from] */\n      0x00\n        /* \"stage02/task01/MyToken.sol\":1447:1451  from */\n      dup8\n        /* \"stage02/task01/MyToken.sol\":1436:1452  allowances[from] */\n      0xffffffffffffffffffffffffffffffffffffffff\n      and\n      0xffffffffffffffffffffffffffffffffffffffff\n      and\n      dup2\n      mstore\n      0x20\n      add\n      swap1\n      dup2\n      mstore\n      0x20\n      add\n      0x00\n      keccak256\n        /* \"stage02/task01/MyToken.sol\":1436:1460  allowances[from][sender] */\n      0x00\n        /* \"stage02/task01/MyToken.sol\":1453:1459  sender */\n      dup4\n        /* \"stage02/task01/MyToken.sol\":1436:1460  allowances[from][sender] */\n      0xffffffffffffffffffffffffffffffffffffffff\n      and\n      0xffffffffffffffffffffffffffffffffffffffff\n      and\n      dup2\n      mstore\n      0x20\n      add\n      swap1\n      dup2\n      mstore\n      0x20\n      add\n      0x00\n      keccak256\n      sload\n        /* \"stage02/task01/MyToken.sol\":1419:1460  uint allowance = allowances[from][sender] */\n      swap1\n      pop\n        /* \"stage02/task01/MyToken.sol\":1486:1491  value */\n      dup4\n        /* \"stage02/task01/MyToken.sol\":1474:1483  allowance */\n      dup2\n        /* \"stage02/task01/MyToken.sol\":1474:1491  allowance < value */\n      lt\n        /* \"stage02/task01/MyToken.sol\":1471:1549  if(allowance < value){... */\n      iszero\n      tag_33\n      jumpi\n        /* \"stage02/task01/MyToken.sol\":1507:1537  revert(\"allowance not enough\") */\n      mload(0x40)\n      0x08c379a000000000000000000000000000000000000000000000000000000000\n      dup2\n      mstore\n      0x04\n      add\n      tag_34\n      swap1\n      tag_35\n      jump\t// in\n    tag_34:\n      mload(0x40)\n      dup1\n      swap2\n      sub\n      swap1\n      revert\n        /* \"stage02/task01/MyToken.sol\":1471:1549  if(allowance < value){... */\n    tag_33:\n        /* \"stage02/task01/MyToken.sol\":1629:1634  value */\n      dup4\n        /* \"stage02/task01/MyToken.sol\":1617:1626  allowance */\n      dup2\n        /* \"stage02/task01/MyToken.sol\":1617:1634  allowance - value */\n      tag_36\n      swap2\n      swap1\n      tag_37\n      jump\t// in\n    tag_36:\n        /* \"stage02/task01/MyToken.sol\":1590:1600  allowances */\n      0x01\n        /* \"stage02/task01/MyToken.sol\":1590:1606  allowances[from] */\n      0x00\n        /* \"stage02/task01/MyToken.sol\":1601:1605  from */\n      dup9\n        /* \"stage02/task01/MyToken.sol\":1590:1606  allowances[from] */\n      0xffffffffffffffffffffffffffffffffffffffff\n      and\n      0xffffffffffffffffffffffffffffffffffffffff\n      and\n      dup2\n      mstore\n      0x20\n      add\n      swap1\n      dup2\n      mstore\n      0x20\n      add\n      0x00\n      keccak256\n        /* \"stage02/task01/MyToken.sol\":1590:1614  allowances[from][sender] */\n      0x00\n        /* \"stage02/task01/MyToken.sol\":1607:1613  sender */\n      dup5\n        /* \"stage02/task01/MyToken.sol\":1590:1614  allowances[from][sender] */\n      0xffffffffffffffffffffffffffffffffffffffff\n      and\n      0xffffffffffffffffffffffffffffffffffffffff\n      and\n      dup2\n      mstore\n      0x20\n      add\n      swap1\n      dup2\n      mstore\n      0x20\n      add\n      0x00\n      keccak256\n        /* \"stage02/task01/MyToken.sol\":1590:1634  allowances[from][sender] = allowance - value */\n      dup2\n      swap1\n      sstore\n      pop\n        /* \"stage02/task01/MyToken.sol\":1676:1692  uint fromBalance */\n      0x00\n        /* \"stage02/task01/MyToken.sol\":1695:1706  balancesMap */\n      0x00\n        /* \"stage02/task01/MyToken.sol\":1695:1712  balancesMap[from] */\n      0x00\n        /* \"stage02/task01/MyToken.sol\":1707:1711  from */\n      dup9\n        /* \"stage02/task01/MyToken.sol\":1695:1712  balancesMap[from] */\n      0xffffffffffffffffffffffffffffffffffffffff\n      and\n      0xffffffffffffffffffffffffffffffffffffffff\n      and\n      dup2\n      mstore\n      0x20\n      add\n      swap1\n      dup2\n      mstore\n      0x20\n      add\n      0x00\n      keccak256\n      sload\n        /* \"stage02/task01/MyToken.sol\":1676:1712  uint fromBalance = balancesMap[from] */\n      swap1\n      pop\n        /* \"stage02/task01/MyToken.sol\":1740:1745  value */\n      dup5\n        /* \"stage02/task01/MyToken.sol\":1726:1737  fromBalance */\n      dup2\n        /* \"stage02/task01/MyToken.sol\":1726:1745  fromBalance < value */\n      lt\n        /* \"stage02/task01/MyToken.sol\":1723:1802  if(fromBalance < value ){... */\n      iszero\n      tag_38\n      jumpi\n        /* \"stage02/task01/MyToken.sol\":1762:1790  revert(\"balance not enough\") */\n      mload(0x40)\n      0x08c379a000000000000000000000000000000000000000000000000000000000\n      dup2\n      mstore\n      0x04\n      add\n      tag_39\n      swap1\n      tag_40\n      jump\t// in\n    tag_39:\n      mload(0x40)\n      dup1\n      swap2\n      sub\n      swap1\n      revert\n        /* \"stage02/task01/MyToken.sol\":1723:1802  if(fromBalance < value ){... */\n    tag_38:\n        /* \"stage02/task01/MyToken.sol\":1846:1851  value */\n      dup5\n        /* \"stage02/task01/MyToken.sol\":1832:1843  fromBalance */\n      dup2\n        /* \"stage02/task01/MyToken.sol\":1832:1851  fromBalance - value */\n      tag_41\n      swap2\n      swap1\n      tag_37\n      jump\t// in\n    tag_41:\n        /* \"stage02/task01/MyToken.sol\":1812:1823  balancesMap */\n      0x00\n        /* \"stage02/task01/MyToken.sol\":1812:1829  balancesMap[from] */\n      0x00\n        /* \"stage02/task01/MyToken.sol\":1824:1828  from */\n      dup10\n        /* \"stage02/task01/MyToken.sol\":1812:1829  balancesMap[from] */\n      0xffffffffffffffffffffffffffffffffffffffff\n      and\n      0xffffffffffffffffffffffffffffffffffffffff\n      and\n      dup2\n      mstore\n      0x20\n      add\n      swap1\n      dup2\n      mstore\n      0x20\n      add\n      0x00\n      keccak256\n        /* \"stage02/task01/MyToken.sol\":1812:1851  balancesMap[from] = fromBalance - value */\n      dup2\n      swap1\n      sstore\n      pop\n        /* \"stage02/task01/MyToken.sol\":1898:1903  value */\n      dup5\n        /* \"stage02/task01/MyToken.sol\":1880:1891  balancesMap */\n      0x00\n        /* \"stage02/task01/MyToken.sol\":1880:1895  balancesMap[to] */\n      0x00\n        /* \"stage02/task01/MyToken.sol\":1892:1894  to */\n      dup9\n        /* \"stage02/task01/MyToken.sol\":1880:1895  balancesMap[to] */\n      0xffffffffffffffffffffffffffffffffffffffff\n      and\n      0xffffffffffffffffffffffffffffffffffffffff\n      and\n      dup2\n      mstore\n      0x20\n      add\n      swap1\n      dup2\n      mstore\n      0x20\n      add\n      0x00\n      keccak256\n      sload\n        /* \"stage02/task01/MyToken.sol\":1880:1903  balancesMap[to] + value */\n      tag_42\n      swap2\n      swap1\n      tag_43\n      jump\t// in\n    tag_42:\n        /* \"stage02/task01/MyToken.sol\":1862:1873  balancesMap */\n      0x00\n        /* \"stage02/task01/MyToken.sol\":1862:1877  balancesMap[to] */\n      0x00\n        /* \"stage02/task01/MyToken.sol\":1874:1876  to */\n      dup9\n        /* \"stage02/task01/MyToken.sol\":1862:1877  balancesMap[to] */\n      0xffffffffffffffffffffffffffffffffffffffff\n      and\n      0xffffffffffffffffffffffffffffffffffffffff\n      and\n      dup2\n      mstore\n      0x20\n      add\n      swap1\n      dup2\n      mstore\n      0x20\n      add\n      0x00\n      keccak256\n        /* \"stage02/task01/MyToken.sol\":1862:1903  balancesMap[to] = balancesMap[to] + value */\n      dup2\n      swap1\n      sstore\n      pop\n        /* \"stage02/task01/MyToken.sol\":1921:1925  true */\n      0x01\n        /* \"stage02/task01/MyToken.sol\":1914:1925  return true */\n      swap4\n      pop\n      pop\n      pop\n      pop\n        /* \"stage02/task01/MyToken.sol\":1285:1933  function transferFrom(address from, address to, uint256 value) public returns (bool) {... */\n      swap4\n      swap3\n      pop\n      pop\n      pop\n      jump\t// out\n        /* \"stage02/task01/MyToken.sol\":1941:2195  function mint(address to, uint256 value) public {... */\n    tag_21:\n        /* \"stage02/task01/MyToken.sol\":2000:2014  address sender */\n      0x00\n        /* \"stage02/task01/MyToken.sol\":2017:2027  msg.sender */\n      caller\n        /* \"stage02/task01/MyToken.sol\":2000:2027  address sender = msg.sender */\n      swap1\n      pop\n        /* \"stage02/task01/MyToken.sol\":2051:2056  owner */\n      0x02\n      0x00\n      swap1\n      sload\n      swap1\n      0x0100\n      exp\n      swap1\n      div\n      0xffffffffffffffffffffffffffffffffffffffff\n      and\n        /* \"stage02/task01/MyToken.sol\":2041:2056  sender != owner */\n      0xffffffffffffffffffffffffffffffffffffffff\n      and\n        /* \"stage02/task01/MyToken.sol\":2041:2047  sender */\n      dup2\n        /* \"stage02/task01/MyToken.sol\":2041:2056  sender != owner */\n      0xffffffffffffffffffffffffffffffffffffffff\n      and\n      eq\n        /* \"stage02/task01/MyToken.sol\":2038:2103  if(sender != owner){... */\n      tag_45\n      jumpi\n        /* \"stage02/task01/MyToken.sol\":2072:2091  revert(\"not owner\") */\n      mload(0x40)\n      0x08c379a000000000000000000000000000000000000000000000000000000000\n      dup2\n      mstore\n      0x04\n      add\n      tag_46\n      swap1\n      tag_47\n      jump\t// in\n    tag_46:\n      mload(0x40)\n      dup1\n      swap2\n      sub\n      swap1\n      revert\n        /* \"stage02/task01/MyToken.sol\":2038:2103  if(sender != owner){... */\n    tag_45:\n        /* \"stage02/task01/MyToken.sol\":2113:2125  uint balance */\n      0x00\n        /* \"stage02/task01/MyToken.sol\":2128:2139  balancesMap */\n      0x00\n        /* \"stage02/task01/MyToken.sol\":2128:2143  balancesMap[to] */\n      0x00\n        /* \"stage02/task01/MyToken.sol\":2140:2142  to */\n      dup6\n        /* \"stage02/task01/MyToken.sol\":2128:2143  balancesMap[to] */\n      0xffffffffffffffffffffffffffffffffffffffff\n      and\n      0xffffffffffffffffffffffffffffffffffffffff\n      and\n      dup2\n      mstore\n      0x20\n      add\n      swap1\n      dup2\n      mstore\n      0x20\n      add\n      0x00\n      keccak256\n      sload\n        /* \"stage02/task01/MyToken.sol\":2113:2143  uint balance = balancesMap[to] */\n      swap1\n      pop\n        /* \"stage02/task01/MyToken.sol\":2182:2187  value */\n      dup3\n        /* \"stage02/task01/MyToken.sol\":2172:2179  balance */\n      dup2\n        /* \"stage02/task01/MyToken.sol\":2172:2187  balance + value */\n      tag_48\n      swap2\n      swap1\n      tag_43\n      jump\t// in\n    tag_48:\n        /* \"stage02/task01/MyToken.sol\":2154:2165  balancesMap */\n      0x00\n        /* \"stage02/task01/MyToken.sol\":2154:2169  balancesMap[to] */\n      0x00\n        /* \"stage02/task01/MyToken.sol\":2166:2168  to */\n      dup7\n        /* \"stage02/task01/MyToken.sol\":2154:2169  balancesMap[to] */\n      0xffffffffffffffffffffffffffffffffffffffff\n      and\n      0xffffffffffffffffffffffffffffffffffffffff\n      and\n      dup2\n      mstore\n      0x20\n      add\n      swap1\n      dup2\n      mstore\n      0x20\n      add\n      0x00\n      keccak256\n        /* \"stage02/task01/MyToken.sol\":2154:2187  balancesMap[to] = balance + value */\n      dup2\n      swap1\n      sstore\n      pop\n        /* \"stage02/task01/MyToken.sol\":1989:2195  {... */\n      pop\n      pop\n        /* \"stage02/task01/MyToken.sol\":1941:2195  function mint(address to, uint256 value) public {... */\n      pop\n      pop\n      jump\t// out\n        /* \"stage02/task01/MyToken.sol\":500:611  function balanceOf(address _address) public view returns (uint) {... */\n    tag_25:\n        /* \"stage02/task01/MyToken.sol\":558:562  uint */\n      0x00\n        /* \"stage02/task01/MyToken.sol\":582:593  balancesMap */\n      0x00\n        /* \"stage02/task01/MyToken.sol\":582:603  balancesMap[_address] */\n      0x00\n        /* \"stage02/task01/MyToken.sol\":594:602  _address */\n      dup4\n        /* \"stage02/task01/MyToken.sol\":582:603  balancesMap[_address] */\n      0xffffffffffffffffffffffffffffffffffffffff\n      and\n      0xffffffffffffffffffffffffffffffffffffffff\n      and\n      dup2\n      mstore\n      0x20\n      add\n      swap1\n      dup2\n      mstore\n      0x20\n      add\n      0x00\n      keccak256\n      sload\n        /* \"stage02/task01/MyToken.sol\":575:603  return balancesMap[_address] */\n      swap1\n      pop\n        /* \"stage02/task01/MyToken.sol\":500:611  function balanceOf(address _address) public view returns (uint) {... */\n      swap2\n      swap1\n      pop\n      jump\t// out\n        /* \"stage02/task01/MyToken.sol\":619:997  function transfer(address  to, uint256 value) public {... */\n    tag_30:\n        /* \"stage02/task01/MyToken.sol\":683:695  address from */\n      0x00\n        /* \"stage02/task01/MyToken.sol\":698:708  msg.sender */\n      caller\n        /* \"stage02/task01/MyToken.sol\":683:708  address from = msg.sender */\n      swap1\n      pop\n        /* \"stage02/task01/MyToken.sol\":719:736  uint fromTokenNum */\n      0x00\n        /* \"stage02/task01/MyToken.sol\":739:750  balancesMap */\n      0x00\n        /* \"stage02/task01/MyToken.sol\":739:756  balancesMap[from] */\n      0x00\n        /* \"stage02/task01/MyToken.sol\":751:755  from */\n      dup4\n        /* \"stage02/task01/MyToken.sol\":739:756  balancesMap[from] */\n      0xffffffffffffffffffffffffffffffffffffffff\n      and\n      0xffffffffffffffffffffffffffffffffffffffff\n      and\n      dup2\n      mstore\n      0x20\n      add\n      swap1\n      dup2\n      mstore\n      0x20\n      add\n      0x00\n      keccak256\n      sload\n        /* \"stage02/task01/MyToken.sol\":719:756  uint fromTokenNum = balancesMap[from] */\n      swap1\n      pop\n        /* \"stage02/task01/MyToken.sol\":785:790  value */\n      dup3\n        /* \"stage02/task01/MyToken.sol\":770:782  fromTokenNum */\n      dup2\n        /* \"stage02/task01/MyToken.sol\":770:790  fromTokenNum < value */\n      lt\n        /* \"stage02/task01/MyToken.sol\":767:846  if(fromTokenNum < value){... */\n      iszero\n      tag_51\n      jumpi\n        /* \"stage02/task01/MyToken.sol\":806:834  revert(\"balance not enough\") */\n      mload(0x40)\n      0x08c379a000000000000000000000000000000000000000000000000000000000\n      dup2\n      mstore\n      0x04\n      add\n      tag_52\n      swap1\n      tag_40\n      jump\t// in\n    tag_52:\n      mload(0x40)\n      dup1\n      swap2\n      sub\n      swap1\n      revert\n        /* \"stage02/task01/MyToken.sol\":767:846  if(fromTokenNum < value){... */\n    tag_51:\n        /* \"stage02/task01/MyToken.sol\":891:896  value */\n      dup3\n        /* \"stage02/task01/MyToken.sol\":876:888  fromTokenNum */\n      dup2\n        /* \"stage02/task01/MyToken.sol\":876:896  fromTokenNum - value */\n      tag_53\n      swap2\n      swap1\n      tag_37\n      jump\t// in\n    tag_53:\n        /* \"stage02/task01/MyToken.sol\":856:867  balancesMap */\n      0x00\n        /* \"stage02/task01/MyToken.sol\":856:873  balancesMap[from] */\n      0x00\n        /* \"stage02/task01/MyToken.sol\":868:872  from */\n      dup5\n        /* \"stage02/task01/MyToken.sol\":856:873  balancesMap[from] */\n      0xffffffffffffffffffffffffffffffffffffffff\n      and\n      0xffffffffffffffffffffffffffffffffffffffff\n      and\n      dup2\n      mstore\n      0x20\n      add\n      swap1\n      dup2\n      mstore\n      0x20\n      add\n      0x00\n      keccak256\n        /* \"stage02/task01/MyToken.sol\":856:896  balancesMap[from] = fromTokenNum - value */\n      dup2\n      swap1\n      sstore\n      pop\n        /* \"stage02/task01/MyToken.sol\":943:948  value */\n      dup3\n        /* \"stage02/task01/MyToken.sol\":925:936  balancesMap */\n      0x00\n        /* \"stage02/task01/MyToken.sol\":925:940  balancesMap[to] */\n      0x00\n        /* \"stage02/task01/MyToken.sol\":937:939  to */\n      dup7\n        /* \"stage02/task01/MyToken.sol\":925:940  balancesMap[to] */\n      0xffffffffffffffffffffffffffffffffffffffff\n      and\n      0xffffffffffffffffffffffffffffffffffffffff\n      and\n      dup2\n      mstore\n      0x20\n      add\n      swap1\n      dup2\n      mstore\n      0x20\n      add\n      0x00\n      keccak256\n      sload\n        /* \"stage02/task01/MyToken.sol\":925:948  balancesMap[to] + value */\n      tag_54\n      swap2\n      swap1\n      tag_43\n      jump\t// in\n    tag_54:\n        /* \"stage02/task01/MyToken.sol\":907:918  balancesMap */\n      0x00\n        /* \"stage02/task01/MyToken.sol\":907:922  balancesMap[to] */\n      0x00\n        /* \"stage02/task01/MyToken.sol\":919:921  to */\n      dup7\n        /* \"stage02/task01/MyToken.sol\":907:922  balancesMap[to] */\n      0xffffffffffffffffffffffffffffffffffffffff\n      and\n      0xffffffffffffffffffffffffffffffffffffffff\n      and\n      dup2\n      mstore\n      0x20\n      add\n      swap1\n      dup2\n      mstore\n      0x20\n      add\n      0x00\n      keccak256\n        /* \"stage02/task01/MyToken.sol\":907:948  balancesMap[to] = balancesMap[to] + value */\n      dup2\n      swap1\n      sstore\n      pop\n        /* \"stage02/task01/MyToken.sol\":983:988  value */\n      dup3\n        /* \"stage02/task01/MyToken.sol\":979:981  to */\n      dup5\n        /* \"stage02/task01/MyToken.sol\":964:989  Transfer(from, to, value) */\n      0xffffffffffffffffffffffffffffffffffffffff\n      and\n        /* \"stage02/task01/MyToken.sol\":973:977  from */\n      dup4\n        /* \"stage02/task01/MyToken.sol\":964:989  Transfer(from, to, value) */\n      0xffffffffffffffffffffffffffffffffffffffff\n      and\n      0xddf252ad1be2c89b69c2b068fc378daa952ba7f163c4a11628f55a4df523b3ef\n      mload(0x40)\n      mload(0x40)\n      dup1\n      swap2\n      sub\n      swap1\n      log4\n        /* \"stage02/task01/MyToken.sol\":672:997  {... */\n      pop\n      pop\n        /* \"stage02/task01/MyToken.sol\":619:997  function transfer(address  to, uint256 value) public {... */\n      pop\n      pop\n      jump\t// out\n        /* \"#utility.yul\":88:205   */\n    tag_56:\n        /* \"#utility.yul\":197:198   */\n      0x00\n        /* \"#utility.yul\":194:195   */\n      0x00\n        /* \"#utility.yul\":187:199   */\n      revert\n        /* \"#utility.yul\":334:460   */\n    tag_58:\n        /* \"#utility.yul\":371:378   */\n      0x00\n        /* \"#utility.yul\":411:453   */\n      0xffffffffffffffffffffffffffffffffffffffff\n        /* \"#utility.yul\":404:409   */\n      dup3\n        /* \"#utility.yul\":400:454   */\n      and\n        /* \"#utility.yul\":389:454   */\n      swap1\n      pop\n        /* \"#utility.yul\":334:460   */\n      swap2\n      swap1\n      pop\n      jump\t// out\n        /* \"#utility.yul\":466:562   */\n    tag_59:\n        /* \"#utility.yul\":503:510   */\n      0x00\n        /* \"#utility.yul\":532:556   */\n      tag_82\n        /* \"#utility.yul\":550:555   */\n      dup3\n        /* \"#utility.yul\":532:556   */\n      tag_58\n      jump\t// in\n    tag_82:\n        /* \"#utility.yul\":521:556   */\n      swap1\n      pop\n        /* \"#utility.yul\":466:562   */\n      swap2\n      swap1\n      pop\n      jump\t// out\n        /* \"#utility.yul\":568:690   */\n    tag_60:\n        /* \"#utility.yul\":641:665   */\n      tag_84\n        /* \"#utility.yul\":659:664   */\n      dup2\n        /* \"#utility.yul\":641:665   */\n      tag_59\n      jump\t// in\n    tag_84:\n        /* \"#utility.yul\":634:639   */\n      dup2\n        /* \"#utility.yul\":631:666   */\n      eq\n        /* \"#utility.yul\":621:684   */\n      tag_85\n      jumpi\n        /* \"#utility.yul\":680:681   */\n      0x00\n        /* \"#utility.yul\":677:678   */\n      0x00\n        /* \"#utility.yul\":670:682   */\n      revert\n        /* \"#utility.yul\":621:684   */\n    tag_85:\n        /* \"#utility.yul\":568:690   */\n      pop\n      jump\t// out\n        /* \"#utility.yul\":696:835   */\n    tag_61:\n        /* \"#utility.yul\":742:747   */\n      0x00\n        /* \"#utility.yul\":780:786   */\n      dup2\n        /* \"#utility.yul\":767:787   */\n      calldataload\n        /* \"#utility.yul\":758:787   */\n      swap1\n      pop\n        /* \"#utility.yul\":796:829   */\n      tag_87\n        /* \"#utility.yul\":823:828   */\n      dup2\n        /* \"#utility.yul\":796:829   */\n      tag_60\n      jump\t// in\n    tag_87:\n        /* \"#utility.yul\":696:835   */\n      swap3\n      swap2\n      pop\n      pop\n      jump\t// out\n        /* \"#utility.yul\":841:918   */\n    tag_62:\n        /* \"#utility.yul\":878:885   */\n      0x00\n        /* \"#utility.yul\":907:912   */\n      dup2\n        /* \"#utility.yul\":896:912   */\n      swap1\n      pop\n        /* \"#utility.yul\":841:918   */\n      swap2\n      swap1\n      pop\n      jump\t// out\n        /* \"#utility.yul\":924:1046   */\n    tag_63:\n        /* \"#utility.yul\":997:1021   */\n      tag_90\n        /* \"#utility.yul\":1015:1020   */\n      dup2\n        /* \"#utility.yul\":997:1021   */\n      tag_62\n      jump\t// in\n    tag_90:\n        /* \"#utility.yul\":990:995   */\n      dup2\n        /* \"#utility.yul\":987:1022   */\n      eq\n        /* \"#utility.yul\":977:1040   */\n      tag_91\n      jumpi\n        /* \"#utility.yul\":1036:1037   */\n      0x00\n        /* \"#utility.yul\":1033:1034   */\n      0x00\n        /* \"#utility.yul\":1026:1038   */\n      revert\n        /* \"#utility.yul\":977:1040   */\n    tag_91:\n        /* \"#utility.yul\":924:1046   */\n      pop\n      jump\t// out\n        /* \"#utility.yul\":1052:1191   */\n    tag_64:\n        /* \"#utility.yul\":1098:1103   */\n      0x00\n        /* \"#utility.yul\":1136:1142   */\n      dup2\n        /* \"#utility.yul\":1123:1143   */\n      calldataload\n        /* \"#utility.yul\":1114:1143   */\n      swap1\n      pop\n        /* \"#utility.yul\":1152:1185   */\n      tag_93\n        /* \"#utility.yul\":1179:1184   */\n      dup2\n        /* \"#utility.yul\":1152:1185   */\n      tag_63\n      jump\t// in\n    tag_93:\n        /* \"#utility.yul\":1052:1191   */\n      swap3\n      swap2\n      pop\n      pop\n      jump\t// out\n        /* \"#utility.yul\":1197:1671   */\n    tag_10:\n        /* \"#utility.yul\":1265:1271   */\n      0x00\n        /* \"#utility.yul\":1273:1279   */\n      0x00\n        /* \"#utility.yul\":1322:1324   */\n      0x40\n        /* \"#utility.yul\":1310:1319   */\n      dup4\n        /* \"#utility.yul\":1301:1308   */\n      dup6\n        /* \"#utility.yul\":1297:1320   */\n      sub\n        /* \"#utility.yul\":1293:1325   */\n      slt\n        /* \"#utility.yul\":1290:1409   */\n      iszero\n      tag_95\n      jumpi\n        /* \"#utility.yul\":1328:1407   */\n      tag_96\n      tag_56\n      jump\t// in\n    tag_96:\n        /* \"#utility.yul\":1290:1409   */\n    tag_95:\n        /* \"#utility.yul\":1448:1449   */\n      0x00\n        /* \"#utility.yul\":1473:1526   */\n      tag_97\n        /* \"#utility.yul\":1518:1525   */\n      dup6\n        /* \"#utility.yul\":1509:1515   */\n      dup3\n        /* \"#utility.yul\":1498:1507   */\n      dup7\n        /* \"#utility.yul\":1494:1516   */\n      add\n        /* \"#utility.yul\":1473:1526   */\n      tag_61\n      jump\t// in\n    tag_97:\n        /* \"#utility.yul\":1463:1526   */\n      swap3\n      pop\n        /* \"#utility.yul\":1419:1536   */\n      pop\n        /* \"#utility.yul\":1575:1577   */\n      0x20\n        /* \"#utility.yul\":1601:1654   */\n      tag_98\n        /* \"#utility.yul\":1646:1653   */\n      dup6\n        /* \"#utility.yul\":1637:1643   */\n      dup3\n        /* \"#utility.yul\":1626:1635   */\n      dup7\n        /* \"#utility.yul\":1622:1644   */\n      add\n        /* \"#utility.yul\":1601:1654   */\n      tag_64\n      jump\t// in\n    tag_98:\n        /* \"#utility.yul\":1591:1654   */\n      swap2\n      pop\n        /* \"#utility.yul\":1546:1664   */\n      pop\n        /* \"#utility.yul\":1197:1671   */\n      swap3\n      pop\n      swap3\n      swap1\n      pop\n      jump\t// out\n        /* \"#utility.yul\":1677:1767   */\n    tag_65:\n        /* \"#utility.yul\":1711:1718   */\n      0x00\n        /* \"#utility.yul\":1754:1759   */\n      dup2\n        /* \"#utility.yul\":1747:1760   */\n      iszero\n        /* \"#utility.yul\":1740:1761   */\n      iszero\n        /* \"#utility.yul\":1729:1761   */\n      swap1\n      pop\n        /* \"#utility.yul\":1677:1767   */\n      swap2\n      swap1\n      pop\n      jump\t// out\n        /* \"#utility.yul\":1773:1882   */\n    tag_66:\n        /* \"#utility.yul\":1854:1875   */\n      tag_101\n        /* \"#utility.yul\":1869:1874   */\n      dup2\n        /* \"#utility.yul\":1854:1875   */\n      tag_65\n      jump\t// in\n    tag_101:\n        /* \"#utility.yul\":1849:1852   */\n      dup3\n        /* \"#utility.yul\":1842:1876   */\n      mstore\n        /* \"#utility.yul\":1773:1882   */\n      pop\n      pop\n      jump\t// out\n        /* \"#utility.yul\":1888:2098   */\n    tag_13:\n        /* \"#utility.yul\":1975:1979   */\n      0x00\n        /* \"#utility.yul\":2013:2015   */\n      0x20\n        /* \"#utility.yul\":2002:2011   */\n      dup3\n        /* \"#utility.yul\":1998:2016   */\n      add\n        /* \"#utility.yul\":1990:2016   */\n      swap1\n      pop\n        /* \"#utility.yul\":2026:2091   */\n      tag_103\n        /* \"#utility.yul\":2088:2089   */\n      0x00\n        /* \"#utility.yul\":2077:2086   */\n      dup4\n        /* \"#utility.yul\":2073:2090   */\n      add\n        /* \"#utility.yul\":2064:2070   */\n      dup5\n        /* \"#utility.yul\":2026:2091   */\n      tag_66\n      jump\t// in\n    tag_103:\n        /* \"#utility.yul\":1888:2098   */\n      swap3\n      swap2\n      pop\n      pop\n      jump\t// out\n        /* \"#utility.yul\":2104:2723   */\n    tag_16:\n        /* \"#utility.yul\":2181:2187   */\n      0x00\n        /* \"#utility.yul\":2189:2195   */\n      0x00\n        /* \"#utility.yul\":2197:2203   */\n      0x00\n        /* \"#utility.yul\":2246:2248   */\n      0x60\n        /* \"#utility.yul\":2234:2243   */\n      dup5\n        /* \"#utility.yul\":2225:2232   */\n      dup7\n        /* \"#utility.yul\":2221:2244   */\n      sub\n        /* \"#utility.yul\":2217:2249   */\n      slt\n        /* \"#utility.yul\":2214:2333   */\n      iszero\n      tag_105\n      jumpi\n        /* \"#utility.yul\":2252:2331   */\n      tag_106\n      tag_56\n      jump\t// in\n    tag_106:\n        /* \"#utility.yul\":2214:2333   */\n    tag_105:\n        /* \"#utility.yul\":2372:2373   */\n      0x00\n        /* \"#utility.yul\":2397:2450   */\n      tag_107\n        /* \"#utility.yul\":2442:2449   */\n      dup7\n        /* \"#utility.yul\":2433:2439   */\n      dup3\n        /* \"#utility.yul\":2422:2431   */\n      dup8\n        /* \"#utility.yul\":2418:2440   */\n      add\n        /* \"#utility.yul\":2397:2450   */\n      tag_61\n      jump\t// in\n    tag_107:\n        /* \"#utility.yul\":2387:2450   */\n      swap4\n      pop\n        /* \"#utility.yul\":2343:2460   */\n      pop\n        /* \"#utility.yul\":2499:2501   */\n      0x20\n        /* \"#utility.yul\":2525:2578   */\n      tag_108\n        /* \"#utility.yul\":2570:2577   */\n      dup7\n        /* \"#utility.yul\":2561:2567   */\n      dup3\n        /* \"#utility.yul\":2550:2559   */\n      dup8\n        /* \"#utility.yul\":2546:2568   */\n      add\n        /* \"#utility.yul\":2525:2578   */\n      tag_61\n      jump\t// in\n    tag_108:\n        /* \"#utility.yul\":2515:2578   */\n      swap3\n      pop\n        /* \"#utility.yul\":2470:2588   */\n      pop\n        /* \"#utility.yul\":2627:2629   */\n      0x40\n        /* \"#utility.yul\":2653:2706   */\n      tag_109\n        /* \"#utility.yul\":2698:2705   */\n      dup7\n        /* \"#utility.yul\":2689:2695   */\n      dup3\n        /* \"#utility.yul\":2678:2687   */\n      dup8\n        /* \"#utility.yul\":2674:2696   */\n      add\n        /* \"#utility.yul\":2653:2706   */\n      tag_64\n      jump\t// in\n    tag_109:\n        /* \"#utility.yul\":2643:2706   */\n      swap2\n      pop\n        /* \"#utility.yul\":2598:2716   */\n      pop\n        /* \"#utility.yul\":2104:2723   */\n      swap3\n      pop\n      swap3\n      pop\n      swap3\n      jump\t// out\n        /* \"#utility.yul\":2729:3058   */\n    tag_24:\n        /* \"#utility.yul\":2788:2794   */\n      0x00\n        /* \"#utility.yul\":2837:2839   */\n      0x20\n        /* \"#utility.yul\":2825:2834   */\n      dup3\n        /* \"#utility.yul\":2816:2823   */\n      dup5\n        /* \"#utility.yul\":2812:2835   */\n      sub\n        /* \"#utility.yul\":2808:2840   */\n      slt\n        /* \"#utility.yul\":2805:2924   */\n      iszero\n      tag_111\n      jumpi\n        /* \"#utility.yul\":2843:2922   */\n      tag_112\n      tag_56\n      jump\t// in\n    tag_112:\n        /* \"#utility.yul\":2805:2924   */\n    tag_111:\n        /* \"#utility.yul\":2963:2964   */\n      0x00\n        /* \"#utility.yul\":2988:3041   */\n      tag_113\n        /* \"#utility.yul\":3033:3040   */\n      dup5\n        /* \"#utility.yul\":3024:3030   */\n      dup3\n        /* \"#utility.yul\":3013:3022   */\n      dup6\n        /* \"#utility.yul\":3009:3031   */\n      add\n        /* \"#utility.yul\":2988:3041   */\n      tag_61\n      jump\t// in\n    tag_113:\n        /* \"#utility.yul\":2978:3041   */\n      swap2\n      pop\n        /* \"#utility.yul\":2934:3051   */\n      pop\n        /* \"#utility.yul\":2729:3058   */\n      swap3\n      swap2\n      pop\n      pop\n      jump\t// out\n        /* \"#utility.yul\":3064:3182   */\n    tag_67:\n        /* \"#utility.yul\":3151:3175   */\n      tag_115\n        /* \"#utility.yul\":3169:3174   */\n      dup2\n        /* \"#utility.yul\":3151:3175   */\n      tag_62\n      jump\t// in\n    tag_115:\n        /* \"#utility.yul\":3146:3149   */\n      dup3\n        /* \"#utility.yul\":3139:3176   */\n      mstore\n        /* \"#utility.yul\":3064:3182   */\n      pop\n      pop\n      jump\t// out\n        /* \"#utility.yul\":3188:3410   */\n    tag_27:\n        /* \"#utility.yul\":3281:3285   */\n      0x00\n        /* \"#utility.yul\":3319:3321   */\n      0x20\n        /* \"#utility.yul\":3308:3317   */\n      dup3\n        /* \"#utility.yul\":3304:3322   */\n      add\n        /* \"#utility.yul\":3296:3322   */\n      swap1\n      pop\n        /* \"#utility.yul\":3332:3403   */\n      tag_117\n        /* \"#utility.yul\":3400:3401   */\n      0x00\n        /* \"#utility.yul\":3389:3398   */\n      dup4\n        /* \"#utility.yul\":3385:3402   */\n      add\n        /* \"#utility.yul\":3376:3382   */\n      dup5\n        /* \"#utility.yul\":3332:3403   */\n      tag_67\n      jump\t// in\n    tag_117:\n        /* \"#utility.yul\":3188:3410   */\n      swap3\n      swap2\n      pop\n      pop\n      jump\t// out\n        /* \"#utility.yul\":3416:3585   */\n    tag_68:\n        /* \"#utility.yul\":3500:3511   */\n      0x00\n        /* \"#utility.yul\":3534:3540   */\n      dup3\n        /* \"#utility.yul\":3529:3532   */\n      dup3\n        /* \"#utility.yul\":3522:3541   */\n      mstore\n        /* \"#utility.yul\":3574:3578   */\n      0x20\n        /* \"#utility.yul\":3569:3572   */\n      dup3\n        /* \"#utility.yul\":3565:3579   */\n      add\n        /* \"#utility.yul\":3550:3579   */\n      swap1\n      pop\n        /* \"#utility.yul\":3416:3585   */\n      swap3\n      swap2\n      pop\n      pop\n      jump\t// out\n        /* \"#utility.yul\":3591:3761   */\n    tag_69:\n        /* \"#utility.yul\":3731:3753   */\n      0x616c6c6f77616e6365206e6f7420656e6f756768000000000000000000000000\n        /* \"#utility.yul\":3727:3728   */\n      0x00\n        /* \"#utility.yul\":3719:3725   */\n      dup3\n        /* \"#utility.yul\":3715:3729   */\n      add\n        /* \"#utility.yul\":3708:3754   */\n      mstore\n        /* \"#utility.yul\":3591:3761   */\n      pop\n      jump\t// out\n        /* \"#utility.yul\":3767:4133   */\n    tag_70:\n        /* \"#utility.yul\":3909:3912   */\n      0x00\n        /* \"#utility.yul\":3930:3997   */\n      tag_121\n        /* \"#utility.yul\":3994:3996   */\n      0x14\n        /* \"#utility.yul\":3989:3992   */\n      dup4\n        /* \"#utility.yul\":3930:3997   */\n      tag_68\n      jump\t// in\n    tag_121:\n        /* \"#utility.yul\":3923:3997   */\n      swap2\n      pop\n        /* \"#utility.yul\":4006:4099   */\n      tag_122\n        /* \"#utility.yul\":4095:4098   */\n      dup3\n        /* \"#utility.yul\":4006:4099   */\n      tag_69\n      jump\t// in\n    tag_122:\n        /* \"#utility.yul\":4124:4126   */\n      0x20\n        /* \"#utility.yul\":4119:4122   */\n      dup3\n        /* \"#utility.yul\":4115:4127   */\n      add\n        /* \"#utility.yul\":4108:4127   */\n      swap1\n      pop\n        /* \"#utility.yul\":3767:4133   */\n      swap2\n      swap1\n      pop\n      jump\t// out\n        /* \"#utility.yul\":4139:4558   */\n    tag_35:\n        /* \"#utility.yul\":4305:4309   */\n      0x00\n        /* \"#utility.yul\":4343:4345   */\n      0x20\n        /* \"#utility.yul\":4332:4341   */\n      dup3\n        /* \"#utility.yul\":4328:4346   */\n      add\n        /* \"#utility.yul\":4320:4346   */\n      swap1\n      pop\n        /* \"#utility.yul\":4392:4401   */\n      dup2\n        /* \"#utility.yul\":4386:4390   */\n      dup2\n        /* \"#utility.yul\":4382:4402   */\n      sub\n        /* \"#utility.yul\":4378:4379   */\n      0x00\n        /* \"#utility.yul\":4367:4376   */\n      dup4\n        /* \"#utility.yul\":4363:4380   */\n      add\n        /* \"#utility.yul\":4356:4403   */\n      mstore\n        /* \"#utility.yul\":4420:4551   */\n      tag_124\n        /* \"#utility.yul\":4546:4550   */\n      dup2\n        /* \"#utility.yul\":4420:4551   */\n      tag_70\n      jump\t// in\n    tag_124:\n        /* \"#utility.yul\":4412:4551   */\n      swap1\n      pop\n        /* \"#utility.yul\":4139:4558   */\n      swap2\n      swap1\n      pop\n      jump\t// out\n        /* \"#utility.yul\":4564:4744   */\n    tag_71:\n        /* \"#utility.yul\":4612:4689   */\n      0x4e487b7100000000000000000000000000000000000000000000000000000000\n        /* \"#utility.yul\":4609:4610   */\n      0x00\n        /* \"#utility.yul\":4602:4690   */\n      mstore\n        /* \"#utility.yul\":4709:4713   */\n      0x11\n        /* \"#utility.yul\":4706:4707   */\n      0x04\n        /* \"#utility.yul\":4699:4714   */\n      mstore\n        /* \"#utility.yul\":4733:4737   */\n      0x24\n        /* \"#utility.yul\":4730:4731   */\n      0x00\n        /* \"#utility.yul\":4723:4738   */\n      revert\n        /* \"#utility.yul\":4750:4944   */\n    tag_37:\n        /* \"#utility.yul\":4790:4794   */\n      0x00\n        /* \"#utility.yul\":4810:4830   */\n      tag_127\n        /* \"#utility.yul\":4828:4829   */\n      dup3\n        /* \"#utility.yul\":4810:4830   */\n      tag_62\n      jump\t// in\n    tag_127:\n        /* \"#utility.yul\":4805:4830   */\n      swap2\n      pop\n        /* \"#utility.yul\":4844:4864   */\n      tag_128\n        /* \"#utility.yul\":4862:4863   */\n      dup4\n        /* \"#utility.yul\":4844:4864   */\n      tag_62\n      jump\t// in\n    tag_128:\n        /* \"#utility.yul\":4839:4864   */\n      swap3\n      pop\n        /* \"#utility.yul\":4888:4889   */\n      dup3\n        /* \"#utility.yul\":4885:4886   */\n      dup3\n        /* \"#utility.yul\":4881:4890   */\n      sub\n        /* \"#utility.yul\":4873:4890   */\n      swap1\n      pop\n        /* \"#utility.yul\":4912:4913   */\n      dup2\n        /* \"#utility.yul\":4906:4910   */\n      dup2\n        /* \"#utility.yul\":4903:4914   */\n      gt\n        /* \"#utility.yul\":4900:4937   */\n      iszero\n      tag_129\n      jumpi\n        /* \"#utility.yul\":4917:4935   */\n      tag_130\n      tag_71\n      jump\t// in\n    tag_130:\n        /* \"#utility.yul\":4900:4937   */\n    tag_129:\n        /* \"#utility.yul\":4750:4944   */\n      swap3\n      swap2\n      pop\n      pop\n      jump\t// out\n        /* \"#utility.yul\":4950:5118   */\n    tag_72:\n        /* \"#utility.yul\":5090:5110   */\n      0x62616c616e6365206e6f7420656e6f7567680000000000000000000000000000\n        /* \"#utility.yul\":5086:5087   */\n      0x00\n        /* \"#utility.yul\":5078:5084   */\n      dup3\n        /* \"#utility.yul\":5074:5088   */\n      add\n        /* \"#utility.yul\":5067:5111   */\n      mstore\n        /* \"#utility.yul\":4950:5118   */\n      pop\n      jump\t// out\n        /* \"#utility.yul\":5124:5490   */\n    tag_73:\n        /* \"#utility.yul\":5266:5269   */\n      0x00\n        /* \"#utility.yul\":5287:5354   */\n      tag_133\n        /* \"#utility.yul\":5351:5353   */\n      0x12\n        /* \"#utility.yul\":5346:5349   */\n      dup4\n        /* \"#utility.yul\":5287:5354   */\n      tag_68\n      jump\t// in\n    tag_133:\n        /* \"#utility.yul\":5280:5354   */\n      swap2\n      pop\n        /* \"#utility.yul\":5363:5456   */\n      tag_134\n        /* \"#utility.yul\":5452:5455   */\n      dup3\n        /* \"#utility.yul\":5363:5456   */\n      tag_72\n      jump\t// in\n    tag_134:\n        /* \"#utility.yul\":5481:5483   */\n      0x20\n        /* \"#utility.yul\":5476:5479   */\n      dup3\n        /* \"#utility.yul\":5472:5484   */\n      add\n        /* \"#utility.yul\":5465:5484   */\n      swap1\n      pop\n        /* \"#utility.yul\":5124:5490   */\n      swap2\n      swap1\n      pop\n      jump\t// out\n        /* \"#utility.yul\":5496:5915   */\n    tag_40:\n        /* \"#utility.yul\":5662:5666   */\n      0x00\n        /* \"#utility.yul\":5700:5702   */\n      0x20\n        /* \"#utility.yul\":5689:5698   */\n      dup3\n        /* \"#utility.yul\":5685:5703   */\n      add\n        /* \"#utility.yul\":5677:5703   */\n      swap1\n      pop\n        /* \"#utility.yul\":5749:5758   */\n      dup2\n        /* \"#utility.yul\":5743:5747   */\n      dup2\n        /* \"#utility.yul\":5739:5759   */\n      sub\n        /* \"#utility.yul\":5735:5736   */\n      0x00\n        /* \"#utility.yul\":5724:5733   */\n      dup4\n        /* \"#utility.yul\":5720:5737   */\n      add\n        /* \"#utility.yul\":5713:5760   */\n      mstore\n        /* \"#utility.yul\":5777:5908   */\n      tag_136\n        /* \"#utility.yul\":5903:5907   */\n      dup2\n        /* \"#utility.yul\":5777:5908   */\n      tag_73\n      jump\t// in\n    tag_136:\n        /* \"#utility.yul\":5769:5908   */\n      swap1\n      pop\n        /* \"#utility.yul\":5496:5915   */\n      swap2\n      swap1\n      pop\n      jump\t// out\n        /* \"#utility.yul\":5921:6112   */\n    tag_43:\n        /* \"#utility.yul\":5961:5964   */\n      0x00\n        /* \"#utility.yul\":5980:6000   */\n      tag_138\n        /* \"#utility.yul\":5998:5999   */\n      dup3\n        /* \"#utility.yul\":5980:6000   */\n      tag_62\n      jump\t// in\n    tag_138:\n        /* \"#utility.yul\":5975:6000   */\n      swap2\n      pop\n        /* \"#utility.yul\":6014:6034   */\n      tag_139\n        /* \"#utility.yul\":6032:6033   */\n      dup4\n        /* \"#utility.yul\":6014:6034   */\n      tag_62\n      jump\t// in\n    tag_139:\n        /* \"#utility.yul\":6009:6034   */\n      swap3\n      pop\n        /* \"#utility.yul\":6057:6058   */\n      dup3\n        /* \"#utility.yul\":6054:6055   */\n      dup3\n        /* \"#utility.yul\":6050:6059   */\n      add\n        /* \"#utility.yul\":6043:6059   */\n      swap1\n      pop\n        /* \"#utility.yul\":6078:6081   */\n      dup1\n        /* \"#utility.yul\":6075:6076   */\n      dup3\n        /* \"#utility.yul\":6072:6082   */\n      gt\n        /* \"#utility.yul\":6069:6105   */\n      iszero\n      tag_140\n      jumpi\n        /* \"#utility.yul\":6085:6103   */\n      tag_141\n      tag_71\n      jump\t// in\n    tag_141:\n        /* \"#utility.yul\":6069:6105   */\n    tag_140:\n        /* \"#utility.yul\":5921:6112   */\n      swap3\n      swap2\n      pop\n      pop\n      jump\t// out\n        /* \"#utility.yul\":6118:6277   */\n    tag_74:\n        /* \"#utility.yul\":6258:6269   */\n      0x6e6f74206f776e65720000000000000000000000000000000000000000000000\n        /* \"#utility.yul\":6254:6255   */\n      0x00\n        /* \"#utility.yul\":6246:6252   */\n      dup3\n        /* \"#utility.yul\":6242:6256   */\n      add\n        /* \"#utility.yul\":6235:6270   */\n      mstore\n        /* \"#utility.yul\":6118:6277   */\n      pop\n      jump\t// out\n        /* \"#utility.yul\":6283:6648   */\n    tag_75:\n        /* \"#utility.yul\":6425:6428   */\n      0x00\n        /* \"#utility.yul\":6446:6512   */\n      tag_144\n        /* \"#utility.yul\":6510:6511   */\n      0x09\n        /* \"#utility.yul\":6505:6508   */\n      dup4\n        /* \"#utility.yul\":6446:6512   */\n      tag_68\n      jump\t// in\n    tag_144:\n        /* \"#utility.yul\":6439:6512   */\n      swap2\n      pop\n        /* \"#utility.yul\":6521:6614   */\n      tag_145\n        /* \"#utility.yul\":6610:6613   */\n      dup3\n        /* \"#utility.yul\":6521:6614   */\n      tag_74\n      jump\t// in\n    tag_145:\n        /* \"#utility.yul\":6639:6641   */\n      0x20\n        /* \"#utility.yul\":6634:6637   */\n      dup3\n        /* \"#utility.yul\":6630:6642   */\n      add\n        /* \"#utility.yul\":6623:6642   */\n      swap1\n      pop\n        /* \"#utility.yul\":6283:6648   */\n      swap2\n      swap1\n      pop\n      jump\t// out\n        /* \"#utility.yul\":6654:7073   */\n    tag_47:\n        /* \"#utility.yul\":6820:6824   */\n      0x00\n        /* \"#utility.yul\":6858:6860   */\n      0x20\n        /* \"#utility.yul\":6847:6856   */\n      dup3\n        /* \"#utility.yul\":6843:6861   */\n      add\n        /* \"#utility.yul\":6835:6861   */\n      swap1\n      pop\n        /* \"#utility.yul\":6907:6916   */\n      dup2\n        /* \"#utility.yul\":6901:6905   */\n      dup2\n        /* \"#utility.yul\":6897:6917   */\n      sub\n        /* \"#utility.yul\":6893:6894   */\n      0x00\n        /* \"#utility.yul\":6882:6891   */\n      dup4\n        /* \"#utility.yul\":6878:6895   */\n      add\n        /* \"#utility.yul\":6871:6918   */\n      mstore\n        /* \"#utility.yul\":6935:7066   */\n      tag_147\n        /* \"#utility.yul\":7061:7065   */\n      dup2\n        /* \"#utility.yul\":6935:7066   */\n      tag_75\n      jump\t// in\n    tag_147:\n        /* \"#utility.yul\":6927:7066   */\n      swap1\n      pop\n        /* \"#utility.yul\":6654:7073   */\n      swap2\n      swap1\n      pop\n      jump\t// out\n\n    auxdata: 0xa2646970667358221220d8d2e85c7fbc1bbc65cc8203daab6088da9913da00b6c418853795a266bbd6bf64736f6c634300081e0033\n}\n",
				"bytecode": {
					"linkReferences": {},
					"object": "608060405234801561000f575f5ffd5b503360025f6101000a81548173ffffffffffffffffffffffffffffffffffffffff021916908373ffffffffffffffffffffffffffffffffffffffff16021790555061008460025f9054906101000a900473ffffffffffffffffffffffffffffffffffffffff16620186a061008960201b60201c565b61028f565b5f33905060025f9054906101000a900473ffffffffffffffffffffffffffffffffffffffff1673ffffffffffffffffffffffffffffffffffffffff168173ffffffffffffffffffffffffffffffffffffffff161461011c576040517f08c379a000000000000000000000000000000000000000000000000000000000815260040161011390610208565b60405180910390fd5b5f5f5f8573ffffffffffffffffffffffffffffffffffffffff1673ffffffffffffffffffffffffffffffffffffffff1681526020019081526020015f205490508281610168919061025c565b5f5f8673ffffffffffffffffffffffffffffffffffffffff1673ffffffffffffffffffffffffffffffffffffffff1681526020019081526020015f208190555050505050565b5f82825260208201905092915050565b7f6e6f74206f776e657200000000000000000000000000000000000000000000005f82015250565b5f6101f26009836101ae565b91506101fd826101be565b602082019050919050565b5f6020820190508181035f83015261021f816101e6565b9050919050565b5f819050919050565b7f4e487b71000000000000000000000000000000000000000000000000000000005f52601160045260245ffd5b5f61026682610226565b915061027183610226565b92508282019050808211156102895761028861022f565b5b92915050565b610b968061029c5f395ff3fe608060405234801561000f575f5ffd5b5060043610610055575f3560e01c8063095ea7b31461005957806323b872dd1461008957806340c10f19146100b957806370a08231146100d5578063a9059cbb14610105575b5f5ffd5b610073600480360381019061006e9190610871565b610121565b60405161008091906108c9565b60405180910390f35b6100a3600480360381019061009e91906108e2565b610209565b6040516100b091906108c9565b60405180910390f35b6100d360048036038101906100ce9190610871565b6104ba565b005b6100ef60048036038101906100ea9190610932565b6105df565b6040516100fc919061096c565b60405180910390f35b61011f600480360381019061011a9190610871565b610624565b005b5f5f3390508260015f8373ffffffffffffffffffffffffffffffffffffffff1673ffffffffffffffffffffffffffffffffffffffff1681526020019081526020015f205f8673ffffffffffffffffffffffffffffffffffffffff1673ffffffffffffffffffffffffffffffffffffffff1681526020019081526020015f2081905550828473ffffffffffffffffffffffffffffffffffffffff168273ffffffffffffffffffffffffffffffffffffffff167f8c5be1e5ebec7d5bd14f71427d1e84f3dd0314c0f7b2291e5b200ac8c7c3b92560405160405180910390a4600191505092915050565b5f5f3390505f60015f8773ffffffffffffffffffffffffffffffffffffffff1673ffffffffffffffffffffffffffffffffffffffff1681526020019081526020015f205f8373ffffffffffffffffffffffffffffffffffffffff1673ffffffffffffffffffffffffffffffffffffffff1681526020019081526020015f20549050838110156102cd576040517f08c379a00000000000000000000000000000000000000000000000000000000081526004016102c4906109df565b60405180910390fd5b83816102d99190610a2a565b60015f8873ffffffffffffffffffffffffffffffffffffffff1673ffffffffffffffffffffffffffffffffffffffff1681526020019081526020015f205f8473ffffffffffffffffffffffffffffffffffffffff1673ffffffffffffffffffffffffffffffffffffffff1681526020019081526020015f20819055505f5f5f8873ffffffffffffffffffffffffffffffffffffffff1673ffffffffffffffffffffffffffffffffffffffff1681526020019081526020015f20549050848110156103d8576040517f08c379a00000000000000000000000000000000000000000000000000000000081526004016103cf90610aa7565b60405180910390fd5b84816103e49190610a2a565b5f5f8973ffffffffffffffffffffffffffffffffffffffff1673ffffffffffffffffffffffffffffffffffffffff1681526020019081526020015f2081905550845f5f8873ffffffffffffffffffffffffffffffffffffffff1673ffffffffffffffffffffffffffffffffffffffff1681526020019081526020015f205461046c9190610ac5565b5f5f8873ffffffffffffffffffffffffffffffffffffffff1673ffffffffffffffffffffffffffffffffffffffff1681526020019081526020015f2081905550600193505050509392505050565b5f33905060025f9054906101000a900473ffffffffffffffffffffffffffffffffffffffff1673ffffffffffffffffffffffffffffffffffffffff168173ffffffffffffffffffffffffffffffffffffffff161461054d576040517f08c379a000000000000000000000000000000000000000000000000000000000815260040161054490610b42565b60405180910390fd5b5f5f5f8573ffffffffffffffffffffffffffffffffffffffff1673ffffffffffffffffffffffffffffffffffffffff1681526020019081526020015f2054905082816105999190610ac5565b5f5f8673ffffffffffffffffffffffffffffffffffffffff1673ffffffffffffffffffffffffffffffffffffffff1681526020019081526020015f208190555050505050565b5f5f5f8373ffffffffffffffffffffffffffffffffffffffff1673ffffffffffffffffffffffffffffffffffffffff1681526020019081526020015f20549050919050565b5f3390505f5f5f8373ffffffffffffffffffffffffffffffffffffffff1673ffffffffffffffffffffffffffffffffffffffff1681526020019081526020015f20549050828110156106ab576040517f08c379a00000000000000000000000000000000000000000000000000000000081526004016106a290610aa7565b60405180910390fd5b82816106b79190610a2a565b5f5f8473ffffffffffffffffffffffffffffffffffffffff1673ffffffffffffffffffffffffffffffffffffffff1681526020019081526020015f2081905550825f5f8673ffffffffffffffffffffffffffffffffffffffff1673ffffffffffffffffffffffffffffffffffffffff1681526020019081526020015f205461073f9190610ac5565b5f5f8673ffffffffffffffffffffffffffffffffffffffff1673ffffffffffffffffffffffffffffffffffffffff1681526020019081526020015f2081905550828473ffffffffffffffffffffffffffffffffffffffff168373ffffffffffffffffffffffffffffffffffffffff167fddf252ad1be2c89b69c2b068fc378daa952ba7f163c4a11628f55a4df523b3ef60405160405180910390a450505050565b5f5ffd5b5f73ffffffffffffffffffffffffffffffffffffffff82169050919050565b5f61080d826107e4565b9050919050565b61081d81610803565b8114610827575f5ffd5b50565b5f8135905061083881610814565b92915050565b5f819050919050565b6108508161083e565b811461085a575f5ffd5b50565b5f8135905061086b81610847565b92915050565b5f5f60408385031215610887576108866107e0565b5b5f6108948582860161082a565b92505060206108a58582860161085d565b9150509250929050565b5f8115159050919050565b6108c3816108af565b82525050565b5f6020820190506108dc5f8301846108ba565b92915050565b5f5f5f606084860312156108f9576108f86107e0565b5b5f6109068682870161082a565b93505060206109178682870161082a565b92505060406109288682870161085d565b9150509250925092565b5f60208284031215610947576109466107e0565b5b5f6109548482850161082a565b91505092915050565b6109668161083e565b82525050565b5f60208201905061097f5f83018461095d565b92915050565b5f82825260208201905092915050565b7f616c6c6f77616e6365206e6f7420656e6f7567680000000000000000000000005f82015250565b5f6109c9601483610985565b91506109d482610995565b602082019050919050565b5f6020820190508181035f8301526109f6816109bd565b9050919050565b7f4e487b71000000000000000000000000000000000000000000000000000000005f52601160045260245ffd5b5f610a348261083e565b9150610a3f8361083e565b9250828203905081811115610a5757610a566109fd565b5b92915050565b7f62616c616e6365206e6f7420656e6f75676800000000000000000000000000005f82015250565b5f610a91601283610985565b9150610a9c82610a5d565b602082019050919050565b5f6020820190508181035f830152610abe81610a85565b9050919050565b5f610acf8261083e565b9150610ada8361083e565b9250828201905080821115610af257610af16109fd565b5b92915050565b7f6e6f74206f776e657200000000000000000000000000000000000000000000005f82015250565b5f610b2c600983610985565b9150610b3782610af8565b602082019050919050565b5f6020820190508181035f830152610b5981610b20565b905091905056fea2646970667358221220d8d2e85c7fbc1bbc65cc8203daab6088da9913da00b6c418853795a266bbd6bf64736f6c634300081e0033",
					"opcodes": "PUSH1 0x80 PUSH1 0x40 MSTORE CALLVALUE DUP1 ISZERO PUSH2 0xF JUMPI PUSH0 PUSH0 REVERT JUMPDEST POP CALLER PUSH1 0x2 PUSH0 PUSH2 0x100 EXP DUP2 SLOAD DUP2 PUSH20 0xFFFFFFFFFFFFFFFFFFFFFFFFFFFFFFFFFFFFFFFF MUL NOT AND SWAP1 DUP4 PUSH20 0xFFFFFFFFFFFFFFFFFFFFFFFFFFFFFFFFFFFFFFFF AND MUL OR SWAP1 SSTORE POP PUSH2 0x84 PUSH1 0x2 PUSH0 SWAP1 SLOAD SWAP1 PUSH2 0x100 EXP SWAP1 DIV PUSH20 0xFFFFFFFFFFFFFFFFFFFFFFFFFFFFFFFFFFFFFFFF AND PUSH3 0x186A0 PUSH2 0x89 PUSH1 0x20 SHL PUSH1 0x20 SHR JUMP JUMPDEST PUSH2 0x28F JUMP JUMPDEST PUSH0 CALLER SWAP1 POP PUSH1 0x2 PUSH0 SWAP1 SLOAD SWAP1 PUSH2 0x100 EXP SWAP1 DIV PUSH20 0xFFFFFFFFFFFFFFFFFFFFFFFFFFFFFFFFFFFFFFFF AND PUSH20 0xFFFFFFFFFFFFFFFFFFFFFFFFFFFFFFFFFFFFFFFF AND DUP2 PUSH20 0xFFFFFFFFFFFFFFFFFFFFFFFFFFFFFFFFFFFFFFFF AND EQ PUSH2 0x11C JUMPI PUSH1 0x40 MLOAD PUSH32 0x8C379A000000000000000000000000000000000000000000000000000000000 DUP2 MSTORE PUSH1 0x4 ADD PUSH2 0x113 SWAP1 PUSH2 0x208 JUMP JUMPDEST PUSH1 0x40 MLOAD DUP1 SWAP2 SUB SWAP1 REVERT JUMPDEST PUSH0 PUSH0 PUSH0 DUP6 PUSH20 0xFFFFFFFFFFFFFFFFFFFFFFFFFFFFFFFFFFFFFFFF AND PUSH20 0xFFFFFFFFFFFFFFFFFFFFFFFFFFFFFFFFFFFFFFFF AND DUP2 MSTORE PUSH1 0x20 ADD SWAP1 DUP2 MSTORE PUSH1 0x20 ADD PUSH0 KECCAK256 SLOAD SWAP1 POP DUP3 DUP2 PUSH2 0x168 SWAP2 SWAP1 PUSH2 0x25C JUMP JUMPDEST PUSH0 PUSH0 DUP7 PUSH20 0xFFFFFFFFFFFFFFFFFFFFFFFFFFFFFFFFFFFFFFFF AND PUSH20 0xFFFFFFFFFFFFFFFFFFFFFFFFFFFFFFFFFFFFFFFF AND DUP2 MSTORE PUSH1 0x20 ADD SWAP1 DUP2 MSTORE PUSH1 0x20 ADD PUSH0 KECCAK256 DUP2 SWAP1 SSTORE POP POP POP POP POP JUMP JUMPDEST PUSH0 DUP3 DUP3 MSTORE PUSH1 0x20 DUP3 ADD SWAP1 POP SWAP3 SWAP2 POP POP JUMP JUMPDEST PUSH32 0x6E6F74206F776E65720000000000000000000000000000000000000000000000 PUSH0 DUP3 ADD MSTORE POP JUMP JUMPDEST PUSH0 PUSH2 0x1F2 PUSH1 0x9 DUP4 PUSH2 0x1AE JUMP JUMPDEST SWAP2 POP PUSH2 0x1FD DUP3 PUSH2 0x1BE JUMP JUMPDEST PUSH1 0x20 DUP3 ADD SWAP1 POP SWAP2 SWAP1 POP JUMP JUMPDEST PUSH0 PUSH1 0x20 DUP3 ADD SWAP1 POP DUP2 DUP2 SUB PUSH0 DUP4 ADD MSTORE PUSH2 0x21F DUP2 PUSH2 0x1E6 JUMP JUMPDEST SWAP1 POP SWAP2 SWAP1 POP JUMP JUMPDEST PUSH0 DUP2 SWAP1 POP SWAP2 SWAP1 POP JUMP JUMPDEST PUSH32 0x4E487B7100000000000000000000000000000000000000000000000000000000 PUSH0 MSTORE PUSH1 0x11 PUSH1 0x4 MSTORE PUSH1 0x24 PUSH0 REVERT JUMPDEST PUSH0 PUSH2 0x266 DUP3 PUSH2 0x226 JUMP JUMPDEST SWAP2 POP PUSH2 0x271 DUP4 PUSH2 0x226 JUMP JUMPDEST SWAP3 POP DUP3 DUP3 ADD SWAP1 POP DUP1 DUP3 GT ISZERO PUSH2 0x289 JUMPI PUSH2 0x288 PUSH2 0x22F JUMP JUMPDEST JUMPDEST SWAP3 SWAP2 POP POP JUMP JUMPDEST PUSH2 0xB96 DUP1 PUSH2 0x29C PUSH0 CODECOPY PUSH0 RETURN INVALID PUSH1 0x80 PUSH1 0x40 MSTORE CALLVALUE DUP1 ISZERO PUSH2 0xF JUMPI PUSH0 PUSH0 REVERT JUMPDEST POP PUSH1 0x4 CALLDATASIZE LT PUSH2 0x55 JUMPI PUSH0 CALLDATALOAD PUSH1 0xE0 SHR DUP1 PUSH4 0x95EA7B3 EQ PUSH2 0x59 JUMPI DUP1 PUSH4 0x23B872DD EQ PUSH2 0x89 JUMPI DUP1 PUSH4 0x40C10F19 EQ PUSH2 0xB9 JUMPI DUP1 PUSH4 0x70A08231 EQ PUSH2 0xD5 JUMPI DUP1 PUSH4 0xA9059CBB EQ PUSH2 0x105 JUMPI JUMPDEST PUSH0 PUSH0 REVERT JUMPDEST PUSH2 0x73 PUSH1 0x4 DUP1 CALLDATASIZE SUB DUP2 ADD SWAP1 PUSH2 0x6E SWAP2 SWAP1 PUSH2 0x871 JUMP JUMPDEST PUSH2 0x121 JUMP JUMPDEST PUSH1 0x40 MLOAD PUSH2 0x80 SWAP2 SWAP1 PUSH2 0x8C9 JUMP JUMPDEST PUSH1 0x40 MLOAD DUP1 SWAP2 SUB SWAP1 RETURN JUMPDEST PUSH2 0xA3 PUSH1 0x4 DUP1 CALLDATASIZE SUB DUP2 ADD SWAP1 PUSH2 0x9E SWAP2 SWAP1 PUSH2 0x8E2 JUMP JUMPDEST PUSH2 0x209 JUMP JUMPDEST PUSH1 0x40 MLOAD PUSH2 0xB0 SWAP2 SWAP1 PUSH2 0x8C9 JUMP JUMPDEST PUSH1 0x40 MLOAD DUP1 SWAP2 SUB SWAP1 RETURN JUMPDEST PUSH2 0xD3 PUSH1 0x4 DUP1 CALLDATASIZE SUB DUP2 ADD SWAP1 PUSH2 0xCE SWAP2 SWAP1 PUSH2 0x871 JUMP JUMPDEST PUSH2 0x4BA JUMP JUMPDEST STOP JUMPDEST PUSH2 0xEF PUSH1 0x4 DUP1 CALLDATASIZE SUB DUP2 ADD SWAP1 PUSH2 0xEA SWAP2 SWAP1 PUSH2 0x932 JUMP JUMPDEST PUSH2 0x5DF JUMP JUMPDEST PUSH1 0x40 MLOAD PUSH2 0xFC SWAP2 SWAP1 PUSH2 0x96C JUMP JUMPDEST PUSH1 0x40 MLOAD DUP1 SWAP2 SUB SWAP1 RETURN JUMPDEST PUSH2 0x11F PUSH1 0x4 DUP1 CALLDATASIZE SUB DUP2 ADD SWAP1 PUSH2 0x11A SWAP2 SWAP1 PUSH2 0x871 JUMP JUMPDEST PUSH2 0x624 JUMP JUMPDEST STOP JUMPDEST PUSH0 PUSH0 CALLER SWAP1 POP DUP3 PUSH1 0x1 PUSH0 DUP4 PUSH20 0xFFFFFFFFFFFFFFFFFFFFFFFFFFFFFFFFFFFFFFFF AND PUSH20 0xFFFFFFFFFFFFFFFFFFFFFFFFFFFFFFFFFFFFFFFF AND DUP2 MSTORE PUSH1 0x20 ADD SWAP1 DUP2 MSTORE PUSH1 0x20 ADD PUSH0 KECCAK256 PUSH0 DUP7 PUSH20 0xFFFFFFFFFFFFFFFFFFFFFFFFFFFFFFFFFFFFFFFF AND PUSH20 0xFFFFFFFFFFFFFFFFFFFFFFFFFFFFFFFFFFFFFFFF AND DUP2 MSTORE PUSH1 0x20 ADD SWAP1 DUP2 MSTORE PUSH1 0x20 ADD PUSH0 KECCAK256 DUP2 SWAP1 SSTORE POP DUP3 DUP5 PUSH20 0xFFFFFFFFFFFFFFFFFFFFFFFFFFFFFFFFFFFFFFFF AND DUP3 PUSH20 0xFFFFFFFFFFFFFFFFFFFFFFFFFFFFFFFFFFFFFFFF AND PUSH32 0x8C5BE1E5EBEC7D5BD14F71427D1E84F3DD0314C0F7B2291E5B200AC8C7C3B925 PUSH1 0x40 MLOAD PUSH1 0x40 MLOAD DUP1 SWAP2 SUB SWAP1 LOG4 PUSH1 0x1 SWAP2 POP POP SWAP3 SWAP2 POP POP JUMP JUMPDEST PUSH0 PUSH0 CALLER SWAP1 POP PUSH0 PUSH1 0x1 PUSH0 DUP8 PUSH20 0xFFFFFFFFFFFFFFFFFFFFFFFFFFFFFFFFFFFFFFFF AND PUSH20 0xFFFFFFFFFFFFFFFFFFFFFFFFFFFFFFFFFFFFFFFF AND DUP2 MSTORE PUSH1 0x20 ADD SWAP1 DUP2 MSTORE PUSH1 0x20 ADD PUSH0 KECCAK256 PUSH0 DUP4 PUSH20 0xFFFFFFFFFFFFFFFFFFFFFFFFFFFFFFFFFFFFFFFF AND PUSH20 0xFFFFFFFFFFFFFFFFFFFFFFFFFFFFFFFFFFFFFFFF AND DUP2 MSTORE PUSH1 0x20 ADD SWAP1 DUP2 MSTORE PUSH1 0x20 ADD PUSH0 KECCAK256 SLOAD SWAP1 POP DUP4 DUP2 LT ISZERO PUSH2 0x2CD JUMPI PUSH1 0x40 MLOAD PUSH32 0x8C379A000000000000000000000000000000000000000000000000000000000 DUP2 MSTORE PUSH1 0x4 ADD PUSH2 0x2C4 SWAP1 PUSH2 0x9DF JUMP JUMPDEST PUSH1 0x40 MLOAD DUP1 SWAP2 SUB SWAP1 REVERT JUMPDEST DUP4 DUP2 PUSH2 0x2D9 SWAP2 SWAP1 PUSH2 0xA2A JUMP JUMPDEST PUSH1 0x1 PUSH0 DUP9 PUSH20 0xFFFFFFFFFFFFFFFFFFFFFFFFFFFFFFFFFFFFFFFF AND PUSH20 0xFFFFFFFFFFFFFFFFFFFFFFFFFFFFFFFFFFFFFFFF AND DUP2 MSTORE PUSH1 0x20 ADD SWAP1 DUP2 MSTORE PUSH1 0x20 ADD PUSH0 KECCAK256 PUSH0 DUP5 PUSH20 0xFFFFFFFFFFFFFFFFFFFFFFFFFFFFFFFFFFFFFFFF AND PUSH20 0xFFFFFFFFFFFFFFFFFFFFFFFFFFFFFFFFFFFFFFFF AND DUP2 MSTORE PUSH1 0x20 ADD SWAP1 DUP2 MSTORE PUSH1 0x20 ADD PUSH0 KECCAK256 DUP2 SWAP1 SSTORE POP PUSH0 PUSH0 PUSH0 DUP9 PUSH20 0xFFFFFFFFFFFFFFFFFFFFFFFFFFFFFFFFFFFFFFFF AND PUSH20 0xFFFFFFFFFFFFFFFFFFFFFFFFFFFFFFFFFFFFFFFF AND DUP2 MSTORE PUSH1 0x20 ADD SWAP1 DUP2 MSTORE PUSH1 0x20 ADD PUSH0 KECCAK256 SLOAD SWAP1 POP DUP5 DUP2 LT ISZERO PUSH2 0x3D8 JUMPI PUSH1 0x40 MLOAD PUSH32 0x8C379A000000000000000000000000000000000000000000000000000000000 DUP2 MSTORE PUSH1 0x4 ADD PUSH2 0x3CF SWAP1 PUSH2 0xAA7 JUMP JUMPDEST PUSH1 0x40 MLOAD DUP1 SWAP2 SUB SWAP1 REVERT JUMPDEST DUP5 DUP2 PUSH2 0x3E4 SWAP2 SWAP1 PUSH2 0xA2A JUMP JUMPDEST PUSH0 PUSH0 DUP10 PUSH20 0xFFFFFFFFFFFFFFFFFFFFFFFFFFFFFFFFFFFFFFFF AND PUSH20 0xFFFFFFFFFFFFFFFFFFFFFFFFFFFFFFFFFFFFFFFF AND DUP2 MSTORE PUSH1 0x20 ADD SWAP1 DUP2 MSTORE PUSH1 0x20 ADD PUSH0 KECCAK256 DUP2 SWAP1 SSTORE POP DUP5 PUSH0 PUSH0 DUP9 PUSH20 0xFFFFFFFFFFFFFFFFFFFFFFFFFFFFFFFFFFFFFFFF AND PUSH20 0xFFFFFFFFFFFFFFFFFFFFFFFFFFFFFFFFFFFFFFFF AND DUP2 MSTORE PUSH1 0x20 ADD SWAP1 DUP2 MSTORE PUSH1 0x20 ADD PUSH0 KECCAK256 SLOAD PUSH2 0x46C SWAP2 SWAP1 PUSH2 0xAC5 JUMP JUMPDEST PUSH0 PUSH0 DUP9 PUSH20 0xFFFFFFFFFFFFFFFFFFFFFFFFFFFFFFFFFFFFFFFF AND PUSH20 0xFFFFFFFFFFFFFFFFFFFFFFFFFFFFFFFFFFFFFFFF AND DUP2 MSTORE PUSH1 0x20 ADD SWAP1 DUP2 MSTORE PUSH1 0x20 ADD PUSH0 KECCAK256 DUP2 SWAP1 SSTORE POP PUSH1 0x1 SWAP4 POP POP POP POP SWAP4 SWAP3 POP POP POP JUMP JUMPDEST PUSH0 CALLER SWAP1 POP PUSH1 0x2 PUSH0 SWAP1 SLOAD SWAP1 PUSH2 0x100 EXP SWAP1 DIV PUSH20 0xFFFFFFFFFFFFFFFFFFFFFFFFFFFFFFFFFFFFFFFF AND PUSH20 0xFFFFFFFFFFFFFFFFFFFFFFFFFFFFFFFFFFFFFFFF AND DUP2 PUSH20 0xFFFFFFFFFFFFFFFFFFFFFFFFFFFFFFFFFFFFFFFF AND EQ PUSH2 0x54D JUMPI PUSH1 0x40 MLOAD PUSH32 0x8C379A000000000000000000000000000000000000000000000000000000000 DUP2 MSTORE PUSH1 0x4 ADD PUSH2 0x544 SWAP1 PUSH2 0xB42 JUMP JUMPDEST PUSH1 0x40 MLOAD DUP1 SWAP2 SUB SWAP1 REVERT JUMPDEST PUSH0 PUSH0 PUSH0 DUP6 PUSH20 0xFFFFFFFFFFFFFFFFFFFFFFFFFFFFFFFFFFFFFFFF AND PUSH20 0xFFFFFFFFFFFFFFFFFFFFFFFFFFFFFFFFFFFFFFFF AND DUP2 MSTORE PUSH1 0x20 ADD SWAP1 DUP2 MSTORE PUSH1 0x20 ADD PUSH0 KECCAK256 SLOAD SWAP1 POP DUP3 DUP2 PUSH2 0x599 SWAP2 SWAP1 PUSH2 0xAC5 JUMP JUMPDEST PUSH0 PUSH0 DUP7 PUSH20 0xFFFFFFFFFFFFFFFFFFFFFFFFFFFFFFFFFFFFFFFF AND PUSH20 0xFFFFFFFFFFFFFFFFFFFFFFFFFFFFFFFFFFFFFFFF AND DUP2 MSTORE PUSH1 0x20 ADD SWAP1 DUP2 MSTORE PUSH1 0x20 ADD PUSH0 KECCAK256 DUP2 SWAP1 SSTORE POP POP POP POP POP JUMP JUMPDEST PUSH0 PUSH0 PUSH0 DUP4 PUSH20 0xFFFFFFFFFFFFFFFFFFFFFFFFFFFFFFFFFFFFFFFF AND PUSH20 0xFFFFFFFFFFFFFFFFFFFFFFFFFFFFFFFFFFFFFFFF AND DUP2 MSTORE PUSH1 0x20 ADD SWAP1 DUP2 MSTORE PUSH1 0x20 ADD PUSH0 KECCAK256 SLOAD SWAP1 POP SWAP2 SWAP1 POP JUMP JUMPDEST PUSH0 CALLER SWAP1 POP PUSH0 PUSH0 PUSH0 DUP4 PUSH20 0xFFFFFFFFFFFFFFFFFFFFFFFFFFFFFFFFFFFFFFFF AND PUSH20 0xFFFFFFFFFFFFFFFFFFFFFFFFFFFFFFFFFFFFFFFF AND DUP2 MSTORE PUSH1 0x20 ADD SWAP1 DUP2 MSTORE PUSH1 0x20 ADD PUSH0 KECCAK256 SLOAD SWAP1 POP DUP3 DUP2 LT ISZERO PUSH2 0x6AB JUMPI PUSH1 0x40 MLOAD PUSH32 0x8C379A000000000000000000000000000000000000000000000000000000000 DUP2 MSTORE PUSH1 0x4 ADD PUSH2 0x6A2 SWAP1 PUSH2 0xAA7 JUMP JUMPDEST PUSH1 0x40 MLOAD DUP1 SWAP2 SUB SWAP1 REVERT JUMPDEST DUP3 DUP2 PUSH2 0x6B7 SWAP2 SWAP1 PUSH2 0xA2A JUMP JUMPDEST PUSH0 PUSH0 DUP5 PUSH20 0xFFFFFFFFFFFFFFFFFFFFFFFFFFFFFFFFFFFFFFFF AND PUSH20 0xFFFFFFFFFFFFFFFFFFFFFFFFFFFFFFFFFFFFFFFF AND DUP2 MSTORE PUSH1 0x20 ADD SWAP1 DUP2 MSTORE PUSH1 0x20 ADD PUSH0 KECCAK256 DUP2 SWAP1 SSTORE POP DUP3 PUSH0 PUSH0 DUP7 PUSH20 0xFFFFFFFFFFFFFFFFFFFFFFFFFFFFFFFFFFFFFFFF AND PUSH20 0xFFFFFFFFFFFFFFFFFFFFFFFFFFFFFFFFFFFFFFFF AND DUP2 MSTORE PUSH1 0x20 ADD SWAP1 DUP2 MSTORE PUSH1 0x20 ADD PUSH0 KECCAK256 SLOAD PUSH2 0x73F SWAP2 SWAP1 PUSH2 0xAC5 JUMP JUMPDEST PUSH0 PUSH0 DUP7 PUSH20 0xFFFFFFFFFFFFFFFFFFFFFFFFFFFFFFFFFFFFFFFF AND PUSH20 0xFFFFFFFFFFFFFFFFFFFFFFFFFFFFFFFFFFFFFFFF AND DUP2 MSTORE PUSH1 0x20 ADD SWAP1 DUP2 MSTORE PUSH1 0x20 ADD PUSH0 KECCAK256 DUP2 SWAP1 SSTORE POP DUP3 DUP5 PUSH20 0xFFFFFFFFFFFFFFFFFFFFFFFFFFFFFFFFFFFFFFFF AND DUP4 PUSH20 0xFFFFFFFFFFFFFFFFFFFFFFFFFFFFFFFFFFFFFFFF AND PUSH32 0xDDF252AD1BE2C89B69C2B068FC378DAA952BA7F163C4A11628F55A4DF523B3EF PUSH1 0x40 MLOAD PUSH1 0x40 MLOAD DUP1 SWAP2 SUB SWAP1 LOG4 POP POP POP POP JUMP JUMPDEST PUSH0 PUSH0 REVERT JUMPDEST PUSH0 PUSH20 0xFFFFFFFFFFFFFFFFFFFFFFFFFFFFFFFFFFFFFFFF DUP3 AND SWAP1 POP SWAP2 SWAP1 POP JUMP JUMPDEST PUSH0 PUSH2 0x80D DUP3 PUSH2 0x7E4 JUMP JUMPDEST SWAP1 POP SWAP2 SWAP1 POP JUMP JUMPDEST PUSH2 0x81D DUP2 PUSH2 0x803 JUMP JUMPDEST DUP2 EQ PUSH2 0x827 JUMPI PUSH0 PUSH0 REVERT JUMPDEST POP JUMP JUMPDEST PUSH0 DUP2 CALLDATALOAD SWAP1 POP PUSH2 0x838 DUP2 PUSH2 0x814 JUMP JUMPDEST SWAP3 SWAP2 POP POP JUMP JUMPDEST PUSH0 DUP2 SWAP1 POP SWAP2 SWAP1 POP JUMP JUMPDEST PUSH2 0x850 DUP2 PUSH2 0x83E JUMP JUMPDEST DUP2 EQ PUSH2 0x85A JUMPI PUSH0 PUSH0 REVERT JUMPDEST POP JUMP JUMPDEST PUSH0 DUP2 CALLDATALOAD SWAP1 POP PUSH2 0x86B DUP2 PUSH2 0x847 JUMP JUMPDEST SWAP3 SWAP2 POP POP JUMP JUMPDEST PUSH0 PUSH0 PUSH1 0x40 DUP4 DUP6 SUB SLT ISZERO PUSH2 0x887 JUMPI PUSH2 0x886 PUSH2 0x7E0 JUMP JUMPDEST JUMPDEST PUSH0 PUSH2 0x894 DUP6 DUP3 DUP7 ADD PUSH2 0x82A JUMP JUMPDEST SWAP3 POP POP PUSH1 0x20 PUSH2 0x8A5 DUP6 DUP3 DUP7 ADD PUSH2 0x85D JUMP JUMPDEST SWAP2 POP POP SWAP3 POP SWAP3 SWAP1 POP JUMP JUMPDEST PUSH0 DUP2 ISZERO ISZERO SWAP1 POP SWAP2 SWAP1 POP JUMP JUMPDEST PUSH2 0x8C3 DUP2 PUSH2 0x8AF JUMP JUMPDEST DUP3 MSTORE POP POP JUMP JUMPDEST PUSH0 PUSH1 0x20 DUP3 ADD SWAP1 POP PUSH2 0x8DC PUSH0 DUP4 ADD DUP5 PUSH2 0x8BA JUMP JUMPDEST SWAP3 SWAP2 POP POP JUMP JUMPDEST PUSH0 PUSH0 PUSH0 PUSH1 0x60 DUP5 DUP7 SUB SLT ISZERO PUSH2 0x8F9 JUMPI PUSH2 0x8F8 PUSH2 0x7E0 JUMP JUMPDEST JUMPDEST PUSH0 PUSH2 0x906 DUP7 DUP3 DUP8 ADD PUSH2 0x82A JUMP JUMPDEST SWAP4 POP POP PUSH1 0x20 PUSH2 0x917 DUP7 DUP3 DUP8 ADD PUSH2 0x82A JUMP JUMPDEST SWAP3 POP POP PUSH1 0x40 PUSH2 0x928 DUP7 DUP3 DUP8 ADD PUSH2 0x85D JUMP JUMPDEST SWAP2 POP POP SWAP3 POP SWAP3 POP SWAP3 JUMP JUMPDEST PUSH0 PUSH1 0x20 DUP3 DUP5 SUB SLT ISZERO PUSH2 0x947 JUMPI PUSH2 0x946 PUSH2 0x7E0 JUMP JUMPDEST JUMPDEST PUSH0 PUSH2 0x954 DUP5 DUP3 DUP6 ADD PUSH2 0x82A JUMP JUMPDEST SWAP2 POP POP SWAP3 SWAP2 POP POP JUMP JUMPDEST PUSH2 0x966 DUP2 PUSH2 0x83E JUMP JUMPDEST DUP3 MSTORE POP POP JUMP JUMPDEST PUSH0 PUSH1 0x20 DUP3 ADD SWAP1 POP PUSH2 0x97F PUSH0 DUP4 ADD DUP5 PUSH2 0x95D JUMP JUMPDEST SWAP3 SWAP2 POP POP JUMP JUMPDEST PUSH0 DUP3 DUP3 MSTORE PUSH1 0x20 DUP3 ADD SWAP1 POP SWAP3 SWAP2 POP POP JUMP JUMPDEST PUSH32 0x616C6C6F77616E6365206E6F7420656E6F756768000000000000000000000000 PUSH0 DUP3 ADD MSTORE POP JUMP JUMPDEST PUSH0 PUSH2 0x9C9 PUSH1 0x14 DUP4 PUSH2 0x985 JUMP JUMPDEST SWAP2 POP PUSH2 0x9D4 DUP3 PUSH2 0x995 JUMP JUMPDEST PUSH1 0x20 DUP3 ADD SWAP1 POP SWAP2 SWAP1 POP JUMP JUMPDEST PUSH0 PUSH1 0x20 DUP3 ADD SWAP1 POP DUP2 DUP2 SUB PUSH0 DUP4 ADD MSTORE PUSH2 0x9F6 DUP2 PUSH2 0x9BD JUMP JUMPDEST SWAP1 POP SWAP2 SWAP1 POP JUMP JUMPDEST PUSH32 0x4E487B7100000000000000000000000000000000000000000000000000000000 PUSH0 MSTORE PUSH1 0x11 PUSH1 0x4 MSTORE PUSH1 0x24 PUSH0 REVERT JUMPDEST PUSH0 PUSH2 0xA34 DUP3 PUSH2 0x83E JUMP JUMPDEST SWAP2 POP PUSH2 0xA3F DUP4 PUSH2 0x83E JUMP JUMPDEST SWAP3 POP DUP3 DUP3 SUB SWAP1 POP DUP2 DUP2 GT ISZERO PUSH2 0xA57 JUMPI PUSH2 0xA56 PUSH2 0x9FD JUMP JUMPDEST JUMPDEST SWAP3 SWAP2 POP POP JUMP JUMPDEST PUSH32 0x62616C616E6365206E6F7420656E6F7567680000000000000000000000000000 PUSH0 DUP3 ADD MSTORE POP JUMP JUMPDEST PUSH0 PUSH2 0xA91 PUSH1 0x12 DUP4 PUSH2 0x985 JUMP JUMPDEST SWAP2 POP PUSH2 0xA9C DUP3 PUSH2 0xA5D JUMP JUMPDEST PUSH1 0x20 DUP3 ADD SWAP1 POP SWAP2 SWAP1 POP JUMP JUMPDEST PUSH0 PUSH1 0x20 DUP3 ADD SWAP1 POP DUP2 DUP2 SUB PUSH0 DUP4 ADD MSTORE PUSH2 0xABE DUP2 PUSH2 0xA85 JUMP JUMPDEST SWAP1 POP SWAP2 SWAP1 POP JUMP JUMPDEST PUSH0 PUSH2 0xACF DUP3 PUSH2 0x83E JUMP JUMPDEST SWAP2 POP PUSH2 0xADA DUP4 PUSH2 0x83E JUMP JUMPDEST SWAP3 POP DUP3 DUP3 ADD SWAP1 POP DUP1 DUP3 GT ISZERO PUSH2 0xAF2 JUMPI PUSH2 0xAF1 PUSH2 0x9FD JUMP JUMPDEST JUMPDEST SWAP3 SWAP2 POP POP JUMP JUMPDEST PUSH32 0x6E6F74206F776E65720000000000000000000000000000000000000000000000 PUSH0 DUP3 ADD MSTORE POP JUMP JUMPDEST PUSH0 PUSH2 0xB2C PUSH1 0x9 DUP4 PUSH2 0x985 JUMP JUMPDEST SWAP2 POP PUSH2 0xB37 DUP3 PUSH2 0xAF8 JUMP JUMPDEST PUSH1 0x20 DUP3 ADD SWAP1 POP SWAP2 SWAP1 POP JUMP JUMPDEST PUSH0 PUSH1 0x20 DUP3 ADD SWAP1 POP DUP2 DUP2 SUB PUSH0 DUP4 ADD MSTORE PUSH2 0xB59 DUP2 PUSH2 0xB20 JUMP JUMPDEST SWAP1 POP SWAP2 SWAP1 POP JUMP INVALID LOG2 PUSH5 0x6970667358 0x22 SLT KECCAK256 0xD8 0xD2 0xE8 TLOAD PUSH32 0xBC1BBC65CC8203DAAB6088DA9913DA00B6C418853795A266BBD6BF64736F6C63 NUMBER STOP ADDMOD 0x1E STOP CALLER "
				},
				"gasEstimates": {
					"creation": {
						"codeDepositCost": "593200",
						"executionCost": "infinite",
						"totalCost": "infinite"
					},
					"external": {
						"approve(address,uint256)": "25019",
						"balanceOf(address)": "2872",
						"mint(address,uint256)": "infinite",
						"transfer(address,uint256)": "infinite",
						"transferFrom(address,address,uint256)": "infinite"
					}
				},
				"methodIdentifiers": {
					"approve(address,uint256)": "095ea7b3",
					"balanceOf(address)": "70a08231",
					"mint(address,uint256)": "40c10f19",
					"transfer(address,uint256)": "a9059cbb",
					"transferFrom(address,address,uint256)": "23b872dd"
				}
			},
			"storageLayout": {
				"storage": [
					{
						"astId": 5,
						"contract": "stage02/task01/MyToken.sol:MyToken",
						"label": "balancesMap",
						"offset": 0,
						"slot": "0",
						"type": "t_mapping(t_address,t_uint256)"
					},
					{
						"astId": 11,
						"contract": "stage02/task01/MyToken.sol:MyToken",
						"label": "allowances",
						"offset": 0,
						"slot": "1",
						"type": "t_mapping(t_address,t_mapping(t_address,t_uint256))"
					},
					{
						"astId": 13,
						"contract": "stage02/task01/MyToken.sol:MyToken",
						"label": "owner",
						"offset": 0,
						"slot": "2",
						"type": "t_address"
					}
				],
				"types": {
					"t_address": {
						"encoding": "inplace",
						"label": "address",
						"numberOfBytes": "20"
					},
					"t_mapping(t_address,t_mapping(t_address,t_uint256))": {
						"encoding": "mapping",
						"key": "t_address",
						"label": "mapping(address => mapping(address => uint256))",
						"numberOfBytes": "32",
						"value": "t_mapping(t_address,t_uint256)"
					},
					"t_mapping(t_address,t_uint256)": {
						"encoding": "mapping",
						"key": "t_address",
						"label": "mapping(address => uint256)",
						"numberOfBytes": "32",
						"value": "t_uint256"
					},
					"t_uint256": {
						"encoding": "inplace",
						"label": "uint256",
						"numberOfBytes": "32"
					}
				}
			},
			"userdoc": {
				"kind": "user",
				"methods": {},
				"version": 1
			}
		}
	}
}