{
	"stage01/Task03.sol": {
		"Task03": {
			"abi": [
				{
					"inputs": [],
					"stateMutability": "nonpayable",
					"type": "constructor"
				},
				{
					"inputs": [
						{
							"internalType": "string",
							"name": "str",
							"type": "string"
						}
					],
					"name": "romanToInt",
					"outputs": [
						{
							"internalType": "uint256",
							"name": "",
							"type": "uint256"
						}
					],
					"stateMutability": "view",
					"type": "function"
				}
			],
			"devdoc": {
				"kind": "dev",
				"methods": {},
				"version": 1
			},
			"evm": {
				"assembly": "    /* \"stage01/Task03.sol\":60:1154  contract Task03{\r... */\n  mstore(0x40, 0x80)\n    /* \"stage01/Task03.sol\":140:366  constructor(){\r... */\n  callvalue\n  dup1\n  iszero\n  tag_1\n  jumpi\n  0x00\n  dup1\n  revert\ntag_1:\n  pop\n    /* \"stage01/Task03.sol\":180:181  1 */\n  0x01\n    /* \"stage01/Task03.sol\":164:172  romanMap */\n  0x00\n    /* \"stage01/Task03.sol\":164:177  romanMap[\"I\"] */\n  mload(0x40)\n  tag_4\n  swap1\n  tag_5\n  jump\t// in\ntag_4:\n  swap1\n  dup2\n  mstore\n  0x20\n  add\n  mload(0x40)\n  dup1\n  swap2\n  sub\n  swap1\n  keccak256\n  0x00\n    /* \"stage01/Task03.sol\":164:181  romanMap[\"I\"] = 1 */\n  0x0100\n  exp\n  dup2\n  sload\n  dup2\n  0xffff\n  mul\n  not\n  and\n  swap1\n  dup4\n  0xffff\n  and\n  mul\n  or\n  swap1\n  sstore\n  pop\n    /* \"stage01/Task03.sol\":208:209  5 */\n  0x05\n    /* \"stage01/Task03.sol\":192:200  romanMap */\n  0x00\n    /* \"stage01/Task03.sol\":192:205  romanMap[\"V\"] */\n  mload(0x40)\n  tag_6\n  swap1\n  tag_7\n  jump\t// in\ntag_6:\n  swap1\n  dup2\n  mstore\n  0x20\n  add\n  mload(0x40)\n  dup1\n  swap2\n  sub\n  swap1\n  keccak256\n  0x00\n    /* \"stage01/Task03.sol\":192:209  romanMap[\"V\"] = 5 */\n  0x0100\n  exp\n  dup2\n  sload\n  dup2\n  0xffff\n  mul\n  not\n  and\n  swap1\n  dup4\n  0xffff\n  and\n  mul\n  or\n  swap1\n  sstore\n  pop\n    /* \"stage01/Task03.sol\":236:238  10 */\n  0x0a\n    /* \"stage01/Task03.sol\":220:228  romanMap */\n  0x00\n    /* \"stage01/Task03.sol\":220:233  romanMap[\"X\"] */\n  mload(0x40)\n  tag_8\n  swap1\n  tag_9\n  jump\t// in\ntag_8:\n  swap1\n  dup2\n  mstore\n  0x20\n  add\n  mload(0x40)\n  dup1\n  swap2\n  sub\n  swap1\n  keccak256\n  0x00\n    /* \"stage01/Task03.sol\":220:238  romanMap[\"X\"] = 10 */\n  0x0100\n  exp\n  dup2\n  sload\n  dup2\n  0xffff\n  mul\n  not\n  and\n  swap1\n  dup4\n  0xffff\n  and\n  mul\n  or\n  swap1\n  sstore\n  pop\n    /* \"stage01/Task03.sol\":265:267  50 */\n  0x32\n    /* \"stage01/Task03.sol\":249:257  romanMap */\n  0x00\n    /* \"stage01/Task03.sol\":249:262  romanMap[\"L\"] */\n  mload(0x40)\n  tag_10\n  swap1\n  tag_11\n  jump\t// in\ntag_10:\n  swap1\n  dup2\n  mstore\n  0x20\n  add\n  mload(0x40)\n  dup1\n  swap2\n  sub\n  swap1\n  keccak256\n  0x00\n    /* \"stage01/Task03.sol\":249:267  romanMap[\"L\"] = 50 */\n  0x0100\n  exp\n  dup2\n  sload\n  dup2\n  0xffff\n  mul\n  not\n  and\n  swap1\n  dup4\n  0xffff\n  and\n  mul\n  or\n  swap1\n  sstore\n  pop\n    /* \"stage01/Task03.sol\":294:297  100 */\n  0x64\n    /* \"stage01/Task03.sol\":278:286  romanMap */\n  0x00\n    /* \"stage01/Task03.sol\":278:291  romanMap[\"C\"] */\n  mload(0x40)\n  tag_12\n  swap1\n  tag_13\n  jump\t// in\ntag_12:\n  swap1\n  dup2\n  mstore\n  0x20\n  add\n  mload(0x40)\n  dup1\n  swap2\n  sub\n  swap1\n  keccak256\n  0x00\n    /* \"stage01/Task03.sol\":278:297  romanMap[\"C\"] = 100 */\n  0x0100\n  exp\n  dup2\n  sload\n  dup2\n  0xffff\n  mul\n  not\n  and\n  swap1\n  dup4\n  0xffff\n  and\n  mul\n  or\n  swap1\n  sstore\n  pop\n    /* \"stage01/Task03.sol\":324:327  500 */\n  0x01f4\n    /* \"stage01/Task03.sol\":308:316  romanMap */\n  0x00\n    /* \"stage01/Task03.sol\":308:321  romanMap[\"D\"] */\n  mload(0x40)\n  tag_14\n  swap1\n  tag_15\n  jump\t// in\ntag_14:\n  swap1\n  dup2\n  mstore\n  0x20\n  add\n  mload(0x40)\n  dup1\n  swap2\n  sub\n  swap1\n  keccak256\n  0x00\n    /* \"stage01/Task03.sol\":308:327  romanMap[\"D\"] = 500 */\n  0x0100\n  exp\n  dup2\n  sload\n  dup2\n  0xffff\n  mul\n  not\n  and\n  swap1\n  dup4\n  0xffff\n  and\n  mul\n  or\n  swap1\n  sstore\n  pop\n    /* \"stage01/Task03.sol\":354:358  1000 */\n  0x03e8\n    /* \"stage01/Task03.sol\":338:346  romanMap */\n  0x00\n    /* \"stage01/Task03.sol\":338:351  romanMap[\"M\"] */\n  mload(0x40)\n  tag_16\n  swap1\n  tag_17\n  jump\t// in\ntag_16:\n  swap1\n  dup2\n  mstore\n  0x20\n  add\n  mload(0x40)\n  dup1\n  swap2\n  sub\n  swap1\n  keccak256\n  0x00\n    /* \"stage01/Task03.sol\":338:358  romanMap[\"M\"] = 1000 */\n  0x0100\n  exp\n  dup2\n  sload\n  dup2\n  0xffff\n  mul\n  not\n  and\n  swap1\n  dup4\n  0xffff\n  and\n  mul\n  or\n  swap1\n  sstore\n  pop\n    /* \"stage01/Task03.sol\":60:1154  contract Task03{\r... */\n  jump(tag_18)\n    /* \"#utility.yul\":7:407   */\ntag_20:\n    /* \"#utility.yul\":167:170   */\n  0x00\n    /* \"#utility.yul\":188:272   */\n  tag_22\n    /* \"#utility.yul\":270:271   */\n  0x01\n    /* \"#utility.yul\":265:268   */\n  dup4\n    /* \"#utility.yul\":188:272   */\n  tag_23\n  jump\t// in\ntag_22:\n    /* \"#utility.yul\":181:272   */\n  swap2\n  pop\n    /* \"#utility.yul\":281:374   */\n  tag_24\n    /* \"#utility.yul\":370:373   */\n  dup3\n    /* \"#utility.yul\":281:374   */\n  tag_25\n  jump\t// in\ntag_24:\n    /* \"#utility.yul\":399:400   */\n  0x01\n    /* \"#utility.yul\":394:397   */\n  dup3\n    /* \"#utility.yul\":390:401   */\n  add\n    /* \"#utility.yul\":383:401   */\n  swap1\n  pop\n    /* \"#utility.yul\":171:407   */\n  swap2\n  swap1\n  pop\n  jump\t// out\n    /* \"#utility.yul\":413:813   */\ntag_26:\n    /* \"#utility.yul\":573:576   */\n  0x00\n    /* \"#utility.yul\":594:678   */\n  tag_28\n    /* \"#utility.yul\":676:677   */\n  0x01\n    /* \"#utility.yul\":671:674   */\n  dup4\n    /* \"#utility.yul\":594:678   */\n  tag_23\n  jump\t// in\ntag_28:\n    /* \"#utility.yul\":587:678   */\n  swap2\n  pop\n    /* \"#utility.yul\":687:780   */\n  tag_29\n    /* \"#utility.yul\":776:779   */\n  dup3\n    /* \"#utility.yul\":687:780   */\n  tag_30\n  jump\t// in\ntag_29:\n    /* \"#utility.yul\":805:806   */\n  0x01\n    /* \"#utility.yul\":800:803   */\n  dup3\n    /* \"#utility.yul\":796:807   */\n  add\n    /* \"#utility.yul\":789:807   */\n  swap1\n  pop\n    /* \"#utility.yul\":577:813   */\n  swap2\n  swap1\n  pop\n  jump\t// out\n    /* \"#utility.yul\":819:1219   */\ntag_31:\n    /* \"#utility.yul\":979:982   */\n  0x00\n    /* \"#utility.yul\":1000:1084   */\n  tag_33\n    /* \"#utility.yul\":1082:1083   */\n  0x01\n    /* \"#utility.yul\":1077:1080   */\n  dup4\n    /* \"#utility.yul\":1000:1084   */\n  tag_23\n  jump\t// in\ntag_33:\n    /* \"#utility.yul\":993:1084   */\n  swap2\n  pop\n    /* \"#utility.yul\":1093:1186   */\n  tag_34\n    /* \"#utility.yul\":1182:1185   */\n  dup3\n    /* \"#utility.yul\":1093:1186   */\n  tag_35\n  jump\t// in\ntag_34:\n    /* \"#utility.yul\":1211:1212   */\n  0x01\n    /* \"#utility.yul\":1206:1209   */\n  dup3\n    /* \"#utility.yul\":1202:1213   */\n  add\n    /* \"#utility.yul\":1195:1213   */\n  swap1\n  pop\n    /* \"#utility.yul\":983:1219   */\n  swap2\n  swap1\n  pop\n  jump\t// out\n    /* \"#utility.yul\":1225:1625   */\ntag_36:\n    /* \"#utility.yul\":1385:1388   */\n  0x00\n    /* \"#utility.yul\":1406:1490   */\n  tag_38\n    /* \"#utility.yul\":1488:1489   */\n  0x01\n    /* \"#utility.yul\":1483:1486   */\n  dup4\n    /* \"#utility.yul\":1406:1490   */\n  tag_23\n  jump\t// in\ntag_38:\n    /* \"#utility.yul\":1399:1490   */\n  swap2\n  pop\n    /* \"#utility.yul\":1499:1592   */\n  tag_39\n    /* \"#utility.yul\":1588:1591   */\n  dup3\n    /* \"#utility.yul\":1499:1592   */\n  tag_40\n  jump\t// in\ntag_39:\n    /* \"#utility.yul\":1617:1618   */\n  0x01\n    /* \"#utility.yul\":1612:1615   */\n  dup3\n    /* \"#utility.yul\":1608:1619   */\n  add\n    /* \"#utility.yul\":1601:1619   */\n  swap1\n  pop\n    /* \"#utility.yul\":1389:1625   */\n  swap2\n  swap1\n  pop\n  jump\t// out\n    /* \"#utility.yul\":1631:2031   */\ntag_41:\n    /* \"#utility.yul\":1791:1794   */\n  0x00\n    /* \"#utility.yul\":1812:1896   */\n  tag_43\n    /* \"#utility.yul\":1894:1895   */\n  0x01\n    /* \"#utility.yul\":1889:1892   */\n  dup4\n    /* \"#utility.yul\":1812:1896   */\n  tag_23\n  jump\t// in\ntag_43:\n    /* \"#utility.yul\":1805:1896   */\n  swap2\n  pop\n    /* \"#utility.yul\":1905:1998   */\n  tag_44\n    /* \"#utility.yul\":1994:1997   */\n  dup3\n    /* \"#utility.yul\":1905:1998   */\n  tag_45\n  jump\t// in\ntag_44:\n    /* \"#utility.yul\":2023:2024   */\n  0x01\n    /* \"#utility.yul\":2018:2021   */\n  dup3\n    /* \"#utility.yul\":2014:2025   */\n  add\n    /* \"#utility.yul\":2007:2025   */\n  swap1\n  pop\n    /* \"#utility.yul\":1795:2031   */\n  swap2\n  swap1\n  pop\n  jump\t// out\n    /* \"#utility.yul\":2037:2437   */\ntag_46:\n    /* \"#utility.yul\":2197:2200   */\n  0x00\n    /* \"#utility.yul\":2218:2302   */\n  tag_48\n    /* \"#utility.yul\":2300:2301   */\n  0x01\n    /* \"#utility.yul\":2295:2298   */\n  dup4\n    /* \"#utility.yul\":2218:2302   */\n  tag_23\n  jump\t// in\ntag_48:\n    /* \"#utility.yul\":2211:2302   */\n  swap2\n  pop\n    /* \"#utility.yul\":2311:2404   */\n  tag_49\n    /* \"#utility.yul\":2400:2403   */\n  dup3\n    /* \"#utility.yul\":2311:2404   */\n  tag_50\n  jump\t// in\ntag_49:\n    /* \"#utility.yul\":2429:2430   */\n  0x01\n    /* \"#utility.yul\":2424:2427   */\n  dup3\n    /* \"#utility.yul\":2420:2431   */\n  add\n    /* \"#utility.yul\":2413:2431   */\n  swap1\n  pop\n    /* \"#utility.yul\":2201:2437   */\n  swap2\n  swap1\n  pop\n  jump\t// out\n    /* \"#utility.yul\":2443:2843   */\ntag_51:\n    /* \"#utility.yul\":2603:2606   */\n  0x00\n    /* \"#utility.yul\":2624:2708   */\n  tag_53\n    /* \"#utility.yul\":2706:2707   */\n  0x01\n    /* \"#utility.yul\":2701:2704   */\n  dup4\n    /* \"#utility.yul\":2624:2708   */\n  tag_23\n  jump\t// in\ntag_53:\n    /* \"#utility.yul\":2617:2708   */\n  swap2\n  pop\n    /* \"#utility.yul\":2717:2810   */\n  tag_54\n    /* \"#utility.yul\":2806:2809   */\n  dup3\n    /* \"#utility.yul\":2717:2810   */\n  tag_55\n  jump\t// in\ntag_54:\n    /* \"#utility.yul\":2835:2836   */\n  0x01\n    /* \"#utility.yul\":2830:2833   */\n  dup3\n    /* \"#utility.yul\":2826:2837   */\n  add\n    /* \"#utility.yul\":2819:2837   */\n  swap1\n  pop\n    /* \"#utility.yul\":2607:2843   */\n  swap2\n  swap1\n  pop\n  jump\t// out\n    /* \"#utility.yul\":2849:3230   */\ntag_13:\n    /* \"#utility.yul\":3034:3037   */\n  0x00\n    /* \"#utility.yul\":3056:3204   */\n  tag_57\n    /* \"#utility.yul\":3200:3203   */\n  dup3\n    /* \"#utility.yul\":3056:3204   */\n  tag_20\n  jump\t// in\ntag_57:\n    /* \"#utility.yul\":3049:3204   */\n  swap2\n  pop\n    /* \"#utility.yul\":3221:3224   */\n  dup2\n    /* \"#utility.yul\":3214:3224   */\n  swap1\n  pop\n    /* \"#utility.yul\":3038:3230   */\n  swap2\n  swap1\n  pop\n  jump\t// out\n    /* \"#utility.yul\":3236:3617   */\ntag_9:\n    /* \"#utility.yul\":3421:3424   */\n  0x00\n    /* \"#utility.yul\":3443:3591   */\n  tag_59\n    /* \"#utility.yul\":3587:3590   */\n  dup3\n    /* \"#utility.yul\":3443:3591   */\n  tag_26\n  jump\t// in\ntag_59:\n    /* \"#utility.yul\":3436:3591   */\n  swap2\n  pop\n    /* \"#utility.yul\":3608:3611   */\n  dup2\n    /* \"#utility.yul\":3601:3611   */\n  swap1\n  pop\n    /* \"#utility.yul\":3425:3617   */\n  swap2\n  swap1\n  pop\n  jump\t// out\n    /* \"#utility.yul\":3623:4004   */\ntag_15:\n    /* \"#utility.yul\":3808:3811   */\n  0x00\n    /* \"#utility.yul\":3830:3978   */\n  tag_61\n    /* \"#utility.yul\":3974:3977   */\n  dup3\n    /* \"#utility.yul\":3830:3978   */\n  tag_31\n  jump\t// in\ntag_61:\n    /* \"#utility.yul\":3823:3978   */\n  swap2\n  pop\n    /* \"#utility.yul\":3995:3998   */\n  dup2\n    /* \"#utility.yul\":3988:3998   */\n  swap1\n  pop\n    /* \"#utility.yul\":3812:4004   */\n  swap2\n  swap1\n  pop\n  jump\t// out\n    /* \"#utility.yul\":4010:4391   */\ntag_17:\n    /* \"#utility.yul\":4195:4198   */\n  0x00\n    /* \"#utility.yul\":4217:4365   */\n  tag_63\n    /* \"#utility.yul\":4361:4364   */\n  dup3\n    /* \"#utility.yul\":4217:4365   */\n  tag_36\n  jump\t// in\ntag_63:\n    /* \"#utility.yul\":4210:4365   */\n  swap2\n  pop\n    /* \"#utility.yul\":4382:4385   */\n  dup2\n    /* \"#utility.yul\":4375:4385   */\n  swap1\n  pop\n    /* \"#utility.yul\":4199:4391   */\n  swap2\n  swap1\n  pop\n  jump\t// out\n    /* \"#utility.yul\":4397:4778   */\ntag_11:\n    /* \"#utility.yul\":4582:4585   */\n  0x00\n    /* \"#utility.yul\":4604:4752   */\n  tag_65\n    /* \"#utility.yul\":4748:4751   */\n  dup3\n    /* \"#utility.yul\":4604:4752   */\n  tag_41\n  jump\t// in\ntag_65:\n    /* \"#utility.yul\":4597:4752   */\n  swap2\n  pop\n    /* \"#utility.yul\":4769:4772   */\n  dup2\n    /* \"#utility.yul\":4762:4772   */\n  swap1\n  pop\n    /* \"#utility.yul\":4586:4778   */\n  swap2\n  swap1\n  pop\n  jump\t// out\n    /* \"#utility.yul\":4784:5165   */\ntag_5:\n    /* \"#utility.yul\":4969:4972   */\n  0x00\n    /* \"#utility.yul\":4991:5139   */\n  tag_67\n    /* \"#utility.yul\":5135:5138   */\n  dup3\n    /* \"#utility.yul\":4991:5139   */\n  tag_46\n  jump\t// in\ntag_67:\n    /* \"#utility.yul\":4984:5139   */\n  swap2\n  pop\n    /* \"#utility.yul\":5156:5159   */\n  dup2\n    /* \"#utility.yul\":5149:5159   */\n  swap1\n  pop\n    /* \"#utility.yul\":4973:5165   */\n  swap2\n  swap1\n  pop\n  jump\t// out\n    /* \"#utility.yul\":5171:5552   */\ntag_7:\n    /* \"#utility.yul\":5356:5359   */\n  0x00\n    /* \"#utility.yul\":5378:5526   */\n  tag_69\n    /* \"#utility.yul\":5522:5525   */\n  dup3\n    /* \"#utility.yul\":5378:5526   */\n  tag_51\n  jump\t// in\ntag_69:\n    /* \"#utility.yul\":5371:5526   */\n  swap2\n  pop\n    /* \"#utility.yul\":5543:5546   */\n  dup2\n    /* \"#utility.yul\":5536:5546   */\n  swap1\n  pop\n    /* \"#utility.yul\":5360:5552   */\n  swap2\n  swap1\n  pop\n  jump\t// out\n    /* \"#utility.yul\":5558:5706   */\ntag_23:\n    /* \"#utility.yul\":5660:5671   */\n  0x00\n    /* \"#utility.yul\":5697:5700   */\n  dup2\n    /* \"#utility.yul\":5682:5700   */\n  swap1\n  pop\n    /* \"#utility.yul\":5672:5706   */\n  swap3\n  swap2\n  pop\n  pop\n  jump\t// out\n    /* \"#utility.yul\":5712:5863   */\ntag_25:\n    /* \"#utility.yul\":5852:5855   */\n  0x4300000000000000000000000000000000000000000000000000000000000000\n    /* \"#utility.yul\":5848:5849   */\n  0x00\n    /* \"#utility.yul\":5840:5846   */\n  dup3\n    /* \"#utility.yul\":5836:5850   */\n  add\n    /* \"#utility.yul\":5829:5856   */\n  mstore\n    /* \"#utility.yul\":5818:5863   */\n  pop\n  jump\t// out\n    /* \"#utility.yul\":5869:6020   */\ntag_30:\n    /* \"#utility.yul\":6009:6012   */\n  0x5800000000000000000000000000000000000000000000000000000000000000\n    /* \"#utility.yul\":6005:6006   */\n  0x00\n    /* \"#utility.yul\":5997:6003   */\n  dup3\n    /* \"#utility.yul\":5993:6007   */\n  add\n    /* \"#utility.yul\":5986:6013   */\n  mstore\n    /* \"#utility.yul\":5975:6020   */\n  pop\n  jump\t// out\n    /* \"#utility.yul\":6026:6177   */\ntag_35:\n    /* \"#utility.yul\":6166:6169   */\n  0x4400000000000000000000000000000000000000000000000000000000000000\n    /* \"#utility.yul\":6162:6163   */\n  0x00\n    /* \"#utility.yul\":6154:6160   */\n  dup3\n    /* \"#utility.yul\":6150:6164   */\n  add\n    /* \"#utility.yul\":6143:6170   */\n  mstore\n    /* \"#utility.yul\":6132:6177   */\n  pop\n  jump\t// out\n    /* \"#utility.yul\":6183:6334   */\ntag_40:\n    /* \"#utility.yul\":6323:6326   */\n  0x4d00000000000000000000000000000000000000000000000000000000000000\n    /* \"#utility.yul\":6319:6320   */\n  0x00\n    /* \"#utility.yul\":6311:6317   */\n  dup3\n    /* \"#utility.yul\":6307:6321   */\n  add\n    /* \"#utility.yul\":6300:6327   */\n  mstore\n    /* \"#utility.yul\":6289:6334   */\n  pop\n  jump\t// out\n    /* \"#utility.yul\":6340:6491   */\ntag_45:\n    /* \"#utility.yul\":6480:6483   */\n  0x4c00000000000000000000000000000000000000000000000000000000000000\n    /* \"#utility.yul\":6476:6477   */\n  0x00\n    /* \"#utility.yul\":6468:6474   */\n  dup3\n    /* \"#utility.yul\":6464:6478   */\n  add\n    /* \"#utility.yul\":6457:6484   */\n  mstore\n    /* \"#utility.yul\":6446:6491   */\n  pop\n  jump\t// out\n    /* \"#utility.yul\":6497:6648   */\ntag_50:\n    /* \"#utility.yul\":6637:6640   */\n  0x4900000000000000000000000000000000000000000000000000000000000000\n    /* \"#utility.yul\":6633:6634   */\n  0x00\n    /* \"#utility.yul\":6625:6631   */\n  dup3\n    /* \"#utility.yul\":6621:6635   */\n  add\n    /* \"#utility.yul\":6614:6641   */\n  mstore\n    /* \"#utility.yul\":6603:6648   */\n  pop\n  jump\t// out\n    /* \"#utility.yul\":6654:6805   */\ntag_55:\n    /* \"#utility.yul\":6794:6797   */\n  0x5600000000000000000000000000000000000000000000000000000000000000\n    /* \"#utility.yul\":6790:6791   */\n  0x00\n    /* \"#utility.yul\":6782:6788   */\n  dup3\n    /* \"#utility.yul\":6778:6792   */\n  add\n    /* \"#utility.yul\":6771:6798   */\n  mstore\n    /* \"#utility.yul\":6760:6805   */\n  pop\n  jump\t// out\n    /* \"stage01/Task03.sol\":60:1154  contract Task03{\r... */\ntag_18:\n  dataSize(sub_0)\n  dup1\n  dataOffset(sub_0)\n  0x00\n  codecopy\n  0x00\n  return\nstop\n\nsub_0: assembly {\n        /* \"stage01/Task03.sol\":60:1154  contract Task03{\r... */\n      mstore(0x40, 0x80)\n      callvalue\n      dup1\n      iszero\n      tag_1\n      jumpi\n      0x00\n      dup1\n      revert\n    tag_1:\n      pop\n      jumpi(tag_2, lt(calldatasize, 0x04))\n      shr(0xe0, calldataload(0x00))\n      dup1\n      0xcb159dfe\n      eq\n      tag_3\n      jumpi\n    tag_2:\n      0x00\n      dup1\n      revert\n        /* \"stage01/Task03.sol\":374:1151  function romanToInt(string calldata str) public view returns (uint) {\r... */\n    tag_3:\n      tag_4\n      0x04\n      dup1\n      calldatasize\n      sub\n      dup2\n      add\n      swap1\n      tag_5\n      swap2\n      swap1\n      tag_6\n      jump\t// in\n    tag_5:\n      tag_7\n      jump\t// in\n    tag_4:\n      mload(0x40)\n      tag_8\n      swap2\n      swap1\n      tag_9\n      jump\t// in\n    tag_8:\n      mload(0x40)\n      dup1\n      swap2\n      sub\n      swap1\n      return\n    tag_7:\n        /* \"stage01/Task03.sol\":436:440  uint */\n      0x00\n        /* \"stage01/Task03.sol\":453:466  uint16 result */\n      dup1\n        /* \"stage01/Task03.sol\":469:470  0 */\n      0x00\n        /* \"stage01/Task03.sol\":453:470  uint16 result = 0 */\n      swap1\n      pop\n        /* \"stage01/Task03.sol\":481:504  bytes memory romanBytes */\n      0x00\n        /* \"stage01/Task03.sol\":513:516  str */\n      dup5\n      dup5\n        /* \"stage01/Task03.sol\":481:517  bytes memory romanBytes = bytes(str) */\n      dup1\n      dup1\n      0x1f\n      add\n      0x20\n      dup1\n      swap2\n      div\n      mul\n      0x20\n      add\n      mload(0x40)\n      swap1\n      dup2\n      add\n      0x40\n      mstore\n      dup1\n      swap4\n      swap3\n      swap2\n      swap1\n      dup2\n      dup2\n      mstore\n      0x20\n      add\n      dup4\n      dup4\n      dup1\n      dup3\n      dup5\n      calldatacopy\n      0x00\n      dup2\n      dup5\n      add\n      mstore\n      not(0x1f)\n      0x1f\n      dup3\n      add\n      and\n      swap1\n      pop\n      dup1\n      dup4\n      add\n      swap3\n      pop\n      pop\n      pop\n      pop\n      pop\n      pop\n      pop\n      swap1\n      pop\n        /* \"stage01/Task03.sol\":528:547  bytes memory buffer */\n      0x00\n        /* \"stage01/Task03.sol\":560:561  1 */\n      0x01\n        /* \"stage01/Task03.sol\":550:562  new bytes(1) */\n      0xffffffffffffffff\n      dup2\n      gt\n      iszero\n      tag_11\n      jumpi\n      tag_12\n      tag_13\n      jump\t// in\n    tag_12:\n    tag_11:\n      mload(0x40)\n      swap1\n      dup1\n      dup3\n      mstore\n      dup1\n      0x1f\n      add\n      not(0x1f)\n      and\n      0x20\n      add\n      dup3\n      add\n      0x40\n      mstore\n      dup1\n      iszero\n      tag_14\n      jumpi\n      dup2\n      0x20\n      add\n      0x01\n      dup3\n      mul\n      dup1\n      calldatasize\n      dup4\n      calldatacopy\n      dup1\n      dup3\n      add\n      swap2\n      pop\n      pop\n      swap1\n      pop\n    tag_14:\n      pop\n        /* \"stage01/Task03.sol\":528:562  bytes memory buffer = new bytes(1) */\n      swap1\n      pop\n        /* \"stage01/Task03.sol\":573:581  uint len */\n      0x00\n        /* \"stage01/Task03.sol\":584:594  romanBytes */\n      dup3\n        /* \"stage01/Task03.sol\":584:601  romanBytes.length */\n      mload\n        /* \"stage01/Task03.sol\":573:601  uint len = romanBytes.length */\n      swap1\n      pop\n        /* \"stage01/Task03.sol\":617:625  uint16 i */\n      0x00\n        /* \"stage01/Task03.sol\":612:1120  for (uint16 i = 0; i< len; i++) {\r... */\n    tag_15:\n        /* \"stage01/Task03.sol\":634:637  len */\n      dup2\n        /* \"stage01/Task03.sol\":631:632  i */\n      dup2\n        /* \"stage01/Task03.sol\":631:637  i< len */\n      0xffff\n      and\n      lt\n        /* \"stage01/Task03.sol\":612:1120  for (uint16 i = 0; i< len; i++) {\r... */\n      iszero\n      tag_16\n      jumpi\n        /* \"stage01/Task03.sol\":671:681  romanBytes */\n      dup4\n        /* \"stage01/Task03.sol\":682:683  i */\n      dup2\n        /* \"stage01/Task03.sol\":671:684  romanBytes[i] */\n      0xffff\n      and\n      dup2\n      mload\n      dup2\n      lt\n      tag_18\n      jumpi\n      tag_19\n      tag_20\n      jump\t// in\n    tag_19:\n    tag_18:\n      0x20\n      add\n      add\n      mload\n      0xf8\n      shr\n      0xf8\n      shl\n        /* \"stage01/Task03.sol\":659:665  buffer */\n      dup4\n        /* \"stage01/Task03.sol\":666:667  0 */\n      0x00\n        /* \"stage01/Task03.sol\":659:668  buffer[0] */\n      dup2\n      mload\n      dup2\n      lt\n      tag_21\n      jumpi\n      tag_22\n      tag_20\n      jump\t// in\n    tag_22:\n    tag_21:\n      0x20\n      add\n      add\n        /* \"stage01/Task03.sol\":659:684  buffer[0] = romanBytes[i] */\n      swap1\n      not(0xffffffffffffffffffffffffffffffffffffffffffffffffffffffffffffff)\n      and\n      swap1\n      dup2\n      0x00\n      byte\n      swap1\n      mstore8\n      pop\n        /* \"stage01/Task03.sol\":699:714  string memory s */\n      0x00\n        /* \"stage01/Task03.sol\":724:730  buffer */\n      dup4\n        /* \"stage01/Task03.sol\":699:731  string memory s = string(buffer) */\n      swap1\n      pop\n        /* \"stage01/Task03.sol\":746:756  uint16 num */\n      0x00\n        /* \"stage01/Task03.sol\":759:767  romanMap */\n      dup1\n        /* \"stage01/Task03.sol\":768:769  s */\n      dup3\n        /* \"stage01/Task03.sol\":759:770  romanMap[s] */\n      mload(0x40)\n      tag_23\n      swap2\n      swap1\n      tag_24\n      jump\t// in\n    tag_23:\n      swap1\n      dup2\n      mstore\n      0x20\n      add\n      mload(0x40)\n      dup1\n      swap2\n      sub\n      swap1\n      keccak256\n      0x00\n      swap1\n      sload\n      swap1\n      0x0100\n      exp\n      swap1\n      div\n      0xffff\n      and\n        /* \"stage01/Task03.sol\":746:770  uint16 num = romanMap[s] */\n      swap1\n      pop\n        /* \"stage01/Task03.sol\":796:799  len */\n      dup4\n        /* \"stage01/Task03.sol\":792:793  1 */\n      0x01\n        /* \"stage01/Task03.sol\":789:790  i */\n      dup5\n        /* \"stage01/Task03.sol\":789:793  i +1 */\n      tag_25\n      swap2\n      swap1\n      tag_26\n      jump\t// in\n    tag_25:\n        /* \"stage01/Task03.sol\":789:799  i +1 < len */\n      0xffff\n      and\n      lt\n        /* \"stage01/Task03.sol\":785:1081  if( i +1 < len){\r... */\n      iszero\n      tag_27\n      jumpi\n        /* \"stage01/Task03.sol\":831:841  romanBytes */\n      dup6\n        /* \"stage01/Task03.sol\":844:845  1 */\n      0x01\n        /* \"stage01/Task03.sol\":842:843  i */\n      dup5\n        /* \"stage01/Task03.sol\":842:845  i+1 */\n      tag_28\n      swap2\n      swap1\n      tag_26\n      jump\t// in\n    tag_28:\n        /* \"stage01/Task03.sol\":831:846  romanBytes[i+1] */\n      0xffff\n      and\n      dup2\n      mload\n      dup2\n      lt\n      tag_29\n      jumpi\n      tag_30\n      tag_20\n      jump\t// in\n    tag_30:\n    tag_29:\n      0x20\n      add\n      add\n      mload\n      0xf8\n      shr\n      0xf8\n      shl\n        /* \"stage01/Task03.sol\":819:825  buffer */\n      dup6\n        /* \"stage01/Task03.sol\":826:827  0 */\n      0x00\n        /* \"stage01/Task03.sol\":819:828  buffer[0] */\n      dup2\n      mload\n      dup2\n      lt\n      tag_31\n      jumpi\n      tag_32\n      tag_20\n      jump\t// in\n    tag_32:\n    tag_31:\n      0x20\n      add\n      add\n        /* \"stage01/Task03.sol\":819:846  buffer[0] = romanBytes[i+1] */\n      swap1\n      not(0xffffffffffffffffffffffffffffffffffffffffffffffffffffffffffffff)\n      and\n      swap1\n      dup2\n      0x00\n      byte\n      swap1\n      mstore8\n      pop\n        /* \"stage01/Task03.sol\":865:879  uint16 nextNum */\n      0x00\n        /* \"stage01/Task03.sol\":882:890  romanMap */\n      dup1\n        /* \"stage01/Task03.sol\":898:904  buffer */\n      dup7\n        /* \"stage01/Task03.sol\":882:906  romanMap[string(buffer)] */\n      mload(0x40)\n      tag_33\n      swap2\n      swap1\n      tag_24\n      jump\t// in\n    tag_33:\n      swap1\n      dup2\n      mstore\n      0x20\n      add\n      mload(0x40)\n      dup1\n      swap2\n      sub\n      swap1\n      keccak256\n      0x00\n      swap1\n      sload\n      swap1\n      0x0100\n      exp\n      swap1\n      div\n      0xffff\n      and\n        /* \"stage01/Task03.sol\":865:906  uint16 nextNum = romanMap[string(buffer)] */\n      swap1\n      pop\n        /* \"stage01/Task03.sol\":938:941  num */\n      dup2\n        /* \"stage01/Task03.sol\":928:941  nextNum > num */\n      0xffff\n      and\n        /* \"stage01/Task03.sol\":928:935  nextNum */\n      dup2\n        /* \"stage01/Task03.sol\":928:941  nextNum > num */\n      0xffff\n      and\n      gt\n        /* \"stage01/Task03.sol\":925:1066  if(nextNum > num){\r... */\n      iszero\n      tag_34\n      jumpi\n        /* \"stage01/Task03.sol\":965:968  i++ */\n      dup4\n      dup1\n      tag_35\n      swap1\n      tag_36\n      jump\t// in\n    tag_35:\n      swap5\n      pop\n      pop\n        /* \"stage01/Task03.sol\":1011:1014  num */\n      dup2\n        /* \"stage01/Task03.sol\":1001:1008  nextNum */\n      dup2\n        /* \"stage01/Task03.sol\":1001:1014  nextNum - num */\n      tag_37\n      swap2\n      swap1\n      tag_38\n      jump\t// in\n    tag_37:\n        /* \"stage01/Task03.sol\":991:1014  result += nextNum - num */\n      dup9\n      tag_39\n      swap2\n      swap1\n      tag_26\n      jump\t// in\n    tag_39:\n      swap8\n      pop\n        /* \"stage01/Task03.sol\":1037:1045  continue */\n      pop\n      pop\n      pop\n      jump(tag_17)\n        /* \"stage01/Task03.sol\":925:1066  if(nextNum > num){\r... */\n    tag_34:\n        /* \"stage01/Task03.sol\":800:1081  {\r... */\n      pop\n        /* \"stage01/Task03.sol\":785:1081  if( i +1 < len){\r... */\n    tag_27:\n        /* \"stage01/Task03.sol\":1105:1108  num */\n      dup1\n        /* \"stage01/Task03.sol\":1095:1108  result += num */\n      dup8\n      tag_40\n      swap2\n      swap1\n      tag_26\n      jump\t// in\n    tag_40:\n      swap7\n      pop\n        /* \"stage01/Task03.sol\":644:1120  {\r... */\n      pop\n      pop\n        /* \"stage01/Task03.sol\":612:1120  for (uint16 i = 0; i< len; i++) {\r... */\n    tag_17:\n        /* \"stage01/Task03.sol\":639:642  i++ */\n      dup1\n      dup1\n      tag_41\n      swap1\n      tag_36\n      jump\t// in\n    tag_41:\n      swap2\n      pop\n      pop\n        /* \"stage01/Task03.sol\":612:1120  for (uint16 i = 0; i< len; i++) {\r... */\n      jump(tag_15)\n    tag_16:\n      pop\n        /* \"stage01/Task03.sol\":1137:1143  result */\n      dup4\n        /* \"stage01/Task03.sol\":1130:1143  return result */\n      0xffff\n      and\n      swap5\n      pop\n      pop\n      pop\n      pop\n      pop\n        /* \"stage01/Task03.sol\":374:1151  function romanToInt(string calldata str) public view returns (uint) {\r... */\n      swap3\n      swap2\n      pop\n      pop\n      jump\t// out\n        /* \"#utility.yul\":21:574   */\n    tag_43:\n        /* \"#utility.yul\":79:87   */\n      0x00\n        /* \"#utility.yul\":89:95   */\n      dup1\n        /* \"#utility.yul\":139:142   */\n      dup4\n        /* \"#utility.yul\":132:136   */\n      0x1f\n        /* \"#utility.yul\":124:130   */\n      dup5\n        /* \"#utility.yul\":120:137   */\n      add\n        /* \"#utility.yul\":116:143   */\n      slt\n        /* \"#utility.yul\":106:108   */\n      tag_45\n      jumpi\n        /* \"#utility.yul\":147:226   */\n      tag_46\n      tag_47\n      jump\t// in\n    tag_46:\n        /* \"#utility.yul\":106:108   */\n    tag_45:\n        /* \"#utility.yul\":260:266   */\n      dup3\n        /* \"#utility.yul\":247:267   */\n      calldataload\n        /* \"#utility.yul\":237:267   */\n      swap1\n      pop\n        /* \"#utility.yul\":290:308   */\n      0xffffffffffffffff\n        /* \"#utility.yul\":282:288   */\n      dup2\n        /* \"#utility.yul\":279:309   */\n      gt\n        /* \"#utility.yul\":276:278   */\n      iszero\n      tag_48\n      jumpi\n        /* \"#utility.yul\":312:391   */\n      tag_49\n      tag_50\n      jump\t// in\n    tag_49:\n        /* \"#utility.yul\":276:278   */\n    tag_48:\n        /* \"#utility.yul\":426:430   */\n      0x20\n        /* \"#utility.yul\":418:424   */\n      dup4\n        /* \"#utility.yul\":414:431   */\n      add\n        /* \"#utility.yul\":402:431   */\n      swap2\n      pop\n        /* \"#utility.yul\":480:483   */\n      dup4\n        /* \"#utility.yul\":472:476   */\n      0x01\n        /* \"#utility.yul\":464:470   */\n      dup3\n        /* \"#utility.yul\":460:477   */\n      mul\n        /* \"#utility.yul\":450:458   */\n      dup4\n        /* \"#utility.yul\":446:478   */\n      add\n        /* \"#utility.yul\":443:484   */\n      gt\n        /* \"#utility.yul\":440:442   */\n      iszero\n      tag_51\n      jumpi\n        /* \"#utility.yul\":487:566   */\n      tag_52\n      tag_53\n      jump\t// in\n    tag_52:\n        /* \"#utility.yul\":440:442   */\n    tag_51:\n        /* \"#utility.yul\":96:574   */\n      swap3\n      pop\n      swap3\n      swap1\n      pop\n      jump\t// out\n        /* \"#utility.yul\":580:1109   */\n    tag_6:\n        /* \"#utility.yul\":651:657   */\n      0x00\n        /* \"#utility.yul\":659:665   */\n      dup1\n        /* \"#utility.yul\":708:710   */\n      0x20\n        /* \"#utility.yul\":696:705   */\n      dup4\n        /* \"#utility.yul\":687:694   */\n      dup6\n        /* \"#utility.yul\":683:706   */\n      sub\n        /* \"#utility.yul\":679:711   */\n      slt\n        /* \"#utility.yul\":676:678   */\n      iszero\n      tag_55\n      jumpi\n        /* \"#utility.yul\":714:793   */\n      tag_56\n      tag_57\n      jump\t// in\n    tag_56:\n        /* \"#utility.yul\":676:678   */\n    tag_55:\n        /* \"#utility.yul\":862:863   */\n      0x00\n        /* \"#utility.yul\":851:860   */\n      dup4\n        /* \"#utility.yul\":847:864   */\n      add\n        /* \"#utility.yul\":834:865   */\n      calldataload\n        /* \"#utility.yul\":892:910   */\n      0xffffffffffffffff\n        /* \"#utility.yul\":884:890   */\n      dup2\n        /* \"#utility.yul\":881:911   */\n      gt\n        /* \"#utility.yul\":878:880   */\n      iszero\n      tag_58\n      jumpi\n        /* \"#utility.yul\":914:993   */\n      tag_59\n      tag_60\n      jump\t// in\n    tag_59:\n        /* \"#utility.yul\":878:880   */\n    tag_58:\n        /* \"#utility.yul\":1027:1092   */\n      tag_61\n        /* \"#utility.yul\":1084:1091   */\n      dup6\n        /* \"#utility.yul\":1075:1081   */\n      dup3\n        /* \"#utility.yul\":1064:1073   */\n      dup7\n        /* \"#utility.yul\":1060:1082   */\n      add\n        /* \"#utility.yul\":1027:1092   */\n      tag_43\n      jump\t// in\n    tag_61:\n        /* \"#utility.yul\":1009:1092   */\n      swap3\n      pop\n      swap3\n      pop\n        /* \"#utility.yul\":805:1102   */\n      pop\n        /* \"#utility.yul\":666:1109   */\n      swap3\n      pop\n      swap3\n      swap1\n      pop\n      jump\t// out\n        /* \"#utility.yul\":1115:1492   */\n    tag_62:\n        /* \"#utility.yul\":1221:1224   */\n      0x00\n        /* \"#utility.yul\":1249:1288   */\n      tag_64\n        /* \"#utility.yul\":1282:1287   */\n      dup3\n        /* \"#utility.yul\":1249:1288   */\n      tag_65\n      jump\t// in\n    tag_64:\n        /* \"#utility.yul\":1304:1393   */\n      tag_66\n        /* \"#utility.yul\":1386:1392   */\n      dup2\n        /* \"#utility.yul\":1381:1384   */\n      dup6\n        /* \"#utility.yul\":1304:1393   */\n      tag_67\n      jump\t// in\n    tag_66:\n        /* \"#utility.yul\":1297:1393   */\n      swap4\n      pop\n        /* \"#utility.yul\":1402:1454   */\n      tag_68\n        /* \"#utility.yul\":1447:1453   */\n      dup2\n        /* \"#utility.yul\":1442:1445   */\n      dup6\n        /* \"#utility.yul\":1435:1439   */\n      0x20\n        /* \"#utility.yul\":1428:1433   */\n      dup7\n        /* \"#utility.yul\":1424:1440   */\n      add\n        /* \"#utility.yul\":1402:1454   */\n      tag_69\n      jump\t// in\n    tag_68:\n        /* \"#utility.yul\":1479:1485   */\n      dup1\n        /* \"#utility.yul\":1474:1477   */\n      dup5\n        /* \"#utility.yul\":1470:1486   */\n      add\n        /* \"#utility.yul\":1463:1486   */\n      swap2\n      pop\n        /* \"#utility.yul\":1225:1492   */\n      pop\n      swap3\n      swap2\n      pop\n      pop\n      jump\t// out\n        /* \"#utility.yul\":1498:1616   */\n    tag_70:\n        /* \"#utility.yul\":1585:1609   */\n      tag_72\n        /* \"#utility.yul\":1603:1608   */\n      dup2\n        /* \"#utility.yul\":1585:1609   */\n      tag_73\n      jump\t// in\n    tag_72:\n        /* \"#utility.yul\":1580:1583   */\n      dup3\n        /* \"#utility.yul\":1573:1610   */\n      mstore\n        /* \"#utility.yul\":1563:1616   */\n      pop\n      pop\n      jump\t// out\n        /* \"#utility.yul\":1622:1897   */\n    tag_24:\n        /* \"#utility.yul\":1754:1757   */\n      0x00\n        /* \"#utility.yul\":1776:1871   */\n      tag_75\n        /* \"#utility.yul\":1867:1870   */\n      dup3\n        /* \"#utility.yul\":1858:1864   */\n      dup5\n        /* \"#utility.yul\":1776:1871   */\n      tag_62\n      jump\t// in\n    tag_75:\n        /* \"#utility.yul\":1769:1871   */\n      swap2\n      pop\n        /* \"#utility.yul\":1888:1891   */\n      dup2\n        /* \"#utility.yul\":1881:1891   */\n      swap1\n      pop\n        /* \"#utility.yul\":1758:1897   */\n      swap3\n      swap2\n      pop\n      pop\n      jump\t// out\n        /* \"#utility.yul\":1903:2125   */\n    tag_9:\n        /* \"#utility.yul\":1996:2000   */\n      0x00\n        /* \"#utility.yul\":2034:2036   */\n      0x20\n        /* \"#utility.yul\":2023:2032   */\n      dup3\n        /* \"#utility.yul\":2019:2037   */\n      add\n        /* \"#utility.yul\":2011:2037   */\n      swap1\n      pop\n        /* \"#utility.yul\":2047:2118   */\n      tag_77\n        /* \"#utility.yul\":2115:2116   */\n      0x00\n        /* \"#utility.yul\":2104:2113   */\n      dup4\n        /* \"#utility.yul\":2100:2117   */\n      add\n        /* \"#utility.yul\":2091:2097   */\n      dup5\n        /* \"#utility.yul\":2047:2118   */\n      tag_70\n      jump\t// in\n    tag_77:\n        /* \"#utility.yul\":2001:2125   */\n      swap3\n      swap2\n      pop\n      pop\n      jump\t// out\n        /* \"#utility.yul\":2212:2311   */\n    tag_65:\n        /* \"#utility.yul\":2264:2270   */\n      0x00\n        /* \"#utility.yul\":2298:2303   */\n      dup2\n        /* \"#utility.yul\":2292:2304   */\n      mload\n        /* \"#utility.yul\":2282:2304   */\n      swap1\n      pop\n        /* \"#utility.yul\":2271:2311   */\n      swap2\n      swap1\n      pop\n      jump\t// out\n        /* \"#utility.yul\":2317:2465   */\n    tag_67:\n        /* \"#utility.yul\":2419:2430   */\n      0x00\n        /* \"#utility.yul\":2456:2459   */\n      dup2\n        /* \"#utility.yul\":2441:2459   */\n      swap1\n      pop\n        /* \"#utility.yul\":2431:2465   */\n      swap3\n      swap2\n      pop\n      pop\n      jump\t// out\n        /* \"#utility.yul\":2471:2713   */\n    tag_26:\n        /* \"#utility.yul\":2510:2513   */\n      0x00\n        /* \"#utility.yul\":2529:2548   */\n      tag_83\n        /* \"#utility.yul\":2546:2547   */\n      dup3\n        /* \"#utility.yul\":2529:2548   */\n      tag_84\n      jump\t// in\n    tag_83:\n        /* \"#utility.yul\":2524:2548   */\n      swap2\n      pop\n        /* \"#utility.yul\":2562:2581   */\n      tag_85\n        /* \"#utility.yul\":2579:2580   */\n      dup4\n        /* \"#utility.yul\":2562:2581   */\n      tag_84\n      jump\t// in\n    tag_85:\n        /* \"#utility.yul\":2557:2581   */\n      swap3\n      pop\n        /* \"#utility.yul\":2655:2656   */\n      dup3\n        /* \"#utility.yul\":2647:2653   */\n      0xffff\n        /* \"#utility.yul\":2643:2657   */\n      sub\n        /* \"#utility.yul\":2640:2641   */\n      dup3\n        /* \"#utility.yul\":2637:2658   */\n      gt\n        /* \"#utility.yul\":2634:2636   */\n      iszero\n      tag_86\n      jumpi\n        /* \"#utility.yul\":2661:2679   */\n      tag_87\n      tag_88\n      jump\t// in\n    tag_87:\n        /* \"#utility.yul\":2634:2636   */\n    tag_86:\n        /* \"#utility.yul\":2705:2706   */\n      dup3\n        /* \"#utility.yul\":2702:2703   */\n      dup3\n        /* \"#utility.yul\":2698:2707   */\n      add\n        /* \"#utility.yul\":2691:2707   */\n      swap1\n      pop\n        /* \"#utility.yul\":2514:2713   */\n      swap3\n      swap2\n      pop\n      pop\n      jump\t// out\n        /* \"#utility.yul\":2719:2907   */\n    tag_38:\n        /* \"#utility.yul\":2758:2762   */\n      0x00\n        /* \"#utility.yul\":2778:2797   */\n      tag_90\n        /* \"#utility.yul\":2795:2796   */\n      dup3\n        /* \"#utility.yul\":2778:2797   */\n      tag_84\n      jump\t// in\n    tag_90:\n        /* \"#utility.yul\":2773:2797   */\n      swap2\n      pop\n        /* \"#utility.yul\":2811:2830   */\n      tag_91\n        /* \"#utility.yul\":2828:2829   */\n      dup4\n        /* \"#utility.yul\":2811:2830   */\n      tag_84\n      jump\t// in\n    tag_91:\n        /* \"#utility.yul\":2806:2830   */\n      swap3\n      pop\n        /* \"#utility.yul\":2849:2850   */\n      dup3\n        /* \"#utility.yul\":2846:2847   */\n      dup3\n        /* \"#utility.yul\":2843:2851   */\n      lt\n        /* \"#utility.yul\":2840:2842   */\n      iszero\n      tag_92\n      jumpi\n        /* \"#utility.yul\":2854:2872   */\n      tag_93\n      tag_88\n      jump\t// in\n    tag_93:\n        /* \"#utility.yul\":2840:2842   */\n    tag_92:\n        /* \"#utility.yul\":2899:2900   */\n      dup3\n        /* \"#utility.yul\":2896:2897   */\n      dup3\n        /* \"#utility.yul\":2892:2901   */\n      sub\n        /* \"#utility.yul\":2884:2901   */\n      swap1\n      pop\n        /* \"#utility.yul\":2763:2907   */\n      swap3\n      swap2\n      pop\n      pop\n      jump\t// out\n        /* \"#utility.yul\":2913:3002   */\n    tag_84:\n        /* \"#utility.yul\":2949:2956   */\n      0x00\n        /* \"#utility.yul\":2989:2995   */\n      0xffff\n        /* \"#utility.yul\":2982:2987   */\n      dup3\n        /* \"#utility.yul\":2978:2996   */\n      and\n        /* \"#utility.yul\":2967:2996   */\n      swap1\n      pop\n        /* \"#utility.yul\":2957:3002   */\n      swap2\n      swap1\n      pop\n      jump\t// out\n        /* \"#utility.yul\":3008:3085   */\n    tag_73:\n        /* \"#utility.yul\":3045:3052   */\n      0x00\n        /* \"#utility.yul\":3074:3079   */\n      dup2\n        /* \"#utility.yul\":3063:3079   */\n      swap1\n      pop\n        /* \"#utility.yul\":3053:3085   */\n      swap2\n      swap1\n      pop\n      jump\t// out\n        /* \"#utility.yul\":3091:3398   */\n    tag_69:\n        /* \"#utility.yul\":3159:3160   */\n      0x00\n        /* \"#utility.yul\":3169:3282   */\n    tag_97:\n        /* \"#utility.yul\":3183:3189   */\n      dup4\n        /* \"#utility.yul\":3180:3181   */\n      dup2\n        /* \"#utility.yul\":3177:3190   */\n      lt\n        /* \"#utility.yul\":3169:3282   */\n      iszero\n      tag_99\n      jumpi\n        /* \"#utility.yul\":3268:3269   */\n      dup1\n        /* \"#utility.yul\":3263:3266   */\n      dup3\n        /* \"#utility.yul\":3259:3270   */\n      add\n        /* \"#utility.yul\":3253:3271   */\n      mload\n        /* \"#utility.yul\":3249:3250   */\n      dup2\n        /* \"#utility.yul\":3244:3247   */\n      dup5\n        /* \"#utility.yul\":3240:3251   */\n      add\n        /* \"#utility.yul\":3233:3272   */\n      mstore\n        /* \"#utility.yul\":3205:3207   */\n      0x20\n        /* \"#utility.yul\":3202:3203   */\n      dup2\n        /* \"#utility.yul\":3198:3208   */\n      add\n        /* \"#utility.yul\":3193:3208   */\n      swap1\n      pop\n        /* \"#utility.yul\":3169:3282   */\n      jump(tag_97)\n    tag_99:\n        /* \"#utility.yul\":3300:3306   */\n      dup4\n        /* \"#utility.yul\":3297:3298   */\n      dup2\n        /* \"#utility.yul\":3294:3307   */\n      gt\n        /* \"#utility.yul\":3291:3293   */\n      iszero\n      tag_100\n      jumpi\n        /* \"#utility.yul\":3380:3381   */\n      0x00\n        /* \"#utility.yul\":3371:3377   */\n      dup5\n        /* \"#utility.yul\":3366:3369   */\n      dup5\n        /* \"#utility.yul\":3362:3378   */\n      add\n        /* \"#utility.yul\":3355:3382   */\n      mstore\n        /* \"#utility.yul\":3291:3293   */\n    tag_100:\n        /* \"#utility.yul\":3140:3398   */\n      pop\n      pop\n      pop\n      pop\n      jump\t// out\n        /* \"#utility.yul\":3404:3575   */\n    tag_36:\n        /* \"#utility.yul\":3442:3445   */\n      0x00\n        /* \"#utility.yul\":3465:3488   */\n      tag_102\n        /* \"#utility.yul\":3482:3487   */\n      dup3\n        /* \"#utility.yul\":3465:3488   */\n      tag_84\n      jump\t// in\n    tag_102:\n        /* \"#utility.yul\":3456:3488   */\n      swap2\n      pop\n        /* \"#utility.yul\":3510:3516   */\n      0xffff\n        /* \"#utility.yul\":3503:3508   */\n      dup3\n        /* \"#utility.yul\":3500:3517   */\n      eq\n        /* \"#utility.yul\":3497:3499   */\n      iszero\n      tag_103\n      jumpi\n        /* \"#utility.yul\":3520:3538   */\n      tag_104\n      tag_88\n      jump\t// in\n    tag_104:\n        /* \"#utility.yul\":3497:3499   */\n    tag_103:\n        /* \"#utility.yul\":3567:3568   */\n      0x01\n        /* \"#utility.yul\":3560:3565   */\n      dup3\n        /* \"#utility.yul\":3556:3569   */\n      add\n        /* \"#utility.yul\":3549:3569   */\n      swap1\n      pop\n        /* \"#utility.yul\":3446:3575   */\n      swap2\n      swap1\n      pop\n      jump\t// out\n        /* \"#utility.yul\":3581:3761   */\n    tag_88:\n        /* \"#utility.yul\":3629:3706   */\n      0x4e487b7100000000000000000000000000000000000000000000000000000000\n        /* \"#utility.yul\":3626:3627   */\n      0x00\n        /* \"#utility.yul\":3619:3707   */\n      mstore\n        /* \"#utility.yul\":3726:3730   */\n      0x11\n        /* \"#utility.yul\":3723:3724   */\n      0x04\n        /* \"#utility.yul\":3716:3731   */\n      mstore\n        /* \"#utility.yul\":3750:3754   */\n      0x24\n        /* \"#utility.yul\":3747:3748   */\n      0x00\n        /* \"#utility.yul\":3740:3755   */\n      revert\n        /* \"#utility.yul\":3767:3947   */\n    tag_20:\n        /* \"#utility.yul\":3815:3892   */\n      0x4e487b7100000000000000000000000000000000000000000000000000000000\n        /* \"#utility.yul\":3812:3813   */\n      0x00\n        /* \"#utility.yul\":3805:3893   */\n      mstore\n        /* \"#utility.yul\":3912:3916   */\n      0x32\n        /* \"#utility.yul\":3909:3910   */\n      0x04\n        /* \"#utility.yul\":3902:3917   */\n      mstore\n        /* \"#utility.yul\":3936:3940   */\n      0x24\n        /* \"#utility.yul\":3933:3934   */\n      0x00\n        /* \"#utility.yul\":3926:3941   */\n      revert\n        /* \"#utility.yul\":3953:4133   */\n    tag_13:\n        /* \"#utility.yul\":4001:4078   */\n      0x4e487b7100000000000000000000000000000000000000000000000000000000\n        /* \"#utility.yul\":3998:3999   */\n      0x00\n        /* \"#utility.yul\":3991:4079   */\n      mstore\n        /* \"#utility.yul\":4098:4102   */\n      0x41\n        /* \"#utility.yul\":4095:4096   */\n      0x04\n        /* \"#utility.yul\":4088:4103   */\n      mstore\n        /* \"#utility.yul\":4122:4126   */\n      0x24\n        /* \"#utility.yul\":4119:4120   */\n      0x00\n        /* \"#utility.yul\":4112:4127   */\n      revert\n        /* \"#utility.yul\":4139:4256   */\n    tag_50:\n        /* \"#utility.yul\":4248:4249   */\n      0x00\n        /* \"#utility.yul\":4245:4246   */\n      dup1\n        /* \"#utility.yul\":4238:4250   */\n      revert\n        /* \"#utility.yul\":4262:4379   */\n    tag_47:\n        /* \"#utility.yul\":4371:4372   */\n      0x00\n        /* \"#utility.yul\":4368:4369   */\n      dup1\n        /* \"#utility.yul\":4361:4373   */\n      revert\n        /* \"#utility.yul\":4385:4502   */\n    tag_53:\n        /* \"#utility.yul\":4494:4495   */\n      0x00\n        /* \"#utility.yul\":4491:4492   */\n      dup1\n        /* \"#utility.yul\":4484:4496   */\n      revert\n        /* \"#utility.yul\":4508:4625   */\n    tag_60:\n        /* \"#utility.yul\":4617:4618   */\n      0x00\n        /* \"#utility.yul\":4614:4615   */\n      dup1\n        /* \"#utility.yul\":4607:4619   */\n      revert\n        /* \"#utility.yul\":4631:4748   */\n    tag_57:\n        /* \"#utility.yul\":4740:4741   */\n      0x00\n        /* \"#utility.yul\":4737:4738   */\n      dup1\n        /* \"#utility.yul\":4730:4742   */\n      revert\n\n    auxdata: 0xa2646970667358221220a7d0286d9f12a73852baa9bdaf49fa37512fe3eba3917445f6a3f20e70bd94a864736f6c63430008060033\n}\n",
				"bytecode": {
					"linkReferences": {},
					"object": "60806040523480156200001157600080fd5b5060016000604051620000249062000334565b908152602001604051809103902060006101000a81548161ffff021916908361ffff160217905550600560006040516200005e906200034b565b908152602001604051809103902060006101000a81548161ffff021916908361ffff160217905550600a60006040516200009890620002d8565b908152602001604051809103902060006101000a81548161ffff021916908361ffff16021790555060326000604051620000d2906200031d565b908152602001604051809103902060006101000a81548161ffff021916908361ffff160217905550606460006040516200010c90620002c1565b908152602001604051809103902060006101000a81548161ffff021916908361ffff1602179055506101f460006040516200014790620002ef565b908152602001604051809103902060006101000a81548161ffff021916908361ffff1602179055506103e86000604051620001829062000306565b908152602001604051809103902060006101000a81548161ffff021916908361ffff1602179055506200048c565b6000620001bf60018362000362565b9150620001cc826200036d565b600182019050919050565b6000620001e660018362000362565b9150620001f38262000396565b600182019050919050565b60006200020d60018362000362565b91506200021a82620003bf565b600182019050919050565b60006200023460018362000362565b91506200024182620003e8565b600182019050919050565b60006200025b60018362000362565b9150620002688262000411565b600182019050919050565b60006200028260018362000362565b91506200028f826200043a565b600182019050919050565b6000620002a960018362000362565b9150620002b68262000463565b600182019050919050565b6000620002ce82620001b0565b9150819050919050565b6000620002e582620001d7565b9150819050919050565b6000620002fc82620001fe565b9150819050919050565b6000620003138262000225565b9150819050919050565b60006200032a826200024c565b9150819050919050565b6000620003418262000273565b9150819050919050565b600062000358826200029a565b9150819050919050565b600081905092915050565b7f4300000000000000000000000000000000000000000000000000000000000000600082015250565b7f5800000000000000000000000000000000000000000000000000000000000000600082015250565b7f4400000000000000000000000000000000000000000000000000000000000000600082015250565b7f4d00000000000000000000000000000000000000000000000000000000000000600082015250565b7f4c00000000000000000000000000000000000000000000000000000000000000600082015250565b7f4900000000000000000000000000000000000000000000000000000000000000600082015250565b7f5600000000000000000000000000000000000000000000000000000000000000600082015250565b6105ca806200049c6000396000f3fe608060405234801561001057600080fd5b506004361061002b5760003560e01c8063cb159dfe14610030575b600080fd5b61004a60048036038101906100459190610337565b610060565b60405161005791906103db565b60405180910390f35b60008060009050600084848080601f016020809104026020016040519081016040528093929190818152602001838380828437600081840152601f19601f8201169050808301925050505050505090506000600167ffffffffffffffff8111156100cd576100cc61054c565b5b6040519080825280601f01601f1916602001820160405280156100ff5781602001600182028036833780820191505090505b50905060008251905060005b818161ffff1610156102cf57838161ffff168151811061012e5761012d61051d565b5b602001015160f81c60f81b8360008151811061014d5761014c61051d565b5b60200101907effffffffffffffffffffffffffffffffffffffffffffffffffffffffffffff1916908160001a90535060008390506000808260405161019291906103c4565b908152602001604051809103902060009054906101000a900461ffff169050836001846101bf919061040c565b61ffff1610156102ab57856001846101d7919061040c565b61ffff16815181106101ec576101eb61051d565b5b602001015160f81c60f81b8560008151811061020b5761020a61051d565b5b60200101907effffffffffffffffffffffffffffffffffffffffffffffffffffffffffffff1916908160001a9053506000808660405161024b91906103c4565b908152602001604051809103902060009054906101000a900461ffff1690508161ffff168161ffff1611156102a9578380610285906104c3565b94505081816102949190610444565b8861029f919061040c565b97505050506102bc565b505b80876102b7919061040c565b965050505b80806102c7906104c3565b91505061010b565b508361ffff1694505050505092915050565b60008083601f8401126102f7576102f6610580565b5b8235905067ffffffffffffffff8111156103145761031361057b565b5b6020830191508360018202830111156103305761032f610585565b5b9250929050565b6000806020838503121561034e5761034d61058f565b5b600083013567ffffffffffffffff81111561036c5761036b61058a565b5b610378858286016102e1565b92509250509250929050565b600061038f826103f6565b6103998185610401565b93506103a9818560208601610490565b80840191505092915050565b6103be81610486565b82525050565b60006103d08284610384565b915081905092915050565b60006020820190506103f060008301846103b5565b92915050565b600081519050919050565b600081905092915050565b600061041782610478565b915061042283610478565b92508261ffff03821115610439576104386104ee565b5b828201905092915050565b600061044f82610478565b915061045a83610478565b92508282101561046d5761046c6104ee565b5b828203905092915050565b600061ffff82169050919050565b6000819050919050565b60005b838110156104ae578082015181840152602081019050610493565b838111156104bd576000848401525b50505050565b60006104ce82610478565b915061ffff8214156104e3576104e26104ee565b5b600182019050919050565b7f4e487b7100000000000000000000000000000000000000000000000000000000600052601160045260246000fd5b7f4e487b7100000000000000000000000000000000000000000000000000000000600052603260045260246000fd5b7f4e487b7100000000000000000000000000000000000000000000000000000000600052604160045260246000fd5b600080fd5b600080fd5b600080fd5b600080fd5b600080fdfea2646970667358221220a7d0286d9f12a73852baa9bdaf49fa37512fe3eba3917445f6a3f20e70bd94a864736f6c63430008060033",
					"opcodes": "PUSH1 0x80 PUSH1 0x40 MSTORE CALLVALUE DUP1 ISZERO PUSH3 0x11 JUMPI PUSH1 0x0 DUP1 REVERT JUMPDEST POP PUSH1 0x1 PUSH1 0x0 PUSH1 0x40 MLOAD PUSH3 0x24 SWAP1 PUSH3 0x334 JUMP JUMPDEST SWAP1 DUP2 MSTORE PUSH1 0x20 ADD PUSH1 0x40 MLOAD DUP1 SWAP2 SUB SWAP1 KECCAK256 PUSH1 0x0 PUSH2 0x100 EXP DUP2 SLOAD DUP2 PUSH2 0xFFFF MUL NOT AND SWAP1 DUP4 PUSH2 0xFFFF AND MUL OR SWAP1 SSTORE POP PUSH1 0x5 PUSH1 0x0 PUSH1 0x40 MLOAD PUSH3 0x5E SWAP1 PUSH3 0x34B JUMP JUMPDEST SWAP1 DUP2 MSTORE PUSH1 0x20 ADD PUSH1 0x40 MLOAD DUP1 SWAP2 SUB SWAP1 KECCAK256 PUSH1 0x0 PUSH2 0x100 EXP DUP2 SLOAD DUP2 PUSH2 0xFFFF MUL NOT AND SWAP1 DUP4 PUSH2 0xFFFF AND MUL OR SWAP1 SSTORE POP PUSH1 0xA PUSH1 0x0 PUSH1 0x40 MLOAD PUSH3 0x98 SWAP1 PUSH3 0x2D8 JUMP JUMPDEST SWAP1 DUP2 MSTORE PUSH1 0x20 ADD PUSH1 0x40 MLOAD DUP1 SWAP2 SUB SWAP1 KECCAK256 PUSH1 0x0 PUSH2 0x100 EXP DUP2 SLOAD DUP2 PUSH2 0xFFFF MUL NOT AND SWAP1 DUP4 PUSH2 0xFFFF AND MUL OR SWAP1 SSTORE POP PUSH1 0x32 PUSH1 0x0 PUSH1 0x40 MLOAD PUSH3 0xD2 SWAP1 PUSH3 0x31D JUMP JUMPDEST SWAP1 DUP2 MSTORE PUSH1 0x20 ADD PUSH1 0x40 MLOAD DUP1 SWAP2 SUB SWAP1 KECCAK256 PUSH1 0x0 PUSH2 0x100 EXP DUP2 SLOAD DUP2 PUSH2 0xFFFF MUL NOT AND SWAP1 DUP4 PUSH2 0xFFFF AND MUL OR SWAP1 SSTORE POP PUSH1 0x64 PUSH1 0x0 PUSH1 0x40 MLOAD PUSH3 0x10C SWAP1 PUSH3 0x2C1 JUMP JUMPDEST SWAP1 DUP2 MSTORE PUSH1 0x20 ADD PUSH1 0x40 MLOAD DUP1 SWAP2 SUB SWAP1 KECCAK256 PUSH1 0x0 PUSH2 0x100 EXP DUP2 SLOAD DUP2 PUSH2 0xFFFF MUL NOT AND SWAP1 DUP4 PUSH2 0xFFFF AND MUL OR SWAP1 SSTORE POP PUSH2 0x1F4 PUSH1 0x0 PUSH1 0x40 MLOAD PUSH3 0x147 SWAP1 PUSH3 0x2EF JUMP JUMPDEST SWAP1 DUP2 MSTORE PUSH1 0x20 ADD PUSH1 0x40 MLOAD DUP1 SWAP2 SUB SWAP1 KECCAK256 PUSH1 0x0 PUSH2 0x100 EXP DUP2 SLOAD DUP2 PUSH2 0xFFFF MUL NOT AND SWAP1 DUP4 PUSH2 0xFFFF AND MUL OR SWAP1 SSTORE POP PUSH2 0x3E8 PUSH1 0x0 PUSH1 0x40 MLOAD PUSH3 0x182 SWAP1 PUSH3 0x306 JUMP JUMPDEST SWAP1 DUP2 MSTORE PUSH1 0x20 ADD PUSH1 0x40 MLOAD DUP1 SWAP2 SUB SWAP1 KECCAK256 PUSH1 0x0 PUSH2 0x100 EXP DUP2 SLOAD DUP2 PUSH2 0xFFFF MUL NOT AND SWAP1 DUP4 PUSH2 0xFFFF AND MUL OR SWAP1 SSTORE POP PUSH3 0x48C JUMP JUMPDEST PUSH1 0x0 PUSH3 0x1BF PUSH1 0x1 DUP4 PUSH3 0x362 JUMP JUMPDEST SWAP2 POP PUSH3 0x1CC DUP3 PUSH3 0x36D JUMP JUMPDEST PUSH1 0x1 DUP3 ADD SWAP1 POP SWAP2 SWAP1 POP JUMP JUMPDEST PUSH1 0x0 PUSH3 0x1E6 PUSH1 0x1 DUP4 PUSH3 0x362 JUMP JUMPDEST SWAP2 POP PUSH3 0x1F3 DUP3 PUSH3 0x396 JUMP JUMPDEST PUSH1 0x1 DUP3 ADD SWAP1 POP SWAP2 SWAP1 POP JUMP JUMPDEST PUSH1 0x0 PUSH3 0x20D PUSH1 0x1 DUP4 PUSH3 0x362 JUMP JUMPDEST SWAP2 POP PUSH3 0x21A DUP3 PUSH3 0x3BF JUMP JUMPDEST PUSH1 0x1 DUP3 ADD SWAP1 POP SWAP2 SWAP1 POP JUMP JUMPDEST PUSH1 0x0 PUSH3 0x234 PUSH1 0x1 DUP4 PUSH3 0x362 JUMP JUMPDEST SWAP2 POP PUSH3 0x241 DUP3 PUSH3 0x3E8 JUMP JUMPDEST PUSH1 0x1 DUP3 ADD SWAP1 POP SWAP2 SWAP1 POP JUMP JUMPDEST PUSH1 0x0 PUSH3 0x25B PUSH1 0x1 DUP4 PUSH3 0x362 JUMP JUMPDEST SWAP2 POP PUSH3 0x268 DUP3 PUSH3 0x411 JUMP JUMPDEST PUSH1 0x1 DUP3 ADD SWAP1 POP SWAP2 SWAP1 POP JUMP JUMPDEST PUSH1 0x0 PUSH3 0x282 PUSH1 0x1 DUP4 PUSH3 0x362 JUMP JUMPDEST SWAP2 POP PUSH3 0x28F DUP3 PUSH3 0x43A JUMP JUMPDEST PUSH1 0x1 DUP3 ADD SWAP1 POP SWAP2 SWAP1 POP JUMP JUMPDEST PUSH1 0x0 PUSH3 0x2A9 PUSH1 0x1 DUP4 PUSH3 0x362 JUMP JUMPDEST SWAP2 POP PUSH3 0x2B6 DUP3 PUSH3 0x463 JUMP JUMPDEST PUSH1 0x1 DUP3 ADD SWAP1 POP SWAP2 SWAP1 POP JUMP JUMPDEST PUSH1 0x0 PUSH3 0x2CE DUP3 PUSH3 0x1B0 JUMP JUMPDEST SWAP2 POP DUP2 SWAP1 POP SWAP2 SWAP1 POP JUMP JUMPDEST PUSH1 0x0 PUSH3 0x2E5 DUP3 PUSH3 0x1D7 JUMP JUMPDEST SWAP2 POP DUP2 SWAP1 POP SWAP2 SWAP1 POP JUMP JUMPDEST PUSH1 0x0 PUSH3 0x2FC DUP3 PUSH3 0x1FE JUMP JUMPDEST SWAP2 POP DUP2 SWAP1 POP SWAP2 SWAP1 POP JUMP JUMPDEST PUSH1 0x0 PUSH3 0x313 DUP3 PUSH3 0x225 JUMP JUMPDEST SWAP2 POP DUP2 SWAP1 POP SWAP2 SWAP1 POP JUMP JUMPDEST PUSH1 0x0 PUSH3 0x32A DUP3 PUSH3 0x24C JUMP JUMPDEST SWAP2 POP DUP2 SWAP1 POP SWAP2 SWAP1 POP JUMP JUMPDEST PUSH1 0x0 PUSH3 0x341 DUP3 PUSH3 0x273 JUMP JUMPDEST SWAP2 POP DUP2 SWAP1 POP SWAP2 SWAP1 POP JUMP JUMPDEST PUSH1 0x0 PUSH3 0x358 DUP3 PUSH3 0x29A JUMP JUMPDEST SWAP2 POP DUP2 SWAP1 POP SWAP2 SWAP1 POP JUMP JUMPDEST PUSH1 0x0 DUP2 SWAP1 POP SWAP3 SWAP2 POP POP JUMP JUMPDEST PUSH32 0x4300000000000000000000000000000000000000000000000000000000000000 PUSH1 0x0 DUP3 ADD MSTORE POP JUMP JUMPDEST PUSH32 0x5800000000000000000000000000000000000000000000000000000000000000 PUSH1 0x0 DUP3 ADD MSTORE POP JUMP JUMPDEST PUSH32 0x4400000000000000000000000000000000000000000000000000000000000000 PUSH1 0x0 DUP3 ADD MSTORE POP JUMP JUMPDEST PUSH32 0x4D00000000000000000000000000000000000000000000000000000000000000 PUSH1 0x0 DUP3 ADD MSTORE POP JUMP JUMPDEST PUSH32 0x4C00000000000000000000000000000000000000000000000000000000000000 PUSH1 0x0 DUP3 ADD MSTORE POP JUMP JUMPDEST PUSH32 0x4900000000000000000000000000000000000000000000000000000000000000 PUSH1 0x0 DUP3 ADD MSTORE POP JUMP JUMPDEST PUSH32 0x5600000000000000000000000000000000000000000000000000000000000000 PUSH1 0x0 DUP3 ADD MSTORE POP JUMP JUMPDEST PUSH2 0x5CA DUP1 PUSH3 0x49C PUSH1 0x0 CODECOPY PUSH1 0x0 RETURN INVALID PUSH1 0x80 PUSH1 0x40 MSTORE CALLVALUE DUP1 ISZERO PUSH2 0x10 JUMPI PUSH1 0x0 DUP1 REVERT JUMPDEST POP PUSH1 0x4 CALLDATASIZE LT PUSH2 0x2B JUMPI PUSH1 0x0 CALLDATALOAD PUSH1 0xE0 SHR DUP1 PUSH4 0xCB159DFE EQ PUSH2 0x30 JUMPI JUMPDEST PUSH1 0x0 DUP1 REVERT JUMPDEST PUSH2 0x4A PUSH1 0x4 DUP1 CALLDATASIZE SUB DUP2 ADD SWAP1 PUSH2 0x45 SWAP2 SWAP1 PUSH2 0x337 JUMP JUMPDEST PUSH2 0x60 JUMP JUMPDEST PUSH1 0x40 MLOAD PUSH2 0x57 SWAP2 SWAP1 PUSH2 0x3DB JUMP JUMPDEST PUSH1 0x40 MLOAD DUP1 SWAP2 SUB SWAP1 RETURN JUMPDEST PUSH1 0x0 DUP1 PUSH1 0x0 SWAP1 POP PUSH1 0x0 DUP5 DUP5 DUP1 DUP1 PUSH1 0x1F ADD PUSH1 0x20 DUP1 SWAP2 DIV MUL PUSH1 0x20 ADD PUSH1 0x40 MLOAD SWAP1 DUP2 ADD PUSH1 0x40 MSTORE DUP1 SWAP4 SWAP3 SWAP2 SWAP1 DUP2 DUP2 MSTORE PUSH1 0x20 ADD DUP4 DUP4 DUP1 DUP3 DUP5 CALLDATACOPY PUSH1 0x0 DUP2 DUP5 ADD MSTORE PUSH1 0x1F NOT PUSH1 0x1F DUP3 ADD AND SWAP1 POP DUP1 DUP4 ADD SWAP3 POP POP POP POP POP POP POP SWAP1 POP PUSH1 0x0 PUSH1 0x1 PUSH8 0xFFFFFFFFFFFFFFFF DUP2 GT ISZERO PUSH2 0xCD JUMPI PUSH2 0xCC PUSH2 0x54C JUMP JUMPDEST JUMPDEST PUSH1 0x40 MLOAD SWAP1 DUP1 DUP3 MSTORE DUP1 PUSH1 0x1F ADD PUSH1 0x1F NOT AND PUSH1 0x20 ADD DUP3 ADD PUSH1 0x40 MSTORE DUP1 ISZERO PUSH2 0xFF JUMPI DUP2 PUSH1 0x20 ADD PUSH1 0x1 DUP3 MUL DUP1 CALLDATASIZE DUP4 CALLDATACOPY DUP1 DUP3 ADD SWAP2 POP POP SWAP1 POP JUMPDEST POP SWAP1 POP PUSH1 0x0 DUP3 MLOAD SWAP1 POP PUSH1 0x0 JUMPDEST DUP2 DUP2 PUSH2 0xFFFF AND LT ISZERO PUSH2 0x2CF JUMPI DUP4 DUP2 PUSH2 0xFFFF AND DUP2 MLOAD DUP2 LT PUSH2 0x12E JUMPI PUSH2 0x12D PUSH2 0x51D JUMP JUMPDEST JUMPDEST PUSH1 0x20 ADD ADD MLOAD PUSH1 0xF8 SHR PUSH1 0xF8 SHL DUP4 PUSH1 0x0 DUP2 MLOAD DUP2 LT PUSH2 0x14D JUMPI PUSH2 0x14C PUSH2 0x51D JUMP JUMPDEST JUMPDEST PUSH1 0x20 ADD ADD SWAP1 PUSH31 0xFFFFFFFFFFFFFFFFFFFFFFFFFFFFFFFFFFFFFFFFFFFFFFFFFFFFFFFFFFFFFF NOT AND SWAP1 DUP2 PUSH1 0x0 BYTE SWAP1 MSTORE8 POP PUSH1 0x0 DUP4 SWAP1 POP PUSH1 0x0 DUP1 DUP3 PUSH1 0x40 MLOAD PUSH2 0x192 SWAP2 SWAP1 PUSH2 0x3C4 JUMP JUMPDEST SWAP1 DUP2 MSTORE PUSH1 0x20 ADD PUSH1 0x40 MLOAD DUP1 SWAP2 SUB SWAP1 KECCAK256 PUSH1 0x0 SWAP1 SLOAD SWAP1 PUSH2 0x100 EXP SWAP1 DIV PUSH2 0xFFFF AND SWAP1 POP DUP4 PUSH1 0x1 DUP5 PUSH2 0x1BF SWAP2 SWAP1 PUSH2 0x40C JUMP JUMPDEST PUSH2 0xFFFF AND LT ISZERO PUSH2 0x2AB JUMPI DUP6 PUSH1 0x1 DUP5 PUSH2 0x1D7 SWAP2 SWAP1 PUSH2 0x40C JUMP JUMPDEST PUSH2 0xFFFF AND DUP2 MLOAD DUP2 LT PUSH2 0x1EC JUMPI PUSH2 0x1EB PUSH2 0x51D JUMP JUMPDEST JUMPDEST PUSH1 0x20 ADD ADD MLOAD PUSH1 0xF8 SHR PUSH1 0xF8 SHL DUP6 PUSH1 0x0 DUP2 MLOAD DUP2 LT PUSH2 0x20B JUMPI PUSH2 0x20A PUSH2 0x51D JUMP JUMPDEST JUMPDEST PUSH1 0x20 ADD ADD SWAP1 PUSH31 0xFFFFFFFFFFFFFFFFFFFFFFFFFFFFFFFFFFFFFFFFFFFFFFFFFFFFFFFFFFFFFF NOT AND SWAP1 DUP2 PUSH1 0x0 BYTE SWAP1 MSTORE8 POP PUSH1 0x0 DUP1 DUP7 PUSH1 0x40 MLOAD PUSH2 0x24B SWAP2 SWAP1 PUSH2 0x3C4 JUMP JUMPDEST SWAP1 DUP2 MSTORE PUSH1 0x20 ADD PUSH1 0x40 MLOAD DUP1 SWAP2 SUB SWAP1 KECCAK256 PUSH1 0x0 SWAP1 SLOAD SWAP1 PUSH2 0x100 EXP SWAP1 DIV PUSH2 0xFFFF AND SWAP1 POP DUP2 PUSH2 0xFFFF AND DUP2 PUSH2 0xFFFF AND GT ISZERO PUSH2 0x2A9 JUMPI DUP4 DUP1 PUSH2 0x285 SWAP1 PUSH2 0x4C3 JUMP JUMPDEST SWAP5 POP POP DUP2 DUP2 PUSH2 0x294 SWAP2 SWAP1 PUSH2 0x444 JUMP JUMPDEST DUP9 PUSH2 0x29F SWAP2 SWAP1 PUSH2 0x40C JUMP JUMPDEST SWAP8 POP POP POP POP PUSH2 0x2BC JUMP JUMPDEST POP JUMPDEST DUP1 DUP8 PUSH2 0x2B7 SWAP2 SWAP1 PUSH2 0x40C JUMP JUMPDEST SWAP7 POP POP POP JUMPDEST DUP1 DUP1 PUSH2 0x2C7 SWAP1 PUSH2 0x4C3 JUMP JUMPDEST SWAP2 POP POP PUSH2 0x10B JUMP JUMPDEST POP DUP4 PUSH2 0xFFFF AND SWAP5 POP POP POP POP POP SWAP3 SWAP2 POP POP JUMP JUMPDEST PUSH1 0x0 DUP1 DUP4 PUSH1 0x1F DUP5 ADD SLT PUSH2 0x2F7 JUMPI PUSH2 0x2F6 PUSH2 0x580 JUMP JUMPDEST JUMPDEST DUP3 CALLDATALOAD SWAP1 POP PUSH8 0xFFFFFFFFFFFFFFFF DUP2 GT ISZERO PUSH2 0x314 JUMPI PUSH2 0x313 PUSH2 0x57B JUMP JUMPDEST JUMPDEST PUSH1 0x20 DUP4 ADD SWAP2 POP DUP4 PUSH1 0x1 DUP3 MUL DUP4 ADD GT ISZERO PUSH2 0x330 JUMPI PUSH2 0x32F PUSH2 0x585 JUMP JUMPDEST JUMPDEST SWAP3 POP SWAP3 SWAP1 POP JUMP JUMPDEST PUSH1 0x0 DUP1 PUSH1 0x20 DUP4 DUP6 SUB SLT ISZERO PUSH2 0x34E JUMPI PUSH2 0x34D PUSH2 0x58F JUMP JUMPDEST JUMPDEST PUSH1 0x0 DUP4 ADD CALLDATALOAD PUSH8 0xFFFFFFFFFFFFFFFF DUP2 GT ISZERO PUSH2 0x36C JUMPI PUSH2 0x36B PUSH2 0x58A JUMP JUMPDEST JUMPDEST PUSH2 0x378 DUP6 DUP3 DUP7 ADD PUSH2 0x2E1 JUMP JUMPDEST SWAP3 POP SWAP3 POP POP SWAP3 POP SWAP3 SWAP1 POP JUMP JUMPDEST PUSH1 0x0 PUSH2 0x38F DUP3 PUSH2 0x3F6 JUMP JUMPDEST PUSH2 0x399 DUP2 DUP6 PUSH2 0x401 JUMP JUMPDEST SWAP4 POP PUSH2 0x3A9 DUP2 DUP6 PUSH1 0x20 DUP7 ADD PUSH2 0x490 JUMP JUMPDEST DUP1 DUP5 ADD SWAP2 POP POP SWAP3 SWAP2 POP POP JUMP JUMPDEST PUSH2 0x3BE DUP2 PUSH2 0x486 JUMP JUMPDEST DUP3 MSTORE POP POP JUMP JUMPDEST PUSH1 0x0 PUSH2 0x3D0 DUP3 DUP5 PUSH2 0x384 JUMP JUMPDEST SWAP2 POP DUP2 SWAP1 POP SWAP3 SWAP2 POP POP JUMP JUMPDEST PUSH1 0x0 PUSH1 0x20 DUP3 ADD SWAP1 POP PUSH2 0x3F0 PUSH1 0x0 DUP4 ADD DUP5 PUSH2 0x3B5 JUMP JUMPDEST SWAP3 SWAP2 POP POP JUMP JUMPDEST PUSH1 0x0 DUP2 MLOAD SWAP1 POP SWAP2 SWAP1 POP JUMP JUMPDEST PUSH1 0x0 DUP2 SWAP1 POP SWAP3 SWAP2 POP POP JUMP JUMPDEST PUSH1 0x0 PUSH2 0x417 DUP3 PUSH2 0x478 JUMP JUMPDEST SWAP2 POP PUSH2 0x422 DUP4 PUSH2 0x478 JUMP JUMPDEST SWAP3 POP DUP3 PUSH2 0xFFFF SUB DUP3 GT ISZERO PUSH2 0x439 JUMPI PUSH2 0x438 PUSH2 0x4EE JUMP JUMPDEST JUMPDEST DUP3 DUP3 ADD SWAP1 POP SWAP3 SWAP2 POP POP JUMP JUMPDEST PUSH1 0x0 PUSH2 0x44F DUP3 PUSH2 0x478 JUMP JUMPDEST SWAP2 POP PUSH2 0x45A DUP4 PUSH2 0x478 JUMP JUMPDEST SWAP3 POP DUP3 DUP3 LT ISZERO PUSH2 0x46D JUMPI PUSH2 0x46C PUSH2 0x4EE JUMP JUMPDEST JUMPDEST DUP3 DUP3 SUB SWAP1 POP SWAP3 SWAP2 POP POP JUMP JUMPDEST PUSH1 0x0 PUSH2 0xFFFF DUP3 AND SWAP1 POP SWAP2 SWAP1 POP JUMP JUMPDEST PUSH1 0x0 DUP2 SWAP1 POP SWAP2 SWAP1 POP JUMP JUMPDEST PUSH1 0x0 JUMPDEST DUP4 DUP2 LT ISZERO PUSH2 0x4AE JUMPI DUP1 DUP3 ADD MLOAD DUP2 DUP5 ADD MSTORE PUSH1 0x20 DUP2 ADD SWAP1 POP PUSH2 0x493 JUMP JUMPDEST DUP4 DUP2 GT ISZERO PUSH2 0x4BD JUMPI PUSH1 0x0 DUP5 DUP5 ADD MSTORE JUMPDEST POP POP POP POP JUMP JUMPDEST PUSH1 0x0 PUSH2 0x4CE DUP3 PUSH2 0x478 JUMP JUMPDEST SWAP2 POP PUSH2 0xFFFF DUP3 EQ ISZERO PUSH2 0x4E3 JUMPI PUSH2 0x4E2 PUSH2 0x4EE JUMP JUMPDEST JUMPDEST PUSH1 0x1 DUP3 ADD SWAP1 POP SWAP2 SWAP1 POP JUMP JUMPDEST PUSH32 0x4E487B7100000000000000000000000000000000000000000000000000000000 PUSH1 0x0 MSTORE PUSH1 0x11 PUSH1 0x4 MSTORE PUSH1 0x24 PUSH1 0x0 REVERT JUMPDEST PUSH32 0x4E487B7100000000000000000000000000000000000000000000000000000000 PUSH1 0x0 MSTORE PUSH1 0x32 PUSH1 0x4 MSTORE PUSH1 0x24 PUSH1 0x0 REVERT JUMPDEST PUSH32 0x4E487B7100000000000000000000000000000000000000000000000000000000 PUSH1 0x0 MSTORE PUSH1 0x41 PUSH1 0x4 MSTORE PUSH1 0x24 PUSH1 0x0 REVERT JUMPDEST PUSH1 0x0 DUP1 REVERT JUMPDEST PUSH1 0x0 DUP1 REVERT JUMPDEST PUSH1 0x0 DUP1 REVERT JUMPDEST PUSH1 0x0 DUP1 REVERT JUMPDEST PUSH1 0x0 DUP1 REVERT INVALID LOG2 PUSH5 0x6970667358 0x22 SLT KECCAK256 0xA7 0xD0 0x28 PUSH14 0x9F12A73852BAA9BDAF49FA37512F 0xE3 0xEB LOG3 SWAP2 PUSH21 0x45F6A3F20E70BD94A864736F6C6343000806003300 "
				},
				"gasEstimates": {
					"creation": {
						"codeDepositCost": "296400",
						"executionCost": "infinite",
						"totalCost": "infinite"
					},
					"external": {
						"romanToInt(string)": "infinite"
					}
				},
				"methodIdentifiers": {
					"romanToInt(string)": "cb159dfe"
				}
			},
			"storageLayout": {
				"storage": [
					{
						"astId": 5,
						"contract": "stage01/Task03.sol:Task03",
						"label": "romanMap",
						"offset": 0,
						"slot": "0",
						"type": "t_mapping(t_string_memory_ptr,t_uint16)"
					}
				],
				"types": {
					"t_mapping(t_string_memory_ptr,t_uint16)": {
						"encoding": "mapping",
						"key": "t_string_memory_ptr",
						"label": "mapping(string => uint16)",
						"numberOfBytes": "32",
						"value": "t_uint16"
					},
					"t_string_memory_ptr": {
						"encoding": "bytes",
						"label": "string",
						"numberOfBytes": "32"
					},
					"t_uint16": {
						"encoding": "inplace",
						"label": "uint16",
						"numberOfBytes": "2"
					}
				}
			},
			"userdoc": {
				"kind": "user",
				"methods": {},
				"version": 1
			}
		}
	}
}