{
	"stage01/Task05.sol": {
		"Task06": {
			"abi": [
				{
					"inputs": [
						{
							"internalType": "uint256[]",
							"name": "arr",
							"type": "uint256[]"
						},
						{
							"internalType": "uint256",
							"name": "target",
							"type": "uint256"
						}
					],
					"name": "mergeSortedArray",
					"outputs": [
						{
							"internalType": "uint256",
							"name": "",
							"type": "uint256"
						}
					],
					"stateMutability": "pure",
					"type": "function"
				}
			],
			"devdoc": {
				"kind": "dev",
				"methods": {},
				"version": 1
			},
			"evm": {
				"assembly": "    /* \"stage01/Task05.sol\":60:855  contract Task06{\r... */\n  mstore(0x40, 0x80)\n  callvalue\n  dup1\n  iszero\n  tag_1\n  jumpi\n  0x00\n  dup1\n  revert\ntag_1:\n  pop\n  dataSize(sub_0)\n  dup1\n  dataOffset(sub_0)\n  0x00\n  codecopy\n  0x00\n  return\nstop\n\nsub_0: assembly {\n        /* \"stage01/Task05.sol\":60:855  contract Task06{\r... */\n      mstore(0x40, 0x80)\n      callvalue\n      dup1\n      iszero\n      tag_1\n      jumpi\n      0x00\n      dup1\n      revert\n    tag_1:\n      pop\n      jumpi(tag_2, lt(calldatasize, 0x04))\n      shr(0xe0, calldataload(0x00))\n      dup1\n      0x71dfac2d\n      eq\n      tag_3\n      jumpi\n    tag_2:\n      0x00\n      dup1\n      revert\n        /* \"stage01/Task05.sol\":82:852  function mergeSortedArray(uint[] memory arr,uint target) public pure returns (uint) {\r... */\n    tag_3:\n      tag_4\n      0x04\n      dup1\n      calldatasize\n      sub\n      dup2\n      add\n      swap1\n      tag_5\n      swap2\n      swap1\n      tag_6\n      jump\t// in\n    tag_5:\n      tag_7\n      jump\t// in\n    tag_4:\n      mload(0x40)\n      tag_8\n      swap2\n      swap1\n      tag_9\n      jump\t// in\n    tag_8:\n      mload(0x40)\n      dup1\n      swap2\n      sub\n      swap1\n      return\n    tag_7:\n        /* \"stage01/Task05.sol\":160:164  uint */\n      0x00\n        /* \"stage01/Task05.sol\":177:188  uint result */\n      dup1\n        /* \"stage01/Task05.sol\":191:192  0 */\n      0x00\n        /* \"stage01/Task05.sol\":177:192  uint result = 0 */\n      swap1\n      pop\n        /* \"stage01/Task05.sol\":203:212  uint left */\n      0x00\n        /* \"stage01/Task05.sol\":227:237  uint right */\n      dup1\n        /* \"stage01/Task05.sol\":252:253  1 */\n      0x01\n        /* \"stage01/Task05.sol\":240:243  arr */\n      dup7\n        /* \"stage01/Task05.sol\":240:250  arr.length */\n      mload\n        /* \"stage01/Task05.sol\":240:253  arr.length -1 */\n      tag_11\n      swap2\n      swap1\n      tag_12\n      jump\t// in\n    tag_11:\n        /* \"stage01/Task05.sol\":227:253  uint right = arr.length -1 */\n      swap1\n      pop\n        /* \"stage01/Task05.sol\":264:275  uint middle */\n      0x00\n        /* \"stage01/Task05.sol\":290:291  2 */\n      0x02\n        /* \"stage01/Task05.sol\":278:281  arr */\n      dup8\n        /* \"stage01/Task05.sol\":278:288  arr.length */\n      mload\n        /* \"stage01/Task05.sol\":278:291  arr.length /2 */\n      tag_13\n      swap2\n      swap1\n      tag_14\n      jump\t// in\n    tag_13:\n        /* \"stage01/Task05.sol\":264:291  uint middle = arr.length /2 */\n      swap1\n      pop\n        /* \"stage01/Task05.sol\":306:825  while(true){\r... */\n    tag_15:\n        /* \"stage01/Task05.sol\":312:316  true */\n      0x01\n        /* \"stage01/Task05.sol\":306:825  while(true){\r... */\n      iszero\n      tag_16\n      jumpi\n        /* \"stage01/Task05.sol\":347:352  right */\n      dup2\n        /* \"stage01/Task05.sol\":339:343  left */\n      dup4\n        /* \"stage01/Task05.sol\":339:352  left == right */\n      eq\n        /* \"stage01/Task05.sol\":336:510  if(left == right){\r... */\n      iszero\n      tag_17\n      jumpi\n        /* \"stage01/Task05.sol\":392:398  target */\n      dup6\n        /* \"stage01/Task05.sol\":379:382  arr */\n      dup8\n        /* \"stage01/Task05.sol\":383:387  left */\n      dup5\n        /* \"stage01/Task05.sol\":379:388  arr[left] */\n      dup2\n      mload\n      dup2\n      lt\n      tag_18\n      jumpi\n      tag_19\n      tag_20\n      jump\t// in\n    tag_19:\n    tag_18:\n      0x20\n      mul\n      0x20\n      add\n      add\n      mload\n        /* \"stage01/Task05.sol\":379:398  arr[left] == target */\n      eq\n        /* \"stage01/Task05.sol\":376:463  if(arr[left] == target){\r... */\n      iszero\n      tag_21\n      jumpi\n        /* \"stage01/Task05.sol\":435:439  left */\n      dup3\n        /* \"stage01/Task05.sol\":426:439  result = left */\n      swap4\n      pop\n        /* \"stage01/Task05.sol\":376:463  if(arr[left] == target){\r... */\n    tag_21:\n        /* \"stage01/Task05.sol\":485:490  break */\n      jump(tag_16)\n        /* \"stage01/Task05.sol\":336:510  if(left == right){\r... */\n    tag_17:\n        /* \"stage01/Task05.sol\":546:552  target */\n      dup6\n        /* \"stage01/Task05.sol\":531:534  arr */\n      dup8\n        /* \"stage01/Task05.sol\":535:541  middle */\n      dup3\n        /* \"stage01/Task05.sol\":531:542  arr[middle] */\n      dup2\n      mload\n      dup2\n      lt\n      tag_22\n      jumpi\n      tag_23\n      tag_20\n      jump\t// in\n    tag_23:\n    tag_22:\n      0x20\n      mul\n      0x20\n      add\n      add\n      mload\n        /* \"stage01/Task05.sol\":531:552  arr[middle] == target */\n      eq\n        /* \"stage01/Task05.sol\":528:760  if(arr[middle] == target){\r... */\n      iszero\n      tag_24\n      jumpi\n        /* \"stage01/Task05.sol\":583:589  middle */\n      dup1\n        /* \"stage01/Task05.sol\":576:589  return middle */\n      swap5\n      pop\n      pop\n      pop\n      pop\n      pop\n      jump(tag_10)\n        /* \"stage01/Task05.sol\":528:760  if(arr[middle] == target){\r... */\n    tag_24:\n        /* \"stage01/Task05.sol\":632:638  target */\n      dup6\n        /* \"stage01/Task05.sol\":618:621  arr */\n      dup8\n        /* \"stage01/Task05.sol\":622:628  middle */\n      dup3\n        /* \"stage01/Task05.sol\":618:629  arr[middle] */\n      dup2\n      mload\n      dup2\n      lt\n      tag_26\n      jumpi\n      tag_27\n      tag_20\n      jump\t// in\n    tag_27:\n    tag_26:\n      0x20\n      mul\n      0x20\n      add\n      add\n      mload\n        /* \"stage01/Task05.sol\":618:638  arr[middle] < target */\n      lt\n        /* \"stage01/Task05.sol\":615:760  if(arr[middle] < target){\r... */\n      iszero\n      tag_28\n      jumpi\n        /* \"stage01/Task05.sol\":677:678  1 */\n      0x01\n        /* \"stage01/Task05.sol\":669:675  middle */\n      dup2\n        /* \"stage01/Task05.sol\":669:678  middle +1 */\n      tag_29\n      swap2\n      swap1\n      tag_30\n      jump\t// in\n    tag_29:\n        /* \"stage01/Task05.sol\":662:678  left = middle +1 */\n      swap3\n      pop\n        /* \"stage01/Task05.sol\":615:760  if(arr[middle] < target){\r... */\n      jump(tag_31)\n    tag_28:\n        /* \"stage01/Task05.sol\":734:740  middle */\n      dup1\n        /* \"stage01/Task05.sol\":726:740  right = middle */\n      swap2\n      pop\n        /* \"stage01/Task05.sol\":615:760  if(arr[middle] < target){\r... */\n    tag_31:\n        /* \"stage01/Task05.sol\":808:809  2 */\n      0x02\n        /* \"stage01/Task05.sol\":802:806  left */\n      dup4\n        /* \"stage01/Task05.sol\":795:800  right */\n      dup4\n        /* \"stage01/Task05.sol\":795:806  right -left */\n      tag_32\n      swap2\n      swap1\n      tag_12\n      jump\t// in\n    tag_32:\n        /* \"stage01/Task05.sol\":794:809  (right -left)/2 */\n      tag_33\n      swap2\n      swap1\n      tag_14\n      jump\t// in\n    tag_33:\n        /* \"stage01/Task05.sol\":787:791  left */\n      dup4\n        /* \"stage01/Task05.sol\":787:809  left + (right -left)/2 */\n      tag_34\n      swap2\n      swap1\n      tag_30\n      jump\t// in\n    tag_34:\n        /* \"stage01/Task05.sol\":778:809  middle = left + (right -left)/2 */\n      swap1\n      pop\n        /* \"stage01/Task05.sol\":306:825  while(true){\r... */\n      jump(tag_15)\n    tag_16:\n        /* \"stage01/Task05.sol\":842:848  result */\n      dup4\n        /* \"stage01/Task05.sol\":835:848  return result */\n      swap5\n      pop\n      pop\n      pop\n      pop\n      pop\n        /* \"stage01/Task05.sol\":82:852  function mergeSortedArray(uint[] memory arr,uint target) public pure returns (uint) {\r... */\n    tag_10:\n      swap3\n      swap2\n      pop\n      pop\n      jump\t// out\n        /* \"#utility.yul\":24:746   */\n    tag_36:\n        /* \"#utility.yul\":120:125   */\n      0x00\n        /* \"#utility.yul\":145:226   */\n      tag_38\n        /* \"#utility.yul\":161:225   */\n      tag_39\n        /* \"#utility.yul\":218:224   */\n      dup5\n        /* \"#utility.yul\":161:225   */\n      tag_40\n      jump\t// in\n    tag_39:\n        /* \"#utility.yul\":145:226   */\n      tag_41\n      jump\t// in\n    tag_38:\n        /* \"#utility.yul\":136:226   */\n      swap1\n      pop\n        /* \"#utility.yul\":246:251   */\n      dup1\n        /* \"#utility.yul\":275:281   */\n      dup4\n        /* \"#utility.yul\":268:273   */\n      dup3\n        /* \"#utility.yul\":261:282   */\n      mstore\n        /* \"#utility.yul\":309:313   */\n      0x20\n        /* \"#utility.yul\":302:307   */\n      dup3\n        /* \"#utility.yul\":298:314   */\n      add\n        /* \"#utility.yul\":291:314   */\n      swap1\n      pop\n        /* \"#utility.yul\":335:341   */\n      dup3\n        /* \"#utility.yul\":385:388   */\n      dup6\n        /* \"#utility.yul\":377:381   */\n      0x20\n        /* \"#utility.yul\":369:375   */\n      dup7\n        /* \"#utility.yul\":365:382   */\n      mul\n        /* \"#utility.yul\":360:363   */\n      dup3\n        /* \"#utility.yul\":356:383   */\n      add\n        /* \"#utility.yul\":353:389   */\n      gt\n        /* \"#utility.yul\":350:352   */\n      iszero\n      tag_42\n      jumpi\n        /* \"#utility.yul\":404:483   */\n      tag_43\n      tag_44\n      jump\t// in\n    tag_43:\n        /* \"#utility.yul\":350:352   */\n    tag_42:\n        /* \"#utility.yul\":517:518   */\n      0x00\n        /* \"#utility.yul\":502:740   */\n    tag_45:\n        /* \"#utility.yul\":527:533   */\n      dup6\n        /* \"#utility.yul\":524:525   */\n      dup2\n        /* \"#utility.yul\":521:534   */\n      lt\n        /* \"#utility.yul\":502:740   */\n      iszero\n      tag_47\n      jumpi\n        /* \"#utility.yul\":595:598   */\n      dup2\n        /* \"#utility.yul\":624:661   */\n      tag_48\n        /* \"#utility.yul\":657:660   */\n      dup9\n        /* \"#utility.yul\":645:655   */\n      dup3\n        /* \"#utility.yul\":624:661   */\n      tag_49\n      jump\t// in\n    tag_48:\n        /* \"#utility.yul\":619:622   */\n      dup5\n        /* \"#utility.yul\":612:662   */\n      mstore\n        /* \"#utility.yul\":691:695   */\n      0x20\n        /* \"#utility.yul\":686:689   */\n      dup5\n        /* \"#utility.yul\":682:696   */\n      add\n        /* \"#utility.yul\":675:696   */\n      swap4\n      pop\n        /* \"#utility.yul\":725:729   */\n      0x20\n        /* \"#utility.yul\":720:723   */\n      dup4\n        /* \"#utility.yul\":716:730   */\n      add\n        /* \"#utility.yul\":709:730   */\n      swap3\n      pop\n        /* \"#utility.yul\":562:740   */\n      pop\n        /* \"#utility.yul\":549:550   */\n      0x01\n        /* \"#utility.yul\":546:547   */\n      dup2\n        /* \"#utility.yul\":542:551   */\n      add\n        /* \"#utility.yul\":537:551   */\n      swap1\n      pop\n        /* \"#utility.yul\":502:740   */\n      jump(tag_45)\n    tag_47:\n        /* \"#utility.yul\":506:520   */\n      pop\n        /* \"#utility.yul\":126:746   */\n      pop\n      pop\n      swap4\n      swap3\n      pop\n      pop\n      pop\n      jump\t// out\n        /* \"#utility.yul\":769:1139   */\n    tag_50:\n        /* \"#utility.yul\":840:845   */\n      0x00\n        /* \"#utility.yul\":889:892   */\n      dup3\n        /* \"#utility.yul\":882:886   */\n      0x1f\n        /* \"#utility.yul\":874:880   */\n      dup4\n        /* \"#utility.yul\":870:887   */\n      add\n        /* \"#utility.yul\":866:893   */\n      slt\n        /* \"#utility.yul\":856:858   */\n      tag_52\n      jumpi\n        /* \"#utility.yul\":897:976   */\n      tag_53\n      tag_54\n      jump\t// in\n    tag_53:\n        /* \"#utility.yul\":856:858   */\n    tag_52:\n        /* \"#utility.yul\":1014:1020   */\n      dup2\n        /* \"#utility.yul\":1001:1021   */\n      calldataload\n        /* \"#utility.yul\":1039:1133   */\n      tag_55\n        /* \"#utility.yul\":1129:1132   */\n      dup5\n        /* \"#utility.yul\":1121:1127   */\n      dup3\n        /* \"#utility.yul\":1114:1118   */\n      0x20\n        /* \"#utility.yul\":1106:1112   */\n      dup7\n        /* \"#utility.yul\":1102:1119   */\n      add\n        /* \"#utility.yul\":1039:1133   */\n      tag_36\n      jump\t// in\n    tag_55:\n        /* \"#utility.yul\":1030:1133   */\n      swap2\n      pop\n        /* \"#utility.yul\":846:1139   */\n      pop\n      swap3\n      swap2\n      pop\n      pop\n      jump\t// out\n        /* \"#utility.yul\":1145:1284   */\n    tag_49:\n        /* \"#utility.yul\":1191:1196   */\n      0x00\n        /* \"#utility.yul\":1229:1235   */\n      dup2\n        /* \"#utility.yul\":1216:1236   */\n      calldataload\n        /* \"#utility.yul\":1207:1236   */\n      swap1\n      pop\n        /* \"#utility.yul\":1245:1278   */\n      tag_57\n        /* \"#utility.yul\":1272:1277   */\n      dup2\n        /* \"#utility.yul\":1245:1278   */\n      tag_58\n      jump\t// in\n    tag_57:\n        /* \"#utility.yul\":1197:1284   */\n      swap3\n      swap2\n      pop\n      pop\n      jump\t// out\n        /* \"#utility.yul\":1290:1974   */\n    tag_6:\n        /* \"#utility.yul\":1383:1389   */\n      0x00\n        /* \"#utility.yul\":1391:1397   */\n      dup1\n        /* \"#utility.yul\":1440:1442   */\n      0x40\n        /* \"#utility.yul\":1428:1437   */\n      dup4\n        /* \"#utility.yul\":1419:1426   */\n      dup6\n        /* \"#utility.yul\":1415:1438   */\n      sub\n        /* \"#utility.yul\":1411:1443   */\n      slt\n        /* \"#utility.yul\":1408:1410   */\n      iszero\n      tag_60\n      jumpi\n        /* \"#utility.yul\":1446:1525   */\n      tag_61\n      tag_62\n      jump\t// in\n    tag_61:\n        /* \"#utility.yul\":1408:1410   */\n    tag_60:\n        /* \"#utility.yul\":1594:1595   */\n      0x00\n        /* \"#utility.yul\":1583:1592   */\n      dup4\n        /* \"#utility.yul\":1579:1596   */\n      add\n        /* \"#utility.yul\":1566:1597   */\n      calldataload\n        /* \"#utility.yul\":1624:1642   */\n      0xffffffffffffffff\n        /* \"#utility.yul\":1616:1622   */\n      dup2\n        /* \"#utility.yul\":1613:1643   */\n      gt\n        /* \"#utility.yul\":1610:1612   */\n      iszero\n      tag_63\n      jumpi\n        /* \"#utility.yul\":1646:1725   */\n      tag_64\n      tag_65\n      jump\t// in\n    tag_64:\n        /* \"#utility.yul\":1610:1612   */\n    tag_63:\n        /* \"#utility.yul\":1751:1829   */\n      tag_66\n        /* \"#utility.yul\":1821:1828   */\n      dup6\n        /* \"#utility.yul\":1812:1818   */\n      dup3\n        /* \"#utility.yul\":1801:1810   */\n      dup7\n        /* \"#utility.yul\":1797:1819   */\n      add\n        /* \"#utility.yul\":1751:1829   */\n      tag_50\n      jump\t// in\n    tag_66:\n        /* \"#utility.yul\":1741:1829   */\n      swap3\n      pop\n        /* \"#utility.yul\":1537:1839   */\n      pop\n        /* \"#utility.yul\":1878:1880   */\n      0x20\n        /* \"#utility.yul\":1904:1957   */\n      tag_67\n        /* \"#utility.yul\":1949:1956   */\n      dup6\n        /* \"#utility.yul\":1940:1946   */\n      dup3\n        /* \"#utility.yul\":1929:1938   */\n      dup7\n        /* \"#utility.yul\":1925:1947   */\n      add\n        /* \"#utility.yul\":1904:1957   */\n      tag_49\n      jump\t// in\n    tag_67:\n        /* \"#utility.yul\":1894:1957   */\n      swap2\n      pop\n        /* \"#utility.yul\":1849:1967   */\n      pop\n        /* \"#utility.yul\":1398:1974   */\n      swap3\n      pop\n      swap3\n      swap1\n      pop\n      jump\t// out\n        /* \"#utility.yul\":1980:2098   */\n    tag_68:\n        /* \"#utility.yul\":2067:2091   */\n      tag_70\n        /* \"#utility.yul\":2085:2090   */\n      dup2\n        /* \"#utility.yul\":2067:2091   */\n      tag_71\n      jump\t// in\n    tag_70:\n        /* \"#utility.yul\":2062:2065   */\n      dup3\n        /* \"#utility.yul\":2055:2092   */\n      mstore\n        /* \"#utility.yul\":2045:2098   */\n      pop\n      pop\n      jump\t// out\n        /* \"#utility.yul\":2104:2326   */\n    tag_9:\n        /* \"#utility.yul\":2197:2201   */\n      0x00\n        /* \"#utility.yul\":2235:2237   */\n      0x20\n        /* \"#utility.yul\":2224:2233   */\n      dup3\n        /* \"#utility.yul\":2220:2238   */\n      add\n        /* \"#utility.yul\":2212:2238   */\n      swap1\n      pop\n        /* \"#utility.yul\":2248:2319   */\n      tag_73\n        /* \"#utility.yul\":2316:2317   */\n      0x00\n        /* \"#utility.yul\":2305:2314   */\n      dup4\n        /* \"#utility.yul\":2301:2318   */\n      add\n        /* \"#utility.yul\":2292:2298   */\n      dup5\n        /* \"#utility.yul\":2248:2319   */\n      tag_68\n      jump\t// in\n    tag_73:\n        /* \"#utility.yul\":2202:2326   */\n      swap3\n      swap2\n      pop\n      pop\n      jump\t// out\n        /* \"#utility.yul\":2332:2461   */\n    tag_41:\n        /* \"#utility.yul\":2366:2372   */\n      0x00\n        /* \"#utility.yul\":2393:2413   */\n      tag_75\n      tag_76\n      jump\t// in\n    tag_75:\n        /* \"#utility.yul\":2383:2413   */\n      swap1\n      pop\n        /* \"#utility.yul\":2422:2455   */\n      tag_77\n        /* \"#utility.yul\":2450:2454   */\n      dup3\n        /* \"#utility.yul\":2442:2448   */\n      dup3\n        /* \"#utility.yul\":2422:2455   */\n      tag_78\n      jump\t// in\n    tag_77:\n        /* \"#utility.yul\":2373:2461   */\n      swap2\n      swap1\n      pop\n      jump\t// out\n        /* \"#utility.yul\":2467:2542   */\n    tag_76:\n        /* \"#utility.yul\":2500:2506   */\n      0x00\n        /* \"#utility.yul\":2533:2535   */\n      0x40\n        /* \"#utility.yul\":2527:2536   */\n      mload\n        /* \"#utility.yul\":2517:2536   */\n      swap1\n      pop\n        /* \"#utility.yul\":2507:2542   */\n      swap1\n      jump\t// out\n        /* \"#utility.yul\":2548:2859   */\n    tag_40:\n        /* \"#utility.yul\":2625:2629   */\n      0x00\n        /* \"#utility.yul\":2715:2733   */\n      0xffffffffffffffff\n        /* \"#utility.yul\":2707:2713   */\n      dup3\n        /* \"#utility.yul\":2704:2734   */\n      gt\n        /* \"#utility.yul\":2701:2703   */\n      iszero\n      tag_81\n      jumpi\n        /* \"#utility.yul\":2737:2755   */\n      tag_82\n      tag_83\n      jump\t// in\n    tag_82:\n        /* \"#utility.yul\":2701:2703   */\n    tag_81:\n        /* \"#utility.yul\":2787:2791   */\n      0x20\n        /* \"#utility.yul\":2779:2785   */\n      dup3\n        /* \"#utility.yul\":2775:2792   */\n      mul\n        /* \"#utility.yul\":2767:2792   */\n      swap1\n      pop\n        /* \"#utility.yul\":2847:2851   */\n      0x20\n        /* \"#utility.yul\":2841:2845   */\n      dup2\n        /* \"#utility.yul\":2837:2852   */\n      add\n        /* \"#utility.yul\":2829:2852   */\n      swap1\n      pop\n        /* \"#utility.yul\":2630:2859   */\n      swap2\n      swap1\n      pop\n      jump\t// out\n        /* \"#utility.yul\":2865:3170   */\n    tag_30:\n        /* \"#utility.yul\":2905:2908   */\n      0x00\n        /* \"#utility.yul\":2924:2944   */\n      tag_85\n        /* \"#utility.yul\":2942:2943   */\n      dup3\n        /* \"#utility.yul\":2924:2944   */\n      tag_71\n      jump\t// in\n    tag_85:\n        /* \"#utility.yul\":2919:2944   */\n      swap2\n      pop\n        /* \"#utility.yul\":2958:2978   */\n      tag_86\n        /* \"#utility.yul\":2976:2977   */\n      dup4\n        /* \"#utility.yul\":2958:2978   */\n      tag_71\n      jump\t// in\n    tag_86:\n        /* \"#utility.yul\":2953:2978   */\n      swap3\n      pop\n        /* \"#utility.yul\":3112:3113   */\n      dup3\n        /* \"#utility.yul\":3044:3110   */\n      0xffffffffffffffffffffffffffffffffffffffffffffffffffffffffffffffff\n        /* \"#utility.yul\":3040:3114   */\n      sub\n        /* \"#utility.yul\":3037:3038   */\n      dup3\n        /* \"#utility.yul\":3034:3115   */\n      gt\n        /* \"#utility.yul\":3031:3033   */\n      iszero\n      tag_87\n      jumpi\n        /* \"#utility.yul\":3118:3136   */\n      tag_88\n      tag_89\n      jump\t// in\n    tag_88:\n        /* \"#utility.yul\":3031:3033   */\n    tag_87:\n        /* \"#utility.yul\":3162:3163   */\n      dup3\n        /* \"#utility.yul\":3159:3160   */\n      dup3\n        /* \"#utility.yul\":3155:3164   */\n      add\n        /* \"#utility.yul\":3148:3164   */\n      swap1\n      pop\n        /* \"#utility.yul\":2909:3170   */\n      swap3\n      swap2\n      pop\n      pop\n      jump\t// out\n        /* \"#utility.yul\":3176:3361   */\n    tag_14:\n        /* \"#utility.yul\":3216:3217   */\n      0x00\n        /* \"#utility.yul\":3233:3253   */\n      tag_91\n        /* \"#utility.yul\":3251:3252   */\n      dup3\n        /* \"#utility.yul\":3233:3253   */\n      tag_71\n      jump\t// in\n    tag_91:\n        /* \"#utility.yul\":3228:3253   */\n      swap2\n      pop\n        /* \"#utility.yul\":3267:3287   */\n      tag_92\n        /* \"#utility.yul\":3285:3286   */\n      dup4\n        /* \"#utility.yul\":3267:3287   */\n      tag_71\n      jump\t// in\n    tag_92:\n        /* \"#utility.yul\":3262:3287   */\n      swap3\n      pop\n        /* \"#utility.yul\":3306:3307   */\n      dup3\n        /* \"#utility.yul\":3296:3298   */\n      tag_93\n      jumpi\n        /* \"#utility.yul\":3311:3329   */\n      tag_94\n      tag_95\n      jump\t// in\n    tag_94:\n        /* \"#utility.yul\":3296:3298   */\n    tag_93:\n        /* \"#utility.yul\":3353:3354   */\n      dup3\n        /* \"#utility.yul\":3350:3351   */\n      dup3\n        /* \"#utility.yul\":3346:3355   */\n      div\n        /* \"#utility.yul\":3341:3355   */\n      swap1\n      pop\n        /* \"#utility.yul\":3218:3361   */\n      swap3\n      swap2\n      pop\n      pop\n      jump\t// out\n        /* \"#utility.yul\":3367:3558   */\n    tag_12:\n        /* \"#utility.yul\":3407:3411   */\n      0x00\n        /* \"#utility.yul\":3427:3447   */\n      tag_97\n        /* \"#utility.yul\":3445:3446   */\n      dup3\n        /* \"#utility.yul\":3427:3447   */\n      tag_71\n      jump\t// in\n    tag_97:\n        /* \"#utility.yul\":3422:3447   */\n      swap2\n      pop\n        /* \"#utility.yul\":3461:3481   */\n      tag_98\n        /* \"#utility.yul\":3479:3480   */\n      dup4\n        /* \"#utility.yul\":3461:3481   */\n      tag_71\n      jump\t// in\n    tag_98:\n        /* \"#utility.yul\":3456:3481   */\n      swap3\n      pop\n        /* \"#utility.yul\":3500:3501   */\n      dup3\n        /* \"#utility.yul\":3497:3498   */\n      dup3\n        /* \"#utility.yul\":3494:3502   */\n      lt\n        /* \"#utility.yul\":3491:3493   */\n      iszero\n      tag_99\n      jumpi\n        /* \"#utility.yul\":3505:3523   */\n      tag_100\n      tag_89\n      jump\t// in\n    tag_100:\n        /* \"#utility.yul\":3491:3493   */\n    tag_99:\n        /* \"#utility.yul\":3550:3551   */\n      dup3\n        /* \"#utility.yul\":3547:3548   */\n      dup3\n        /* \"#utility.yul\":3543:3552   */\n      sub\n        /* \"#utility.yul\":3535:3552   */\n      swap1\n      pop\n        /* \"#utility.yul\":3412:3558   */\n      swap3\n      swap2\n      pop\n      pop\n      jump\t// out\n        /* \"#utility.yul\":3564:3641   */\n    tag_71:\n        /* \"#utility.yul\":3601:3608   */\n      0x00\n        /* \"#utility.yul\":3630:3635   */\n      dup2\n        /* \"#utility.yul\":3619:3635   */\n      swap1\n      pop\n        /* \"#utility.yul\":3609:3641   */\n      swap2\n      swap1\n      pop\n      jump\t// out\n        /* \"#utility.yul\":3647:3928   */\n    tag_78:\n        /* \"#utility.yul\":3730:3757   */\n      tag_103\n        /* \"#utility.yul\":3752:3756   */\n      dup3\n        /* \"#utility.yul\":3730:3757   */\n      tag_104\n      jump\t// in\n    tag_103:\n        /* \"#utility.yul\":3722:3728   */\n      dup2\n        /* \"#utility.yul\":3718:3758   */\n      add\n        /* \"#utility.yul\":3860:3866   */\n      dup2\n        /* \"#utility.yul\":3848:3858   */\n      dup2\n        /* \"#utility.yul\":3845:3867   */\n      lt\n        /* \"#utility.yul\":3824:3842   */\n      0xffffffffffffffff\n        /* \"#utility.yul\":3812:3822   */\n      dup3\n        /* \"#utility.yul\":3809:3843   */\n      gt\n        /* \"#utility.yul\":3806:3868   */\n      or\n        /* \"#utility.yul\":3803:3805   */\n      iszero\n      tag_105\n      jumpi\n        /* \"#utility.yul\":3871:3889   */\n      tag_106\n      tag_83\n      jump\t// in\n    tag_106:\n        /* \"#utility.yul\":3803:3805   */\n    tag_105:\n        /* \"#utility.yul\":3911:3921   */\n      dup1\n        /* \"#utility.yul\":3907:3909   */\n      0x40\n        /* \"#utility.yul\":3900:3922   */\n      mstore\n        /* \"#utility.yul\":3690:3928   */\n      pop\n      pop\n      pop\n      jump\t// out\n        /* \"#utility.yul\":3934:4114   */\n    tag_89:\n        /* \"#utility.yul\":3982:4059   */\n      0x4e487b7100000000000000000000000000000000000000000000000000000000\n        /* \"#utility.yul\":3979:3980   */\n      0x00\n        /* \"#utility.yul\":3972:4060   */\n      mstore\n        /* \"#utility.yul\":4079:4083   */\n      0x11\n        /* \"#utility.yul\":4076:4077   */\n      0x04\n        /* \"#utility.yul\":4069:4084   */\n      mstore\n        /* \"#utility.yul\":4103:4107   */\n      0x24\n        /* \"#utility.yul\":4100:4101   */\n      0x00\n        /* \"#utility.yul\":4093:4108   */\n      revert\n        /* \"#utility.yul\":4120:4300   */\n    tag_95:\n        /* \"#utility.yul\":4168:4245   */\n      0x4e487b7100000000000000000000000000000000000000000000000000000000\n        /* \"#utility.yul\":4165:4166   */\n      0x00\n        /* \"#utility.yul\":4158:4246   */\n      mstore\n        /* \"#utility.yul\":4265:4269   */\n      0x12\n        /* \"#utility.yul\":4262:4263   */\n      0x04\n        /* \"#utility.yul\":4255:4270   */\n      mstore\n        /* \"#utility.yul\":4289:4293   */\n      0x24\n        /* \"#utility.yul\":4286:4287   */\n      0x00\n        /* \"#utility.yul\":4279:4294   */\n      revert\n        /* \"#utility.yul\":4306:4486   */\n    tag_20:\n        /* \"#utility.yul\":4354:4431   */\n      0x4e487b7100000000000000000000000000000000000000000000000000000000\n        /* \"#utility.yul\":4351:4352   */\n      0x00\n        /* \"#utility.yul\":4344:4432   */\n      mstore\n        /* \"#utility.yul\":4451:4455   */\n      0x32\n        /* \"#utility.yul\":4448:4449   */\n      0x04\n        /* \"#utility.yul\":4441:4456   */\n      mstore\n        /* \"#utility.yul\":4475:4479   */\n      0x24\n        /* \"#utility.yul\":4472:4473   */\n      0x00\n        /* \"#utility.yul\":4465:4480   */\n      revert\n        /* \"#utility.yul\":4492:4672   */\n    tag_83:\n        /* \"#utility.yul\":4540:4617   */\n      0x4e487b7100000000000000000000000000000000000000000000000000000000\n        /* \"#utility.yul\":4537:4538   */\n      0x00\n        /* \"#utility.yul\":4530:4618   */\n      mstore\n        /* \"#utility.yul\":4637:4641   */\n      0x41\n        /* \"#utility.yul\":4634:4635   */\n      0x04\n        /* \"#utility.yul\":4627:4642   */\n      mstore\n        /* \"#utility.yul\":4661:4665   */\n      0x24\n        /* \"#utility.yul\":4658:4659   */\n      0x00\n        /* \"#utility.yul\":4651:4666   */\n      revert\n        /* \"#utility.yul\":4678:4795   */\n    tag_54:\n        /* \"#utility.yul\":4787:4788   */\n      0x00\n        /* \"#utility.yul\":4784:4785   */\n      dup1\n        /* \"#utility.yul\":4777:4789   */\n      revert\n        /* \"#utility.yul\":4801:4918   */\n    tag_44:\n        /* \"#utility.yul\":4910:4911   */\n      0x00\n        /* \"#utility.yul\":4907:4908   */\n      dup1\n        /* \"#utility.yul\":4900:4912   */\n      revert\n        /* \"#utility.yul\":4924:5041   */\n    tag_65:\n        /* \"#utility.yul\":5033:5034   */\n      0x00\n        /* \"#utility.yul\":5030:5031   */\n      dup1\n        /* \"#utility.yul\":5023:5035   */\n      revert\n        /* \"#utility.yul\":5047:5164   */\n    tag_62:\n        /* \"#utility.yul\":5156:5157   */\n      0x00\n        /* \"#utility.yul\":5153:5154   */\n      dup1\n        /* \"#utility.yul\":5146:5158   */\n      revert\n        /* \"#utility.yul\":5170:5272   */\n    tag_104:\n        /* \"#utility.yul\":5211:5217   */\n      0x00\n        /* \"#utility.yul\":5262:5264   */\n      0x1f\n        /* \"#utility.yul\":5258:5265   */\n      not\n        /* \"#utility.yul\":5253:5255   */\n      0x1f\n        /* \"#utility.yul\":5246:5251   */\n      dup4\n        /* \"#utility.yul\":5242:5256   */\n      add\n        /* \"#utility.yul\":5238:5266   */\n      and\n        /* \"#utility.yul\":5228:5266   */\n      swap1\n      pop\n        /* \"#utility.yul\":5218:5272   */\n      swap2\n      swap1\n      pop\n      jump\t// out\n        /* \"#utility.yul\":5278:5400   */\n    tag_58:\n        /* \"#utility.yul\":5351:5375   */\n      tag_117\n        /* \"#utility.yul\":5369:5374   */\n      dup2\n        /* \"#utility.yul\":5351:5375   */\n      tag_71\n      jump\t// in\n    tag_117:\n        /* \"#utility.yul\":5344:5349   */\n      dup2\n        /* \"#utility.yul\":5341:5376   */\n      eq\n        /* \"#utility.yul\":5331:5333   */\n      tag_118\n      jumpi\n        /* \"#utility.yul\":5390:5391   */\n      0x00\n        /* \"#utility.yul\":5387:5388   */\n      dup1\n        /* \"#utility.yul\":5380:5392   */\n      revert\n        /* \"#utility.yul\":5331:5333   */\n    tag_118:\n        /* \"#utility.yul\":5321:5400   */\n      pop\n      jump\t// out\n\n    auxdata: 0xa26469706673582212204a9273fbcea327c42a5e83a00858d1dc9e93b0293abec51b255a03f59cdce79264736f6c63430008060033\n}\n",
				"bytecode": {
					"linkReferences": {},
					"object": "608060405234801561001057600080fd5b50610515806100206000396000f3fe608060405234801561001057600080fd5b506004361061002b5760003560e01c806371dfac2d14610030575b600080fd5b61004a6004803603810190610045919061021a565b610060565b6040516100579190610285565b60405180910390f35b60008060009050600080600186516100789190610378565b905060006002875161008a9190610347565b90505b60011561015957818314156100c757858784815181106100b0576100af610445565b5b602002602001015114156100c2578293505b610159565b858782815181106100db576100da610445565b5b602002602001015114156100f55780945050505050610161565b8587828151811061010957610108610445565b5b6020026020010151101561012b5760018161012491906102f1565b925061012f565b8091505b6002838361013d9190610378565b6101479190610347565b8361015291906102f1565b905061008d565b839450505050505b92915050565b600061017a610175846102c5565b6102a0565b9050808382526020820190508285602086028201111561019d5761019c6104a8565b5b60005b858110156101cd57816101b38882610205565b8452602084019350602083019250506001810190506101a0565b5050509392505050565b600082601f8301126101ec576101eb6104a3565b5b81356101fc848260208601610167565b91505092915050565b600081359050610214816104c8565b92915050565b60008060408385031215610231576102306104b2565b5b600083013567ffffffffffffffff81111561024f5761024e6104ad565b5b61025b858286016101d7565b925050602061026c85828601610205565b9150509250929050565b61027f816103ac565b82525050565b600060208201905061029a6000830184610276565b92915050565b60006102aa6102bb565b90506102b682826103b6565b919050565b6000604051905090565b600067ffffffffffffffff8211156102e0576102df610474565b5b602082029050602081019050919050565b60006102fc826103ac565b9150610307836103ac565b9250827fffffffffffffffffffffffffffffffffffffffffffffffffffffffffffffffff0382111561033c5761033b6103e7565b5b828201905092915050565b6000610352826103ac565b915061035d836103ac565b92508261036d5761036c610416565b5b828204905092915050565b6000610383826103ac565b915061038e836103ac565b9250828210156103a1576103a06103e7565b5b828203905092915050565b6000819050919050565b6103bf826104b7565b810181811067ffffffffffffffff821117156103de576103dd610474565b5b80604052505050565b7f4e487b7100000000000000000000000000000000000000000000000000000000600052601160045260246000fd5b7f4e487b7100000000000000000000000000000000000000000000000000000000600052601260045260246000fd5b7f4e487b7100000000000000000000000000000000000000000000000000000000600052603260045260246000fd5b7f4e487b7100000000000000000000000000000000000000000000000000000000600052604160045260246000fd5b600080fd5b600080fd5b600080fd5b600080fd5b6000601f19601f8301169050919050565b6104d1816103ac565b81146104dc57600080fd5b5056fea26469706673582212204a9273fbcea327c42a5e83a00858d1dc9e93b0293abec51b255a03f59cdce79264736f6c63430008060033",
					"opcodes": "PUSH1 0x80 PUSH1 0x40 MSTORE CALLVALUE DUP1 ISZERO PUSH2 0x10 JUMPI PUSH1 0x0 DUP1 REVERT JUMPDEST POP PUSH2 0x515 DUP1 PUSH2 0x20 PUSH1 0x0 CODECOPY PUSH1 0x0 RETURN INVALID PUSH1 0x80 PUSH1 0x40 MSTORE CALLVALUE DUP1 ISZERO PUSH2 0x10 JUMPI PUSH1 0x0 DUP1 REVERT JUMPDEST POP PUSH1 0x4 CALLDATASIZE LT PUSH2 0x2B JUMPI PUSH1 0x0 CALLDATALOAD PUSH1 0xE0 SHR DUP1 PUSH4 0x71DFAC2D EQ PUSH2 0x30 JUMPI JUMPDEST PUSH1 0x0 DUP1 REVERT JUMPDEST PUSH2 0x4A PUSH1 0x4 DUP1 CALLDATASIZE SUB DUP2 ADD SWAP1 PUSH2 0x45 SWAP2 SWAP1 PUSH2 0x21A JUMP JUMPDEST PUSH2 0x60 JUMP JUMPDEST PUSH1 0x40 MLOAD PUSH2 0x57 SWAP2 SWAP1 PUSH2 0x285 JUMP JUMPDEST PUSH1 0x40 MLOAD DUP1 SWAP2 SUB SWAP1 RETURN JUMPDEST PUSH1 0x0 DUP1 PUSH1 0x0 SWAP1 POP PUSH1 0x0 DUP1 PUSH1 0x1 DUP7 MLOAD PUSH2 0x78 SWAP2 SWAP1 PUSH2 0x378 JUMP JUMPDEST SWAP1 POP PUSH1 0x0 PUSH1 0x2 DUP8 MLOAD PUSH2 0x8A SWAP2 SWAP1 PUSH2 0x347 JUMP JUMPDEST SWAP1 POP JUMPDEST PUSH1 0x1 ISZERO PUSH2 0x159 JUMPI DUP2 DUP4 EQ ISZERO PUSH2 0xC7 JUMPI DUP6 DUP8 DUP5 DUP2 MLOAD DUP2 LT PUSH2 0xB0 JUMPI PUSH2 0xAF PUSH2 0x445 JUMP JUMPDEST JUMPDEST PUSH1 0x20 MUL PUSH1 0x20 ADD ADD MLOAD EQ ISZERO PUSH2 0xC2 JUMPI DUP3 SWAP4 POP JUMPDEST PUSH2 0x159 JUMP JUMPDEST DUP6 DUP8 DUP3 DUP2 MLOAD DUP2 LT PUSH2 0xDB JUMPI PUSH2 0xDA PUSH2 0x445 JUMP JUMPDEST JUMPDEST PUSH1 0x20 MUL PUSH1 0x20 ADD ADD MLOAD EQ ISZERO PUSH2 0xF5 JUMPI DUP1 SWAP5 POP POP POP POP POP PUSH2 0x161 JUMP JUMPDEST DUP6 DUP8 DUP3 DUP2 MLOAD DUP2 LT PUSH2 0x109 JUMPI PUSH2 0x108 PUSH2 0x445 JUMP JUMPDEST JUMPDEST PUSH1 0x20 MUL PUSH1 0x20 ADD ADD MLOAD LT ISZERO PUSH2 0x12B JUMPI PUSH1 0x1 DUP2 PUSH2 0x124 SWAP2 SWAP1 PUSH2 0x2F1 JUMP JUMPDEST SWAP3 POP PUSH2 0x12F JUMP JUMPDEST DUP1 SWAP2 POP JUMPDEST PUSH1 0x2 DUP4 DUP4 PUSH2 0x13D SWAP2 SWAP1 PUSH2 0x378 JUMP JUMPDEST PUSH2 0x147 SWAP2 SWAP1 PUSH2 0x347 JUMP JUMPDEST DUP4 PUSH2 0x152 SWAP2 SWAP1 PUSH2 0x2F1 JUMP JUMPDEST SWAP1 POP PUSH2 0x8D JUMP JUMPDEST DUP4 SWAP5 POP POP POP POP POP JUMPDEST SWAP3 SWAP2 POP POP JUMP JUMPDEST PUSH1 0x0 PUSH2 0x17A PUSH2 0x175 DUP5 PUSH2 0x2C5 JUMP JUMPDEST PUSH2 0x2A0 JUMP JUMPDEST SWAP1 POP DUP1 DUP4 DUP3 MSTORE PUSH1 0x20 DUP3 ADD SWAP1 POP DUP3 DUP6 PUSH1 0x20 DUP7 MUL DUP3 ADD GT ISZERO PUSH2 0x19D JUMPI PUSH2 0x19C PUSH2 0x4A8 JUMP JUMPDEST JUMPDEST PUSH1 0x0 JUMPDEST DUP6 DUP2 LT ISZERO PUSH2 0x1CD JUMPI DUP2 PUSH2 0x1B3 DUP9 DUP3 PUSH2 0x205 JUMP JUMPDEST DUP5 MSTORE PUSH1 0x20 DUP5 ADD SWAP4 POP PUSH1 0x20 DUP4 ADD SWAP3 POP POP PUSH1 0x1 DUP2 ADD SWAP1 POP PUSH2 0x1A0 JUMP JUMPDEST POP POP POP SWAP4 SWAP3 POP POP POP JUMP JUMPDEST PUSH1 0x0 DUP3 PUSH1 0x1F DUP4 ADD SLT PUSH2 0x1EC JUMPI PUSH2 0x1EB PUSH2 0x4A3 JUMP JUMPDEST JUMPDEST DUP2 CALLDATALOAD PUSH2 0x1FC DUP5 DUP3 PUSH1 0x20 DUP7 ADD PUSH2 0x167 JUMP JUMPDEST SWAP2 POP POP SWAP3 SWAP2 POP POP JUMP JUMPDEST PUSH1 0x0 DUP2 CALLDATALOAD SWAP1 POP PUSH2 0x214 DUP2 PUSH2 0x4C8 JUMP JUMPDEST SWAP3 SWAP2 POP POP JUMP JUMPDEST PUSH1 0x0 DUP1 PUSH1 0x40 DUP4 DUP6 SUB SLT ISZERO PUSH2 0x231 JUMPI PUSH2 0x230 PUSH2 0x4B2 JUMP JUMPDEST JUMPDEST PUSH1 0x0 DUP4 ADD CALLDATALOAD PUSH8 0xFFFFFFFFFFFFFFFF DUP2 GT ISZERO PUSH2 0x24F JUMPI PUSH2 0x24E PUSH2 0x4AD JUMP JUMPDEST JUMPDEST PUSH2 0x25B DUP6 DUP3 DUP7 ADD PUSH2 0x1D7 JUMP JUMPDEST SWAP3 POP POP PUSH1 0x20 PUSH2 0x26C DUP6 DUP3 DUP7 ADD PUSH2 0x205 JUMP JUMPDEST SWAP2 POP POP SWAP3 POP SWAP3 SWAP1 POP JUMP JUMPDEST PUSH2 0x27F DUP2 PUSH2 0x3AC JUMP JUMPDEST DUP3 MSTORE POP POP JUMP JUMPDEST PUSH1 0x0 PUSH1 0x20 DUP3 ADD SWAP1 POP PUSH2 0x29A PUSH1 0x0 DUP4 ADD DUP5 PUSH2 0x276 JUMP JUMPDEST SWAP3 SWAP2 POP POP JUMP JUMPDEST PUSH1 0x0 PUSH2 0x2AA PUSH2 0x2BB JUMP JUMPDEST SWAP1 POP PUSH2 0x2B6 DUP3 DUP3 PUSH2 0x3B6 JUMP JUMPDEST SWAP2 SWAP1 POP JUMP JUMPDEST PUSH1 0x0 PUSH1 0x40 MLOAD SWAP1 POP SWAP1 JUMP JUMPDEST PUSH1 0x0 PUSH8 0xFFFFFFFFFFFFFFFF DUP3 GT ISZERO PUSH2 0x2E0 JUMPI PUSH2 0x2DF PUSH2 0x474 JUMP JUMPDEST JUMPDEST PUSH1 0x20 DUP3 MUL SWAP1 POP PUSH1 0x20 DUP2 ADD SWAP1 POP SWAP2 SWAP1 POP JUMP JUMPDEST PUSH1 0x0 PUSH2 0x2FC DUP3 PUSH2 0x3AC JUMP JUMPDEST SWAP2 POP PUSH2 0x307 DUP4 PUSH2 0x3AC JUMP JUMPDEST SWAP3 POP DUP3 PUSH32 0xFFFFFFFFFFFFFFFFFFFFFFFFFFFFFFFFFFFFFFFFFFFFFFFFFFFFFFFFFFFFFFFF SUB DUP3 GT ISZERO PUSH2 0x33C JUMPI PUSH2 0x33B PUSH2 0x3E7 JUMP JUMPDEST JUMPDEST DUP3 DUP3 ADD SWAP1 POP SWAP3 SWAP2 POP POP JUMP JUMPDEST PUSH1 0x0 PUSH2 0x352 DUP3 PUSH2 0x3AC JUMP JUMPDEST SWAP2 POP PUSH2 0x35D DUP4 PUSH2 0x3AC JUMP JUMPDEST SWAP3 POP DUP3 PUSH2 0x36D JUMPI PUSH2 0x36C PUSH2 0x416 JUMP JUMPDEST JUMPDEST DUP3 DUP3 DIV SWAP1 POP SWAP3 SWAP2 POP POP JUMP JUMPDEST PUSH1 0x0 PUSH2 0x383 DUP3 PUSH2 0x3AC JUMP JUMPDEST SWAP2 POP PUSH2 0x38E DUP4 PUSH2 0x3AC JUMP JUMPDEST SWAP3 POP DUP3 DUP3 LT ISZERO PUSH2 0x3A1 JUMPI PUSH2 0x3A0 PUSH2 0x3E7 JUMP JUMPDEST JUMPDEST DUP3 DUP3 SUB SWAP1 POP SWAP3 SWAP2 POP POP JUMP JUMPDEST PUSH1 0x0 DUP2 SWAP1 POP SWAP2 SWAP1 POP JUMP JUMPDEST PUSH2 0x3BF DUP3 PUSH2 0x4B7 JUMP JUMPDEST DUP2 ADD DUP2 DUP2 LT PUSH8 0xFFFFFFFFFFFFFFFF DUP3 GT OR ISZERO PUSH2 0x3DE JUMPI PUSH2 0x3DD PUSH2 0x474 JUMP JUMPDEST JUMPDEST DUP1 PUSH1 0x40 MSTORE POP POP POP JUMP JUMPDEST PUSH32 0x4E487B7100000000000000000000000000000000000000000000000000000000 PUSH1 0x0 MSTORE PUSH1 0x11 PUSH1 0x4 MSTORE PUSH1 0x24 PUSH1 0x0 REVERT JUMPDEST PUSH32 0x4E487B7100000000000000000000000000000000000000000000000000000000 PUSH1 0x0 MSTORE PUSH1 0x12 PUSH1 0x4 MSTORE PUSH1 0x24 PUSH1 0x0 REVERT JUMPDEST PUSH32 0x4E487B7100000000000000000000000000000000000000000000000000000000 PUSH1 0x0 MSTORE PUSH1 0x32 PUSH1 0x4 MSTORE PUSH1 0x24 PUSH1 0x0 REVERT JUMPDEST PUSH32 0x4E487B7100000000000000000000000000000000000000000000000000000000 PUSH1 0x0 MSTORE PUSH1 0x41 PUSH1 0x4 MSTORE PUSH1 0x24 PUSH1 0x0 REVERT JUMPDEST PUSH1 0x0 DUP1 REVERT JUMPDEST PUSH1 0x0 DUP1 REVERT JUMPDEST PUSH1 0x0 DUP1 REVERT JUMPDEST PUSH1 0x0 DUP1 REVERT JUMPDEST PUSH1 0x0 PUSH1 0x1F NOT PUSH1 0x1F DUP4 ADD AND SWAP1 POP SWAP2 SWAP1 POP JUMP JUMPDEST PUSH2 0x4D1 DUP2 PUSH2 0x3AC JUMP JUMPDEST DUP2 EQ PUSH2 0x4DC JUMPI PUSH1 0x0 DUP1 REVERT JUMPDEST POP JUMP INVALID LOG2 PUSH5 0x6970667358 0x22 SLT KECCAK256 0x4A SWAP3 PUSH20 0xFBCEA327C42A5E83A00858D1DC9E93B0293ABEC5 SHL 0x25 GAS SUB CREATE2 SWAP13 0xDC 0xE7 SWAP3 PUSH5 0x736F6C6343 STOP ADDMOD MOD STOP CALLER "
				},
				"gasEstimates": {
					"creation": {
						"codeDepositCost": "260200",
						"executionCost": "300",
						"totalCost": "260500"
					},
					"external": {
						"mergeSortedArray(uint256[],uint256)": "infinite"
					}
				},
				"methodIdentifiers": {
					"mergeSortedArray(uint256[],uint256)": "71dfac2d"
				}
			},
			"storageLayout": {
				"storage": [],
				"types": null
			},
			"userdoc": {
				"kind": "user",
				"methods": {},
				"version": 1
			}
		}
	}
}