{
	"stage02/task01/MyToken.sol": {
		"MyToken": {
			"abi": [
				{
					"inputs": [
						{
							"internalType": "string",
							"name": "_symbol",
							"type": "string"
						},
						{
							"internalType": "string",
							"name": "_name",
							"type": "string"
						},
						{
							"internalType": "uint256",
							"name": "_decimals",
							"type": "uint256"
						}
					],
					"stateMutability": "nonpayable",
					"type": "constructor"
				},
				{
					"anonymous": false,
					"inputs": [
						{
							"indexed": true,
							"internalType": "address",
							"name": "owner",
							"type": "address"
						},
						{
							"indexed": true,
							"internalType": "address",
							"name": "spender",
							"type": "address"
						},
						{
							"indexed": true,
							"internalType": "uint256",
							"name": "value",
							"type": "uint256"
						}
					],
					"name": "Approval",
					"type": "event"
				},
				{
					"anonymous": false,
					"inputs": [
						{
							"indexed": true,
							"internalType": "address",
							"name": "from",
							"type": "address"
						},
						{
							"indexed": true,
							"internalType": "address",
							"name": "to",
							"type": "address"
						},
						{
							"indexed": true,
							"internalType": "uint256",
							"name": "value",
							"type": "uint256"
						}
					],
					"name": "Transfer",
					"type": "event"
				},
				{
					"inputs": [
						{
							"internalType": "address",
							"name": "spender",
							"type": "address"
						},
						{
							"internalType": "uint256",
							"name": "value",
							"type": "uint256"
						}
					],
					"name": "approve",
					"outputs": [
						{
							"internalType": "bool",
							"name": "",
							"type": "bool"
						}
					],
					"stateMutability": "nonpayable",
					"type": "function"
				},
				{
					"inputs": [
						{
							"internalType": "address",
							"name": "_address",
							"type": "address"
						}
					],
					"name": "balanceOf",
					"outputs": [
						{
							"internalType": "uint256",
							"name": "",
							"type": "uint256"
						}
					],
					"stateMutability": "view",
					"type": "function"
				},
				{
					"inputs": [],
					"name": "decimals",
					"outputs": [
						{
							"internalType": "uint256",
							"name": "",
							"type": "uint256"
						}
					],
					"stateMutability": "view",
					"type": "function"
				},
				{
					"inputs": [
						{
							"internalType": "address",
							"name": "to",
							"type": "address"
						},
						{
							"internalType": "uint256",
							"name": "value",
							"type": "uint256"
						}
					],
					"name": "mint",
					"outputs": [],
					"stateMutability": "nonpayable",
					"type": "function"
				},
				{
					"inputs": [],
					"name": "name",
					"outputs": [
						{
							"internalType": "string",
							"name": "",
							"type": "string"
						}
					],
					"stateMutability": "view",
					"type": "function"
				},
				{
					"inputs": [],
					"name": "symbol",
					"outputs": [
						{
							"internalType": "string",
							"name": "",
							"type": "string"
						}
					],
					"stateMutability": "view",
					"type": "function"
				},
				{
					"inputs": [
						{
							"internalType": "address",
							"name": "to",
							"type": "address"
						},
						{
							"internalType": "uint256",
							"name": "value",
							"type": "uint256"
						}
					],
					"name": "transfer",
					"outputs": [],
					"stateMutability": "nonpayable",
					"type": "function"
				},
				{
					"inputs": [
						{
							"internalType": "address",
							"name": "from",
							"type": "address"
						},
						{
							"internalType": "address",
							"name": "to",
							"type": "address"
						},
						{
							"internalType": "uint256",
							"name": "value",
							"type": "uint256"
						}
					],
					"name": "transferFrom",
					"outputs": [
						{
							"internalType": "bool",
							"name": "",
							"type": "bool"
						}
					],
					"stateMutability": "nonpayable",
					"type": "function"
				}
			],
			"devdoc": {
				"kind": "dev",
				"methods": {},
				"version": 1
			},
			"evm": {
				"assembly": "    /* \"stage02/task01/MyToken.sol\":58:2424  contract MyToken {... */\n  mstore(0x40, 0x80)\n    /* \"stage02/task01/MyToken.sol\":326:545  constructor(string memory _symbol , string memory _name,uint _decimals){... */\n  callvalue\n  dup1\n  iszero\n  tag_1\n  jumpi\n  revert(0x00, 0x00)\ntag_1:\n  pop\n  mload(0x40)\n  sub(codesize, bytecodeSize)\n  dup1\n  bytecodeSize\n  dup4\n  codecopy\n  dup2\n  dup2\n  add\n  0x40\n  mstore\n  dup2\n  add\n  swap1\n  tag_2\n  swap2\n  swap1\n  tag_3\n  jump\t// in\ntag_2:\n    /* \"stage02/task01/MyToken.sol\":416:426  msg.sender */\n  caller\n    /* \"stage02/task01/MyToken.sol\":408:413  owner */\n  0x02\n  0x00\n    /* \"stage02/task01/MyToken.sol\":408:426  owner = msg.sender */\n  0x0100\n  exp\n  dup2\n  sload\n  dup2\n  0xffffffffffffffffffffffffffffffffffffffff\n  mul\n  not\n  and\n  swap1\n  dup4\n  0xffffffffffffffffffffffffffffffffffffffff\n  and\n  mul\n  or\n  swap1\n  sstore\n  pop\n    /* \"stage02/task01/MyToken.sol\":446:453  _symbol */\n  dup3\n    /* \"stage02/task01/MyToken.sol\":437:443  symbol */\n  0x03\n    /* \"stage02/task01/MyToken.sol\":437:453  symbol = _symbol */\n  swap1\n  dup2\n  tag_6\n  swap2\n  swap1\n  tag_7\n  jump\t// in\ntag_6:\n  pop\n    /* \"stage02/task01/MyToken.sol\":471:476  _name */\n  dup2\n    /* \"stage02/task01/MyToken.sol\":464:468  name */\n  0x04\n    /* \"stage02/task01/MyToken.sol\":464:476  name = _name */\n  swap1\n  dup2\n  tag_8\n  swap2\n  swap1\n  tag_7\n  jump\t// in\ntag_8:\n  pop\n    /* \"stage02/task01/MyToken.sol\":498:507  _decimals */\n  dup1\n    /* \"stage02/task01/MyToken.sol\":487:495  decimals */\n  0x05\n    /* \"stage02/task01/MyToken.sol\":487:507  decimals = _decimals */\n  dup2\n  swap1\n  sstore\n  pop\n    /* \"stage02/task01/MyToken.sol\":518:537  mint(owner, 100000) */\n  tag_9\n    /* \"stage02/task01/MyToken.sol\":523:528  owner */\n  0x02\n  0x00\n  swap1\n  sload\n  swap1\n  0x0100\n  exp\n  swap1\n  div\n  0xffffffffffffffffffffffffffffffffffffffff\n  and\n    /* \"stage02/task01/MyToken.sol\":530:536  100000 */\n  0x0186a0\n    /* \"stage02/task01/MyToken.sol\":518:522  mint */\n  shl(0x20, tag_10)\n    /* \"stage02/task01/MyToken.sol\":518:537  mint(owner, 100000) */\n  0x20\n  shr\n  jump\t// in\ntag_9:\n    /* \"stage02/task01/MyToken.sol\":326:545  constructor(string memory _symbol , string memory _name,uint _decimals){... */\n  pop\n  pop\n  pop\n    /* \"stage02/task01/MyToken.sol\":58:2424  contract MyToken {... */\n  jump(tag_11)\n    /* \"stage02/task01/MyToken.sol\":2167:2421  function mint(address to, uint256 value) public {... */\ntag_10:\n    /* \"stage02/task01/MyToken.sol\":2226:2240  address sender */\n  0x00\n    /* \"stage02/task01/MyToken.sol\":2243:2253  msg.sender */\n  caller\n    /* \"stage02/task01/MyToken.sol\":2226:2253  address sender = msg.sender */\n  swap1\n  pop\n    /* \"stage02/task01/MyToken.sol\":2277:2282  owner */\n  0x02\n  0x00\n  swap1\n  sload\n  swap1\n  0x0100\n  exp\n  swap1\n  div\n  0xffffffffffffffffffffffffffffffffffffffff\n  and\n    /* \"stage02/task01/MyToken.sol\":2267:2282  sender != owner */\n  0xffffffffffffffffffffffffffffffffffffffff\n  and\n    /* \"stage02/task01/MyToken.sol\":2267:2273  sender */\n  dup2\n    /* \"stage02/task01/MyToken.sol\":2267:2282  sender != owner */\n  0xffffffffffffffffffffffffffffffffffffffff\n  and\n  eq\n    /* \"stage02/task01/MyToken.sol\":2264:2329  if(sender != owner){... */\n  tag_13\n  jumpi\n    /* \"stage02/task01/MyToken.sol\":2298:2317  revert(\"not owner\") */\n  mload(0x40)\n  0x08c379a000000000000000000000000000000000000000000000000000000000\n  dup2\n  mstore\n  0x04\n  add\n  tag_14\n  swap1\n  tag_15\n  jump\t// in\ntag_14:\n  mload(0x40)\n  dup1\n  swap2\n  sub\n  swap1\n  revert\n    /* \"stage02/task01/MyToken.sol\":2264:2329  if(sender != owner){... */\ntag_13:\n    /* \"stage02/task01/MyToken.sol\":2339:2351  uint balance */\n  0x00\n    /* \"stage02/task01/MyToken.sol\":2354:2365  balancesMap */\n  0x00\n    /* \"stage02/task01/MyToken.sol\":2354:2369  balancesMap[to] */\n  0x00\n    /* \"stage02/task01/MyToken.sol\":2366:2368  to */\n  dup6\n    /* \"stage02/task01/MyToken.sol\":2354:2369  balancesMap[to] */\n  0xffffffffffffffffffffffffffffffffffffffff\n  and\n  0xffffffffffffffffffffffffffffffffffffffff\n  and\n  dup2\n  mstore\n  0x20\n  add\n  swap1\n  dup2\n  mstore\n  0x20\n  add\n  0x00\n  keccak256\n  sload\n    /* \"stage02/task01/MyToken.sol\":2339:2369  uint balance = balancesMap[to] */\n  swap1\n  pop\n    /* \"stage02/task01/MyToken.sol\":2408:2413  value */\n  dup3\n    /* \"stage02/task01/MyToken.sol\":2398:2405  balance */\n  dup2\n    /* \"stage02/task01/MyToken.sol\":2398:2413  balance + value */\n  tag_16\n  swap2\n  swap1\n  tag_17\n  jump\t// in\ntag_16:\n    /* \"stage02/task01/MyToken.sol\":2380:2391  balancesMap */\n  0x00\n    /* \"stage02/task01/MyToken.sol\":2380:2395  balancesMap[to] */\n  0x00\n    /* \"stage02/task01/MyToken.sol\":2392:2394  to */\n  dup7\n    /* \"stage02/task01/MyToken.sol\":2380:2395  balancesMap[to] */\n  0xffffffffffffffffffffffffffffffffffffffff\n  and\n  0xffffffffffffffffffffffffffffffffffffffff\n  and\n  dup2\n  mstore\n  0x20\n  add\n  swap1\n  dup2\n  mstore\n  0x20\n  add\n  0x00\n  keccak256\n    /* \"stage02/task01/MyToken.sol\":2380:2413  balancesMap[to] = balance + value */\n  dup2\n  swap1\n  sstore\n  pop\n    /* \"stage02/task01/MyToken.sol\":2215:2421  {... */\n  pop\n  pop\n    /* \"stage02/task01/MyToken.sol\":2167:2421  function mint(address to, uint256 value) public {... */\n  pop\n  pop\n  jump\t// out\n    /* \"#utility.yul\":7:82   */\ntag_18:\n    /* \"#utility.yul\":40:46   */\n  0x00\n    /* \"#utility.yul\":73:75   */\n  0x40\n    /* \"#utility.yul\":67:76   */\n  mload\n    /* \"#utility.yul\":57:76   */\n  swap1\n  pop\n    /* \"#utility.yul\":7:82   */\n  swap1\n  jump\t// out\n    /* \"#utility.yul\":88:205   */\ntag_19:\n    /* \"#utility.yul\":197:198   */\n  0x00\n    /* \"#utility.yul\":194:195   */\n  0x00\n    /* \"#utility.yul\":187:199   */\n  revert\n    /* \"#utility.yul\":211:328   */\ntag_20:\n    /* \"#utility.yul\":320:321   */\n  0x00\n    /* \"#utility.yul\":317:318   */\n  0x00\n    /* \"#utility.yul\":310:322   */\n  revert\n    /* \"#utility.yul\":334:451   */\ntag_21:\n    /* \"#utility.yul\":443:444   */\n  0x00\n    /* \"#utility.yul\":440:441   */\n  0x00\n    /* \"#utility.yul\":433:445   */\n  revert\n    /* \"#utility.yul\":457:574   */\ntag_22:\n    /* \"#utility.yul\":566:567   */\n  0x00\n    /* \"#utility.yul\":563:564   */\n  0x00\n    /* \"#utility.yul\":556:568   */\n  revert\n    /* \"#utility.yul\":580:682   */\ntag_23:\n    /* \"#utility.yul\":621:627   */\n  0x00\n    /* \"#utility.yul\":672:674   */\n  0x1f\n    /* \"#utility.yul\":668:675   */\n  not\n    /* \"#utility.yul\":663:665   */\n  0x1f\n    /* \"#utility.yul\":656:661   */\n  dup4\n    /* \"#utility.yul\":652:666   */\n  add\n    /* \"#utility.yul\":648:676   */\n  and\n    /* \"#utility.yul\":638:676   */\n  swap1\n  pop\n    /* \"#utility.yul\":580:682   */\n  swap2\n  swap1\n  pop\n  jump\t// out\n    /* \"#utility.yul\":688:868   */\ntag_24:\n    /* \"#utility.yul\":736:813   */\n  0x4e487b7100000000000000000000000000000000000000000000000000000000\n    /* \"#utility.yul\":733:734   */\n  0x00\n    /* \"#utility.yul\":726:814   */\n  mstore\n    /* \"#utility.yul\":833:837   */\n  0x41\n    /* \"#utility.yul\":830:831   */\n  0x04\n    /* \"#utility.yul\":823:838   */\n  mstore\n    /* \"#utility.yul\":857:861   */\n  0x24\n    /* \"#utility.yul\":854:855   */\n  0x00\n    /* \"#utility.yul\":847:862   */\n  revert\n    /* \"#utility.yul\":874:1155   */\ntag_25:\n    /* \"#utility.yul\":957:984   */\n  tag_65\n    /* \"#utility.yul\":979:983   */\n  dup3\n    /* \"#utility.yul\":957:984   */\n  tag_23\n  jump\t// in\ntag_65:\n    /* \"#utility.yul\":949:955   */\n  dup2\n    /* \"#utility.yul\":945:985   */\n  add\n    /* \"#utility.yul\":1087:1093   */\n  dup2\n    /* \"#utility.yul\":1075:1085   */\n  dup2\n    /* \"#utility.yul\":1072:1094   */\n  lt\n    /* \"#utility.yul\":1051:1069   */\n  0xffffffffffffffff\n    /* \"#utility.yul\":1039:1049   */\n  dup3\n    /* \"#utility.yul\":1036:1070   */\n  gt\n    /* \"#utility.yul\":1033:1095   */\n  or\n    /* \"#utility.yul\":1030:1118   */\n  iszero\n  tag_66\n  jumpi\n    /* \"#utility.yul\":1098:1116   */\n  tag_67\n  tag_24\n  jump\t// in\ntag_67:\n    /* \"#utility.yul\":1030:1118   */\ntag_66:\n    /* \"#utility.yul\":1138:1148   */\n  dup1\n    /* \"#utility.yul\":1134:1136   */\n  0x40\n    /* \"#utility.yul\":1127:1149   */\n  mstore\n    /* \"#utility.yul\":917:1155   */\n  pop\n    /* \"#utility.yul\":874:1155   */\n  pop\n  pop\n  jump\t// out\n    /* \"#utility.yul\":1161:1290   */\ntag_26:\n    /* \"#utility.yul\":1195:1201   */\n  0x00\n    /* \"#utility.yul\":1222:1242   */\n  tag_69\n  tag_18\n  jump\t// in\ntag_69:\n    /* \"#utility.yul\":1212:1242   */\n  swap1\n  pop\n    /* \"#utility.yul\":1251:1284   */\n  tag_70\n    /* \"#utility.yul\":1279:1283   */\n  dup3\n    /* \"#utility.yul\":1271:1277   */\n  dup3\n    /* \"#utility.yul\":1251:1284   */\n  tag_25\n  jump\t// in\ntag_70:\n    /* \"#utility.yul\":1161:1290   */\n  swap2\n  swap1\n  pop\n  jump\t// out\n    /* \"#utility.yul\":1296:1604   */\ntag_27:\n    /* \"#utility.yul\":1358:1362   */\n  0x00\n    /* \"#utility.yul\":1448:1466   */\n  0xffffffffffffffff\n    /* \"#utility.yul\":1440:1446   */\n  dup3\n    /* \"#utility.yul\":1437:1467   */\n  gt\n    /* \"#utility.yul\":1434:1490   */\n  iszero\n  tag_72\n  jumpi\n    /* \"#utility.yul\":1470:1488   */\n  tag_73\n  tag_24\n  jump\t// in\ntag_73:\n    /* \"#utility.yul\":1434:1490   */\ntag_72:\n    /* \"#utility.yul\":1508:1537   */\n  tag_74\n    /* \"#utility.yul\":1530:1536   */\n  dup3\n    /* \"#utility.yul\":1508:1537   */\n  tag_23\n  jump\t// in\ntag_74:\n    /* \"#utility.yul\":1500:1537   */\n  swap1\n  pop\n    /* \"#utility.yul\":1592:1596   */\n  0x20\n    /* \"#utility.yul\":1586:1590   */\n  dup2\n    /* \"#utility.yul\":1582:1597   */\n  add\n    /* \"#utility.yul\":1574:1597   */\n  swap1\n  pop\n    /* \"#utility.yul\":1296:1604   */\n  swap2\n  swap1\n  pop\n  jump\t// out\n    /* \"#utility.yul\":1610:1749   */\ntag_28:\n    /* \"#utility.yul\":1699:1705   */\n  dup3\n    /* \"#utility.yul\":1694:1697   */\n  dup2\n    /* \"#utility.yul\":1689:1692   */\n  dup4\n    /* \"#utility.yul\":1683:1706   */\n  mcopy\n    /* \"#utility.yul\":1740:1741   */\n  0x00\n    /* \"#utility.yul\":1731:1737   */\n  dup4\n    /* \"#utility.yul\":1726:1729   */\n  dup4\n    /* \"#utility.yul\":1722:1738   */\n  add\n    /* \"#utility.yul\":1715:1742   */\n  mstore\n    /* \"#utility.yul\":1610:1749   */\n  pop\n  pop\n  pop\n  jump\t// out\n    /* \"#utility.yul\":1755:2189   */\ntag_29:\n    /* \"#utility.yul\":1844:1849   */\n  0x00\n    /* \"#utility.yul\":1869:1935   */\n  tag_77\n    /* \"#utility.yul\":1885:1934   */\n  tag_78\n    /* \"#utility.yul\":1927:1933   */\n  dup5\n    /* \"#utility.yul\":1885:1934   */\n  tag_27\n  jump\t// in\ntag_78:\n    /* \"#utility.yul\":1869:1935   */\n  tag_26\n  jump\t// in\ntag_77:\n    /* \"#utility.yul\":1860:1935   */\n  swap1\n  pop\n    /* \"#utility.yul\":1958:1964   */\n  dup3\n    /* \"#utility.yul\":1951:1956   */\n  dup2\n    /* \"#utility.yul\":1944:1965   */\n  mstore\n    /* \"#utility.yul\":1996:2000   */\n  0x20\n    /* \"#utility.yul\":1989:1994   */\n  dup2\n    /* \"#utility.yul\":1985:2001   */\n  add\n    /* \"#utility.yul\":2034:2037   */\n  dup5\n    /* \"#utility.yul\":2025:2031   */\n  dup5\n    /* \"#utility.yul\":2020:2023   */\n  dup5\n    /* \"#utility.yul\":2016:2032   */\n  add\n    /* \"#utility.yul\":2013:2038   */\n  gt\n    /* \"#utility.yul\":2010:2122   */\n  iszero\n  tag_79\n  jumpi\n    /* \"#utility.yul\":2041:2120   */\n  tag_80\n  tag_22\n  jump\t// in\ntag_80:\n    /* \"#utility.yul\":2010:2122   */\ntag_79:\n    /* \"#utility.yul\":2131:2183   */\n  tag_81\n    /* \"#utility.yul\":2176:2182   */\n  dup5\n    /* \"#utility.yul\":2171:2174   */\n  dup3\n    /* \"#utility.yul\":2166:2169   */\n  dup6\n    /* \"#utility.yul\":2131:2183   */\n  tag_28\n  jump\t// in\ntag_81:\n    /* \"#utility.yul\":1850:2189   */\n  pop\n    /* \"#utility.yul\":1755:2189   */\n  swap4\n  swap3\n  pop\n  pop\n  pop\n  jump\t// out\n    /* \"#utility.yul\":2209:2564   */\ntag_30:\n    /* \"#utility.yul\":2276:2281   */\n  0x00\n    /* \"#utility.yul\":2325:2328   */\n  dup3\n    /* \"#utility.yul\":2318:2322   */\n  0x1f\n    /* \"#utility.yul\":2310:2316   */\n  dup4\n    /* \"#utility.yul\":2306:2323   */\n  add\n    /* \"#utility.yul\":2302:2329   */\n  slt\n    /* \"#utility.yul\":2292:2414   */\n  tag_83\n  jumpi\n    /* \"#utility.yul\":2333:2412   */\n  tag_84\n  tag_21\n  jump\t// in\ntag_84:\n    /* \"#utility.yul\":2292:2414   */\ntag_83:\n    /* \"#utility.yul\":2443:2449   */\n  dup2\n    /* \"#utility.yul\":2437:2450   */\n  mload\n    /* \"#utility.yul\":2468:2558   */\n  tag_85\n    /* \"#utility.yul\":2554:2557   */\n  dup5\n    /* \"#utility.yul\":2546:2552   */\n  dup3\n    /* \"#utility.yul\":2539:2543   */\n  0x20\n    /* \"#utility.yul\":2531:2537   */\n  dup7\n    /* \"#utility.yul\":2527:2544   */\n  add\n    /* \"#utility.yul\":2468:2558   */\n  tag_29\n  jump\t// in\ntag_85:\n    /* \"#utility.yul\":2459:2558   */\n  swap2\n  pop\n    /* \"#utility.yul\":2282:2564   */\n  pop\n    /* \"#utility.yul\":2209:2564   */\n  swap3\n  swap2\n  pop\n  pop\n  jump\t// out\n    /* \"#utility.yul\":2570:2647   */\ntag_31:\n    /* \"#utility.yul\":2607:2614   */\n  0x00\n    /* \"#utility.yul\":2636:2641   */\n  dup2\n    /* \"#utility.yul\":2625:2641   */\n  swap1\n  pop\n    /* \"#utility.yul\":2570:2647   */\n  swap2\n  swap1\n  pop\n  jump\t// out\n    /* \"#utility.yul\":2653:2775   */\ntag_32:\n    /* \"#utility.yul\":2726:2750   */\n  tag_88\n    /* \"#utility.yul\":2744:2749   */\n  dup2\n    /* \"#utility.yul\":2726:2750   */\n  tag_31\n  jump\t// in\ntag_88:\n    /* \"#utility.yul\":2719:2724   */\n  dup2\n    /* \"#utility.yul\":2716:2751   */\n  eq\n    /* \"#utility.yul\":2706:2769   */\n  tag_89\n  jumpi\n    /* \"#utility.yul\":2765:2766   */\n  0x00\n    /* \"#utility.yul\":2762:2763   */\n  0x00\n    /* \"#utility.yul\":2755:2767   */\n  revert\n    /* \"#utility.yul\":2706:2769   */\ntag_89:\n    /* \"#utility.yul\":2653:2775   */\n  pop\n  jump\t// out\n    /* \"#utility.yul\":2781:2924   */\ntag_33:\n    /* \"#utility.yul\":2838:2843   */\n  0x00\n    /* \"#utility.yul\":2869:2875   */\n  dup2\n    /* \"#utility.yul\":2863:2876   */\n  mload\n    /* \"#utility.yul\":2854:2876   */\n  swap1\n  pop\n    /* \"#utility.yul\":2885:2918   */\n  tag_91\n    /* \"#utility.yul\":2912:2917   */\n  dup2\n    /* \"#utility.yul\":2885:2918   */\n  tag_32\n  jump\t// in\ntag_91:\n    /* \"#utility.yul\":2781:2924   */\n  swap3\n  swap2\n  pop\n  pop\n  jump\t// out\n    /* \"#utility.yul\":2930:3939   */\ntag_3:\n    /* \"#utility.yul\":3038:3044   */\n  0x00\n    /* \"#utility.yul\":3046:3052   */\n  0x00\n    /* \"#utility.yul\":3054:3060   */\n  0x00\n    /* \"#utility.yul\":3103:3105   */\n  0x60\n    /* \"#utility.yul\":3091:3100   */\n  dup5\n    /* \"#utility.yul\":3082:3089   */\n  dup7\n    /* \"#utility.yul\":3078:3101   */\n  sub\n    /* \"#utility.yul\":3074:3106   */\n  slt\n    /* \"#utility.yul\":3071:3190   */\n  iszero\n  tag_93\n  jumpi\n    /* \"#utility.yul\":3109:3188   */\n  tag_94\n  tag_19\n  jump\t// in\ntag_94:\n    /* \"#utility.yul\":3071:3190   */\ntag_93:\n    /* \"#utility.yul\":3250:3251   */\n  0x00\n    /* \"#utility.yul\":3239:3248   */\n  dup5\n    /* \"#utility.yul\":3235:3252   */\n  add\n    /* \"#utility.yul\":3229:3253   */\n  mload\n    /* \"#utility.yul\":3280:3298   */\n  0xffffffffffffffff\n    /* \"#utility.yul\":3272:3278   */\n  dup2\n    /* \"#utility.yul\":3269:3299   */\n  gt\n    /* \"#utility.yul\":3266:3383   */\n  iszero\n  tag_95\n  jumpi\n    /* \"#utility.yul\":3302:3381   */\n  tag_96\n  tag_20\n  jump\t// in\ntag_96:\n    /* \"#utility.yul\":3266:3383   */\ntag_95:\n    /* \"#utility.yul\":3407:3481   */\n  tag_97\n    /* \"#utility.yul\":3473:3480   */\n  dup7\n    /* \"#utility.yul\":3464:3470   */\n  dup3\n    /* \"#utility.yul\":3453:3462   */\n  dup8\n    /* \"#utility.yul\":3449:3471   */\n  add\n    /* \"#utility.yul\":3407:3481   */\n  tag_30\n  jump\t// in\ntag_97:\n    /* \"#utility.yul\":3397:3481   */\n  swap4\n  pop\n    /* \"#utility.yul\":3200:3491   */\n  pop\n    /* \"#utility.yul\":3551:3553   */\n  0x20\n    /* \"#utility.yul\":3540:3549   */\n  dup5\n    /* \"#utility.yul\":3536:3554   */\n  add\n    /* \"#utility.yul\":3530:3555   */\n  mload\n    /* \"#utility.yul\":3582:3600   */\n  0xffffffffffffffff\n    /* \"#utility.yul\":3574:3580   */\n  dup2\n    /* \"#utility.yul\":3571:3601   */\n  gt\n    /* \"#utility.yul\":3568:3685   */\n  iszero\n  tag_98\n  jumpi\n    /* \"#utility.yul\":3604:3683   */\n  tag_99\n  tag_20\n  jump\t// in\ntag_99:\n    /* \"#utility.yul\":3568:3685   */\ntag_98:\n    /* \"#utility.yul\":3709:3783   */\n  tag_100\n    /* \"#utility.yul\":3775:3782   */\n  dup7\n    /* \"#utility.yul\":3766:3772   */\n  dup3\n    /* \"#utility.yul\":3755:3764   */\n  dup8\n    /* \"#utility.yul\":3751:3773   */\n  add\n    /* \"#utility.yul\":3709:3783   */\n  tag_30\n  jump\t// in\ntag_100:\n    /* \"#utility.yul\":3699:3783   */\n  swap3\n  pop\n    /* \"#utility.yul\":3501:3793   */\n  pop\n    /* \"#utility.yul\":3832:3834   */\n  0x40\n    /* \"#utility.yul\":3858:3922   */\n  tag_101\n    /* \"#utility.yul\":3914:3921   */\n  dup7\n    /* \"#utility.yul\":3905:3911   */\n  dup3\n    /* \"#utility.yul\":3894:3903   */\n  dup8\n    /* \"#utility.yul\":3890:3912   */\n  add\n    /* \"#utility.yul\":3858:3922   */\n  tag_33\n  jump\t// in\ntag_101:\n    /* \"#utility.yul\":3848:3922   */\n  swap2\n  pop\n    /* \"#utility.yul\":3803:3932   */\n  pop\n    /* \"#utility.yul\":2930:3939   */\n  swap3\n  pop\n  swap3\n  pop\n  swap3\n  jump\t// out\n    /* \"#utility.yul\":3945:4044   */\ntag_34:\n    /* \"#utility.yul\":3997:4003   */\n  0x00\n    /* \"#utility.yul\":4031:4036   */\n  dup2\n    /* \"#utility.yul\":4025:4037   */\n  mload\n    /* \"#utility.yul\":4015:4037   */\n  swap1\n  pop\n    /* \"#utility.yul\":3945:4044   */\n  swap2\n  swap1\n  pop\n  jump\t// out\n    /* \"#utility.yul\":4050:4230   */\ntag_35:\n    /* \"#utility.yul\":4098:4175   */\n  0x4e487b7100000000000000000000000000000000000000000000000000000000\n    /* \"#utility.yul\":4095:4096   */\n  0x00\n    /* \"#utility.yul\":4088:4176   */\n  mstore\n    /* \"#utility.yul\":4195:4199   */\n  0x22\n    /* \"#utility.yul\":4192:4193   */\n  0x04\n    /* \"#utility.yul\":4185:4200   */\n  mstore\n    /* \"#utility.yul\":4219:4223   */\n  0x24\n    /* \"#utility.yul\":4216:4217   */\n  0x00\n    /* \"#utility.yul\":4209:4224   */\n  revert\n    /* \"#utility.yul\":4236:4556   */\ntag_36:\n    /* \"#utility.yul\":4280:4286   */\n  0x00\n    /* \"#utility.yul\":4317:4318   */\n  0x02\n    /* \"#utility.yul\":4311:4315   */\n  dup3\n    /* \"#utility.yul\":4307:4319   */\n  div\n    /* \"#utility.yul\":4297:4319   */\n  swap1\n  pop\n    /* \"#utility.yul\":4364:4365   */\n  0x01\n    /* \"#utility.yul\":4358:4362   */\n  dup3\n    /* \"#utility.yul\":4354:4366   */\n  and\n    /* \"#utility.yul\":4385:4403   */\n  dup1\n    /* \"#utility.yul\":4375:4456   */\n  tag_105\n  jumpi\n    /* \"#utility.yul\":4441:4445   */\n  0x7f\n    /* \"#utility.yul\":4433:4439   */\n  dup3\n    /* \"#utility.yul\":4429:4446   */\n  and\n    /* \"#utility.yul\":4419:4446   */\n  swap2\n  pop\n    /* \"#utility.yul\":4375:4456   */\ntag_105:\n    /* \"#utility.yul\":4503:4505   */\n  0x20\n    /* \"#utility.yul\":4495:4501   */\n  dup3\n    /* \"#utility.yul\":4492:4506   */\n  lt\n    /* \"#utility.yul\":4472:4490   */\n  dup2\n    /* \"#utility.yul\":4469:4507   */\n  sub\n    /* \"#utility.yul\":4466:4550   */\n  tag_106\n  jumpi\n    /* \"#utility.yul\":4522:4540   */\n  tag_107\n  tag_35\n  jump\t// in\ntag_107:\n    /* \"#utility.yul\":4466:4550   */\ntag_106:\n    /* \"#utility.yul\":4287:4556   */\n  pop\n    /* \"#utility.yul\":4236:4556   */\n  swap2\n  swap1\n  pop\n  jump\t// out\n    /* \"#utility.yul\":4562:4703   */\ntag_37:\n    /* \"#utility.yul\":4611:4615   */\n  0x00\n    /* \"#utility.yul\":4634:4637   */\n  dup2\n    /* \"#utility.yul\":4626:4637   */\n  swap1\n  pop\n    /* \"#utility.yul\":4657:4660   */\n  dup2\n    /* \"#utility.yul\":4654:4655   */\n  0x00\n    /* \"#utility.yul\":4647:4661   */\n  mstore\n    /* \"#utility.yul\":4691:4695   */\n  0x20\n    /* \"#utility.yul\":4688:4689   */\n  0x00\n    /* \"#utility.yul\":4678:4696   */\n  keccak256\n    /* \"#utility.yul\":4670:4696   */\n  swap1\n  pop\n    /* \"#utility.yul\":4562:4703   */\n  swap2\n  swap1\n  pop\n  jump\t// out\n    /* \"#utility.yul\":4709:4802   */\ntag_38:\n    /* \"#utility.yul\":4746:4752   */\n  0x00\n    /* \"#utility.yul\":4793:4795   */\n  0x20\n    /* \"#utility.yul\":4788:4790   */\n  0x1f\n    /* \"#utility.yul\":4781:4786   */\n  dup4\n    /* \"#utility.yul\":4777:4791   */\n  add\n    /* \"#utility.yul\":4773:4796   */\n  div\n    /* \"#utility.yul\":4763:4796   */\n  swap1\n  pop\n    /* \"#utility.yul\":4709:4802   */\n  swap2\n  swap1\n  pop\n  jump\t// out\n    /* \"#utility.yul\":4808:4915   */\ntag_39:\n    /* \"#utility.yul\":4852:4860   */\n  0x00\n    /* \"#utility.yul\":4902:4907   */\n  dup3\n    /* \"#utility.yul\":4896:4900   */\n  dup3\n    /* \"#utility.yul\":4892:4908   */\n  shl\n    /* \"#utility.yul\":4871:4908   */\n  swap1\n  pop\n    /* \"#utility.yul\":4808:4915   */\n  swap3\n  swap2\n  pop\n  pop\n  jump\t// out\n    /* \"#utility.yul\":4921:5314   */\ntag_40:\n    /* \"#utility.yul\":4990:4996   */\n  0x00\n    /* \"#utility.yul\":5040:5041   */\n  0x08\n    /* \"#utility.yul\":5028:5038   */\n  dup4\n    /* \"#utility.yul\":5024:5042   */\n  mul\n    /* \"#utility.yul\":5063:5160   */\n  tag_112\n    /* \"#utility.yul\":5093:5159   */\n  0xffffffffffffffffffffffffffffffffffffffffffffffffffffffffffffffff\n    /* \"#utility.yul\":5082:5091   */\n  dup3\n    /* \"#utility.yul\":5063:5160   */\n  tag_39\n  jump\t// in\ntag_112:\n    /* \"#utility.yul\":5181:5220   */\n  tag_113\n    /* \"#utility.yul\":5211:5219   */\n  dup7\n    /* \"#utility.yul\":5200:5209   */\n  dup4\n    /* \"#utility.yul\":5181:5220   */\n  tag_39\n  jump\t// in\ntag_113:\n    /* \"#utility.yul\":5169:5220   */\n  swap6\n  pop\n    /* \"#utility.yul\":5253:5257   */\n  dup1\n    /* \"#utility.yul\":5249:5258   */\n  not\n    /* \"#utility.yul\":5242:5247   */\n  dup5\n    /* \"#utility.yul\":5238:5259   */\n  and\n    /* \"#utility.yul\":5229:5259   */\n  swap4\n  pop\n    /* \"#utility.yul\":5302:5306   */\n  dup1\n    /* \"#utility.yul\":5292:5300   */\n  dup7\n    /* \"#utility.yul\":5288:5307   */\n  and\n    /* \"#utility.yul\":5281:5286   */\n  dup5\n    /* \"#utility.yul\":5278:5308   */\n  or\n    /* \"#utility.yul\":5268:5308   */\n  swap3\n  pop\n    /* \"#utility.yul\":4997:5314   */\n  pop\n  pop\n    /* \"#utility.yul\":4921:5314   */\n  swap4\n  swap3\n  pop\n  pop\n  pop\n  jump\t// out\n    /* \"#utility.yul\":5320:5380   */\ntag_41:\n    /* \"#utility.yul\":5348:5351   */\n  0x00\n    /* \"#utility.yul\":5369:5374   */\n  dup2\n    /* \"#utility.yul\":5362:5374   */\n  swap1\n  pop\n    /* \"#utility.yul\":5320:5380   */\n  swap2\n  swap1\n  pop\n  jump\t// out\n    /* \"#utility.yul\":5386:5528   */\ntag_42:\n    /* \"#utility.yul\":5436:5445   */\n  0x00\n    /* \"#utility.yul\":5469:5522   */\n  tag_116\n    /* \"#utility.yul\":5487:5521   */\n  tag_117\n    /* \"#utility.yul\":5496:5520   */\n  tag_118\n    /* \"#utility.yul\":5514:5519   */\n  dup5\n    /* \"#utility.yul\":5496:5520   */\n  tag_31\n  jump\t// in\ntag_118:\n    /* \"#utility.yul\":5487:5521   */\n  tag_41\n  jump\t// in\ntag_117:\n    /* \"#utility.yul\":5469:5522   */\n  tag_31\n  jump\t// in\ntag_116:\n    /* \"#utility.yul\":5456:5522   */\n  swap1\n  pop\n    /* \"#utility.yul\":5386:5528   */\n  swap2\n  swap1\n  pop\n  jump\t// out\n    /* \"#utility.yul\":5534:5609   */\ntag_43:\n    /* \"#utility.yul\":5577:5580   */\n  0x00\n    /* \"#utility.yul\":5598:5603   */\n  dup2\n    /* \"#utility.yul\":5591:5603   */\n  swap1\n  pop\n    /* \"#utility.yul\":5534:5609   */\n  swap2\n  swap1\n  pop\n  jump\t// out\n    /* \"#utility.yul\":5615:5884   */\ntag_44:\n    /* \"#utility.yul\":5725:5764   */\n  tag_121\n    /* \"#utility.yul\":5756:5763   */\n  dup4\n    /* \"#utility.yul\":5725:5764   */\n  tag_42\n  jump\t// in\ntag_121:\n    /* \"#utility.yul\":5786:5877   */\n  tag_122\n    /* \"#utility.yul\":5835:5876   */\n  tag_123\n    /* \"#utility.yul\":5859:5875   */\n  dup3\n    /* \"#utility.yul\":5835:5876   */\n  tag_43\n  jump\t// in\ntag_123:\n    /* \"#utility.yul\":5827:5833   */\n  dup5\n    /* \"#utility.yul\":5820:5824   */\n  dup5\n    /* \"#utility.yul\":5814:5825   */\n  sload\n    /* \"#utility.yul\":5786:5877   */\n  tag_40\n  jump\t// in\ntag_122:\n    /* \"#utility.yul\":5780:5784   */\n  dup3\n    /* \"#utility.yul\":5773:5878   */\n  sstore\n    /* \"#utility.yul\":5691:5884   */\n  pop\n    /* \"#utility.yul\":5615:5884   */\n  pop\n  pop\n  pop\n  jump\t// out\n    /* \"#utility.yul\":5890:5963   */\ntag_45:\n    /* \"#utility.yul\":5935:5938   */\n  0x00\n    /* \"#utility.yul\":5956:5957   */\n  0x00\n    /* \"#utility.yul\":5949:5957   */\n  swap1\n  pop\n    /* \"#utility.yul\":5890:5963   */\n  swap1\n  jump\t// out\n    /* \"#utility.yul\":5969:6158   */\ntag_46:\n    /* \"#utility.yul\":6046:6078   */\n  tag_126\n  tag_45\n  jump\t// in\ntag_126:\n    /* \"#utility.yul\":6087:6152   */\n  tag_127\n    /* \"#utility.yul\":6145:6151   */\n  dup2\n    /* \"#utility.yul\":6137:6143   */\n  dup5\n    /* \"#utility.yul\":6131:6135   */\n  dup5\n    /* \"#utility.yul\":6087:6152   */\n  tag_44\n  jump\t// in\ntag_127:\n    /* \"#utility.yul\":6022:6158   */\n  pop\n    /* \"#utility.yul\":5969:6158   */\n  pop\n  pop\n  jump\t// out\n    /* \"#utility.yul\":6164:6350   */\ntag_47:\n    /* \"#utility.yul\":6224:6344   */\ntag_129:\n    /* \"#utility.yul\":6241:6244   */\n  dup2\n    /* \"#utility.yul\":6234:6239   */\n  dup2\n    /* \"#utility.yul\":6231:6245   */\n  lt\n    /* \"#utility.yul\":6224:6344   */\n  iszero\n  tag_131\n  jumpi\n    /* \"#utility.yul\":6295:6334   */\n  tag_132\n    /* \"#utility.yul\":6332:6333   */\n  0x00\n    /* \"#utility.yul\":6325:6330   */\n  dup3\n    /* \"#utility.yul\":6295:6334   */\n  tag_46\n  jump\t// in\ntag_132:\n    /* \"#utility.yul\":6268:6269   */\n  0x01\n    /* \"#utility.yul\":6261:6266   */\n  dup2\n    /* \"#utility.yul\":6257:6270   */\n  add\n    /* \"#utility.yul\":6248:6270   */\n  swap1\n  pop\n    /* \"#utility.yul\":6224:6344   */\n  jump(tag_129)\ntag_131:\n    /* \"#utility.yul\":6164:6350   */\n  pop\n  pop\n  jump\t// out\n    /* \"#utility.yul\":6356:6899   */\ntag_48:\n    /* \"#utility.yul\":6457:6459   */\n  0x1f\n    /* \"#utility.yul\":6452:6455   */\n  dup3\n    /* \"#utility.yul\":6449:6460   */\n  gt\n    /* \"#utility.yul\":6446:6892   */\n  iszero\n  tag_134\n  jumpi\n    /* \"#utility.yul\":6491:6529   */\n  tag_135\n    /* \"#utility.yul\":6523:6528   */\n  dup2\n    /* \"#utility.yul\":6491:6529   */\n  tag_37\n  jump\t// in\ntag_135:\n    /* \"#utility.yul\":6575:6604   */\n  tag_136\n    /* \"#utility.yul\":6593:6603   */\n  dup5\n    /* \"#utility.yul\":6575:6604   */\n  tag_38\n  jump\t// in\ntag_136:\n    /* \"#utility.yul\":6565:6573   */\n  dup2\n    /* \"#utility.yul\":6561:6605   */\n  add\n    /* \"#utility.yul\":6758:6760   */\n  0x20\n    /* \"#utility.yul\":6746:6756   */\n  dup6\n    /* \"#utility.yul\":6743:6761   */\n  lt\n    /* \"#utility.yul\":6740:6789   */\n  iszero\n  tag_137\n  jumpi\n    /* \"#utility.yul\":6779:6787   */\n  dup2\n    /* \"#utility.yul\":6764:6787   */\n  swap1\n  pop\n    /* \"#utility.yul\":6740:6789   */\ntag_137:\n    /* \"#utility.yul\":6802:6882   */\n  tag_138\n    /* \"#utility.yul\":6858:6880   */\n  tag_139\n    /* \"#utility.yul\":6876:6879   */\n  dup6\n    /* \"#utility.yul\":6858:6880   */\n  tag_38\n  jump\t// in\ntag_139:\n    /* \"#utility.yul\":6848:6856   */\n  dup4\n    /* \"#utility.yul\":6844:6881   */\n  add\n    /* \"#utility.yul\":6831:6842   */\n  dup3\n    /* \"#utility.yul\":6802:6882   */\n  tag_47\n  jump\t// in\ntag_138:\n    /* \"#utility.yul\":6461:6892   */\n  pop\n  pop\n    /* \"#utility.yul\":6446:6892   */\ntag_134:\n    /* \"#utility.yul\":6356:6899   */\n  pop\n  pop\n  pop\n  jump\t// out\n    /* \"#utility.yul\":6905:7022   */\ntag_49:\n    /* \"#utility.yul\":6959:6967   */\n  0x00\n    /* \"#utility.yul\":7009:7014   */\n  dup3\n    /* \"#utility.yul\":7003:7007   */\n  dup3\n    /* \"#utility.yul\":6999:7015   */\n  shr\n    /* \"#utility.yul\":6978:7015   */\n  swap1\n  pop\n    /* \"#utility.yul\":6905:7022   */\n  swap3\n  swap2\n  pop\n  pop\n  jump\t// out\n    /* \"#utility.yul\":7028:7197   */\ntag_50:\n    /* \"#utility.yul\":7072:7078   */\n  0x00\n    /* \"#utility.yul\":7105:7156   */\n  tag_142\n    /* \"#utility.yul\":7153:7154   */\n  0x00\n    /* \"#utility.yul\":7149:7155   */\n  not\n    /* \"#utility.yul\":7141:7146   */\n  dup5\n    /* \"#utility.yul\":7138:7139   */\n  0x08\n    /* \"#utility.yul\":7134:7147   */\n  mul\n    /* \"#utility.yul\":7105:7156   */\n  tag_49\n  jump\t// in\ntag_142:\n    /* \"#utility.yul\":7101:7157   */\n  not\n    /* \"#utility.yul\":7186:7190   */\n  dup1\n    /* \"#utility.yul\":7180:7184   */\n  dup4\n    /* \"#utility.yul\":7176:7191   */\n  and\n    /* \"#utility.yul\":7166:7191   */\n  swap2\n  pop\n    /* \"#utility.yul\":7079:7197   */\n  pop\n    /* \"#utility.yul\":7028:7197   */\n  swap3\n  swap2\n  pop\n  pop\n  jump\t// out\n    /* \"#utility.yul\":7202:7497   */\ntag_51:\n    /* \"#utility.yul\":7278:7282   */\n  0x00\n    /* \"#utility.yul\":7424:7453   */\n  tag_144\n    /* \"#utility.yul\":7449:7452   */\n  dup4\n    /* \"#utility.yul\":7443:7447   */\n  dup4\n    /* \"#utility.yul\":7424:7453   */\n  tag_50\n  jump\t// in\ntag_144:\n    /* \"#utility.yul\":7416:7453   */\n  swap2\n  pop\n    /* \"#utility.yul\":7486:7489   */\n  dup3\n    /* \"#utility.yul\":7483:7484   */\n  0x02\n    /* \"#utility.yul\":7479:7490   */\n  mul\n    /* \"#utility.yul\":7473:7477   */\n  dup3\n    /* \"#utility.yul\":7470:7491   */\n  or\n    /* \"#utility.yul\":7462:7491   */\n  swap1\n  pop\n    /* \"#utility.yul\":7202:7497   */\n  swap3\n  swap2\n  pop\n  pop\n  jump\t// out\n    /* \"#utility.yul\":7502:8897   */\ntag_7:\n    /* \"#utility.yul\":7619:7656   */\n  tag_146\n    /* \"#utility.yul\":7652:7655   */\n  dup3\n    /* \"#utility.yul\":7619:7656   */\n  tag_34\n  jump\t// in\ntag_146:\n    /* \"#utility.yul\":7721:7739   */\n  0xffffffffffffffff\n    /* \"#utility.yul\":7713:7719   */\n  dup2\n    /* \"#utility.yul\":7710:7740   */\n  gt\n    /* \"#utility.yul\":7707:7763   */\n  iszero\n  tag_147\n  jumpi\n    /* \"#utility.yul\":7743:7761   */\n  tag_148\n  tag_24\n  jump\t// in\ntag_148:\n    /* \"#utility.yul\":7707:7763   */\ntag_147:\n    /* \"#utility.yul\":7787:7825   */\n  tag_149\n    /* \"#utility.yul\":7819:7823   */\n  dup3\n    /* \"#utility.yul\":7813:7824   */\n  sload\n    /* \"#utility.yul\":7787:7825   */\n  tag_36\n  jump\t// in\ntag_149:\n    /* \"#utility.yul\":7872:7939   */\n  tag_150\n    /* \"#utility.yul\":7932:7938   */\n  dup3\n    /* \"#utility.yul\":7924:7930   */\n  dup3\n    /* \"#utility.yul\":7918:7922   */\n  dup6\n    /* \"#utility.yul\":7872:7939   */\n  tag_48\n  jump\t// in\ntag_150:\n    /* \"#utility.yul\":7966:7967   */\n  0x00\n    /* \"#utility.yul\":7990:7994   */\n  0x20\n    /* \"#utility.yul\":7977:7994   */\n  swap1\n  pop\n    /* \"#utility.yul\":8022:8024   */\n  0x1f\n    /* \"#utility.yul\":8014:8020   */\n  dup4\n    /* \"#utility.yul\":8011:8025   */\n  gt\n    /* \"#utility.yul\":8039:8040   */\n  0x01\n    /* \"#utility.yul\":8034:8652   */\n  dup2\n  eq\n  tag_152\n  jumpi\n    /* \"#utility.yul\":8696:8697   */\n  0x00\n    /* \"#utility.yul\":8713:8719   */\n  dup5\n    /* \"#utility.yul\":8710:8787   */\n  iszero\n  tag_153\n  jumpi\n    /* \"#utility.yul\":8762:8771   */\n  dup3\n    /* \"#utility.yul\":8757:8760   */\n  dup8\n    /* \"#utility.yul\":8753:8772   */\n  add\n    /* \"#utility.yul\":8747:8773   */\n  mload\n    /* \"#utility.yul\":8738:8773   */\n  swap1\n  pop\n    /* \"#utility.yul\":8710:8787   */\ntag_153:\n    /* \"#utility.yul\":8813:8880   */\n  tag_154\n    /* \"#utility.yul\":8873:8879   */\n  dup6\n    /* \"#utility.yul\":8866:8871   */\n  dup3\n    /* \"#utility.yul\":8813:8880   */\n  tag_51\n  jump\t// in\ntag_154:\n    /* \"#utility.yul\":8807:8811   */\n  dup7\n    /* \"#utility.yul\":8800:8881   */\n  sstore\n    /* \"#utility.yul\":8669:8891   */\n  pop\n    /* \"#utility.yul\":8004:8891   */\n  jump(tag_151)\n    /* \"#utility.yul\":8034:8652   */\ntag_152:\n    /* \"#utility.yul\":8086:8090   */\n  0x1f\n    /* \"#utility.yul\":8082:8091   */\n  not\n    /* \"#utility.yul\":8074:8080   */\n  dup5\n    /* \"#utility.yul\":8070:8092   */\n  and\n    /* \"#utility.yul\":8120:8157   */\n  tag_155\n    /* \"#utility.yul\":8152:8156   */\n  dup7\n    /* \"#utility.yul\":8120:8157   */\n  tag_37\n  jump\t// in\ntag_155:\n    /* \"#utility.yul\":8179:8180   */\n  0x00\n    /* \"#utility.yul\":8193:8401   */\ntag_156:\n    /* \"#utility.yul\":8207:8214   */\n  dup3\n    /* \"#utility.yul\":8204:8205   */\n  dup2\n    /* \"#utility.yul\":8201:8215   */\n  lt\n    /* \"#utility.yul\":8193:8401   */\n  iszero\n  tag_158\n  jumpi\n    /* \"#utility.yul\":8286:8295   */\n  dup5\n    /* \"#utility.yul\":8281:8284   */\n  dup10\n    /* \"#utility.yul\":8277:8296   */\n  add\n    /* \"#utility.yul\":8271:8297   */\n  mload\n    /* \"#utility.yul\":8263:8269   */\n  dup3\n    /* \"#utility.yul\":8256:8298   */\n  sstore\n    /* \"#utility.yul\":8337:8338   */\n  0x01\n    /* \"#utility.yul\":8329:8335   */\n  dup3\n    /* \"#utility.yul\":8325:8339   */\n  add\n    /* \"#utility.yul\":8315:8339   */\n  swap2\n  pop\n    /* \"#utility.yul\":8384:8386   */\n  0x20\n    /* \"#utility.yul\":8373:8382   */\n  dup6\n    /* \"#utility.yul\":8369:8387   */\n  add\n    /* \"#utility.yul\":8356:8387   */\n  swap5\n  pop\n    /* \"#utility.yul\":8230:8234   */\n  0x20\n    /* \"#utility.yul\":8227:8228   */\n  dup2\n    /* \"#utility.yul\":8223:8235   */\n  add\n    /* \"#utility.yul\":8218:8235   */\n  swap1\n  pop\n    /* \"#utility.yul\":8193:8401   */\n  jump(tag_156)\ntag_158:\n    /* \"#utility.yul\":8429:8435   */\n  dup7\n    /* \"#utility.yul\":8420:8427   */\n  dup4\n    /* \"#utility.yul\":8417:8436   */\n  lt\n    /* \"#utility.yul\":8414:8593   */\n  iszero\n  tag_159\n  jumpi\n    /* \"#utility.yul\":8487:8496   */\n  dup5\n    /* \"#utility.yul\":8482:8485   */\n  dup10\n    /* \"#utility.yul\":8478:8497   */\n  add\n    /* \"#utility.yul\":8472:8498   */\n  mload\n    /* \"#utility.yul\":8530:8578   */\n  tag_160\n    /* \"#utility.yul\":8572:8576   */\n  0x1f\n    /* \"#utility.yul\":8564:8570   */\n  dup10\n    /* \"#utility.yul\":8560:8577   */\n  and\n    /* \"#utility.yul\":8549:8558   */\n  dup3\n    /* \"#utility.yul\":8530:8578   */\n  tag_50\n  jump\t// in\ntag_160:\n    /* \"#utility.yul\":8522:8528   */\n  dup4\n    /* \"#utility.yul\":8515:8579   */\n  sstore\n    /* \"#utility.yul\":8437:8593   */\n  pop\n    /* \"#utility.yul\":8414:8593   */\ntag_159:\n    /* \"#utility.yul\":8639:8640   */\n  0x01\n    /* \"#utility.yul\":8635:8636   */\n  0x02\n    /* \"#utility.yul\":8627:8633   */\n  dup9\n    /* \"#utility.yul\":8623:8637   */\n  mul\n    /* \"#utility.yul\":8619:8641   */\n  add\n    /* \"#utility.yul\":8613:8617   */\n  dup9\n    /* \"#utility.yul\":8606:8642   */\n  sstore\n    /* \"#utility.yul\":8041:8652   */\n  pop\n  pop\n  pop\n    /* \"#utility.yul\":8004:8891   */\ntag_151:\n  pop\n    /* \"#utility.yul\":7594:8897   */\n  pop\n  pop\n  pop\n    /* \"#utility.yul\":7502:8897   */\n  pop\n  pop\n  jump\t// out\n    /* \"#utility.yul\":8903:9072   */\ntag_52:\n    /* \"#utility.yul\":8987:8998   */\n  0x00\n    /* \"#utility.yul\":9021:9027   */\n  dup3\n    /* \"#utility.yul\":9016:9019   */\n  dup3\n    /* \"#utility.yul\":9009:9028   */\n  mstore\n    /* \"#utility.yul\":9061:9065   */\n  0x20\n    /* \"#utility.yul\":9056:9059   */\n  dup3\n    /* \"#utility.yul\":9052:9066   */\n  add\n    /* \"#utility.yul\":9037:9066   */\n  swap1\n  pop\n    /* \"#utility.yul\":8903:9072   */\n  swap3\n  swap2\n  pop\n  pop\n  jump\t// out\n    /* \"#utility.yul\":9078:9237   */\ntag_53:\n    /* \"#utility.yul\":9218:9229   */\n  0x6e6f74206f776e65720000000000000000000000000000000000000000000000\n    /* \"#utility.yul\":9214:9215   */\n  0x00\n    /* \"#utility.yul\":9206:9212   */\n  dup3\n    /* \"#utility.yul\":9202:9216   */\n  add\n    /* \"#utility.yul\":9195:9230   */\n  mstore\n    /* \"#utility.yul\":9078:9237   */\n  pop\n  jump\t// out\n    /* \"#utility.yul\":9243:9608   */\ntag_54:\n    /* \"#utility.yul\":9385:9388   */\n  0x00\n    /* \"#utility.yul\":9406:9472   */\n  tag_164\n    /* \"#utility.yul\":9470:9471   */\n  0x09\n    /* \"#utility.yul\":9465:9468   */\n  dup4\n    /* \"#utility.yul\":9406:9472   */\n  tag_52\n  jump\t// in\ntag_164:\n    /* \"#utility.yul\":9399:9472   */\n  swap2\n  pop\n    /* \"#utility.yul\":9481:9574   */\n  tag_165\n    /* \"#utility.yul\":9570:9573   */\n  dup3\n    /* \"#utility.yul\":9481:9574   */\n  tag_53\n  jump\t// in\ntag_165:\n    /* \"#utility.yul\":9599:9601   */\n  0x20\n    /* \"#utility.yul\":9594:9597   */\n  dup3\n    /* \"#utility.yul\":9590:9602   */\n  add\n    /* \"#utility.yul\":9583:9602   */\n  swap1\n  pop\n    /* \"#utility.yul\":9243:9608   */\n  swap2\n  swap1\n  pop\n  jump\t// out\n    /* \"#utility.yul\":9614:10033   */\ntag_15:\n    /* \"#utility.yul\":9780:9784   */\n  0x00\n    /* \"#utility.yul\":9818:9820   */\n  0x20\n    /* \"#utility.yul\":9807:9816   */\n  dup3\n    /* \"#utility.yul\":9803:9821   */\n  add\n    /* \"#utility.yul\":9795:9821   */\n  swap1\n  pop\n    /* \"#utility.yul\":9867:9876   */\n  dup2\n    /* \"#utility.yul\":9861:9865   */\n  dup2\n    /* \"#utility.yul\":9857:9877   */\n  sub\n    /* \"#utility.yul\":9853:9854   */\n  0x00\n    /* \"#utility.yul\":9842:9851   */\n  dup4\n    /* \"#utility.yul\":9838:9855   */\n  add\n    /* \"#utility.yul\":9831:9878   */\n  mstore\n    /* \"#utility.yul\":9895:10026   */\n  tag_167\n    /* \"#utility.yul\":10021:10025   */\n  dup2\n    /* \"#utility.yul\":9895:10026   */\n  tag_54\n  jump\t// in\ntag_167:\n    /* \"#utility.yul\":9887:10026   */\n  swap1\n  pop\n    /* \"#utility.yul\":9614:10033   */\n  swap2\n  swap1\n  pop\n  jump\t// out\n    /* \"#utility.yul\":10039:10219   */\ntag_55:\n    /* \"#utility.yul\":10087:10164   */\n  0x4e487b7100000000000000000000000000000000000000000000000000000000\n    /* \"#utility.yul\":10084:10085   */\n  0x00\n    /* \"#utility.yul\":10077:10165   */\n  mstore\n    /* \"#utility.yul\":10184:10188   */\n  0x11\n    /* \"#utility.yul\":10181:10182   */\n  0x04\n    /* \"#utility.yul\":10174:10189   */\n  mstore\n    /* \"#utility.yul\":10208:10212   */\n  0x24\n    /* \"#utility.yul\":10205:10206   */\n  0x00\n    /* \"#utility.yul\":10198:10213   */\n  revert\n    /* \"#utility.yul\":10225:10416   */\ntag_17:\n    /* \"#utility.yul\":10265:10268   */\n  0x00\n    /* \"#utility.yul\":10284:10304   */\n  tag_170\n    /* \"#utility.yul\":10302:10303   */\n  dup3\n    /* \"#utility.yul\":10284:10304   */\n  tag_31\n  jump\t// in\ntag_170:\n    /* \"#utility.yul\":10279:10304   */\n  swap2\n  pop\n    /* \"#utility.yul\":10318:10338   */\n  tag_171\n    /* \"#utility.yul\":10336:10337   */\n  dup4\n    /* \"#utility.yul\":10318:10338   */\n  tag_31\n  jump\t// in\ntag_171:\n    /* \"#utility.yul\":10313:10338   */\n  swap3\n  pop\n    /* \"#utility.yul\":10361:10362   */\n  dup3\n    /* \"#utility.yul\":10358:10359   */\n  dup3\n    /* \"#utility.yul\":10354:10363   */\n  add\n    /* \"#utility.yul\":10347:10363   */\n  swap1\n  pop\n    /* \"#utility.yul\":10382:10385   */\n  dup1\n    /* \"#utility.yul\":10379:10380   */\n  dup3\n    /* \"#utility.yul\":10376:10386   */\n  gt\n    /* \"#utility.yul\":10373:10409   */\n  iszero\n  tag_172\n  jumpi\n    /* \"#utility.yul\":10389:10407   */\n  tag_173\n  tag_55\n  jump\t// in\ntag_173:\n    /* \"#utility.yul\":10373:10409   */\ntag_172:\n    /* \"#utility.yul\":10225:10416   */\n  swap3\n  swap2\n  pop\n  pop\n  jump\t// out\n    /* \"stage02/task01/MyToken.sol\":58:2424  contract MyToken {... */\ntag_11:\n  dataSize(sub_0)\n  dup1\n  dataOffset(sub_0)\n  0x00\n  codecopy\n  0x00\n  return\nstop\n\nsub_0: assembly {\n        /* \"stage02/task01/MyToken.sol\":58:2424  contract MyToken {... */\n      mstore(0x40, 0x80)\n      callvalue\n      dup1\n      iszero\n      tag_1\n      jumpi\n      revert(0x00, 0x00)\n    tag_1:\n      pop\n      jumpi(tag_2, lt(calldatasize, 0x04))\n      shr(0xe0, calldataload(0x00))\n      dup1\n      0x40c10f19\n      gt\n      tag_11\n      jumpi\n      dup1\n      0x40c10f19\n      eq\n      tag_7\n      jumpi\n      dup1\n      0x70a08231\n      eq\n      tag_8\n      jumpi\n      dup1\n      0x95d89b41\n      eq\n      tag_9\n      jumpi\n      dup1\n      0xa9059cbb\n      eq\n      tag_10\n      jumpi\n      jump(tag_2)\n    tag_11:\n      dup1\n      0x06fdde03\n      eq\n      tag_3\n      jumpi\n      dup1\n      0x095ea7b3\n      eq\n      tag_4\n      jumpi\n      dup1\n      0x23b872dd\n      eq\n      tag_5\n      jumpi\n      dup1\n      0x313ce567\n      eq\n      tag_6\n      jumpi\n    tag_2:\n      revert(0x00, 0x00)\n        /* \"stage02/task01/MyToken.sol\":268:286  string public name */\n    tag_3:\n      tag_12\n      tag_13\n      jump\t// in\n    tag_12:\n      mload(0x40)\n      tag_14\n      swap2\n      swap1\n      tag_15\n      jump\t// in\n    tag_14:\n      mload(0x40)\n      dup1\n      swap2\n      sub\n      swap1\n      return\n        /* \"stage02/task01/MyToken.sol\":1231:1503  function approve(address spender, uint256 value) public virtual returns (bool) {... */\n    tag_4:\n      tag_16\n      0x04\n      dup1\n      calldatasize\n      sub\n      dup2\n      add\n      swap1\n      tag_17\n      swap2\n      swap1\n      tag_18\n      jump\t// in\n    tag_17:\n      tag_19\n      jump\t// in\n    tag_16:\n      mload(0x40)\n      tag_20\n      swap2\n      swap1\n      tag_21\n      jump\t// in\n    tag_20:\n      mload(0x40)\n      dup1\n      swap2\n      sub\n      swap1\n      return\n        /* \"stage02/task01/MyToken.sol\":1511:2159  function transferFrom(address from, address to, uint256 value) public returns (bool) {... */\n    tag_5:\n      tag_22\n      0x04\n      dup1\n      calldatasize\n      sub\n      dup2\n      add\n      swap1\n      tag_23\n      swap2\n      swap1\n      tag_24\n      jump\t// in\n    tag_23:\n      tag_25\n      jump\t// in\n    tag_22:\n      mload(0x40)\n      tag_26\n      swap2\n      swap1\n      tag_21\n      jump\t// in\n    tag_26:\n      mload(0x40)\n      dup1\n      swap2\n      sub\n      swap1\n      return\n        /* \"stage02/task01/MyToken.sol\":295:315  uint public decimals */\n    tag_6:\n      tag_27\n      tag_28\n      jump\t// in\n    tag_27:\n      mload(0x40)\n      tag_29\n      swap2\n      swap1\n      tag_30\n      jump\t// in\n    tag_29:\n      mload(0x40)\n      dup1\n      swap2\n      sub\n      swap1\n      return\n        /* \"stage02/task01/MyToken.sol\":2167:2421  function mint(address to, uint256 value) public {... */\n    tag_7:\n      tag_31\n      0x04\n      dup1\n      calldatasize\n      sub\n      dup2\n      add\n      swap1\n      tag_32\n      swap2\n      swap1\n      tag_18\n      jump\t// in\n    tag_32:\n      tag_33\n      jump\t// in\n    tag_31:\n      stop\n        /* \"stage02/task01/MyToken.sol\":726:837  function balanceOf(address _address) public view returns (uint) {... */\n    tag_8:\n      tag_34\n      0x04\n      dup1\n      calldatasize\n      sub\n      dup2\n      add\n      swap1\n      tag_35\n      swap2\n      swap1\n      tag_36\n      jump\t// in\n    tag_35:\n      tag_37\n      jump\t// in\n    tag_34:\n      mload(0x40)\n      tag_38\n      swap2\n      swap1\n      tag_30\n      jump\t// in\n    tag_38:\n      mload(0x40)\n      dup1\n      swap2\n      sub\n      swap1\n      return\n        /* \"stage02/task01/MyToken.sol\":239:259  string public symbol */\n    tag_9:\n      tag_39\n      tag_40\n      jump\t// in\n    tag_39:\n      mload(0x40)\n      tag_41\n      swap2\n      swap1\n      tag_15\n      jump\t// in\n    tag_41:\n      mload(0x40)\n      dup1\n      swap2\n      sub\n      swap1\n      return\n        /* \"stage02/task01/MyToken.sol\":845:1223  function transfer(address  to, uint256 value) public {... */\n    tag_10:\n      tag_42\n      0x04\n      dup1\n      calldatasize\n      sub\n      dup2\n      add\n      swap1\n      tag_43\n      swap2\n      swap1\n      tag_18\n      jump\t// in\n    tag_43:\n      tag_44\n      jump\t// in\n    tag_42:\n      stop\n        /* \"stage02/task01/MyToken.sol\":268:286  string public name */\n    tag_13:\n      0x04\n      dup1\n      sload\n      tag_45\n      swap1\n      tag_46\n      jump\t// in\n    tag_45:\n      dup1\n      0x1f\n      add\n      0x20\n      dup1\n      swap2\n      div\n      mul\n      0x20\n      add\n      mload(0x40)\n      swap1\n      dup2\n      add\n      0x40\n      mstore\n      dup1\n      swap3\n      swap2\n      swap1\n      dup2\n      dup2\n      mstore\n      0x20\n      add\n      dup3\n      dup1\n      sload\n      tag_47\n      swap1\n      tag_46\n      jump\t// in\n    tag_47:\n      dup1\n      iszero\n      tag_48\n      jumpi\n      dup1\n      0x1f\n      lt\n      tag_49\n      jumpi\n      0x0100\n      dup1\n      dup4\n      sload\n      div\n      mul\n      dup4\n      mstore\n      swap2\n      0x20\n      add\n      swap2\n      jump(tag_48)\n    tag_49:\n      dup3\n      add\n      swap2\n      swap1\n      0x00\n      mstore\n      keccak256(0x00, 0x20)\n      swap1\n    tag_50:\n      dup2\n      sload\n      dup2\n      mstore\n      swap1\n      0x01\n      add\n      swap1\n      0x20\n      add\n      dup1\n      dup4\n      gt\n      tag_50\n      jumpi\n      dup3\n      swap1\n      sub\n      0x1f\n      and\n      dup3\n      add\n      swap2\n    tag_48:\n      pop\n      pop\n      pop\n      pop\n      pop\n      dup2\n      jump\t// out\n        /* \"stage02/task01/MyToken.sol\":1231:1503  function approve(address spender, uint256 value) public virtual returns (bool) {... */\n    tag_19:\n        /* \"stage02/task01/MyToken.sol\":1304:1308  bool */\n      0x00\n        /* \"stage02/task01/MyToken.sol\":1321:1335  address sender */\n      0x00\n        /* \"stage02/task01/MyToken.sol\":1338:1348  msg.sender */\n      caller\n        /* \"stage02/task01/MyToken.sol\":1321:1348  address sender = msg.sender */\n      swap1\n      pop\n        /* \"stage02/task01/MyToken.sol\":1420:1425  value */\n      dup3\n        /* \"stage02/task01/MyToken.sol\":1390:1400  allowances */\n      0x01\n        /* \"stage02/task01/MyToken.sol\":1390:1408  allowances[sender] */\n      0x00\n        /* \"stage02/task01/MyToken.sol\":1401:1407  sender */\n      dup4\n        /* \"stage02/task01/MyToken.sol\":1390:1408  allowances[sender] */\n      0xffffffffffffffffffffffffffffffffffffffff\n      and\n      0xffffffffffffffffffffffffffffffffffffffff\n      and\n      dup2\n      mstore\n      0x20\n      add\n      swap1\n      dup2\n      mstore\n      0x20\n      add\n      0x00\n      keccak256\n        /* \"stage02/task01/MyToken.sol\":1390:1417  allowances[sender][spender] */\n      0x00\n        /* \"stage02/task01/MyToken.sol\":1409:1416  spender */\n      dup7\n        /* \"stage02/task01/MyToken.sol\":1390:1417  allowances[sender][spender] */\n      0xffffffffffffffffffffffffffffffffffffffff\n      and\n      0xffffffffffffffffffffffffffffffffffffffff\n      and\n      dup2\n      mstore\n      0x20\n      add\n      swap1\n      dup2\n      mstore\n      0x20\n      add\n      0x00\n      keccak256\n        /* \"stage02/task01/MyToken.sol\":1390:1425  allowances[sender][spender] = value */\n      dup2\n      swap1\n      sstore\n      pop\n        /* \"stage02/task01/MyToken.sol\":1467:1472  value */\n      dup3\n        /* \"stage02/task01/MyToken.sol\":1458:1465  spender */\n      dup5\n        /* \"stage02/task01/MyToken.sol\":1441:1473  Approval(sender, spender, value) */\n      0xffffffffffffffffffffffffffffffffffffffff\n      and\n        /* \"stage02/task01/MyToken.sol\":1450:1456  sender */\n      dup3\n        /* \"stage02/task01/MyToken.sol\":1441:1473  Approval(sender, spender, value) */\n      0xffffffffffffffffffffffffffffffffffffffff\n      and\n      0x8c5be1e5ebec7d5bd14f71427d1e84f3dd0314c0f7b2291e5b200ac8c7c3b925\n      mload(0x40)\n      mload(0x40)\n      dup1\n      swap2\n      sub\n      swap1\n      log4\n        /* \"stage02/task01/MyToken.sol\":1491:1495  true */\n      0x01\n        /* \"stage02/task01/MyToken.sol\":1484:1495  return true */\n      swap2\n      pop\n      pop\n        /* \"stage02/task01/MyToken.sol\":1231:1503  function approve(address spender, uint256 value) public virtual returns (bool) {... */\n      swap3\n      swap2\n      pop\n      pop\n      jump\t// out\n        /* \"stage02/task01/MyToken.sol\":1511:2159  function transferFrom(address from, address to, uint256 value) public returns (bool) {... */\n    tag_25:\n        /* \"stage02/task01/MyToken.sol\":1590:1594  bool */\n      0x00\n        /* \"stage02/task01/MyToken.sol\":1607:1621  address sender */\n      0x00\n        /* \"stage02/task01/MyToken.sol\":1624:1634  msg.sender */\n      caller\n        /* \"stage02/task01/MyToken.sol\":1607:1634  address sender = msg.sender */\n      swap1\n      pop\n        /* \"stage02/task01/MyToken.sol\":1645:1659  uint allowance */\n      0x00\n        /* \"stage02/task01/MyToken.sol\":1662:1672  allowances */\n      0x01\n        /* \"stage02/task01/MyToken.sol\":1662:1678  allowances[from] */\n      0x00\n        /* \"stage02/task01/MyToken.sol\":1673:1677  from */\n      dup8\n        /* \"stage02/task01/MyToken.sol\":1662:1678  allowances[from] */\n      0xffffffffffffffffffffffffffffffffffffffff\n      and\n      0xffffffffffffffffffffffffffffffffffffffff\n      and\n      dup2\n      mstore\n      0x20\n      add\n      swap1\n      dup2\n      mstore\n      0x20\n      add\n      0x00\n      keccak256\n        /* \"stage02/task01/MyToken.sol\":1662:1686  allowances[from][sender] */\n      0x00\n        /* \"stage02/task01/MyToken.sol\":1679:1685  sender */\n      dup4\n        /* \"stage02/task01/MyToken.sol\":1662:1686  allowances[from][sender] */\n      0xffffffffffffffffffffffffffffffffffffffff\n      and\n      0xffffffffffffffffffffffffffffffffffffffff\n      and\n      dup2\n      mstore\n      0x20\n      add\n      swap1\n      dup2\n      mstore\n      0x20\n      add\n      0x00\n      keccak256\n      sload\n        /* \"stage02/task01/MyToken.sol\":1645:1686  uint allowance = allowances[from][sender] */\n      swap1\n      pop\n        /* \"stage02/task01/MyToken.sol\":1712:1717  value */\n      dup4\n        /* \"stage02/task01/MyToken.sol\":1700:1709  allowance */\n      dup2\n        /* \"stage02/task01/MyToken.sol\":1700:1717  allowance < value */\n      lt\n        /* \"stage02/task01/MyToken.sol\":1697:1775  if(allowance < value){... */\n      iszero\n      tag_53\n      jumpi\n        /* \"stage02/task01/MyToken.sol\":1733:1763  revert(\"allowance not enough\") */\n      mload(0x40)\n      0x08c379a000000000000000000000000000000000000000000000000000000000\n      dup2\n      mstore\n      0x04\n      add\n      tag_54\n      swap1\n      tag_55\n      jump\t// in\n    tag_54:\n      mload(0x40)\n      dup1\n      swap2\n      sub\n      swap1\n      revert\n        /* \"stage02/task01/MyToken.sol\":1697:1775  if(allowance < value){... */\n    tag_53:\n        /* \"stage02/task01/MyToken.sol\":1855:1860  value */\n      dup4\n        /* \"stage02/task01/MyToken.sol\":1843:1852  allowance */\n      dup2\n        /* \"stage02/task01/MyToken.sol\":1843:1860  allowance - value */\n      tag_56\n      swap2\n      swap1\n      tag_57\n      jump\t// in\n    tag_56:\n        /* \"stage02/task01/MyToken.sol\":1816:1826  allowances */\n      0x01\n        /* \"stage02/task01/MyToken.sol\":1816:1832  allowances[from] */\n      0x00\n        /* \"stage02/task01/MyToken.sol\":1827:1831  from */\n      dup9\n        /* \"stage02/task01/MyToken.sol\":1816:1832  allowances[from] */\n      0xffffffffffffffffffffffffffffffffffffffff\n      and\n      0xffffffffffffffffffffffffffffffffffffffff\n      and\n      dup2\n      mstore\n      0x20\n      add\n      swap1\n      dup2\n      mstore\n      0x20\n      add\n      0x00\n      keccak256\n        /* \"stage02/task01/MyToken.sol\":1816:1840  allowances[from][sender] */\n      0x00\n        /* \"stage02/task01/MyToken.sol\":1833:1839  sender */\n      dup5\n        /* \"stage02/task01/MyToken.sol\":1816:1840  allowances[from][sender] */\n      0xffffffffffffffffffffffffffffffffffffffff\n      and\n      0xffffffffffffffffffffffffffffffffffffffff\n      and\n      dup2\n      mstore\n      0x20\n      add\n      swap1\n      dup2\n      mstore\n      0x20\n      add\n      0x00\n      keccak256\n        /* \"stage02/task01/MyToken.sol\":1816:1860  allowances[from][sender] = allowance - value */\n      dup2\n      swap1\n      sstore\n      pop\n        /* \"stage02/task01/MyToken.sol\":1902:1918  uint fromBalance */\n      0x00\n        /* \"stage02/task01/MyToken.sol\":1921:1932  balancesMap */\n      0x00\n        /* \"stage02/task01/MyToken.sol\":1921:1938  balancesMap[from] */\n      0x00\n        /* \"stage02/task01/MyToken.sol\":1933:1937  from */\n      dup9\n        /* \"stage02/task01/MyToken.sol\":1921:1938  balancesMap[from] */\n      0xffffffffffffffffffffffffffffffffffffffff\n      and\n      0xffffffffffffffffffffffffffffffffffffffff\n      and\n      dup2\n      mstore\n      0x20\n      add\n      swap1\n      dup2\n      mstore\n      0x20\n      add\n      0x00\n      keccak256\n      sload\n        /* \"stage02/task01/MyToken.sol\":1902:1938  uint fromBalance = balancesMap[from] */\n      swap1\n      pop\n        /* \"stage02/task01/MyToken.sol\":1966:1971  value */\n      dup5\n        /* \"stage02/task01/MyToken.sol\":1952:1963  fromBalance */\n      dup2\n        /* \"stage02/task01/MyToken.sol\":1952:1971  fromBalance < value */\n      lt\n        /* \"stage02/task01/MyToken.sol\":1949:2028  if(fromBalance < value ){... */\n      iszero\n      tag_58\n      jumpi\n        /* \"stage02/task01/MyToken.sol\":1988:2016  revert(\"balance not enough\") */\n      mload(0x40)\n      0x08c379a000000000000000000000000000000000000000000000000000000000\n      dup2\n      mstore\n      0x04\n      add\n      tag_59\n      swap1\n      tag_60\n      jump\t// in\n    tag_59:\n      mload(0x40)\n      dup1\n      swap2\n      sub\n      swap1\n      revert\n        /* \"stage02/task01/MyToken.sol\":1949:2028  if(fromBalance < value ){... */\n    tag_58:\n        /* \"stage02/task01/MyToken.sol\":2072:2077  value */\n      dup5\n        /* \"stage02/task01/MyToken.sol\":2058:2069  fromBalance */\n      dup2\n        /* \"stage02/task01/MyToken.sol\":2058:2077  fromBalance - value */\n      tag_61\n      swap2\n      swap1\n      tag_57\n      jump\t// in\n    tag_61:\n        /* \"stage02/task01/MyToken.sol\":2038:2049  balancesMap */\n      0x00\n        /* \"stage02/task01/MyToken.sol\":2038:2055  balancesMap[from] */\n      0x00\n        /* \"stage02/task01/MyToken.sol\":2050:2054  from */\n      dup10\n        /* \"stage02/task01/MyToken.sol\":2038:2055  balancesMap[from] */\n      0xffffffffffffffffffffffffffffffffffffffff\n      and\n      0xffffffffffffffffffffffffffffffffffffffff\n      and\n      dup2\n      mstore\n      0x20\n      add\n      swap1\n      dup2\n      mstore\n      0x20\n      add\n      0x00\n      keccak256\n        /* \"stage02/task01/MyToken.sol\":2038:2077  balancesMap[from] = fromBalance - value */\n      dup2\n      swap1\n      sstore\n      pop\n        /* \"stage02/task01/MyToken.sol\":2124:2129  value */\n      dup5\n        /* \"stage02/task01/MyToken.sol\":2106:2117  balancesMap */\n      0x00\n        /* \"stage02/task01/MyToken.sol\":2106:2121  balancesMap[to] */\n      0x00\n        /* \"stage02/task01/MyToken.sol\":2118:2120  to */\n      dup9\n        /* \"stage02/task01/MyToken.sol\":2106:2121  balancesMap[to] */\n      0xffffffffffffffffffffffffffffffffffffffff\n      and\n      0xffffffffffffffffffffffffffffffffffffffff\n      and\n      dup2\n      mstore\n      0x20\n      add\n      swap1\n      dup2\n      mstore\n      0x20\n      add\n      0x00\n      keccak256\n      sload\n        /* \"stage02/task01/MyToken.sol\":2106:2129  balancesMap[to] + value */\n      tag_62\n      swap2\n      swap1\n      tag_63\n      jump\t// in\n    tag_62:\n        /* \"stage02/task01/MyToken.sol\":2088:2099  balancesMap */\n      0x00\n        /* \"stage02/task01/MyToken.sol\":2088:2103  balancesMap[to] */\n      0x00\n        /* \"stage02/task01/MyToken.sol\":2100:2102  to */\n      dup9\n        /* \"stage02/task01/MyToken.sol\":2088:2103  balancesMap[to] */\n      0xffffffffffffffffffffffffffffffffffffffff\n      and\n      0xffffffffffffffffffffffffffffffffffffffff\n      and\n      dup2\n      mstore\n      0x20\n      add\n      swap1\n      dup2\n      mstore\n      0x20\n      add\n      0x00\n      keccak256\n        /* \"stage02/task01/MyToken.sol\":2088:2129  balancesMap[to] = balancesMap[to] + value */\n      dup2\n      swap1\n      sstore\n      pop\n        /* \"stage02/task01/MyToken.sol\":2147:2151  true */\n      0x01\n        /* \"stage02/task01/MyToken.sol\":2140:2151  return true */\n      swap4\n      pop\n      pop\n      pop\n      pop\n        /* \"stage02/task01/MyToken.sol\":1511:2159  function transferFrom(address from, address to, uint256 value) public returns (bool) {... */\n      swap4\n      swap3\n      pop\n      pop\n      pop\n      jump\t// out\n        /* \"stage02/task01/MyToken.sol\":295:315  uint public decimals */\n    tag_28:\n      sload(0x05)\n      dup2\n      jump\t// out\n        /* \"stage02/task01/MyToken.sol\":2167:2421  function mint(address to, uint256 value) public {... */\n    tag_33:\n        /* \"stage02/task01/MyToken.sol\":2226:2240  address sender */\n      0x00\n        /* \"stage02/task01/MyToken.sol\":2243:2253  msg.sender */\n      caller\n        /* \"stage02/task01/MyToken.sol\":2226:2253  address sender = msg.sender */\n      swap1\n      pop\n        /* \"stage02/task01/MyToken.sol\":2277:2282  owner */\n      0x02\n      0x00\n      swap1\n      sload\n      swap1\n      0x0100\n      exp\n      swap1\n      div\n      0xffffffffffffffffffffffffffffffffffffffff\n      and\n        /* \"stage02/task01/MyToken.sol\":2267:2282  sender != owner */\n      0xffffffffffffffffffffffffffffffffffffffff\n      and\n        /* \"stage02/task01/MyToken.sol\":2267:2273  sender */\n      dup2\n        /* \"stage02/task01/MyToken.sol\":2267:2282  sender != owner */\n      0xffffffffffffffffffffffffffffffffffffffff\n      and\n      eq\n        /* \"stage02/task01/MyToken.sol\":2264:2329  if(sender != owner){... */\n      tag_65\n      jumpi\n        /* \"stage02/task01/MyToken.sol\":2298:2317  revert(\"not owner\") */\n      mload(0x40)\n      0x08c379a000000000000000000000000000000000000000000000000000000000\n      dup2\n      mstore\n      0x04\n      add\n      tag_66\n      swap1\n      tag_67\n      jump\t// in\n    tag_66:\n      mload(0x40)\n      dup1\n      swap2\n      sub\n      swap1\n      revert\n        /* \"stage02/task01/MyToken.sol\":2264:2329  if(sender != owner){... */\n    tag_65:\n        /* \"stage02/task01/MyToken.sol\":2339:2351  uint balance */\n      0x00\n        /* \"stage02/task01/MyToken.sol\":2354:2365  balancesMap */\n      0x00\n        /* \"stage02/task01/MyToken.sol\":2354:2369  balancesMap[to] */\n      0x00\n        /* \"stage02/task01/MyToken.sol\":2366:2368  to */\n      dup6\n        /* \"stage02/task01/MyToken.sol\":2354:2369  balancesMap[to] */\n      0xffffffffffffffffffffffffffffffffffffffff\n      and\n      0xffffffffffffffffffffffffffffffffffffffff\n      and\n      dup2\n      mstore\n      0x20\n      add\n      swap1\n      dup2\n      mstore\n      0x20\n      add\n      0x00\n      keccak256\n      sload\n        /* \"stage02/task01/MyToken.sol\":2339:2369  uint balance = balancesMap[to] */\n      swap1\n      pop\n        /* \"stage02/task01/MyToken.sol\":2408:2413  value */\n      dup3\n        /* \"stage02/task01/MyToken.sol\":2398:2405  balance */\n      dup2\n        /* \"stage02/task01/MyToken.sol\":2398:2413  balance + value */\n      tag_68\n      swap2\n      swap1\n      tag_63\n      jump\t// in\n    tag_68:\n        /* \"stage02/task01/MyToken.sol\":2380:2391  balancesMap */\n      0x00\n        /* \"stage02/task01/MyToken.sol\":2380:2395  balancesMap[to] */\n      0x00\n        /* \"stage02/task01/MyToken.sol\":2392:2394  to */\n      dup7\n        /* \"stage02/task01/MyToken.sol\":2380:2395  balancesMap[to] */\n      0xffffffffffffffffffffffffffffffffffffffff\n      and\n      0xffffffffffffffffffffffffffffffffffffffff\n      and\n      dup2\n      mstore\n      0x20\n      add\n      swap1\n      dup2\n      mstore\n      0x20\n      add\n      0x00\n      keccak256\n        /* \"stage02/task01/MyToken.sol\":2380:2413  balancesMap[to] = balance + value */\n      dup2\n      swap1\n      sstore\n      pop\n        /* \"stage02/task01/MyToken.sol\":2215:2421  {... */\n      pop\n      pop\n        /* \"stage02/task01/MyToken.sol\":2167:2421  function mint(address to, uint256 value) public {... */\n      pop\n      pop\n      jump\t// out\n        /* \"stage02/task01/MyToken.sol\":726:837  function balanceOf(address _address) public view returns (uint) {... */\n    tag_37:\n        /* \"stage02/task01/MyToken.sol\":784:788  uint */\n      0x00\n        /* \"stage02/task01/MyToken.sol\":808:819  balancesMap */\n      0x00\n        /* \"stage02/task01/MyToken.sol\":808:829  balancesMap[_address] */\n      0x00\n        /* \"stage02/task01/MyToken.sol\":820:828  _address */\n      dup4\n        /* \"stage02/task01/MyToken.sol\":808:829  balancesMap[_address] */\n      0xffffffffffffffffffffffffffffffffffffffff\n      and\n      0xffffffffffffffffffffffffffffffffffffffff\n      and\n      dup2\n      mstore\n      0x20\n      add\n      swap1\n      dup2\n      mstore\n      0x20\n      add\n      0x00\n      keccak256\n      sload\n        /* \"stage02/task01/MyToken.sol\":801:829  return balancesMap[_address] */\n      swap1\n      pop\n        /* \"stage02/task01/MyToken.sol\":726:837  function balanceOf(address _address) public view returns (uint) {... */\n      swap2\n      swap1\n      pop\n      jump\t// out\n        /* \"stage02/task01/MyToken.sol\":239:259  string public symbol */\n    tag_40:\n      0x03\n      dup1\n      sload\n      tag_70\n      swap1\n      tag_46\n      jump\t// in\n    tag_70:\n      dup1\n      0x1f\n      add\n      0x20\n      dup1\n      swap2\n      div\n      mul\n      0x20\n      add\n      mload(0x40)\n      swap1\n      dup2\n      add\n      0x40\n      mstore\n      dup1\n      swap3\n      swap2\n      swap1\n      dup2\n      dup2\n      mstore\n      0x20\n      add\n      dup3\n      dup1\n      sload\n      tag_71\n      swap1\n      tag_46\n      jump\t// in\n    tag_71:\n      dup1\n      iszero\n      tag_72\n      jumpi\n      dup1\n      0x1f\n      lt\n      tag_73\n      jumpi\n      0x0100\n      dup1\n      dup4\n      sload\n      div\n      mul\n      dup4\n      mstore\n      swap2\n      0x20\n      add\n      swap2\n      jump(tag_72)\n    tag_73:\n      dup3\n      add\n      swap2\n      swap1\n      0x00\n      mstore\n      keccak256(0x00, 0x20)\n      swap1\n    tag_74:\n      dup2\n      sload\n      dup2\n      mstore\n      swap1\n      0x01\n      add\n      swap1\n      0x20\n      add\n      dup1\n      dup4\n      gt\n      tag_74\n      jumpi\n      dup3\n      swap1\n      sub\n      0x1f\n      and\n      dup3\n      add\n      swap2\n    tag_72:\n      pop\n      pop\n      pop\n      pop\n      pop\n      dup2\n      jump\t// out\n        /* \"stage02/task01/MyToken.sol\":845:1223  function transfer(address  to, uint256 value) public {... */\n    tag_44:\n        /* \"stage02/task01/MyToken.sol\":909:921  address from */\n      0x00\n        /* \"stage02/task01/MyToken.sol\":924:934  msg.sender */\n      caller\n        /* \"stage02/task01/MyToken.sol\":909:934  address from = msg.sender */\n      swap1\n      pop\n        /* \"stage02/task01/MyToken.sol\":945:962  uint fromTokenNum */\n      0x00\n        /* \"stage02/task01/MyToken.sol\":965:976  balancesMap */\n      0x00\n        /* \"stage02/task01/MyToken.sol\":965:982  balancesMap[from] */\n      0x00\n        /* \"stage02/task01/MyToken.sol\":977:981  from */\n      dup4\n        /* \"stage02/task01/MyToken.sol\":965:982  balancesMap[from] */\n      0xffffffffffffffffffffffffffffffffffffffff\n      and\n      0xffffffffffffffffffffffffffffffffffffffff\n      and\n      dup2\n      mstore\n      0x20\n      add\n      swap1\n      dup2\n      mstore\n      0x20\n      add\n      0x00\n      keccak256\n      sload\n        /* \"stage02/task01/MyToken.sol\":945:982  uint fromTokenNum = balancesMap[from] */\n      swap1\n      pop\n        /* \"stage02/task01/MyToken.sol\":1011:1016  value */\n      dup3\n        /* \"stage02/task01/MyToken.sol\":996:1008  fromTokenNum */\n      dup2\n        /* \"stage02/task01/MyToken.sol\":996:1016  fromTokenNum < value */\n      lt\n        /* \"stage02/task01/MyToken.sol\":993:1072  if(fromTokenNum < value){... */\n      iszero\n      tag_76\n      jumpi\n        /* \"stage02/task01/MyToken.sol\":1032:1060  revert(\"balance not enough\") */\n      mload(0x40)\n      0x08c379a000000000000000000000000000000000000000000000000000000000\n      dup2\n      mstore\n      0x04\n      add\n      tag_77\n      swap1\n      tag_60\n      jump\t// in\n    tag_77:\n      mload(0x40)\n      dup1\n      swap2\n      sub\n      swap1\n      revert\n        /* \"stage02/task01/MyToken.sol\":993:1072  if(fromTokenNum < value){... */\n    tag_76:\n        /* \"stage02/task01/MyToken.sol\":1117:1122  value */\n      dup3\n        /* \"stage02/task01/MyToken.sol\":1102:1114  fromTokenNum */\n      dup2\n        /* \"stage02/task01/MyToken.sol\":1102:1122  fromTokenNum - value */\n      tag_78\n      swap2\n      swap1\n      tag_57\n      jump\t// in\n    tag_78:\n        /* \"stage02/task01/MyToken.sol\":1082:1093  balancesMap */\n      0x00\n        /* \"stage02/task01/MyToken.sol\":1082:1099  balancesMap[from] */\n      0x00\n        /* \"stage02/task01/MyToken.sol\":1094:1098  from */\n      dup5\n        /* \"stage02/task01/MyToken.sol\":1082:1099  balancesMap[from] */\n      0xffffffffffffffffffffffffffffffffffffffff\n      and\n      0xffffffffffffffffffffffffffffffffffffffff\n      and\n      dup2\n      mstore\n      0x20\n      add\n      swap1\n      dup2\n      mstore\n      0x20\n      add\n      0x00\n      keccak256\n        /* \"stage02/task01/MyToken.sol\":1082:1122  balancesMap[from] = fromTokenNum - value */\n      dup2\n      swap1\n      sstore\n      pop\n        /* \"stage02/task01/MyToken.sol\":1169:1174  value */\n      dup3\n        /* \"stage02/task01/MyToken.sol\":1151:1162  balancesMap */\n      0x00\n        /* \"stage02/task01/MyToken.sol\":1151:1166  balancesMap[to] */\n      0x00\n        /* \"stage02/task01/MyToken.sol\":1163:1165  to */\n      dup7\n        /* \"stage02/task01/MyToken.sol\":1151:1166  balancesMap[to] */\n      0xffffffffffffffffffffffffffffffffffffffff\n      and\n      0xffffffffffffffffffffffffffffffffffffffff\n      and\n      dup2\n      mstore\n      0x20\n      add\n      swap1\n      dup2\n      mstore\n      0x20\n      add\n      0x00\n      keccak256\n      sload\n        /* \"stage02/task01/MyToken.sol\":1151:1174  balancesMap[to] + value */\n      tag_79\n      swap2\n      swap1\n      tag_63\n      jump\t// in\n    tag_79:\n        /* \"stage02/task01/MyToken.sol\":1133:1144  balancesMap */\n      0x00\n        /* \"stage02/task01/MyToken.sol\":1133:1148  balancesMap[to] */\n      0x00\n        /* \"stage02/task01/MyToken.sol\":1145:1147  to */\n      dup7\n        /* \"stage02/task01/MyToken.sol\":1133:1148  balancesMap[to] */\n      0xffffffffffffffffffffffffffffffffffffffff\n      and\n      0xffffffffffffffffffffffffffffffffffffffff\n      and\n      dup2\n      mstore\n      0x20\n      add\n      swap1\n      dup2\n      mstore\n      0x20\n      add\n      0x00\n      keccak256\n        /* \"stage02/task01/MyToken.sol\":1133:1174  balancesMap[to] = balancesMap[to] + value */\n      dup2\n      swap1\n      sstore\n      pop\n        /* \"stage02/task01/MyToken.sol\":1209:1214  value */\n      dup3\n        /* \"stage02/task01/MyToken.sol\":1205:1207  to */\n      dup5\n        /* \"stage02/task01/MyToken.sol\":1190:1215  Transfer(from, to, value) */\n      0xffffffffffffffffffffffffffffffffffffffff\n      and\n        /* \"stage02/task01/MyToken.sol\":1199:1203  from */\n      dup4\n        /* \"stage02/task01/MyToken.sol\":1190:1215  Transfer(from, to, value) */\n      0xffffffffffffffffffffffffffffffffffffffff\n      and\n      0xddf252ad1be2c89b69c2b068fc378daa952ba7f163c4a11628f55a4df523b3ef\n      mload(0x40)\n      mload(0x40)\n      dup1\n      swap2\n      sub\n      swap1\n      log4\n        /* \"stage02/task01/MyToken.sol\":898:1223  {... */\n      pop\n      pop\n        /* \"stage02/task01/MyToken.sol\":845:1223  function transfer(address  to, uint256 value) public {... */\n      pop\n      pop\n      jump\t// out\n        /* \"#utility.yul\":7:106   */\n    tag_80:\n        /* \"#utility.yul\":59:65   */\n      0x00\n        /* \"#utility.yul\":93:98   */\n      dup2\n        /* \"#utility.yul\":87:99   */\n      mload\n        /* \"#utility.yul\":77:99   */\n      swap1\n      pop\n        /* \"#utility.yul\":7:106   */\n      swap2\n      swap1\n      pop\n      jump\t// out\n        /* \"#utility.yul\":112:281   */\n    tag_81:\n        /* \"#utility.yul\":196:207   */\n      0x00\n        /* \"#utility.yul\":230:236   */\n      dup3\n        /* \"#utility.yul\":225:228   */\n      dup3\n        /* \"#utility.yul\":218:237   */\n      mstore\n        /* \"#utility.yul\":270:274   */\n      0x20\n        /* \"#utility.yul\":265:268   */\n      dup3\n        /* \"#utility.yul\":261:275   */\n      add\n        /* \"#utility.yul\":246:275   */\n      swap1\n      pop\n        /* \"#utility.yul\":112:281   */\n      swap3\n      swap2\n      pop\n      pop\n      jump\t// out\n        /* \"#utility.yul\":287:426   */\n    tag_82:\n        /* \"#utility.yul\":376:382   */\n      dup3\n        /* \"#utility.yul\":371:374   */\n      dup2\n        /* \"#utility.yul\":366:369   */\n      dup4\n        /* \"#utility.yul\":360:383   */\n      mcopy\n        /* \"#utility.yul\":417:418   */\n      0x00\n        /* \"#utility.yul\":408:414   */\n      dup4\n        /* \"#utility.yul\":403:406   */\n      dup4\n        /* \"#utility.yul\":399:415   */\n      add\n        /* \"#utility.yul\":392:419   */\n      mstore\n        /* \"#utility.yul\":287:426   */\n      pop\n      pop\n      pop\n      jump\t// out\n        /* \"#utility.yul\":432:534   */\n    tag_83:\n        /* \"#utility.yul\":473:479   */\n      0x00\n        /* \"#utility.yul\":524:526   */\n      0x1f\n        /* \"#utility.yul\":520:527   */\n      not\n        /* \"#utility.yul\":515:517   */\n      0x1f\n        /* \"#utility.yul\":508:513   */\n      dup4\n        /* \"#utility.yul\":504:518   */\n      add\n        /* \"#utility.yul\":500:528   */\n      and\n        /* \"#utility.yul\":490:528   */\n      swap1\n      pop\n        /* \"#utility.yul\":432:534   */\n      swap2\n      swap1\n      pop\n      jump\t// out\n        /* \"#utility.yul\":540:917   */\n    tag_84:\n        /* \"#utility.yul\":628:631   */\n      0x00\n        /* \"#utility.yul\":656:695   */\n      tag_112\n        /* \"#utility.yul\":689:694   */\n      dup3\n        /* \"#utility.yul\":656:695   */\n      tag_80\n      jump\t// in\n    tag_112:\n        /* \"#utility.yul\":711:782   */\n      tag_113\n        /* \"#utility.yul\":775:781   */\n      dup2\n        /* \"#utility.yul\":770:773   */\n      dup6\n        /* \"#utility.yul\":711:782   */\n      tag_81\n      jump\t// in\n    tag_113:\n        /* \"#utility.yul\":704:782   */\n      swap4\n      pop\n        /* \"#utility.yul\":791:856   */\n      tag_114\n        /* \"#utility.yul\":849:855   */\n      dup2\n        /* \"#utility.yul\":844:847   */\n      dup6\n        /* \"#utility.yul\":837:841   */\n      0x20\n        /* \"#utility.yul\":830:835   */\n      dup7\n        /* \"#utility.yul\":826:842   */\n      add\n        /* \"#utility.yul\":791:856   */\n      tag_82\n      jump\t// in\n    tag_114:\n        /* \"#utility.yul\":881:910   */\n      tag_115\n        /* \"#utility.yul\":903:909   */\n      dup2\n        /* \"#utility.yul\":881:910   */\n      tag_83\n      jump\t// in\n    tag_115:\n        /* \"#utility.yul\":876:879   */\n      dup5\n        /* \"#utility.yul\":872:911   */\n      add\n        /* \"#utility.yul\":865:911   */\n      swap2\n      pop\n        /* \"#utility.yul\":632:917   */\n      pop\n        /* \"#utility.yul\":540:917   */\n      swap3\n      swap2\n      pop\n      pop\n      jump\t// out\n        /* \"#utility.yul\":923:1236   */\n    tag_15:\n        /* \"#utility.yul\":1036:1040   */\n      0x00\n        /* \"#utility.yul\":1074:1076   */\n      0x20\n        /* \"#utility.yul\":1063:1072   */\n      dup3\n        /* \"#utility.yul\":1059:1077   */\n      add\n        /* \"#utility.yul\":1051:1077   */\n      swap1\n      pop\n        /* \"#utility.yul\":1123:1132   */\n      dup2\n        /* \"#utility.yul\":1117:1121   */\n      dup2\n        /* \"#utility.yul\":1113:1133   */\n      sub\n        /* \"#utility.yul\":1109:1110   */\n      0x00\n        /* \"#utility.yul\":1098:1107   */\n      dup4\n        /* \"#utility.yul\":1094:1111   */\n      add\n        /* \"#utility.yul\":1087:1134   */\n      mstore\n        /* \"#utility.yul\":1151:1229   */\n      tag_117\n        /* \"#utility.yul\":1224:1228   */\n      dup2\n        /* \"#utility.yul\":1215:1221   */\n      dup5\n        /* \"#utility.yul\":1151:1229   */\n      tag_84\n      jump\t// in\n    tag_117:\n        /* \"#utility.yul\":1143:1229   */\n      swap1\n      pop\n        /* \"#utility.yul\":923:1236   */\n      swap3\n      swap2\n      pop\n      pop\n      jump\t// out\n        /* \"#utility.yul\":1323:1440   */\n    tag_86:\n        /* \"#utility.yul\":1432:1433   */\n      0x00\n        /* \"#utility.yul\":1429:1430   */\n      0x00\n        /* \"#utility.yul\":1422:1434   */\n      revert\n        /* \"#utility.yul\":1569:1695   */\n    tag_88:\n        /* \"#utility.yul\":1606:1613   */\n      0x00\n        /* \"#utility.yul\":1646:1688   */\n      0xffffffffffffffffffffffffffffffffffffffff\n        /* \"#utility.yul\":1639:1644   */\n      dup3\n        /* \"#utility.yul\":1635:1689   */\n      and\n        /* \"#utility.yul\":1624:1689   */\n      swap1\n      pop\n        /* \"#utility.yul\":1569:1695   */\n      swap2\n      swap1\n      pop\n      jump\t// out\n        /* \"#utility.yul\":1701:1797   */\n    tag_89:\n        /* \"#utility.yul\":1738:1745   */\n      0x00\n        /* \"#utility.yul\":1767:1791   */\n      tag_123\n        /* \"#utility.yul\":1785:1790   */\n      dup3\n        /* \"#utility.yul\":1767:1791   */\n      tag_88\n      jump\t// in\n    tag_123:\n        /* \"#utility.yul\":1756:1791   */\n      swap1\n      pop\n        /* \"#utility.yul\":1701:1797   */\n      swap2\n      swap1\n      pop\n      jump\t// out\n        /* \"#utility.yul\":1803:1925   */\n    tag_90:\n        /* \"#utility.yul\":1876:1900   */\n      tag_125\n        /* \"#utility.yul\":1894:1899   */\n      dup2\n        /* \"#utility.yul\":1876:1900   */\n      tag_89\n      jump\t// in\n    tag_125:\n        /* \"#utility.yul\":1869:1874   */\n      dup2\n        /* \"#utility.yul\":1866:1901   */\n      eq\n        /* \"#utility.yul\":1856:1919   */\n      tag_126\n      jumpi\n        /* \"#utility.yul\":1915:1916   */\n      0x00\n        /* \"#utility.yul\":1912:1913   */\n      0x00\n        /* \"#utility.yul\":1905:1917   */\n      revert\n        /* \"#utility.yul\":1856:1919   */\n    tag_126:\n        /* \"#utility.yul\":1803:1925   */\n      pop\n      jump\t// out\n        /* \"#utility.yul\":1931:2070   */\n    tag_91:\n        /* \"#utility.yul\":1977:1982   */\n      0x00\n        /* \"#utility.yul\":2015:2021   */\n      dup2\n        /* \"#utility.yul\":2002:2022   */\n      calldataload\n        /* \"#utility.yul\":1993:2022   */\n      swap1\n      pop\n        /* \"#utility.yul\":2031:2064   */\n      tag_128\n        /* \"#utility.yul\":2058:2063   */\n      dup2\n        /* \"#utility.yul\":2031:2064   */\n      tag_90\n      jump\t// in\n    tag_128:\n        /* \"#utility.yul\":1931:2070   */\n      swap3\n      swap2\n      pop\n      pop\n      jump\t// out\n        /* \"#utility.yul\":2076:2153   */\n    tag_92:\n        /* \"#utility.yul\":2113:2120   */\n      0x00\n        /* \"#utility.yul\":2142:2147   */\n      dup2\n        /* \"#utility.yul\":2131:2147   */\n      swap1\n      pop\n        /* \"#utility.yul\":2076:2153   */\n      swap2\n      swap1\n      pop\n      jump\t// out\n        /* \"#utility.yul\":2159:2281   */\n    tag_93:\n        /* \"#utility.yul\":2232:2256   */\n      tag_131\n        /* \"#utility.yul\":2250:2255   */\n      dup2\n        /* \"#utility.yul\":2232:2256   */\n      tag_92\n      jump\t// in\n    tag_131:\n        /* \"#utility.yul\":2225:2230   */\n      dup2\n        /* \"#utility.yul\":2222:2257   */\n      eq\n        /* \"#utility.yul\":2212:2275   */\n      tag_132\n      jumpi\n        /* \"#utility.yul\":2271:2272   */\n      0x00\n        /* \"#utility.yul\":2268:2269   */\n      0x00\n        /* \"#utility.yul\":2261:2273   */\n      revert\n        /* \"#utility.yul\":2212:2275   */\n    tag_132:\n        /* \"#utility.yul\":2159:2281   */\n      pop\n      jump\t// out\n        /* \"#utility.yul\":2287:2426   */\n    tag_94:\n        /* \"#utility.yul\":2333:2338   */\n      0x00\n        /* \"#utility.yul\":2371:2377   */\n      dup2\n        /* \"#utility.yul\":2358:2378   */\n      calldataload\n        /* \"#utility.yul\":2349:2378   */\n      swap1\n      pop\n        /* \"#utility.yul\":2387:2420   */\n      tag_134\n        /* \"#utility.yul\":2414:2419   */\n      dup2\n        /* \"#utility.yul\":2387:2420   */\n      tag_93\n      jump\t// in\n    tag_134:\n        /* \"#utility.yul\":2287:2426   */\n      swap3\n      swap2\n      pop\n      pop\n      jump\t// out\n        /* \"#utility.yul\":2432:2906   */\n    tag_18:\n        /* \"#utility.yul\":2500:2506   */\n      0x00\n        /* \"#utility.yul\":2508:2514   */\n      0x00\n        /* \"#utility.yul\":2557:2559   */\n      0x40\n        /* \"#utility.yul\":2545:2554   */\n      dup4\n        /* \"#utility.yul\":2536:2543   */\n      dup6\n        /* \"#utility.yul\":2532:2555   */\n      sub\n        /* \"#utility.yul\":2528:2560   */\n      slt\n        /* \"#utility.yul\":2525:2644   */\n      iszero\n      tag_136\n      jumpi\n        /* \"#utility.yul\":2563:2642   */\n      tag_137\n      tag_86\n      jump\t// in\n    tag_137:\n        /* \"#utility.yul\":2525:2644   */\n    tag_136:\n        /* \"#utility.yul\":2683:2684   */\n      0x00\n        /* \"#utility.yul\":2708:2761   */\n      tag_138\n        /* \"#utility.yul\":2753:2760   */\n      dup6\n        /* \"#utility.yul\":2744:2750   */\n      dup3\n        /* \"#utility.yul\":2733:2742   */\n      dup7\n        /* \"#utility.yul\":2729:2751   */\n      add\n        /* \"#utility.yul\":2708:2761   */\n      tag_91\n      jump\t// in\n    tag_138:\n        /* \"#utility.yul\":2698:2761   */\n      swap3\n      pop\n        /* \"#utility.yul\":2654:2771   */\n      pop\n        /* \"#utility.yul\":2810:2812   */\n      0x20\n        /* \"#utility.yul\":2836:2889   */\n      tag_139\n        /* \"#utility.yul\":2881:2888   */\n      dup6\n        /* \"#utility.yul\":2872:2878   */\n      dup3\n        /* \"#utility.yul\":2861:2870   */\n      dup7\n        /* \"#utility.yul\":2857:2879   */\n      add\n        /* \"#utility.yul\":2836:2889   */\n      tag_94\n      jump\t// in\n    tag_139:\n        /* \"#utility.yul\":2826:2889   */\n      swap2\n      pop\n        /* \"#utility.yul\":2781:2899   */\n      pop\n        /* \"#utility.yul\":2432:2906   */\n      swap3\n      pop\n      swap3\n      swap1\n      pop\n      jump\t// out\n        /* \"#utility.yul\":2912:3002   */\n    tag_95:\n        /* \"#utility.yul\":2946:2953   */\n      0x00\n        /* \"#utility.yul\":2989:2994   */\n      dup2\n        /* \"#utility.yul\":2982:2995   */\n      iszero\n        /* \"#utility.yul\":2975:2996   */\n      iszero\n        /* \"#utility.yul\":2964:2996   */\n      swap1\n      pop\n        /* \"#utility.yul\":2912:3002   */\n      swap2\n      swap1\n      pop\n      jump\t// out\n        /* \"#utility.yul\":3008:3117   */\n    tag_96:\n        /* \"#utility.yul\":3089:3110   */\n      tag_142\n        /* \"#utility.yul\":3104:3109   */\n      dup2\n        /* \"#utility.yul\":3089:3110   */\n      tag_95\n      jump\t// in\n    tag_142:\n        /* \"#utility.yul\":3084:3087   */\n      dup3\n        /* \"#utility.yul\":3077:3111   */\n      mstore\n        /* \"#utility.yul\":3008:3117   */\n      pop\n      pop\n      jump\t// out\n        /* \"#utility.yul\":3123:3333   */\n    tag_21:\n        /* \"#utility.yul\":3210:3214   */\n      0x00\n        /* \"#utility.yul\":3248:3250   */\n      0x20\n        /* \"#utility.yul\":3237:3246   */\n      dup3\n        /* \"#utility.yul\":3233:3251   */\n      add\n        /* \"#utility.yul\":3225:3251   */\n      swap1\n      pop\n        /* \"#utility.yul\":3261:3326   */\n      tag_144\n        /* \"#utility.yul\":3323:3324   */\n      0x00\n        /* \"#utility.yul\":3312:3321   */\n      dup4\n        /* \"#utility.yul\":3308:3325   */\n      add\n        /* \"#utility.yul\":3299:3305   */\n      dup5\n        /* \"#utility.yul\":3261:3326   */\n      tag_96\n      jump\t// in\n    tag_144:\n        /* \"#utility.yul\":3123:3333   */\n      swap3\n      swap2\n      pop\n      pop\n      jump\t// out\n        /* \"#utility.yul\":3339:3958   */\n    tag_24:\n        /* \"#utility.yul\":3416:3422   */\n      0x00\n        /* \"#utility.yul\":3424:3430   */\n      0x00\n        /* \"#utility.yul\":3432:3438   */\n      0x00\n        /* \"#utility.yul\":3481:3483   */\n      0x60\n        /* \"#utility.yul\":3469:3478   */\n      dup5\n        /* \"#utility.yul\":3460:3467   */\n      dup7\n        /* \"#utility.yul\":3456:3479   */\n      sub\n        /* \"#utility.yul\":3452:3484   */\n      slt\n        /* \"#utility.yul\":3449:3568   */\n      iszero\n      tag_146\n      jumpi\n        /* \"#utility.yul\":3487:3566   */\n      tag_147\n      tag_86\n      jump\t// in\n    tag_147:\n        /* \"#utility.yul\":3449:3568   */\n    tag_146:\n        /* \"#utility.yul\":3607:3608   */\n      0x00\n        /* \"#utility.yul\":3632:3685   */\n      tag_148\n        /* \"#utility.yul\":3677:3684   */\n      dup7\n        /* \"#utility.yul\":3668:3674   */\n      dup3\n        /* \"#utility.yul\":3657:3666   */\n      dup8\n        /* \"#utility.yul\":3653:3675   */\n      add\n        /* \"#utility.yul\":3632:3685   */\n      tag_91\n      jump\t// in\n    tag_148:\n        /* \"#utility.yul\":3622:3685   */\n      swap4\n      pop\n        /* \"#utility.yul\":3578:3695   */\n      pop\n        /* \"#utility.yul\":3734:3736   */\n      0x20\n        /* \"#utility.yul\":3760:3813   */\n      tag_149\n        /* \"#utility.yul\":3805:3812   */\n      dup7\n        /* \"#utility.yul\":3796:3802   */\n      dup3\n        /* \"#utility.yul\":3785:3794   */\n      dup8\n        /* \"#utility.yul\":3781:3803   */\n      add\n        /* \"#utility.yul\":3760:3813   */\n      tag_91\n      jump\t// in\n    tag_149:\n        /* \"#utility.yul\":3750:3813   */\n      swap3\n      pop\n        /* \"#utility.yul\":3705:3823   */\n      pop\n        /* \"#utility.yul\":3862:3864   */\n      0x40\n        /* \"#utility.yul\":3888:3941   */\n      tag_150\n        /* \"#utility.yul\":3933:3940   */\n      dup7\n        /* \"#utility.yul\":3924:3930   */\n      dup3\n        /* \"#utility.yul\":3913:3922   */\n      dup8\n        /* \"#utility.yul\":3909:3931   */\n      add\n        /* \"#utility.yul\":3888:3941   */\n      tag_94\n      jump\t// in\n    tag_150:\n        /* \"#utility.yul\":3878:3941   */\n      swap2\n      pop\n        /* \"#utility.yul\":3833:3951   */\n      pop\n        /* \"#utility.yul\":3339:3958   */\n      swap3\n      pop\n      swap3\n      pop\n      swap3\n      jump\t// out\n        /* \"#utility.yul\":3964:4082   */\n    tag_97:\n        /* \"#utility.yul\":4051:4075   */\n      tag_152\n        /* \"#utility.yul\":4069:4074   */\n      dup2\n        /* \"#utility.yul\":4051:4075   */\n      tag_92\n      jump\t// in\n    tag_152:\n        /* \"#utility.yul\":4046:4049   */\n      dup3\n        /* \"#utility.yul\":4039:4076   */\n      mstore\n        /* \"#utility.yul\":3964:4082   */\n      pop\n      pop\n      jump\t// out\n        /* \"#utility.yul\":4088:4310   */\n    tag_30:\n        /* \"#utility.yul\":4181:4185   */\n      0x00\n        /* \"#utility.yul\":4219:4221   */\n      0x20\n        /* \"#utility.yul\":4208:4217   */\n      dup3\n        /* \"#utility.yul\":4204:4222   */\n      add\n        /* \"#utility.yul\":4196:4222   */\n      swap1\n      pop\n        /* \"#utility.yul\":4232:4303   */\n      tag_154\n        /* \"#utility.yul\":4300:4301   */\n      0x00\n        /* \"#utility.yul\":4289:4298   */\n      dup4\n        /* \"#utility.yul\":4285:4302   */\n      add\n        /* \"#utility.yul\":4276:4282   */\n      dup5\n        /* \"#utility.yul\":4232:4303   */\n      tag_97\n      jump\t// in\n    tag_154:\n        /* \"#utility.yul\":4088:4310   */\n      swap3\n      swap2\n      pop\n      pop\n      jump\t// out\n        /* \"#utility.yul\":4316:4645   */\n    tag_36:\n        /* \"#utility.yul\":4375:4381   */\n      0x00\n        /* \"#utility.yul\":4424:4426   */\n      0x20\n        /* \"#utility.yul\":4412:4421   */\n      dup3\n        /* \"#utility.yul\":4403:4410   */\n      dup5\n        /* \"#utility.yul\":4399:4422   */\n      sub\n        /* \"#utility.yul\":4395:4427   */\n      slt\n        /* \"#utility.yul\":4392:4511   */\n      iszero\n      tag_156\n      jumpi\n        /* \"#utility.yul\":4430:4509   */\n      tag_157\n      tag_86\n      jump\t// in\n    tag_157:\n        /* \"#utility.yul\":4392:4511   */\n    tag_156:\n        /* \"#utility.yul\":4550:4551   */\n      0x00\n        /* \"#utility.yul\":4575:4628   */\n      tag_158\n        /* \"#utility.yul\":4620:4627   */\n      dup5\n        /* \"#utility.yul\":4611:4617   */\n      dup3\n        /* \"#utility.yul\":4600:4609   */\n      dup6\n        /* \"#utility.yul\":4596:4618   */\n      add\n        /* \"#utility.yul\":4575:4628   */\n      tag_91\n      jump\t// in\n    tag_158:\n        /* \"#utility.yul\":4565:4628   */\n      swap2\n      pop\n        /* \"#utility.yul\":4521:4638   */\n      pop\n        /* \"#utility.yul\":4316:4645   */\n      swap3\n      swap2\n      pop\n      pop\n      jump\t// out\n        /* \"#utility.yul\":4651:4831   */\n    tag_98:\n        /* \"#utility.yul\":4699:4776   */\n      0x4e487b7100000000000000000000000000000000000000000000000000000000\n        /* \"#utility.yul\":4696:4697   */\n      0x00\n        /* \"#utility.yul\":4689:4777   */\n      mstore\n        /* \"#utility.yul\":4796:4800   */\n      0x22\n        /* \"#utility.yul\":4793:4794   */\n      0x04\n        /* \"#utility.yul\":4786:4801   */\n      mstore\n        /* \"#utility.yul\":4820:4824   */\n      0x24\n        /* \"#utility.yul\":4817:4818   */\n      0x00\n        /* \"#utility.yul\":4810:4825   */\n      revert\n        /* \"#utility.yul\":4837:5157   */\n    tag_46:\n        /* \"#utility.yul\":4881:4887   */\n      0x00\n        /* \"#utility.yul\":4918:4919   */\n      0x02\n        /* \"#utility.yul\":4912:4916   */\n      dup3\n        /* \"#utility.yul\":4908:4920   */\n      div\n        /* \"#utility.yul\":4898:4920   */\n      swap1\n      pop\n        /* \"#utility.yul\":4965:4966   */\n      0x01\n        /* \"#utility.yul\":4959:4963   */\n      dup3\n        /* \"#utility.yul\":4955:4967   */\n      and\n        /* \"#utility.yul\":4986:5004   */\n      dup1\n        /* \"#utility.yul\":4976:5057   */\n      tag_161\n      jumpi\n        /* \"#utility.yul\":5042:5046   */\n      0x7f\n        /* \"#utility.yul\":5034:5040   */\n      dup3\n        /* \"#utility.yul\":5030:5047   */\n      and\n        /* \"#utility.yul\":5020:5047   */\n      swap2\n      pop\n        /* \"#utility.yul\":4976:5057   */\n    tag_161:\n        /* \"#utility.yul\":5104:5106   */\n      0x20\n        /* \"#utility.yul\":5096:5102   */\n      dup3\n        /* \"#utility.yul\":5093:5107   */\n      lt\n        /* \"#utility.yul\":5073:5091   */\n      dup2\n        /* \"#utility.yul\":5070:5108   */\n      sub\n        /* \"#utility.yul\":5067:5151   */\n      tag_162\n      jumpi\n        /* \"#utility.yul\":5123:5141   */\n      tag_163\n      tag_98\n      jump\t// in\n    tag_163:\n        /* \"#utility.yul\":5067:5151   */\n    tag_162:\n        /* \"#utility.yul\":4888:5157   */\n      pop\n        /* \"#utility.yul\":4837:5157   */\n      swap2\n      swap1\n      pop\n      jump\t// out\n        /* \"#utility.yul\":5163:5333   */\n    tag_99:\n        /* \"#utility.yul\":5303:5325   */\n      0x616c6c6f77616e6365206e6f7420656e6f756768000000000000000000000000\n        /* \"#utility.yul\":5299:5300   */\n      0x00\n        /* \"#utility.yul\":5291:5297   */\n      dup3\n        /* \"#utility.yul\":5287:5301   */\n      add\n        /* \"#utility.yul\":5280:5326   */\n      mstore\n        /* \"#utility.yul\":5163:5333   */\n      pop\n      jump\t// out\n        /* \"#utility.yul\":5339:5705   */\n    tag_100:\n        /* \"#utility.yul\":5481:5484   */\n      0x00\n        /* \"#utility.yul\":5502:5569   */\n      tag_166\n        /* \"#utility.yul\":5566:5568   */\n      0x14\n        /* \"#utility.yul\":5561:5564   */\n      dup4\n        /* \"#utility.yul\":5502:5569   */\n      tag_81\n      jump\t// in\n    tag_166:\n        /* \"#utility.yul\":5495:5569   */\n      swap2\n      pop\n        /* \"#utility.yul\":5578:5671   */\n      tag_167\n        /* \"#utility.yul\":5667:5670   */\n      dup3\n        /* \"#utility.yul\":5578:5671   */\n      tag_99\n      jump\t// in\n    tag_167:\n        /* \"#utility.yul\":5696:5698   */\n      0x20\n        /* \"#utility.yul\":5691:5694   */\n      dup3\n        /* \"#utility.yul\":5687:5699   */\n      add\n        /* \"#utility.yul\":5680:5699   */\n      swap1\n      pop\n        /* \"#utility.yul\":5339:5705   */\n      swap2\n      swap1\n      pop\n      jump\t// out\n        /* \"#utility.yul\":5711:6130   */\n    tag_55:\n        /* \"#utility.yul\":5877:5881   */\n      0x00\n        /* \"#utility.yul\":5915:5917   */\n      0x20\n        /* \"#utility.yul\":5904:5913   */\n      dup3\n        /* \"#utility.yul\":5900:5918   */\n      add\n        /* \"#utility.yul\":5892:5918   */\n      swap1\n      pop\n        /* \"#utility.yul\":5964:5973   */\n      dup2\n        /* \"#utility.yul\":5958:5962   */\n      dup2\n        /* \"#utility.yul\":5954:5974   */\n      sub\n        /* \"#utility.yul\":5950:5951   */\n      0x00\n        /* \"#utility.yul\":5939:5948   */\n      dup4\n        /* \"#utility.yul\":5935:5952   */\n      add\n        /* \"#utility.yul\":5928:5975   */\n      mstore\n        /* \"#utility.yul\":5992:6123   */\n      tag_169\n        /* \"#utility.yul\":6118:6122   */\n      dup2\n        /* \"#utility.yul\":5992:6123   */\n      tag_100\n      jump\t// in\n    tag_169:\n        /* \"#utility.yul\":5984:6123   */\n      swap1\n      pop\n        /* \"#utility.yul\":5711:6130   */\n      swap2\n      swap1\n      pop\n      jump\t// out\n        /* \"#utility.yul\":6136:6316   */\n    tag_101:\n        /* \"#utility.yul\":6184:6261   */\n      0x4e487b7100000000000000000000000000000000000000000000000000000000\n        /* \"#utility.yul\":6181:6182   */\n      0x00\n        /* \"#utility.yul\":6174:6262   */\n      mstore\n        /* \"#utility.yul\":6281:6285   */\n      0x11\n        /* \"#utility.yul\":6278:6279   */\n      0x04\n        /* \"#utility.yul\":6271:6286   */\n      mstore\n        /* \"#utility.yul\":6305:6309   */\n      0x24\n        /* \"#utility.yul\":6302:6303   */\n      0x00\n        /* \"#utility.yul\":6295:6310   */\n      revert\n        /* \"#utility.yul\":6322:6516   */\n    tag_57:\n        /* \"#utility.yul\":6362:6366   */\n      0x00\n        /* \"#utility.yul\":6382:6402   */\n      tag_172\n        /* \"#utility.yul\":6400:6401   */\n      dup3\n        /* \"#utility.yul\":6382:6402   */\n      tag_92\n      jump\t// in\n    tag_172:\n        /* \"#utility.yul\":6377:6402   */\n      swap2\n      pop\n        /* \"#utility.yul\":6416:6436   */\n      tag_173\n        /* \"#utility.yul\":6434:6435   */\n      dup4\n        /* \"#utility.yul\":6416:6436   */\n      tag_92\n      jump\t// in\n    tag_173:\n        /* \"#utility.yul\":6411:6436   */\n      swap3\n      pop\n        /* \"#utility.yul\":6460:6461   */\n      dup3\n        /* \"#utility.yul\":6457:6458   */\n      dup3\n        /* \"#utility.yul\":6453:6462   */\n      sub\n        /* \"#utility.yul\":6445:6462   */\n      swap1\n      pop\n        /* \"#utility.yul\":6484:6485   */\n      dup2\n        /* \"#utility.yul\":6478:6482   */\n      dup2\n        /* \"#utility.yul\":6475:6486   */\n      gt\n        /* \"#utility.yul\":6472:6509   */\n      iszero\n      tag_174\n      jumpi\n        /* \"#utility.yul\":6489:6507   */\n      tag_175\n      tag_101\n      jump\t// in\n    tag_175:\n        /* \"#utility.yul\":6472:6509   */\n    tag_174:\n        /* \"#utility.yul\":6322:6516   */\n      swap3\n      swap2\n      pop\n      pop\n      jump\t// out\n        /* \"#utility.yul\":6522:6690   */\n    tag_102:\n        /* \"#utility.yul\":6662:6682   */\n      0x62616c616e6365206e6f7420656e6f7567680000000000000000000000000000\n        /* \"#utility.yul\":6658:6659   */\n      0x00\n        /* \"#utility.yul\":6650:6656   */\n      dup3\n        /* \"#utility.yul\":6646:6660   */\n      add\n        /* \"#utility.yul\":6639:6683   */\n      mstore\n        /* \"#utility.yul\":6522:6690   */\n      pop\n      jump\t// out\n        /* \"#utility.yul\":6696:7062   */\n    tag_103:\n        /* \"#utility.yul\":6838:6841   */\n      0x00\n        /* \"#utility.yul\":6859:6926   */\n      tag_178\n        /* \"#utility.yul\":6923:6925   */\n      0x12\n        /* \"#utility.yul\":6918:6921   */\n      dup4\n        /* \"#utility.yul\":6859:6926   */\n      tag_81\n      jump\t// in\n    tag_178:\n        /* \"#utility.yul\":6852:6926   */\n      swap2\n      pop\n        /* \"#utility.yul\":6935:7028   */\n      tag_179\n        /* \"#utility.yul\":7024:7027   */\n      dup3\n        /* \"#utility.yul\":6935:7028   */\n      tag_102\n      jump\t// in\n    tag_179:\n        /* \"#utility.yul\":7053:7055   */\n      0x20\n        /* \"#utility.yul\":7048:7051   */\n      dup3\n        /* \"#utility.yul\":7044:7056   */\n      add\n        /* \"#utility.yul\":7037:7056   */\n      swap1\n      pop\n        /* \"#utility.yul\":6696:7062   */\n      swap2\n      swap1\n      pop\n      jump\t// out\n        /* \"#utility.yul\":7068:7487   */\n    tag_60:\n        /* \"#utility.yul\":7234:7238   */\n      0x00\n        /* \"#utility.yul\":7272:7274   */\n      0x20\n        /* \"#utility.yul\":7261:7270   */\n      dup3\n        /* \"#utility.yul\":7257:7275   */\n      add\n        /* \"#utility.yul\":7249:7275   */\n      swap1\n      pop\n        /* \"#utility.yul\":7321:7330   */\n      dup2\n        /* \"#utility.yul\":7315:7319   */\n      dup2\n        /* \"#utility.yul\":7311:7331   */\n      sub\n        /* \"#utility.yul\":7307:7308   */\n      0x00\n        /* \"#utility.yul\":7296:7305   */\n      dup4\n        /* \"#utility.yul\":7292:7309   */\n      add\n        /* \"#utility.yul\":7285:7332   */\n      mstore\n        /* \"#utility.yul\":7349:7480   */\n      tag_181\n        /* \"#utility.yul\":7475:7479   */\n      dup2\n        /* \"#utility.yul\":7349:7480   */\n      tag_103\n      jump\t// in\n    tag_181:\n        /* \"#utility.yul\":7341:7480   */\n      swap1\n      pop\n        /* \"#utility.yul\":7068:7487   */\n      swap2\n      swap1\n      pop\n      jump\t// out\n        /* \"#utility.yul\":7493:7684   */\n    tag_63:\n        /* \"#utility.yul\":7533:7536   */\n      0x00\n        /* \"#utility.yul\":7552:7572   */\n      tag_183\n        /* \"#utility.yul\":7570:7571   */\n      dup3\n        /* \"#utility.yul\":7552:7572   */\n      tag_92\n      jump\t// in\n    tag_183:\n        /* \"#utility.yul\":7547:7572   */\n      swap2\n      pop\n        /* \"#utility.yul\":7586:7606   */\n      tag_184\n        /* \"#utility.yul\":7604:7605   */\n      dup4\n        /* \"#utility.yul\":7586:7606   */\n      tag_92\n      jump\t// in\n    tag_184:\n        /* \"#utility.yul\":7581:7606   */\n      swap3\n      pop\n        /* \"#utility.yul\":7629:7630   */\n      dup3\n        /* \"#utility.yul\":7626:7627   */\n      dup3\n        /* \"#utility.yul\":7622:7631   */\n      add\n        /* \"#utility.yul\":7615:7631   */\n      swap1\n      pop\n        /* \"#utility.yul\":7650:7653   */\n      dup1\n        /* \"#utility.yul\":7647:7648   */\n      dup3\n        /* \"#utility.yul\":7644:7654   */\n      gt\n        /* \"#utility.yul\":7641:7677   */\n      iszero\n      tag_185\n      jumpi\n        /* \"#utility.yul\":7657:7675   */\n      tag_186\n      tag_101\n      jump\t// in\n    tag_186:\n        /* \"#utility.yul\":7641:7677   */\n    tag_185:\n        /* \"#utility.yul\":7493:7684   */\n      swap3\n      swap2\n      pop\n      pop\n      jump\t// out\n        /* \"#utility.yul\":7690:7849   */\n    tag_104:\n        /* \"#utility.yul\":7830:7841   */\n      0x6e6f74206f776e65720000000000000000000000000000000000000000000000\n        /* \"#utility.yul\":7826:7827   */\n      0x00\n        /* \"#utility.yul\":7818:7824   */\n      dup3\n        /* \"#utility.yul\":7814:7828   */\n      add\n        /* \"#utility.yul\":7807:7842   */\n      mstore\n        /* \"#utility.yul\":7690:7849   */\n      pop\n      jump\t// out\n        /* \"#utility.yul\":7855:8220   */\n    tag_105:\n        /* \"#utility.yul\":7997:8000   */\n      0x00\n        /* \"#utility.yul\":8018:8084   */\n      tag_189\n        /* \"#utility.yul\":8082:8083   */\n      0x09\n        /* \"#utility.yul\":8077:8080   */\n      dup4\n        /* \"#utility.yul\":8018:8084   */\n      tag_81\n      jump\t// in\n    tag_189:\n        /* \"#utility.yul\":8011:8084   */\n      swap2\n      pop\n        /* \"#utility.yul\":8093:8186   */\n      tag_190\n        /* \"#utility.yul\":8182:8185   */\n      dup3\n        /* \"#utility.yul\":8093:8186   */\n      tag_104\n      jump\t// in\n    tag_190:\n        /* \"#utility.yul\":8211:8213   */\n      0x20\n        /* \"#utility.yul\":8206:8209   */\n      dup3\n        /* \"#utility.yul\":8202:8214   */\n      add\n        /* \"#utility.yul\":8195:8214   */\n      swap1\n      pop\n        /* \"#utility.yul\":7855:8220   */\n      swap2\n      swap1\n      pop\n      jump\t// out\n        /* \"#utility.yul\":8226:8645   */\n    tag_67:\n        /* \"#utility.yul\":8392:8396   */\n      0x00\n        /* \"#utility.yul\":8430:8432   */\n      0x20\n        /* \"#utility.yul\":8419:8428   */\n      dup3\n        /* \"#utility.yul\":8415:8433   */\n      add\n        /* \"#utility.yul\":8407:8433   */\n      swap1\n      pop\n        /* \"#utility.yul\":8479:8488   */\n      dup2\n        /* \"#utility.yul\":8473:8477   */\n      dup2\n        /* \"#utility.yul\":8469:8489   */\n      sub\n        /* \"#utility.yul\":8465:8466   */\n      0x00\n        /* \"#utility.yul\":8454:8463   */\n      dup4\n        /* \"#utility.yul\":8450:8467   */\n      add\n        /* \"#utility.yul\":8443:8490   */\n      mstore\n        /* \"#utility.yul\":8507:8638   */\n      tag_192\n        /* \"#utility.yul\":8633:8637   */\n      dup2\n        /* \"#utility.yul\":8507:8638   */\n      tag_105\n      jump\t// in\n    tag_192:\n        /* \"#utility.yul\":8499:8638   */\n      swap1\n      pop\n        /* \"#utility.yul\":8226:8645   */\n      swap2\n      swap1\n      pop\n      jump\t// out\n\n    auxdata: 0xa26469706673582212209663339efdc0f507473a7e057332eae25394e8fcabeafda28eb795a28342aeac64736f6c634300081e0033\n}\n",
				"bytecode": {
					"linkReferences": {},
					"object": "608060405234801561000f575f5ffd5b506040516115d83803806115d883398181016040528101906100319190610379565b3360025f6101000a81548173ffffffffffffffffffffffffffffffffffffffff021916908373ffffffffffffffffffffffffffffffffffffffff16021790555082600390816100809190610608565b5081600490816100909190610608565b50806005819055506100cc60025f9054906101000a900473ffffffffffffffffffffffffffffffffffffffff16620186a06100d460201b60201c565b5050506107af565b5f33905060025f9054906101000a900473ffffffffffffffffffffffffffffffffffffffff1673ffffffffffffffffffffffffffffffffffffffff168173ffffffffffffffffffffffffffffffffffffffff1614610167576040517f08c379a000000000000000000000000000000000000000000000000000000000815260040161015e90610731565b60405180910390fd5b5f5f5f8573ffffffffffffffffffffffffffffffffffffffff1673ffffffffffffffffffffffffffffffffffffffff1681526020019081526020015f2054905082816101b3919061077c565b5f5f8673ffffffffffffffffffffffffffffffffffffffff1673ffffffffffffffffffffffffffffffffffffffff1681526020019081526020015f208190555050505050565b5f604051905090565b5f5ffd5b5f5ffd5b5f5ffd5b5f5ffd5b5f601f19601f8301169050919050565b7f4e487b71000000000000000000000000000000000000000000000000000000005f52604160045260245ffd5b61025882610212565b810181811067ffffffffffffffff8211171561027757610276610222565b5b80604052505050565b5f6102896101f9565b9050610295828261024f565b919050565b5f67ffffffffffffffff8211156102b4576102b3610222565b5b6102bd82610212565b9050602081019050919050565b8281835e5f83830152505050565b5f6102ea6102e58461029a565b610280565b9050828152602081018484840111156103065761030561020e565b5b6103118482856102ca565b509392505050565b5f82601f83011261032d5761032c61020a565b5b815161033d8482602086016102d8565b91505092915050565b5f819050919050565b61035881610346565b8114610362575f5ffd5b50565b5f815190506103738161034f565b92915050565b5f5f5f606084860312156103905761038f610202565b5b5f84015167ffffffffffffffff8111156103ad576103ac610206565b5b6103b986828701610319565b935050602084015167ffffffffffffffff8111156103da576103d9610206565b5b6103e686828701610319565b92505060406103f786828701610365565b9150509250925092565b5f81519050919050565b7f4e487b71000000000000000000000000000000000000000000000000000000005f52602260045260245ffd5b5f600282049050600182168061044f57607f821691505b6020821081036104625761046161040b565b5b50919050565b5f819050815f5260205f209050919050565b5f6020601f8301049050919050565b5f82821b905092915050565b5f600883026104c47fffffffffffffffffffffffffffffffffffffffffffffffffffffffffffffffff82610489565b6104ce8683610489565b95508019841693508086168417925050509392505050565b5f819050919050565b5f6105096105046104ff84610346565b6104e6565b610346565b9050919050565b5f819050919050565b610522836104ef565b61053661052e82610510565b848454610495565b825550505050565b5f5f905090565b61054d61053e565b610558818484610519565b505050565b5b8181101561057b576105705f82610545565b60018101905061055e565b5050565b601f8211156105c05761059181610468565b61059a8461047a565b810160208510156105a9578190505b6105bd6105b58561047a565b83018261055d565b50505b505050565b5f82821c905092915050565b5f6105e05f19846008026105c5565b1980831691505092915050565b5f6105f883836105d1565b9150826002028217905092915050565b61061182610401565b67ffffffffffffffff81111561062a57610629610222565b5b6106348254610438565b61063f82828561057f565b5f60209050601f831160018114610670575f841561065e578287015190505b61066885826105ed565b8655506106cf565b601f19841661067e86610468565b5f5b828110156106a557848901518255600182019150602085019450602081019050610680565b868310156106c257848901516106be601f8916826105d1565b8355505b6001600288020188555050505b505050505050565b5f82825260208201905092915050565b7f6e6f74206f776e657200000000000000000000000000000000000000000000005f82015250565b5f61071b6009836106d7565b9150610726826106e7565b602082019050919050565b5f6020820190508181035f8301526107488161070f565b9050919050565b7f4e487b71000000000000000000000000000000000000000000000000000000005f52601160045260245ffd5b5f61078682610346565b915061079183610346565b92508282019050808211156107a9576107a861074f565b5b92915050565b610e1c806107bc5f395ff3fe608060405234801561000f575f5ffd5b5060043610610086575f3560e01c806340c10f191161005957806340c10f191461012657806370a082311461014257806395d89b4114610172578063a9059cbb1461019057610086565b806306fdde031461008a578063095ea7b3146100a857806323b872dd146100d8578063313ce56714610108575b5f5ffd5b6100926101ac565b60405161009f91906109f9565b60405180910390f35b6100c260048036038101906100bd9190610aaa565b610238565b6040516100cf9190610b02565b60405180910390f35b6100f260048036038101906100ed9190610b1b565b610320565b6040516100ff9190610b02565b60405180910390f35b6101106105d1565b60405161011d9190610b7a565b60405180910390f35b610140600480360381019061013b9190610aaa565b6105d7565b005b61015c60048036038101906101579190610b93565b6106fc565b6040516101699190610b7a565b60405180910390f35b61017a610741565b60405161018791906109f9565b60405180910390f35b6101aa60048036038101906101a59190610aaa565b6107cd565b005b600480546101b990610beb565b80601f01602080910402602001604051908101604052809291908181526020018280546101e590610beb565b80156102305780601f1061020757610100808354040283529160200191610230565b820191905f5260205f20905b81548152906001019060200180831161021357829003601f168201915b505050505081565b5f5f3390508260015f8373ffffffffffffffffffffffffffffffffffffffff1673ffffffffffffffffffffffffffffffffffffffff1681526020019081526020015f205f8673ffffffffffffffffffffffffffffffffffffffff1673ffffffffffffffffffffffffffffffffffffffff1681526020019081526020015f2081905550828473ffffffffffffffffffffffffffffffffffffffff168273ffffffffffffffffffffffffffffffffffffffff167f8c5be1e5ebec7d5bd14f71427d1e84f3dd0314c0f7b2291e5b200ac8c7c3b92560405160405180910390a4600191505092915050565b5f5f3390505f60015f8773ffffffffffffffffffffffffffffffffffffffff1673ffffffffffffffffffffffffffffffffffffffff1681526020019081526020015f205f8373ffffffffffffffffffffffffffffffffffffffff1673ffffffffffffffffffffffffffffffffffffffff1681526020019081526020015f20549050838110156103e4576040517f08c379a00000000000000000000000000000000000000000000000000000000081526004016103db90610c65565b60405180910390fd5b83816103f09190610cb0565b60015f8873ffffffffffffffffffffffffffffffffffffffff1673ffffffffffffffffffffffffffffffffffffffff1681526020019081526020015f205f8473ffffffffffffffffffffffffffffffffffffffff1673ffffffffffffffffffffffffffffffffffffffff1681526020019081526020015f20819055505f5f5f8873ffffffffffffffffffffffffffffffffffffffff1673ffffffffffffffffffffffffffffffffffffffff1681526020019081526020015f20549050848110156104ef576040517f08c379a00000000000000000000000000000000000000000000000000000000081526004016104e690610d2d565b60405180910390fd5b84816104fb9190610cb0565b5f5f8973ffffffffffffffffffffffffffffffffffffffff1673ffffffffffffffffffffffffffffffffffffffff1681526020019081526020015f2081905550845f5f8873ffffffffffffffffffffffffffffffffffffffff1673ffffffffffffffffffffffffffffffffffffffff1681526020019081526020015f20546105839190610d4b565b5f5f8873ffffffffffffffffffffffffffffffffffffffff1673ffffffffffffffffffffffffffffffffffffffff1681526020019081526020015f2081905550600193505050509392505050565b60055481565b5f33905060025f9054906101000a900473ffffffffffffffffffffffffffffffffffffffff1673ffffffffffffffffffffffffffffffffffffffff168173ffffffffffffffffffffffffffffffffffffffff161461066a576040517f08c379a000000000000000000000000000000000000000000000000000000000815260040161066190610dc8565b60405180910390fd5b5f5f5f8573ffffffffffffffffffffffffffffffffffffffff1673ffffffffffffffffffffffffffffffffffffffff1681526020019081526020015f2054905082816106b69190610d4b565b5f5f8673ffffffffffffffffffffffffffffffffffffffff1673ffffffffffffffffffffffffffffffffffffffff1681526020019081526020015f208190555050505050565b5f5f5f8373ffffffffffffffffffffffffffffffffffffffff1673ffffffffffffffffffffffffffffffffffffffff1681526020019081526020015f20549050919050565b6003805461074e90610beb565b80601f016020809104026020016040519081016040528092919081815260200182805461077a90610beb565b80156107c55780601f1061079c576101008083540402835291602001916107c5565b820191905f5260205f20905b8154815290600101906020018083116107a857829003601f168201915b505050505081565b5f3390505f5f5f8373ffffffffffffffffffffffffffffffffffffffff1673ffffffffffffffffffffffffffffffffffffffff1681526020019081526020015f2054905082811015610854576040517f08c379a000000000000000000000000000000000000000000000000000000000815260040161084b90610d2d565b60405180910390fd5b82816108609190610cb0565b5f5f8473ffffffffffffffffffffffffffffffffffffffff1673ffffffffffffffffffffffffffffffffffffffff1681526020019081526020015f2081905550825f5f8673ffffffffffffffffffffffffffffffffffffffff1673ffffffffffffffffffffffffffffffffffffffff1681526020019081526020015f20546108e89190610d4b565b5f5f8673ffffffffffffffffffffffffffffffffffffffff1673ffffffffffffffffffffffffffffffffffffffff1681526020019081526020015f2081905550828473ffffffffffffffffffffffffffffffffffffffff168373ffffffffffffffffffffffffffffffffffffffff167fddf252ad1be2c89b69c2b068fc378daa952ba7f163c4a11628f55a4df523b3ef60405160405180910390a450505050565b5f81519050919050565b5f82825260208201905092915050565b8281835e5f83830152505050565b5f601f19601f8301169050919050565b5f6109cb82610989565b6109d58185610993565b93506109e58185602086016109a3565b6109ee816109b1565b840191505092915050565b5f6020820190508181035f830152610a1181846109c1565b905092915050565b5f5ffd5b5f73ffffffffffffffffffffffffffffffffffffffff82169050919050565b5f610a4682610a1d565b9050919050565b610a5681610a3c565b8114610a60575f5ffd5b50565b5f81359050610a7181610a4d565b92915050565b5f819050919050565b610a8981610a77565b8114610a93575f5ffd5b50565b5f81359050610aa481610a80565b92915050565b5f5f60408385031215610ac057610abf610a19565b5b5f610acd85828601610a63565b9250506020610ade85828601610a96565b9150509250929050565b5f8115159050919050565b610afc81610ae8565b82525050565b5f602082019050610b155f830184610af3565b92915050565b5f5f5f60608486031215610b3257610b31610a19565b5b5f610b3f86828701610a63565b9350506020610b5086828701610a63565b9250506040610b6186828701610a96565b9150509250925092565b610b7481610a77565b82525050565b5f602082019050610b8d5f830184610b6b565b92915050565b5f60208284031215610ba857610ba7610a19565b5b5f610bb584828501610a63565b91505092915050565b7f4e487b71000000000000000000000000000000000000000000000000000000005f52602260045260245ffd5b5f6002820490506001821680610c0257607f821691505b602082108103610c1557610c14610bbe565b5b50919050565b7f616c6c6f77616e6365206e6f7420656e6f7567680000000000000000000000005f82015250565b5f610c4f601483610993565b9150610c5a82610c1b565b602082019050919050565b5f6020820190508181035f830152610c7c81610c43565b9050919050565b7f4e487b71000000000000000000000000000000000000000000000000000000005f52601160045260245ffd5b5f610cba82610a77565b9150610cc583610a77565b9250828203905081811115610cdd57610cdc610c83565b5b92915050565b7f62616c616e6365206e6f7420656e6f75676800000000000000000000000000005f82015250565b5f610d17601283610993565b9150610d2282610ce3565b602082019050919050565b5f6020820190508181035f830152610d4481610d0b565b9050919050565b5f610d5582610a77565b9150610d6083610a77565b9250828201905080821115610d7857610d77610c83565b5b92915050565b7f6e6f74206f776e657200000000000000000000000000000000000000000000005f82015250565b5f610db2600983610993565b9150610dbd82610d7e565b602082019050919050565b5f6020820190508181035f830152610ddf81610da6565b905091905056fea26469706673582212209663339efdc0f507473a7e057332eae25394e8fcabeafda28eb795a28342aeac64736f6c634300081e0033",
					"opcodes": "PUSH1 0x80 PUSH1 0x40 MSTORE CALLVALUE DUP1 ISZERO PUSH2 0xF JUMPI PUSH0 PUSH0 REVERT JUMPDEST POP PUSH1 0x40 MLOAD PUSH2 0x15D8 CODESIZE SUB DUP1 PUSH2 0x15D8 DUP4 CODECOPY DUP2 DUP2 ADD PUSH1 0x40 MSTORE DUP2 ADD SWAP1 PUSH2 0x31 SWAP2 SWAP1 PUSH2 0x379 JUMP JUMPDEST CALLER PUSH1 0x2 PUSH0 PUSH2 0x100 EXP DUP2 SLOAD DUP2 PUSH20 0xFFFFFFFFFFFFFFFFFFFFFFFFFFFFFFFFFFFFFFFF MUL NOT AND SWAP1 DUP4 PUSH20 0xFFFFFFFFFFFFFFFFFFFFFFFFFFFFFFFFFFFFFFFF AND MUL OR SWAP1 SSTORE POP DUP3 PUSH1 0x3 SWAP1 DUP2 PUSH2 0x80 SWAP2 SWAP1 PUSH2 0x608 JUMP JUMPDEST POP DUP2 PUSH1 0x4 SWAP1 DUP2 PUSH2 0x90 SWAP2 SWAP1 PUSH2 0x608 JUMP JUMPDEST POP DUP1 PUSH1 0x5 DUP2 SWAP1 SSTORE POP PUSH2 0xCC PUSH1 0x2 PUSH0 SWAP1 SLOAD SWAP1 PUSH2 0x100 EXP SWAP1 DIV PUSH20 0xFFFFFFFFFFFFFFFFFFFFFFFFFFFFFFFFFFFFFFFF AND PUSH3 0x186A0 PUSH2 0xD4 PUSH1 0x20 SHL PUSH1 0x20 SHR JUMP JUMPDEST POP POP POP PUSH2 0x7AF JUMP JUMPDEST PUSH0 CALLER SWAP1 POP PUSH1 0x2 PUSH0 SWAP1 SLOAD SWAP1 PUSH2 0x100 EXP SWAP1 DIV PUSH20 0xFFFFFFFFFFFFFFFFFFFFFFFFFFFFFFFFFFFFFFFF AND PUSH20 0xFFFFFFFFFFFFFFFFFFFFFFFFFFFFFFFFFFFFFFFF AND DUP2 PUSH20 0xFFFFFFFFFFFFFFFFFFFFFFFFFFFFFFFFFFFFFFFF AND EQ PUSH2 0x167 JUMPI PUSH1 0x40 MLOAD PUSH32 0x8C379A000000000000000000000000000000000000000000000000000000000 DUP2 MSTORE PUSH1 0x4 ADD PUSH2 0x15E SWAP1 PUSH2 0x731 JUMP JUMPDEST PUSH1 0x40 MLOAD DUP1 SWAP2 SUB SWAP1 REVERT JUMPDEST PUSH0 PUSH0 PUSH0 DUP6 PUSH20 0xFFFFFFFFFFFFFFFFFFFFFFFFFFFFFFFFFFFFFFFF AND PUSH20 0xFFFFFFFFFFFFFFFFFFFFFFFFFFFFFFFFFFFFFFFF AND DUP2 MSTORE PUSH1 0x20 ADD SWAP1 DUP2 MSTORE PUSH1 0x20 ADD PUSH0 KECCAK256 SLOAD SWAP1 POP DUP3 DUP2 PUSH2 0x1B3 SWAP2 SWAP1 PUSH2 0x77C JUMP JUMPDEST PUSH0 PUSH0 DUP7 PUSH20 0xFFFFFFFFFFFFFFFFFFFFFFFFFFFFFFFFFFFFFFFF AND PUSH20 0xFFFFFFFFFFFFFFFFFFFFFFFFFFFFFFFFFFFFFFFF AND DUP2 MSTORE PUSH1 0x20 ADD SWAP1 DUP2 MSTORE PUSH1 0x20 ADD PUSH0 KECCAK256 DUP2 SWAP1 SSTORE POP POP POP POP POP JUMP JUMPDEST PUSH0 PUSH1 0x40 MLOAD SWAP1 POP SWAP1 JUMP JUMPDEST PUSH0 PUSH0 REVERT JUMPDEST PUSH0 PUSH0 REVERT JUMPDEST PUSH0 PUSH0 REVERT JUMPDEST PUSH0 PUSH0 REVERT JUMPDEST PUSH0 PUSH1 0x1F NOT PUSH1 0x1F DUP4 ADD AND SWAP1 POP SWAP2 SWAP1 POP JUMP JUMPDEST PUSH32 0x4E487B7100000000000000000000000000000000000000000000000000000000 PUSH0 MSTORE PUSH1 0x41 PUSH1 0x4 MSTORE PUSH1 0x24 PUSH0 REVERT JUMPDEST PUSH2 0x258 DUP3 PUSH2 0x212 JUMP JUMPDEST DUP2 ADD DUP2 DUP2 LT PUSH8 0xFFFFFFFFFFFFFFFF DUP3 GT OR ISZERO PUSH2 0x277 JUMPI PUSH2 0x276 PUSH2 0x222 JUMP JUMPDEST JUMPDEST DUP1 PUSH1 0x40 MSTORE POP POP POP JUMP JUMPDEST PUSH0 PUSH2 0x289 PUSH2 0x1F9 JUMP JUMPDEST SWAP1 POP PUSH2 0x295 DUP3 DUP3 PUSH2 0x24F JUMP JUMPDEST SWAP2 SWAP1 POP JUMP JUMPDEST PUSH0 PUSH8 0xFFFFFFFFFFFFFFFF DUP3 GT ISZERO PUSH2 0x2B4 JUMPI PUSH2 0x2B3 PUSH2 0x222 JUMP JUMPDEST JUMPDEST PUSH2 0x2BD DUP3 PUSH2 0x212 JUMP JUMPDEST SWAP1 POP PUSH1 0x20 DUP2 ADD SWAP1 POP SWAP2 SWAP1 POP JUMP JUMPDEST DUP3 DUP2 DUP4 MCOPY PUSH0 DUP4 DUP4 ADD MSTORE POP POP POP JUMP JUMPDEST PUSH0 PUSH2 0x2EA PUSH2 0x2E5 DUP5 PUSH2 0x29A JUMP JUMPDEST PUSH2 0x280 JUMP JUMPDEST SWAP1 POP DUP3 DUP2 MSTORE PUSH1 0x20 DUP2 ADD DUP5 DUP5 DUP5 ADD GT ISZERO PUSH2 0x306 JUMPI PUSH2 0x305 PUSH2 0x20E JUMP JUMPDEST JUMPDEST PUSH2 0x311 DUP5 DUP3 DUP6 PUSH2 0x2CA JUMP JUMPDEST POP SWAP4 SWAP3 POP POP POP JUMP JUMPDEST PUSH0 DUP3 PUSH1 0x1F DUP4 ADD SLT PUSH2 0x32D JUMPI PUSH2 0x32C PUSH2 0x20A JUMP JUMPDEST JUMPDEST DUP2 MLOAD PUSH2 0x33D DUP5 DUP3 PUSH1 0x20 DUP7 ADD PUSH2 0x2D8 JUMP JUMPDEST SWAP2 POP POP SWAP3 SWAP2 POP POP JUMP JUMPDEST PUSH0 DUP2 SWAP1 POP SWAP2 SWAP1 POP JUMP JUMPDEST PUSH2 0x358 DUP2 PUSH2 0x346 JUMP JUMPDEST DUP2 EQ PUSH2 0x362 JUMPI PUSH0 PUSH0 REVERT JUMPDEST POP JUMP JUMPDEST PUSH0 DUP2 MLOAD SWAP1 POP PUSH2 0x373 DUP2 PUSH2 0x34F JUMP JUMPDEST SWAP3 SWAP2 POP POP JUMP JUMPDEST PUSH0 PUSH0 PUSH0 PUSH1 0x60 DUP5 DUP7 SUB SLT ISZERO PUSH2 0x390 JUMPI PUSH2 0x38F PUSH2 0x202 JUMP JUMPDEST JUMPDEST PUSH0 DUP5 ADD MLOAD PUSH8 0xFFFFFFFFFFFFFFFF DUP2 GT ISZERO PUSH2 0x3AD JUMPI PUSH2 0x3AC PUSH2 0x206 JUMP JUMPDEST JUMPDEST PUSH2 0x3B9 DUP7 DUP3 DUP8 ADD PUSH2 0x319 JUMP JUMPDEST SWAP4 POP POP PUSH1 0x20 DUP5 ADD MLOAD PUSH8 0xFFFFFFFFFFFFFFFF DUP2 GT ISZERO PUSH2 0x3DA JUMPI PUSH2 0x3D9 PUSH2 0x206 JUMP JUMPDEST JUMPDEST PUSH2 0x3E6 DUP7 DUP3 DUP8 ADD PUSH2 0x319 JUMP JUMPDEST SWAP3 POP POP PUSH1 0x40 PUSH2 0x3F7 DUP7 DUP3 DUP8 ADD PUSH2 0x365 JUMP JUMPDEST SWAP2 POP POP SWAP3 POP SWAP3 POP SWAP3 JUMP JUMPDEST PUSH0 DUP2 MLOAD SWAP1 POP SWAP2 SWAP1 POP JUMP JUMPDEST PUSH32 0x4E487B7100000000000000000000000000000000000000000000000000000000 PUSH0 MSTORE PUSH1 0x22 PUSH1 0x4 MSTORE PUSH1 0x24 PUSH0 REVERT JUMPDEST PUSH0 PUSH1 0x2 DUP3 DIV SWAP1 POP PUSH1 0x1 DUP3 AND DUP1 PUSH2 0x44F JUMPI PUSH1 0x7F DUP3 AND SWAP2 POP JUMPDEST PUSH1 0x20 DUP3 LT DUP2 SUB PUSH2 0x462 JUMPI PUSH2 0x461 PUSH2 0x40B JUMP JUMPDEST JUMPDEST POP SWAP2 SWAP1 POP JUMP JUMPDEST PUSH0 DUP2 SWAP1 POP DUP2 PUSH0 MSTORE PUSH1 0x20 PUSH0 KECCAK256 SWAP1 POP SWAP2 SWAP1 POP JUMP JUMPDEST PUSH0 PUSH1 0x20 PUSH1 0x1F DUP4 ADD DIV SWAP1 POP SWAP2 SWAP1 POP JUMP JUMPDEST PUSH0 DUP3 DUP3 SHL SWAP1 POP SWAP3 SWAP2 POP POP JUMP JUMPDEST PUSH0 PUSH1 0x8 DUP4 MUL PUSH2 0x4C4 PUSH32 0xFFFFFFFFFFFFFFFFFFFFFFFFFFFFFFFFFFFFFFFFFFFFFFFFFFFFFFFFFFFFFFFF DUP3 PUSH2 0x489 JUMP JUMPDEST PUSH2 0x4CE DUP7 DUP4 PUSH2 0x489 JUMP JUMPDEST SWAP6 POP DUP1 NOT DUP5 AND SWAP4 POP DUP1 DUP7 AND DUP5 OR SWAP3 POP POP POP SWAP4 SWAP3 POP POP POP JUMP JUMPDEST PUSH0 DUP2 SWAP1 POP SWAP2 SWAP1 POP JUMP JUMPDEST PUSH0 PUSH2 0x509 PUSH2 0x504 PUSH2 0x4FF DUP5 PUSH2 0x346 JUMP JUMPDEST PUSH2 0x4E6 JUMP JUMPDEST PUSH2 0x346 JUMP JUMPDEST SWAP1 POP SWAP2 SWAP1 POP JUMP JUMPDEST PUSH0 DUP2 SWAP1 POP SWAP2 SWAP1 POP JUMP JUMPDEST PUSH2 0x522 DUP4 PUSH2 0x4EF JUMP JUMPDEST PUSH2 0x536 PUSH2 0x52E DUP3 PUSH2 0x510 JUMP JUMPDEST DUP5 DUP5 SLOAD PUSH2 0x495 JUMP JUMPDEST DUP3 SSTORE POP POP POP POP JUMP JUMPDEST PUSH0 PUSH0 SWAP1 POP SWAP1 JUMP JUMPDEST PUSH2 0x54D PUSH2 0x53E JUMP JUMPDEST PUSH2 0x558 DUP2 DUP5 DUP5 PUSH2 0x519 JUMP JUMPDEST POP POP POP JUMP JUMPDEST JUMPDEST DUP2 DUP2 LT ISZERO PUSH2 0x57B JUMPI PUSH2 0x570 PUSH0 DUP3 PUSH2 0x545 JUMP JUMPDEST PUSH1 0x1 DUP2 ADD SWAP1 POP PUSH2 0x55E JUMP JUMPDEST POP POP JUMP JUMPDEST PUSH1 0x1F DUP3 GT ISZERO PUSH2 0x5C0 JUMPI PUSH2 0x591 DUP2 PUSH2 0x468 JUMP JUMPDEST PUSH2 0x59A DUP5 PUSH2 0x47A JUMP JUMPDEST DUP2 ADD PUSH1 0x20 DUP6 LT ISZERO PUSH2 0x5A9 JUMPI DUP2 SWAP1 POP JUMPDEST PUSH2 0x5BD PUSH2 0x5B5 DUP6 PUSH2 0x47A JUMP JUMPDEST DUP4 ADD DUP3 PUSH2 0x55D JUMP JUMPDEST POP POP JUMPDEST POP POP POP JUMP JUMPDEST PUSH0 DUP3 DUP3 SHR SWAP1 POP SWAP3 SWAP2 POP POP JUMP JUMPDEST PUSH0 PUSH2 0x5E0 PUSH0 NOT DUP5 PUSH1 0x8 MUL PUSH2 0x5C5 JUMP JUMPDEST NOT DUP1 DUP4 AND SWAP2 POP POP SWAP3 SWAP2 POP POP JUMP JUMPDEST PUSH0 PUSH2 0x5F8 DUP4 DUP4 PUSH2 0x5D1 JUMP JUMPDEST SWAP2 POP DUP3 PUSH1 0x2 MUL DUP3 OR SWAP1 POP SWAP3 SWAP2 POP POP JUMP JUMPDEST PUSH2 0x611 DUP3 PUSH2 0x401 JUMP JUMPDEST PUSH8 0xFFFFFFFFFFFFFFFF DUP2 GT ISZERO PUSH2 0x62A JUMPI PUSH2 0x629 PUSH2 0x222 JUMP JUMPDEST JUMPDEST PUSH2 0x634 DUP3 SLOAD PUSH2 0x438 JUMP JUMPDEST PUSH2 0x63F DUP3 DUP3 DUP6 PUSH2 0x57F JUMP JUMPDEST PUSH0 PUSH1 0x20 SWAP1 POP PUSH1 0x1F DUP4 GT PUSH1 0x1 DUP2 EQ PUSH2 0x670 JUMPI PUSH0 DUP5 ISZERO PUSH2 0x65E JUMPI DUP3 DUP8 ADD MLOAD SWAP1 POP JUMPDEST PUSH2 0x668 DUP6 DUP3 PUSH2 0x5ED JUMP JUMPDEST DUP7 SSTORE POP PUSH2 0x6CF JUMP JUMPDEST PUSH1 0x1F NOT DUP5 AND PUSH2 0x67E DUP7 PUSH2 0x468 JUMP JUMPDEST PUSH0 JUMPDEST DUP3 DUP2 LT ISZERO PUSH2 0x6A5 JUMPI DUP5 DUP10 ADD MLOAD DUP3 SSTORE PUSH1 0x1 DUP3 ADD SWAP2 POP PUSH1 0x20 DUP6 ADD SWAP5 POP PUSH1 0x20 DUP2 ADD SWAP1 POP PUSH2 0x680 JUMP JUMPDEST DUP7 DUP4 LT ISZERO PUSH2 0x6C2 JUMPI DUP5 DUP10 ADD MLOAD PUSH2 0x6BE PUSH1 0x1F DUP10 AND DUP3 PUSH2 0x5D1 JUMP JUMPDEST DUP4 SSTORE POP JUMPDEST PUSH1 0x1 PUSH1 0x2 DUP9 MUL ADD DUP9 SSTORE POP POP POP JUMPDEST POP POP POP POP POP POP JUMP JUMPDEST PUSH0 DUP3 DUP3 MSTORE PUSH1 0x20 DUP3 ADD SWAP1 POP SWAP3 SWAP2 POP POP JUMP JUMPDEST PUSH32 0x6E6F74206F776E65720000000000000000000000000000000000000000000000 PUSH0 DUP3 ADD MSTORE POP JUMP JUMPDEST PUSH0 PUSH2 0x71B PUSH1 0x9 DUP4 PUSH2 0x6D7 JUMP JUMPDEST SWAP2 POP PUSH2 0x726 DUP3 PUSH2 0x6E7 JUMP JUMPDEST PUSH1 0x20 DUP3 ADD SWAP1 POP SWAP2 SWAP1 POP JUMP JUMPDEST PUSH0 PUSH1 0x20 DUP3 ADD SWAP1 POP DUP2 DUP2 SUB PUSH0 DUP4 ADD MSTORE PUSH2 0x748 DUP2 PUSH2 0x70F JUMP JUMPDEST SWAP1 POP SWAP2 SWAP1 POP JUMP JUMPDEST PUSH32 0x4E487B7100000000000000000000000000000000000000000000000000000000 PUSH0 MSTORE PUSH1 0x11 PUSH1 0x4 MSTORE PUSH1 0x24 PUSH0 REVERT JUMPDEST PUSH0 PUSH2 0x786 DUP3 PUSH2 0x346 JUMP JUMPDEST SWAP2 POP PUSH2 0x791 DUP4 PUSH2 0x346 JUMP JUMPDEST SWAP3 POP DUP3 DUP3 ADD SWAP1 POP DUP1 DUP3 GT ISZERO PUSH2 0x7A9 JUMPI PUSH2 0x7A8 PUSH2 0x74F JUMP JUMPDEST JUMPDEST SWAP3 SWAP2 POP POP JUMP JUMPDEST PUSH2 0xE1C DUP1 PUSH2 0x7BC PUSH0 CODECOPY PUSH0 RETURN INVALID PUSH1 0x80 PUSH1 0x40 MSTORE CALLVALUE DUP1 ISZERO PUSH2 0xF JUMPI PUSH0 PUSH0 REVERT JUMPDEST POP PUSH1 0x4 CALLDATASIZE LT PUSH2 0x86 JUMPI PUSH0 CALLDATALOAD PUSH1 0xE0 SHR DUP1 PUSH4 0x40C10F19 GT PUSH2 0x59 JUMPI DUP1 PUSH4 0x40C10F19 EQ PUSH2 0x126 JUMPI DUP1 PUSH4 0x70A08231 EQ PUSH2 0x142 JUMPI DUP1 PUSH4 0x95D89B41 EQ PUSH2 0x172 JUMPI DUP1 PUSH4 0xA9059CBB EQ PUSH2 0x190 JUMPI PUSH2 0x86 JUMP JUMPDEST DUP1 PUSH4 0x6FDDE03 EQ PUSH2 0x8A JUMPI DUP1 PUSH4 0x95EA7B3 EQ PUSH2 0xA8 JUMPI DUP1 PUSH4 0x23B872DD EQ PUSH2 0xD8 JUMPI DUP1 PUSH4 0x313CE567 EQ PUSH2 0x108 JUMPI JUMPDEST PUSH0 PUSH0 REVERT JUMPDEST PUSH2 0x92 PUSH2 0x1AC JUMP JUMPDEST PUSH1 0x40 MLOAD PUSH2 0x9F SWAP2 SWAP1 PUSH2 0x9F9 JUMP JUMPDEST PUSH1 0x40 MLOAD DUP1 SWAP2 SUB SWAP1 RETURN JUMPDEST PUSH2 0xC2 PUSH1 0x4 DUP1 CALLDATASIZE SUB DUP2 ADD SWAP1 PUSH2 0xBD SWAP2 SWAP1 PUSH2 0xAAA JUMP JUMPDEST PUSH2 0x238 JUMP JUMPDEST PUSH1 0x40 MLOAD PUSH2 0xCF SWAP2 SWAP1 PUSH2 0xB02 JUMP JUMPDEST PUSH1 0x40 MLOAD DUP1 SWAP2 SUB SWAP1 RETURN JUMPDEST PUSH2 0xF2 PUSH1 0x4 DUP1 CALLDATASIZE SUB DUP2 ADD SWAP1 PUSH2 0xED SWAP2 SWAP1 PUSH2 0xB1B JUMP JUMPDEST PUSH2 0x320 JUMP JUMPDEST PUSH1 0x40 MLOAD PUSH2 0xFF SWAP2 SWAP1 PUSH2 0xB02 JUMP JUMPDEST PUSH1 0x40 MLOAD DUP1 SWAP2 SUB SWAP1 RETURN JUMPDEST PUSH2 0x110 PUSH2 0x5D1 JUMP JUMPDEST PUSH1 0x40 MLOAD PUSH2 0x11D SWAP2 SWAP1 PUSH2 0xB7A JUMP JUMPDEST PUSH1 0x40 MLOAD DUP1 SWAP2 SUB SWAP1 RETURN JUMPDEST PUSH2 0x140 PUSH1 0x4 DUP1 CALLDATASIZE SUB DUP2 ADD SWAP1 PUSH2 0x13B SWAP2 SWAP1 PUSH2 0xAAA JUMP JUMPDEST PUSH2 0x5D7 JUMP JUMPDEST STOP JUMPDEST PUSH2 0x15C PUSH1 0x4 DUP1 CALLDATASIZE SUB DUP2 ADD SWAP1 PUSH2 0x157 SWAP2 SWAP1 PUSH2 0xB93 JUMP JUMPDEST PUSH2 0x6FC JUMP JUMPDEST PUSH1 0x40 MLOAD PUSH2 0x169 SWAP2 SWAP1 PUSH2 0xB7A JUMP JUMPDEST PUSH1 0x40 MLOAD DUP1 SWAP2 SUB SWAP1 RETURN JUMPDEST PUSH2 0x17A PUSH2 0x741 JUMP JUMPDEST PUSH1 0x40 MLOAD PUSH2 0x187 SWAP2 SWAP1 PUSH2 0x9F9 JUMP JUMPDEST PUSH1 0x40 MLOAD DUP1 SWAP2 SUB SWAP1 RETURN JUMPDEST PUSH2 0x1AA PUSH1 0x4 DUP1 CALLDATASIZE SUB DUP2 ADD SWAP1 PUSH2 0x1A5 SWAP2 SWAP1 PUSH2 0xAAA JUMP JUMPDEST PUSH2 0x7CD JUMP JUMPDEST STOP JUMPDEST PUSH1 0x4 DUP1 SLOAD PUSH2 0x1B9 SWAP1 PUSH2 0xBEB JUMP JUMPDEST DUP1 PUSH1 0x1F ADD PUSH1 0x20 DUP1 SWAP2 DIV MUL PUSH1 0x20 ADD PUSH1 0x40 MLOAD SWAP1 DUP2 ADD PUSH1 0x40 MSTORE DUP1 SWAP3 SWAP2 SWAP1 DUP2 DUP2 MSTORE PUSH1 0x20 ADD DUP3 DUP1 SLOAD PUSH2 0x1E5 SWAP1 PUSH2 0xBEB JUMP JUMPDEST DUP1 ISZERO PUSH2 0x230 JUMPI DUP1 PUSH1 0x1F LT PUSH2 0x207 JUMPI PUSH2 0x100 DUP1 DUP4 SLOAD DIV MUL DUP4 MSTORE SWAP2 PUSH1 0x20 ADD SWAP2 PUSH2 0x230 JUMP JUMPDEST DUP3 ADD SWAP2 SWAP1 PUSH0 MSTORE PUSH1 0x20 PUSH0 KECCAK256 SWAP1 JUMPDEST DUP2 SLOAD DUP2 MSTORE SWAP1 PUSH1 0x1 ADD SWAP1 PUSH1 0x20 ADD DUP1 DUP4 GT PUSH2 0x213 JUMPI DUP3 SWAP1 SUB PUSH1 0x1F AND DUP3 ADD SWAP2 JUMPDEST POP POP POP POP POP DUP2 JUMP JUMPDEST PUSH0 PUSH0 CALLER SWAP1 POP DUP3 PUSH1 0x1 PUSH0 DUP4 PUSH20 0xFFFFFFFFFFFFFFFFFFFFFFFFFFFFFFFFFFFFFFFF AND PUSH20 0xFFFFFFFFFFFFFFFFFFFFFFFFFFFFFFFFFFFFFFFF AND DUP2 MSTORE PUSH1 0x20 ADD SWAP1 DUP2 MSTORE PUSH1 0x20 ADD PUSH0 KECCAK256 PUSH0 DUP7 PUSH20 0xFFFFFFFFFFFFFFFFFFFFFFFFFFFFFFFFFFFFFFFF AND PUSH20 0xFFFFFFFFFFFFFFFFFFFFFFFFFFFFFFFFFFFFFFFF AND DUP2 MSTORE PUSH1 0x20 ADD SWAP1 DUP2 MSTORE PUSH1 0x20 ADD PUSH0 KECCAK256 DUP2 SWAP1 SSTORE POP DUP3 DUP5 PUSH20 0xFFFFFFFFFFFFFFFFFFFFFFFFFFFFFFFFFFFFFFFF AND DUP3 PUSH20 0xFFFFFFFFFFFFFFFFFFFFFFFFFFFFFFFFFFFFFFFF AND PUSH32 0x8C5BE1E5EBEC7D5BD14F71427D1E84F3DD0314C0F7B2291E5B200AC8C7C3B925 PUSH1 0x40 MLOAD PUSH1 0x40 MLOAD DUP1 SWAP2 SUB SWAP1 LOG4 PUSH1 0x1 SWAP2 POP POP SWAP3 SWAP2 POP POP JUMP JUMPDEST PUSH0 PUSH0 CALLER SWAP1 POP PUSH0 PUSH1 0x1 PUSH0 DUP8 PUSH20 0xFFFFFFFFFFFFFFFFFFFFFFFFFFFFFFFFFFFFFFFF AND PUSH20 0xFFFFFFFFFFFFFFFFFFFFFFFFFFFFFFFFFFFFFFFF AND DUP2 MSTORE PUSH1 0x20 ADD SWAP1 DUP2 MSTORE PUSH1 0x20 ADD PUSH0 KECCAK256 PUSH0 DUP4 PUSH20 0xFFFFFFFFFFFFFFFFFFFFFFFFFFFFFFFFFFFFFFFF AND PUSH20 0xFFFFFFFFFFFFFFFFFFFFFFFFFFFFFFFFFFFFFFFF AND DUP2 MSTORE PUSH1 0x20 ADD SWAP1 DUP2 MSTORE PUSH1 0x20 ADD PUSH0 KECCAK256 SLOAD SWAP1 POP DUP4 DUP2 LT ISZERO PUSH2 0x3E4 JUMPI PUSH1 0x40 MLOAD PUSH32 0x8C379A000000000000000000000000000000000000000000000000000000000 DUP2 MSTORE PUSH1 0x4 ADD PUSH2 0x3DB SWAP1 PUSH2 0xC65 JUMP JUMPDEST PUSH1 0x40 MLOAD DUP1 SWAP2 SUB SWAP1 REVERT JUMPDEST DUP4 DUP2 PUSH2 0x3F0 SWAP2 SWAP1 PUSH2 0xCB0 JUMP JUMPDEST PUSH1 0x1 PUSH0 DUP9 PUSH20 0xFFFFFFFFFFFFFFFFFFFFFFFFFFFFFFFFFFFFFFFF AND PUSH20 0xFFFFFFFFFFFFFFFFFFFFFFFFFFFFFFFFFFFFFFFF AND DUP2 MSTORE PUSH1 0x20 ADD SWAP1 DUP2 MSTORE PUSH1 0x20 ADD PUSH0 KECCAK256 PUSH0 DUP5 PUSH20 0xFFFFFFFFFFFFFFFFFFFFFFFFFFFFFFFFFFFFFFFF AND PUSH20 0xFFFFFFFFFFFFFFFFFFFFFFFFFFFFFFFFFFFFFFFF AND DUP2 MSTORE PUSH1 0x20 ADD SWAP1 DUP2 MSTORE PUSH1 0x20 ADD PUSH0 KECCAK256 DUP2 SWAP1 SSTORE POP PUSH0 PUSH0 PUSH0 DUP9 PUSH20 0xFFFFFFFFFFFFFFFFFFFFFFFFFFFFFFFFFFFFFFFF AND PUSH20 0xFFFFFFFFFFFFFFFFFFFFFFFFFFFFFFFFFFFFFFFF AND DUP2 MSTORE PUSH1 0x20 ADD SWAP1 DUP2 MSTORE PUSH1 0x20 ADD PUSH0 KECCAK256 SLOAD SWAP1 POP DUP5 DUP2 LT ISZERO PUSH2 0x4EF JUMPI PUSH1 0x40 MLOAD PUSH32 0x8C379A000000000000000000000000000000000000000000000000000000000 DUP2 MSTORE PUSH1 0x4 ADD PUSH2 0x4E6 SWAP1 PUSH2 0xD2D JUMP JUMPDEST PUSH1 0x40 MLOAD DUP1 SWAP2 SUB SWAP1 REVERT JUMPDEST DUP5 DUP2 PUSH2 0x4FB SWAP2 SWAP1 PUSH2 0xCB0 JUMP JUMPDEST PUSH0 PUSH0 DUP10 PUSH20 0xFFFFFFFFFFFFFFFFFFFFFFFFFFFFFFFFFFFFFFFF AND PUSH20 0xFFFFFFFFFFFFFFFFFFFFFFFFFFFFFFFFFFFFFFFF AND DUP2 MSTORE PUSH1 0x20 ADD SWAP1 DUP2 MSTORE PUSH1 0x20 ADD PUSH0 KECCAK256 DUP2 SWAP1 SSTORE POP DUP5 PUSH0 PUSH0 DUP9 PUSH20 0xFFFFFFFFFFFFFFFFFFFFFFFFFFFFFFFFFFFFFFFF AND PUSH20 0xFFFFFFFFFFFFFFFFFFFFFFFFFFFFFFFFFFFFFFFF AND DUP2 MSTORE PUSH1 0x20 ADD SWAP1 DUP2 MSTORE PUSH1 0x20 ADD PUSH0 KECCAK256 SLOAD PUSH2 0x583 SWAP2 SWAP1 PUSH2 0xD4B JUMP JUMPDEST PUSH0 PUSH0 DUP9 PUSH20 0xFFFFFFFFFFFFFFFFFFFFFFFFFFFFFFFFFFFFFFFF AND PUSH20 0xFFFFFFFFFFFFFFFFFFFFFFFFFFFFFFFFFFFFFFFF AND DUP2 MSTORE PUSH1 0x20 ADD SWAP1 DUP2 MSTORE PUSH1 0x20 ADD PUSH0 KECCAK256 DUP2 SWAP1 SSTORE POP PUSH1 0x1 SWAP4 POP POP POP POP SWAP4 SWAP3 POP POP POP JUMP JUMPDEST PUSH1 0x5 SLOAD DUP2 JUMP JUMPDEST PUSH0 CALLER SWAP1 POP PUSH1 0x2 PUSH0 SWAP1 SLOAD SWAP1 PUSH2 0x100 EXP SWAP1 DIV PUSH20 0xFFFFFFFFFFFFFFFFFFFFFFFFFFFFFFFFFFFFFFFF AND PUSH20 0xFFFFFFFFFFFFFFFFFFFFFFFFFFFFFFFFFFFFFFFF AND DUP2 PUSH20 0xFFFFFFFFFFFFFFFFFFFFFFFFFFFFFFFFFFFFFFFF AND EQ PUSH2 0x66A JUMPI PUSH1 0x40 MLOAD PUSH32 0x8C379A000000000000000000000000000000000000000000000000000000000 DUP2 MSTORE PUSH1 0x4 ADD PUSH2 0x661 SWAP1 PUSH2 0xDC8 JUMP JUMPDEST PUSH1 0x40 MLOAD DUP1 SWAP2 SUB SWAP1 REVERT JUMPDEST PUSH0 PUSH0 PUSH0 DUP6 PUSH20 0xFFFFFFFFFFFFFFFFFFFFFFFFFFFFFFFFFFFFFFFF AND PUSH20 0xFFFFFFFFFFFFFFFFFFFFFFFFFFFFFFFFFFFFFFFF AND DUP2 MSTORE PUSH1 0x20 ADD SWAP1 DUP2 MSTORE PUSH1 0x20 ADD PUSH0 KECCAK256 SLOAD SWAP1 POP DUP3 DUP2 PUSH2 0x6B6 SWAP2 SWAP1 PUSH2 0xD4B JUMP JUMPDEST PUSH0 PUSH0 DUP7 PUSH20 0xFFFFFFFFFFFFFFFFFFFFFFFFFFFFFFFFFFFFFFFF AND PUSH20 0xFFFFFFFFFFFFFFFFFFFFFFFFFFFFFFFFFFFFFFFF AND DUP2 MSTORE PUSH1 0x20 ADD SWAP1 DUP2 MSTORE PUSH1 0x20 ADD PUSH0 KECCAK256 DUP2 SWAP1 SSTORE POP POP POP POP POP JUMP JUMPDEST PUSH0 PUSH0 PUSH0 DUP4 PUSH20 0xFFFFFFFFFFFFFFFFFFFFFFFFFFFFFFFFFFFFFFFF AND PUSH20 0xFFFFFFFFFFFFFFFFFFFFFFFFFFFFFFFFFFFFFFFF AND DUP2 MSTORE PUSH1 0x20 ADD SWAP1 DUP2 MSTORE PUSH1 0x20 ADD PUSH0 KECCAK256 SLOAD SWAP1 POP SWAP2 SWAP1 POP JUMP JUMPDEST PUSH1 0x3 DUP1 SLOAD PUSH2 0x74E SWAP1 PUSH2 0xBEB JUMP JUMPDEST DUP1 PUSH1 0x1F ADD PUSH1 0x20 DUP1 SWAP2 DIV MUL PUSH1 0x20 ADD PUSH1 0x40 MLOAD SWAP1 DUP2 ADD PUSH1 0x40 MSTORE DUP1 SWAP3 SWAP2 SWAP1 DUP2 DUP2 MSTORE PUSH1 0x20 ADD DUP3 DUP1 SLOAD PUSH2 0x77A SWAP1 PUSH2 0xBEB JUMP JUMPDEST DUP1 ISZERO PUSH2 0x7C5 JUMPI DUP1 PUSH1 0x1F LT PUSH2 0x79C JUMPI PUSH2 0x100 DUP1 DUP4 SLOAD DIV MUL DUP4 MSTORE SWAP2 PUSH1 0x20 ADD SWAP2 PUSH2 0x7C5 JUMP JUMPDEST DUP3 ADD SWAP2 SWAP1 PUSH0 MSTORE PUSH1 0x20 PUSH0 KECCAK256 SWAP1 JUMPDEST DUP2 SLOAD DUP2 MSTORE SWAP1 PUSH1 0x1 ADD SWAP1 PUSH1 0x20 ADD DUP1 DUP4 GT PUSH2 0x7A8 JUMPI DUP3 SWAP1 SUB PUSH1 0x1F AND DUP3 ADD SWAP2 JUMPDEST POP POP POP POP POP DUP2 JUMP JUMPDEST PUSH0 CALLER SWAP1 POP PUSH0 PUSH0 PUSH0 DUP4 PUSH20 0xFFFFFFFFFFFFFFFFFFFFFFFFFFFFFFFFFFFFFFFF AND PUSH20 0xFFFFFFFFFFFFFFFFFFFFFFFFFFFFFFFFFFFFFFFF AND DUP2 MSTORE PUSH1 0x20 ADD SWAP1 DUP2 MSTORE PUSH1 0x20 ADD PUSH0 KECCAK256 SLOAD SWAP1 POP DUP3 DUP2 LT ISZERO PUSH2 0x854 JUMPI PUSH1 0x40 MLOAD PUSH32 0x8C379A000000000000000000000000000000000000000000000000000000000 DUP2 MSTORE PUSH1 0x4 ADD PUSH2 0x84B SWAP1 PUSH2 0xD2D JUMP JUMPDEST PUSH1 0x40 MLOAD DUP1 SWAP2 SUB SWAP1 REVERT JUMPDEST DUP3 DUP2 PUSH2 0x860 SWAP2 SWAP1 PUSH2 0xCB0 JUMP JUMPDEST PUSH0 PUSH0 DUP5 PUSH20 0xFFFFFFFFFFFFFFFFFFFFFFFFFFFFFFFFFFFFFFFF AND PUSH20 0xFFFFFFFFFFFFFFFFFFFFFFFFFFFFFFFFFFFFFFFF AND DUP2 MSTORE PUSH1 0x20 ADD SWAP1 DUP2 MSTORE PUSH1 0x20 ADD PUSH0 KECCAK256 DUP2 SWAP1 SSTORE POP DUP3 PUSH0 PUSH0 DUP7 PUSH20 0xFFFFFFFFFFFFFFFFFFFFFFFFFFFFFFFFFFFFFFFF AND PUSH20 0xFFFFFFFFFFFFFFFFFFFFFFFFFFFFFFFFFFFFFFFF AND DUP2 MSTORE PUSH1 0x20 ADD SWAP1 DUP2 MSTORE PUSH1 0x20 ADD PUSH0 KECCAK256 SLOAD PUSH2 0x8E8 SWAP2 SWAP1 PUSH2 0xD4B JUMP JUMPDEST PUSH0 PUSH0 DUP7 PUSH20 0xFFFFFFFFFFFFFFFFFFFFFFFFFFFFFFFFFFFFFFFF AND PUSH20 0xFFFFFFFFFFFFFFFFFFFFFFFFFFFFFFFFFFFFFFFF AND DUP2 MSTORE PUSH1 0x20 ADD SWAP1 DUP2 MSTORE PUSH1 0x20 ADD PUSH0 KECCAK256 DUP2 SWAP1 SSTORE POP DUP3 DUP5 PUSH20 0xFFFFFFFFFFFFFFFFFFFFFFFFFFFFFFFFFFFFFFFF AND DUP4 PUSH20 0xFFFFFFFFFFFFFFFFFFFFFFFFFFFFFFFFFFFFFFFF AND PUSH32 0xDDF252AD1BE2C89B69C2B068FC378DAA952BA7F163C4A11628F55A4DF523B3EF PUSH1 0x40 MLOAD PUSH1 0x40 MLOAD DUP1 SWAP2 SUB SWAP1 LOG4 POP POP POP POP JUMP JUMPDEST PUSH0 DUP2 MLOAD SWAP1 POP SWAP2 SWAP1 POP JUMP JUMPDEST PUSH0 DUP3 DUP3 MSTORE PUSH1 0x20 DUP3 ADD SWAP1 POP SWAP3 SWAP2 POP POP JUMP JUMPDEST DUP3 DUP2 DUP4 MCOPY PUSH0 DUP4 DUP4 ADD MSTORE POP POP POP JUMP JUMPDEST PUSH0 PUSH1 0x1F NOT PUSH1 0x1F DUP4 ADD AND SWAP1 POP SWAP2 SWAP1 POP JUMP JUMPDEST PUSH0 PUSH2 0x9CB DUP3 PUSH2 0x989 JUMP JUMPDEST PUSH2 0x9D5 DUP2 DUP6 PUSH2 0x993 JUMP JUMPDEST SWAP4 POP PUSH2 0x9E5 DUP2 DUP6 PUSH1 0x20 DUP7 ADD PUSH2 0x9A3 JUMP JUMPDEST PUSH2 0x9EE DUP2 PUSH2 0x9B1 JUMP JUMPDEST DUP5 ADD SWAP2 POP POP SWAP3 SWAP2 POP POP JUMP JUMPDEST PUSH0 PUSH1 0x20 DUP3 ADD SWAP1 POP DUP2 DUP2 SUB PUSH0 DUP4 ADD MSTORE PUSH2 0xA11 DUP2 DUP5 PUSH2 0x9C1 JUMP JUMPDEST SWAP1 POP SWAP3 SWAP2 POP POP JUMP JUMPDEST PUSH0 PUSH0 REVERT JUMPDEST PUSH0 PUSH20 0xFFFFFFFFFFFFFFFFFFFFFFFFFFFFFFFFFFFFFFFF DUP3 AND SWAP1 POP SWAP2 SWAP1 POP JUMP JUMPDEST PUSH0 PUSH2 0xA46 DUP3 PUSH2 0xA1D JUMP JUMPDEST SWAP1 POP SWAP2 SWAP1 POP JUMP JUMPDEST PUSH2 0xA56 DUP2 PUSH2 0xA3C JUMP JUMPDEST DUP2 EQ PUSH2 0xA60 JUMPI PUSH0 PUSH0 REVERT JUMPDEST POP JUMP JUMPDEST PUSH0 DUP2 CALLDATALOAD SWAP1 POP PUSH2 0xA71 DUP2 PUSH2 0xA4D JUMP JUMPDEST SWAP3 SWAP2 POP POP JUMP JUMPDEST PUSH0 DUP2 SWAP1 POP SWAP2 SWAP1 POP JUMP JUMPDEST PUSH2 0xA89 DUP2 PUSH2 0xA77 JUMP JUMPDEST DUP2 EQ PUSH2 0xA93 JUMPI PUSH0 PUSH0 REVERT JUMPDEST POP JUMP JUMPDEST PUSH0 DUP2 CALLDATALOAD SWAP1 POP PUSH2 0xAA4 DUP2 PUSH2 0xA80 JUMP JUMPDEST SWAP3 SWAP2 POP POP JUMP JUMPDEST PUSH0 PUSH0 PUSH1 0x40 DUP4 DUP6 SUB SLT ISZERO PUSH2 0xAC0 JUMPI PUSH2 0xABF PUSH2 0xA19 JUMP JUMPDEST JUMPDEST PUSH0 PUSH2 0xACD DUP6 DUP3 DUP7 ADD PUSH2 0xA63 JUMP JUMPDEST SWAP3 POP POP PUSH1 0x20 PUSH2 0xADE DUP6 DUP3 DUP7 ADD PUSH2 0xA96 JUMP JUMPDEST SWAP2 POP POP SWAP3 POP SWAP3 SWAP1 POP JUMP JUMPDEST PUSH0 DUP2 ISZERO ISZERO SWAP1 POP SWAP2 SWAP1 POP JUMP JUMPDEST PUSH2 0xAFC DUP2 PUSH2 0xAE8 JUMP JUMPDEST DUP3 MSTORE POP POP JUMP JUMPDEST PUSH0 PUSH1 0x20 DUP3 ADD SWAP1 POP PUSH2 0xB15 PUSH0 DUP4 ADD DUP5 PUSH2 0xAF3 JUMP JUMPDEST SWAP3 SWAP2 POP POP JUMP JUMPDEST PUSH0 PUSH0 PUSH0 PUSH1 0x60 DUP5 DUP7 SUB SLT ISZERO PUSH2 0xB32 JUMPI PUSH2 0xB31 PUSH2 0xA19 JUMP JUMPDEST JUMPDEST PUSH0 PUSH2 0xB3F DUP7 DUP3 DUP8 ADD PUSH2 0xA63 JUMP JUMPDEST SWAP4 POP POP PUSH1 0x20 PUSH2 0xB50 DUP7 DUP3 DUP8 ADD PUSH2 0xA63 JUMP JUMPDEST SWAP3 POP POP PUSH1 0x40 PUSH2 0xB61 DUP7 DUP3 DUP8 ADD PUSH2 0xA96 JUMP JUMPDEST SWAP2 POP POP SWAP3 POP SWAP3 POP SWAP3 JUMP JUMPDEST PUSH2 0xB74 DUP2 PUSH2 0xA77 JUMP JUMPDEST DUP3 MSTORE POP POP JUMP JUMPDEST PUSH0 PUSH1 0x20 DUP3 ADD SWAP1 POP PUSH2 0xB8D PUSH0 DUP4 ADD DUP5 PUSH2 0xB6B JUMP JUMPDEST SWAP3 SWAP2 POP POP JUMP JUMPDEST PUSH0 PUSH1 0x20 DUP3 DUP5 SUB SLT ISZERO PUSH2 0xBA8 JUMPI PUSH2 0xBA7 PUSH2 0xA19 JUMP JUMPDEST JUMPDEST PUSH0 PUSH2 0xBB5 DUP5 DUP3 DUP6 ADD PUSH2 0xA63 JUMP JUMPDEST SWAP2 POP POP SWAP3 SWAP2 POP POP JUMP JUMPDEST PUSH32 0x4E487B7100000000000000000000000000000000000000000000000000000000 PUSH0 MSTORE PUSH1 0x22 PUSH1 0x4 MSTORE PUSH1 0x24 PUSH0 REVERT JUMPDEST PUSH0 PUSH1 0x2 DUP3 DIV SWAP1 POP PUSH1 0x1 DUP3 AND DUP1 PUSH2 0xC02 JUMPI PUSH1 0x7F DUP3 AND SWAP2 POP JUMPDEST PUSH1 0x20 DUP3 LT DUP2 SUB PUSH2 0xC15 JUMPI PUSH2 0xC14 PUSH2 0xBBE JUMP JUMPDEST JUMPDEST POP SWAP2 SWAP1 POP JUMP JUMPDEST PUSH32 0x616C6C6F77616E6365206E6F7420656E6F756768000000000000000000000000 PUSH0 DUP3 ADD MSTORE POP JUMP JUMPDEST PUSH0 PUSH2 0xC4F PUSH1 0x14 DUP4 PUSH2 0x993 JUMP JUMPDEST SWAP2 POP PUSH2 0xC5A DUP3 PUSH2 0xC1B JUMP JUMPDEST PUSH1 0x20 DUP3 ADD SWAP1 POP SWAP2 SWAP1 POP JUMP JUMPDEST PUSH0 PUSH1 0x20 DUP3 ADD SWAP1 POP DUP2 DUP2 SUB PUSH0 DUP4 ADD MSTORE PUSH2 0xC7C DUP2 PUSH2 0xC43 JUMP JUMPDEST SWAP1 POP SWAP2 SWAP1 POP JUMP JUMPDEST PUSH32 0x4E487B7100000000000000000000000000000000000000000000000000000000 PUSH0 MSTORE PUSH1 0x11 PUSH1 0x4 MSTORE PUSH1 0x24 PUSH0 REVERT JUMPDEST PUSH0 PUSH2 0xCBA DUP3 PUSH2 0xA77 JUMP JUMPDEST SWAP2 POP PUSH2 0xCC5 DUP4 PUSH2 0xA77 JUMP JUMPDEST SWAP3 POP DUP3 DUP3 SUB SWAP1 POP DUP2 DUP2 GT ISZERO PUSH2 0xCDD JUMPI PUSH2 0xCDC PUSH2 0xC83 JUMP JUMPDEST JUMPDEST SWAP3 SWAP2 POP POP JUMP JUMPDEST PUSH32 0x62616C616E6365206E6F7420656E6F7567680000000000000000000000000000 PUSH0 DUP3 ADD MSTORE POP JUMP JUMPDEST PUSH0 PUSH2 0xD17 PUSH1 0x12 DUP4 PUSH2 0x993 JUMP JUMPDEST SWAP2 POP PUSH2 0xD22 DUP3 PUSH2 0xCE3 JUMP JUMPDEST PUSH1 0x20 DUP3 ADD SWAP1 POP SWAP2 SWAP1 POP JUMP JUMPDEST PUSH0 PUSH1 0x20 DUP3 ADD SWAP1 POP DUP2 DUP2 SUB PUSH0 DUP4 ADD MSTORE PUSH2 0xD44 DUP2 PUSH2 0xD0B JUMP JUMPDEST SWAP1 POP SWAP2 SWAP1 POP JUMP JUMPDEST PUSH0 PUSH2 0xD55 DUP3 PUSH2 0xA77 JUMP JUMPDEST SWAP2 POP PUSH2 0xD60 DUP4 PUSH2 0xA77 JUMP JUMPDEST SWAP3 POP DUP3 DUP3 ADD SWAP1 POP DUP1 DUP3 GT ISZERO PUSH2 0xD78 JUMPI PUSH2 0xD77 PUSH2 0xC83 JUMP JUMPDEST JUMPDEST SWAP3 SWAP2 POP POP JUMP JUMPDEST PUSH32 0x6E6F74206F776E65720000000000000000000000000000000000000000000000 PUSH0 DUP3 ADD MSTORE POP JUMP JUMPDEST PUSH0 PUSH2 0xDB2 PUSH1 0x9 DUP4 PUSH2 0x993 JUMP JUMPDEST SWAP2 POP PUSH2 0xDBD DUP3 PUSH2 0xD7E JUMP JUMPDEST PUSH1 0x20 DUP3 ADD SWAP1 POP SWAP2 SWAP1 POP JUMP JUMPDEST PUSH0 PUSH1 0x20 DUP3 ADD SWAP1 POP DUP2 DUP2 SUB PUSH0 DUP4 ADD MSTORE PUSH2 0xDDF DUP2 PUSH2 0xDA6 JUMP JUMPDEST SWAP1 POP SWAP2 SWAP1 POP JUMP INVALID LOG2 PUSH5 0x6970667358 0x22 SLT KECCAK256 SWAP7 PUSH4 0x339EFDC0 CREATE2 SMOD SELFBALANCE GASPRICE PUSH31 0x57332EAE25394E8FCABEAFDA28EB795A28342AEAC64736F6C634300081E00 CALLER "
				},
				"gasEstimates": {
					"creation": {
						"codeDepositCost": "722400",
						"executionCost": "infinite",
						"totalCost": "infinite"
					},
					"external": {
						"approve(address,uint256)": "25064",
						"balanceOf(address)": "2850",
						"decimals()": "2492",
						"mint(address,uint256)": "infinite",
						"name()": "infinite",
						"symbol()": "infinite",
						"transfer(address,uint256)": "infinite",
						"transferFrom(address,address,uint256)": "infinite"
					}
				},
				"methodIdentifiers": {
					"approve(address,uint256)": "095ea7b3",
					"balanceOf(address)": "70a08231",
					"decimals()": "313ce567",
					"mint(address,uint256)": "40c10f19",
					"name()": "06fdde03",
					"symbol()": "95d89b41",
					"transfer(address,uint256)": "a9059cbb",
					"transferFrom(address,address,uint256)": "23b872dd"
				}
			},
			"storageLayout": {
				"storage": [
					{
						"astId": 5,
						"contract": "stage02/task01/MyToken.sol:MyToken",
						"label": "balancesMap",
						"offset": 0,
						"slot": "0",
						"type": "t_mapping(t_address,t_uint256)"
					},
					{
						"astId": 11,
						"contract": "stage02/task01/MyToken.sol:MyToken",
						"label": "allowances",
						"offset": 0,
						"slot": "1",
						"type": "t_mapping(t_address,t_mapping(t_address,t_uint256))"
					},
					{
						"astId": 13,
						"contract": "stage02/task01/MyToken.sol:MyToken",
						"label": "owner",
						"offset": 0,
						"slot": "2",
						"type": "t_address"
					},
					{
						"astId": 15,
						"contract": "stage02/task01/MyToken.sol:MyToken",
						"label": "symbol",
						"offset": 0,
						"slot": "3",
						"type": "t_string_storage"
					},
					{
						"astId": 17,
						"contract": "stage02/task01/MyToken.sol:MyToken",
						"label": "name",
						"offset": 0,
						"slot": "4",
						"type": "t_string_storage"
					},
					{
						"astId": 19,
						"contract": "stage02/task01/MyToken.sol:MyToken",
						"label": "decimals",
						"offset": 0,
						"slot": "5",
						"type": "t_uint256"
					}
				],
				"types": {
					"t_address": {
						"encoding": "inplace",
						"label": "address",
						"numberOfBytes": "20"
					},
					"t_mapping(t_address,t_mapping(t_address,t_uint256))": {
						"encoding": "mapping",
						"key": "t_address",
						"label": "mapping(address => mapping(address => uint256))",
						"numberOfBytes": "32",
						"value": "t_mapping(t_address,t_uint256)"
					},
					"t_mapping(t_address,t_uint256)": {
						"encoding": "mapping",
						"key": "t_address",
						"label": "mapping(address => uint256)",
						"numberOfBytes": "32",
						"value": "t_uint256"
					},
					"t_string_storage": {
						"encoding": "bytes",
						"label": "string",
						"numberOfBytes": "32"
					},
					"t_uint256": {
						"encoding": "inplace",
						"label": "uint256",
						"numberOfBytes": "32"
					}
				}
			},
			"userdoc": {
				"kind": "user",
				"methods": {},
				"version": 1
			}
		}
	}
}