{
	"data": {
		"bytecode": {
			"linkReferences": {},
			"object": "608060405234801561001057600080fd5b50610515806100206000396000f3fe608060405234801561001057600080fd5b506004361061002b5760003560e01c806371dfac2d14610030575b600080fd5b61004a6004803603810190610045919061021a565b610060565b6040516100579190610285565b60405180910390f35b60008060009050600080600186516100789190610378565b905060006002875161008a9190610347565b90505b60011561015957818314156100c757858784815181106100b0576100af610445565b5b602002602001015114156100c2578293505b610159565b858782815181106100db576100da610445565b5b602002602001015114156100f55780945050505050610161565b8587828151811061010957610108610445565b5b6020026020010151101561012b5760018161012491906102f1565b925061012f565b8091505b6002838361013d9190610378565b6101479190610347565b8361015291906102f1565b905061008d565b839450505050505b92915050565b600061017a610175846102c5565b6102a0565b9050808382526020820190508285602086028201111561019d5761019c6104a8565b5b60005b858110156101cd57816101b38882610205565b8452602084019350602083019250506001810190506101a0565b5050509392505050565b600082601f8301126101ec576101eb6104a3565b5b81356101fc848260208601610167565b91505092915050565b600081359050610214816104c8565b92915050565b60008060408385031215610231576102306104b2565b5b600083013567ffffffffffffffff81111561024f5761024e6104ad565b5b61025b858286016101d7565b925050602061026c85828601610205565b9150509250929050565b61027f816103ac565b82525050565b600060208201905061029a6000830184610276565b92915050565b60006102aa6102bb565b90506102b682826103b6565b919050565b6000604051905090565b600067ffffffffffffffff8211156102e0576102df610474565b5b602082029050602081019050919050565b60006102fc826103ac565b9150610307836103ac565b9250827fffffffffffffffffffffffffffffffffffffffffffffffffffffffffffffffff0382111561033c5761033b6103e7565b5b828201905092915050565b6000610352826103ac565b915061035d836103ac565b92508261036d5761036c610416565b5b828204905092915050565b6000610383826103ac565b915061038e836103ac565b9250828210156103a1576103a06103e7565b5b828203905092915050565b6000819050919050565b6103bf826104b7565b810181811067ffffffffffffffff821117156103de576103dd610474565b5b80604052505050565b7f4e487b7100000000000000000000000000000000000000000000000000000000600052601160045260246000fd5b7f4e487b7100000000000000000000000000000000000000000000000000000000600052601260045260246000fd5b7f4e487b7100000000000000000000000000000000000000000000000000000000600052603260045260246000fd5b7f4e487b7100000000000000000000000000000000000000000000000000000000600052604160045260246000fd5b600080fd5b600080fd5b600080fd5b600080fd5b6000601f19601f8301169050919050565b6104d1816103ac565b81146104dc57600080fd5b5056fea2646970667358221220e5be02f0530ac8e5d44f1591460f73bb34900f917ea56ef63ea7ce56e8f17b9f64736f6c63430008060033",
			"opcodes": "PUSH1 0x80 PUSH1 0x40 MSTORE CALLVALUE DUP1 ISZERO PUSH2 0x10 JUMPI PUSH1 0x0 DUP1 REVERT JUMPDEST POP PUSH2 0x515 DUP1 PUSH2 0x20 PUSH1 0x0 CODECOPY PUSH1 0x0 RETURN INVALID PUSH1 0x80 PUSH1 0x40 MSTORE CALLVALUE DUP1 ISZERO PUSH2 0x10 JUMPI PUSH1 0x0 DUP1 REVERT JUMPDEST POP PUSH1 0x4 CALLDATASIZE LT PUSH2 0x2B JUMPI PUSH1 0x0 CALLDATALOAD PUSH1 0xE0 SHR DUP1 PUSH4 0x71DFAC2D EQ PUSH2 0x30 JUMPI JUMPDEST PUSH1 0x0 DUP1 REVERT JUMPDEST PUSH2 0x4A PUSH1 0x4 DUP1 CALLDATASIZE SUB DUP2 ADD SWAP1 PUSH2 0x45 SWAP2 SWAP1 PUSH2 0x21A JUMP JUMPDEST PUSH2 0x60 JUMP JUMPDEST PUSH1 0x40 MLOAD PUSH2 0x57 SWAP2 SWAP1 PUSH2 0x285 JUMP JUMPDEST PUSH1 0x40 MLOAD DUP1 SWAP2 SUB SWAP1 RETURN JUMPDEST PUSH1 0x0 DUP1 PUSH1 0x0 SWAP1 POP PUSH1 0x0 DUP1 PUSH1 0x1 DUP7 MLOAD PUSH2 0x78 SWAP2 SWAP1 PUSH2 0x378 JUMP JUMPDEST SWAP1 POP PUSH1 0x0 PUSH1 0x2 DUP8 MLOAD PUSH2 0x8A SWAP2 SWAP1 PUSH2 0x347 JUMP JUMPDEST SWAP1 POP JUMPDEST PUSH1 0x1 ISZERO PUSH2 0x159 JUMPI DUP2 DUP4 EQ ISZERO PUSH2 0xC7 JUMPI DUP6 DUP8 DUP5 DUP2 MLOAD DUP2 LT PUSH2 0xB0 JUMPI PUSH2 0xAF PUSH2 0x445 JUMP JUMPDEST JUMPDEST PUSH1 0x20 MUL PUSH1 0x20 ADD ADD MLOAD EQ ISZERO PUSH2 0xC2 JUMPI DUP3 SWAP4 POP JUMPDEST PUSH2 0x159 JUMP JUMPDEST DUP6 DUP8 DUP3 DUP2 MLOAD DUP2 LT PUSH2 0xDB JUMPI PUSH2 0xDA PUSH2 0x445 JUMP JUMPDEST JUMPDEST PUSH1 0x20 MUL PUSH1 0x20 ADD ADD MLOAD EQ ISZERO PUSH2 0xF5 JUMPI DUP1 SWAP5 POP POP POP POP POP PUSH2 0x161 JUMP JUMPDEST DUP6 DUP8 DUP3 DUP2 MLOAD DUP2 LT PUSH2 0x109 JUMPI PUSH2 0x108 PUSH2 0x445 JUMP JUMPDEST JUMPDEST PUSH1 0x20 MUL PUSH1 0x20 ADD ADD MLOAD LT ISZERO PUSH2 0x12B JUMPI PUSH1 0x1 DUP2 PUSH2 0x124 SWAP2 SWAP1 PUSH2 0x2F1 JUMP JUMPDEST SWAP3 POP PUSH2 0x12F JUMP JUMPDEST DUP1 SWAP2 POP JUMPDEST PUSH1 0x2 DUP4 DUP4 PUSH2 0x13D SWAP2 SWAP1 PUSH2 0x378 JUMP JUMPDEST PUSH2 0x147 SWAP2 SWAP1 PUSH2 0x347 JUMP JUMPDEST DUP4 PUSH2 0x152 SWAP2 SWAP1 PUSH2 0x2F1 JUMP JUMPDEST SWAP1 POP PUSH2 0x8D JUMP JUMPDEST DUP4 SWAP5 POP POP POP POP POP JUMPDEST SWAP3 SWAP2 POP POP JUMP JUMPDEST PUSH1 0x0 PUSH2 0x17A PUSH2 0x175 DUP5 PUSH2 0x2C5 JUMP JUMPDEST PUSH2 0x2A0 JUMP JUMPDEST SWAP1 POP DUP1 DUP4 DUP3 MSTORE PUSH1 0x20 DUP3 ADD SWAP1 POP DUP3 DUP6 PUSH1 0x20 DUP7 MUL DUP3 ADD GT ISZERO PUSH2 0x19D JUMPI PUSH2 0x19C PUSH2 0x4A8 JUMP JUMPDEST JUMPDEST PUSH1 0x0 JUMPDEST DUP6 DUP2 LT ISZERO PUSH2 0x1CD JUMPI DUP2 PUSH2 0x1B3 DUP9 DUP3 PUSH2 0x205 JUMP JUMPDEST DUP5 MSTORE PUSH1 0x20 DUP5 ADD SWAP4 POP PUSH1 0x20 DUP4 ADD SWAP3 POP POP PUSH1 0x1 DUP2 ADD SWAP1 POP PUSH2 0x1A0 JUMP JUMPDEST POP POP POP SWAP4 SWAP3 POP POP POP JUMP JUMPDEST PUSH1 0x0 DUP3 PUSH1 0x1F DUP4 ADD SLT PUSH2 0x1EC JUMPI PUSH2 0x1EB PUSH2 0x4A3 JUMP JUMPDEST JUMPDEST DUP2 CALLDATALOAD PUSH2 0x1FC DUP5 DUP3 PUSH1 0x20 DUP7 ADD PUSH2 0x167 JUMP JUMPDEST SWAP2 POP POP SWAP3 SWAP2 POP POP JUMP JUMPDEST PUSH1 0x0 DUP2 CALLDATALOAD SWAP1 POP PUSH2 0x214 DUP2 PUSH2 0x4C8 JUMP JUMPDEST SWAP3 SWAP2 POP POP JUMP JUMPDEST PUSH1 0x0 DUP1 PUSH1 0x40 DUP4 DUP6 SUB SLT ISZERO PUSH2 0x231 JUMPI PUSH2 0x230 PUSH2 0x4B2 JUMP JUMPDEST JUMPDEST PUSH1 0x0 DUP4 ADD CALLDATALOAD PUSH8 0xFFFFFFFFFFFFFFFF DUP2 GT ISZERO PUSH2 0x24F JUMPI PUSH2 0x24E PUSH2 0x4AD JUMP JUMPDEST JUMPDEST PUSH2 0x25B DUP6 DUP3 DUP7 ADD PUSH2 0x1D7 JUMP JUMPDEST SWAP3 POP POP PUSH1 0x20 PUSH2 0x26C DUP6 DUP3 DUP7 ADD PUSH2 0x205 JUMP JUMPDEST SWAP2 POP POP SWAP3 POP SWAP3 SWAP1 POP JUMP JUMPDEST PUSH2 0x27F DUP2 PUSH2 0x3AC JUMP JUMPDEST DUP3 MSTORE POP POP JUMP JUMPDEST PUSH1 0x0 PUSH1 0x20 DUP3 ADD SWAP1 POP PUSH2 0x29A PUSH1 0x0 DUP4 ADD DUP5 PUSH2 0x276 JUMP JUMPDEST SWAP3 SWAP2 POP POP JUMP JUMPDEST PUSH1 0x0 PUSH2 0x2AA PUSH2 0x2BB JUMP JUMPDEST SWAP1 POP PUSH2 0x2B6 DUP3 DUP3 PUSH2 0x3B6 JUMP JUMPDEST SWAP2 SWAP1 POP JUMP JUMPDEST PUSH1 0x0 PUSH1 0x40 MLOAD SWAP1 POP SWAP1 JUMP JUMPDEST PUSH1 0x0 PUSH8 0xFFFFFFFFFFFFFFFF DUP3 GT ISZERO PUSH2 0x2E0 JUMPI PUSH2 0x2DF PUSH2 0x474 JUMP JUMPDEST JUMPDEST PUSH1 0x20 DUP3 MUL SWAP1 POP PUSH1 0x20 DUP2 ADD SWAP1 POP SWAP2 SWAP1 POP JUMP JUMPDEST PUSH1 0x0 PUSH2 0x2FC DUP3 PUSH2 0x3AC JUMP JUMPDEST SWAP2 POP PUSH2 0x307 DUP4 PUSH2 0x3AC JUMP JUMPDEST SWAP3 POP DUP3 PUSH32 0xFFFFFFFFFFFFFFFFFFFFFFFFFFFFFFFFFFFFFFFFFFFFFFFFFFFFFFFFFFFFFFFF SUB DUP3 GT ISZERO PUSH2 0x33C JUMPI PUSH2 0x33B PUSH2 0x3E7 JUMP JUMPDEST JUMPDEST DUP3 DUP3 ADD SWAP1 POP SWAP3 SWAP2 POP POP JUMP JUMPDEST PUSH1 0x0 PUSH2 0x352 DUP3 PUSH2 0x3AC JUMP JUMPDEST SWAP2 POP PUSH2 0x35D DUP4 PUSH2 0x3AC JUMP JUMPDEST SWAP3 POP DUP3 PUSH2 0x36D JUMPI PUSH2 0x36C PUSH2 0x416 JUMP JUMPDEST JUMPDEST DUP3 DUP3 DIV SWAP1 POP SWAP3 SWAP2 POP POP JUMP JUMPDEST PUSH1 0x0 PUSH2 0x383 DUP3 PUSH2 0x3AC JUMP JUMPDEST SWAP2 POP PUSH2 0x38E DUP4 PUSH2 0x3AC JUMP JUMPDEST SWAP3 POP DUP3 DUP3 LT ISZERO PUSH2 0x3A1 JUMPI PUSH2 0x3A0 PUSH2 0x3E7 JUMP JUMPDEST JUMPDEST DUP3 DUP3 SUB SWAP1 POP SWAP3 SWAP2 POP POP JUMP JUMPDEST PUSH1 0x0 DUP2 SWAP1 POP SWAP2 SWAP1 POP JUMP JUMPDEST PUSH2 0x3BF DUP3 PUSH2 0x4B7 JUMP JUMPDEST DUP2 ADD DUP2 DUP2 LT PUSH8 0xFFFFFFFFFFFFFFFF DUP3 GT OR ISZERO PUSH2 0x3DE JUMPI PUSH2 0x3DD PUSH2 0x474 JUMP JUMPDEST JUMPDEST DUP1 PUSH1 0x40 MSTORE POP POP POP JUMP JUMPDEST PUSH32 0x4E487B7100000000000000000000000000000000000000000000000000000000 PUSH1 0x0 MSTORE PUSH1 0x11 PUSH1 0x4 MSTORE PUSH1 0x24 PUSH1 0x0 REVERT JUMPDEST PUSH32 0x4E487B7100000000000000000000000000000000000000000000000000000000 PUSH1 0x0 MSTORE PUSH1 0x12 PUSH1 0x4 MSTORE PUSH1 0x24 PUSH1 0x0 REVERT JUMPDEST PUSH32 0x4E487B7100000000000000000000000000000000000000000000000000000000 PUSH1 0x0 MSTORE PUSH1 0x32 PUSH1 0x4 MSTORE PUSH1 0x24 PUSH1 0x0 REVERT JUMPDEST PUSH32 0x4E487B7100000000000000000000000000000000000000000000000000000000 PUSH1 0x0 MSTORE PUSH1 0x41 PUSH1 0x4 MSTORE PUSH1 0x24 PUSH1 0x0 REVERT JUMPDEST PUSH1 0x0 DUP1 REVERT JUMPDEST PUSH1 0x0 DUP1 REVERT JUMPDEST PUSH1 0x0 DUP1 REVERT JUMPDEST PUSH1 0x0 DUP1 REVERT JUMPDEST PUSH1 0x0 PUSH1 0x1F NOT PUSH1 0x1F DUP4 ADD AND SWAP1 POP SWAP2 SWAP1 POP JUMP JUMPDEST PUSH2 0x4D1 DUP2 PUSH2 0x3AC JUMP JUMPDEST DUP2 EQ PUSH2 0x4DC JUMPI PUSH1 0x0 DUP1 REVERT JUMPDEST POP JUMP INVALID LOG2 PUSH5 0x6970667358 0x22 SLT KECCAK256 0xE5 0xBE MUL CREATE MSTORE8 EXP 0xC8 0xE5 0xD4 0x4F ISZERO SWAP2 CHAINID 0xF PUSH20 0xBB34900F917EA56EF63EA7CE56E8F17B9F64736F PUSH13 0x63430008060033000000000000 "
		},
		"gasEstimates": {
			"creation": {
				"codeDepositCost": "260200",
				"executionCost": "300",
				"totalCost": "260500"
			},
			"external": {
				"mergeSortedArray(uint256[],uint256)": "infinite"
			}
		},
		"methodIdentifiers": {
			"mergeSortedArray(uint256[],uint256)": "71dfac2d"
		}
	},
	"abi": [
		{
			"inputs": [
				{
					"internalType": "uint256[]",
					"name": "arr",
					"type": "uint256[]"
				},
				{
					"internalType": "uint256",
					"name": "target",
					"type": "uint256"
				}
			],
			"name": "mergeSortedArray",
			"outputs": [
				{
					"internalType": "uint256",
					"name": "",
					"type": "uint256"
				}
			],
			"stateMutability": "pure",
			"type": "function"
		}
	]
}