{
	"data": {
		"bytecode": {
			"linkReferences": {},
			"object": "608060405234801561001057600080fd5b506104c3806100206000396000f3fe608060405234801561001057600080fd5b506004361061002b5760003560e01c80635729c21114610030575b600080fd5b61004a600480360381019061004591906101cb565b610060565b604051610057919061024d565b60405180910390f35b606060008290506000815167ffffffffffffffff81111561008457610083610439565b5b6040519080825280601f01601f1916602001820160405280156100b65781602001600182028036833780820191505090505b50905060005b8251811015610150578281600185516100d591906102e1565b6100df91906102e1565b815181106100f0576100ef61040a565b5b602001015160f81c60f81b82828151811061010e5761010d61040a565b5b60200101907effffffffffffffffffffffffffffffffffffffffffffffffffffffffffffff1916908160001a905350808061014890610392565b9150506100bc565b508092505050919050565b600061016e61016984610294565b61026f565b90508281526020810184848401111561018a5761018961046d565b5b61019584828561031f565b509392505050565b600082601f8301126101b2576101b1610468565b5b81356101c284826020860161015b565b91505092915050565b6000602082840312156101e1576101e0610477565b5b600082013567ffffffffffffffff8111156101ff576101fe610472565b5b61020b8482850161019d565b91505092915050565b600061021f826102c5565b61022981856102d0565b935061023981856020860161032e565b6102428161047c565b840191505092915050565b600060208201905081810360008301526102678184610214565b905092915050565b600061027961028a565b90506102858282610361565b919050565b6000604051905090565b600067ffffffffffffffff8211156102af576102ae610439565b5b6102b88261047c565b9050602081019050919050565b600081519050919050565b600082825260208201905092915050565b60006102ec82610315565b91506102f783610315565b92508282101561030a576103096103db565b5b828203905092915050565b6000819050919050565b82818337600083830152505050565b60005b8381101561034c578082015181840152602081019050610331565b8381111561035b576000848401525b50505050565b61036a8261047c565b810181811067ffffffffffffffff8211171561038957610388610439565b5b80604052505050565b600061039d82610315565b91507fffffffffffffffffffffffffffffffffffffffffffffffffffffffffffffffff8214156103d0576103cf6103db565b5b600182019050919050565b7f4e487b7100000000000000000000000000000000000000000000000000000000600052601160045260246000fd5b7f4e487b7100000000000000000000000000000000000000000000000000000000600052603260045260246000fd5b7f4e487b7100000000000000000000000000000000000000000000000000000000600052604160045260246000fd5b600080fd5b600080fd5b600080fd5b600080fd5b6000601f19601f830116905091905056fea2646970667358221220eb8d19e4ff39e2b52cbf7246af244151375281e947fd17d4882aa7cf44638a3764736f6c63430008060033",
			"opcodes": "PUSH1 0x80 PUSH1 0x40 MSTORE CALLVALUE DUP1 ISZERO PUSH2 0x10 JUMPI PUSH1 0x0 DUP1 REVERT JUMPDEST POP PUSH2 0x4C3 DUP1 PUSH2 0x20 PUSH1 0x0 CODECOPY PUSH1 0x0 RETURN INVALID PUSH1 0x80 PUSH1 0x40 MSTORE CALLVALUE DUP1 ISZERO PUSH2 0x10 JUMPI PUSH1 0x0 DUP1 REVERT JUMPDEST POP PUSH1 0x4 CALLDATASIZE LT PUSH2 0x2B JUMPI PUSH1 0x0 CALLDATALOAD PUSH1 0xE0 SHR DUP1 PUSH4 0x5729C211 EQ PUSH2 0x30 JUMPI JUMPDEST PUSH1 0x0 DUP1 REVERT JUMPDEST PUSH2 0x4A PUSH1 0x4 DUP1 CALLDATASIZE SUB DUP2 ADD SWAP1 PUSH2 0x45 SWAP2 SWAP1 PUSH2 0x1CB JUMP JUMPDEST PUSH2 0x60 JUMP JUMPDEST PUSH1 0x40 MLOAD PUSH2 0x57 SWAP2 SWAP1 PUSH2 0x24D JUMP JUMPDEST PUSH1 0x40 MLOAD DUP1 SWAP2 SUB SWAP1 RETURN JUMPDEST PUSH1 0x60 PUSH1 0x0 DUP3 SWAP1 POP PUSH1 0x0 DUP2 MLOAD PUSH8 0xFFFFFFFFFFFFFFFF DUP2 GT ISZERO PUSH2 0x84 JUMPI PUSH2 0x83 PUSH2 0x439 JUMP JUMPDEST JUMPDEST PUSH1 0x40 MLOAD SWAP1 DUP1 DUP3 MSTORE DUP1 PUSH1 0x1F ADD PUSH1 0x1F NOT AND PUSH1 0x20 ADD DUP3 ADD PUSH1 0x40 MSTORE DUP1 ISZERO PUSH2 0xB6 JUMPI DUP2 PUSH1 0x20 ADD PUSH1 0x1 DUP3 MUL DUP1 CALLDATASIZE DUP4 CALLDATACOPY DUP1 DUP3 ADD SWAP2 POP POP SWAP1 POP JUMPDEST POP SWAP1 POP PUSH1 0x0 JUMPDEST DUP3 MLOAD DUP2 LT ISZERO PUSH2 0x150 JUMPI DUP3 DUP2 PUSH1 0x1 DUP6 MLOAD PUSH2 0xD5 SWAP2 SWAP1 PUSH2 0x2E1 JUMP JUMPDEST PUSH2 0xDF SWAP2 SWAP1 PUSH2 0x2E1 JUMP JUMPDEST DUP2 MLOAD DUP2 LT PUSH2 0xF0 JUMPI PUSH2 0xEF PUSH2 0x40A JUMP JUMPDEST JUMPDEST PUSH1 0x20 ADD ADD MLOAD PUSH1 0xF8 SHR PUSH1 0xF8 SHL DUP3 DUP3 DUP2 MLOAD DUP2 LT PUSH2 0x10E JUMPI PUSH2 0x10D PUSH2 0x40A JUMP JUMPDEST JUMPDEST PUSH1 0x20 ADD ADD SWAP1 PUSH31 0xFFFFFFFFFFFFFFFFFFFFFFFFFFFFFFFFFFFFFFFFFFFFFFFFFFFFFFFFFFFFFF NOT AND SWAP1 DUP2 PUSH1 0x0 BYTE SWAP1 MSTORE8 POP DUP1 DUP1 PUSH2 0x148 SWAP1 PUSH2 0x392 JUMP JUMPDEST SWAP2 POP POP PUSH2 0xBC JUMP JUMPDEST POP DUP1 SWAP3 POP POP POP SWAP2 SWAP1 POP JUMP JUMPDEST PUSH1 0x0 PUSH2 0x16E PUSH2 0x169 DUP5 PUSH2 0x294 JUMP JUMPDEST PUSH2 0x26F JUMP JUMPDEST SWAP1 POP DUP3 DUP2 MSTORE PUSH1 0x20 DUP2 ADD DUP5 DUP5 DUP5 ADD GT ISZERO PUSH2 0x18A JUMPI PUSH2 0x189 PUSH2 0x46D JUMP JUMPDEST JUMPDEST PUSH2 0x195 DUP5 DUP3 DUP6 PUSH2 0x31F JUMP JUMPDEST POP SWAP4 SWAP3 POP POP POP JUMP JUMPDEST PUSH1 0x0 DUP3 PUSH1 0x1F DUP4 ADD SLT PUSH2 0x1B2 JUMPI PUSH2 0x1B1 PUSH2 0x468 JUMP JUMPDEST JUMPDEST DUP2 CALLDATALOAD PUSH2 0x1C2 DUP5 DUP3 PUSH1 0x20 DUP7 ADD PUSH2 0x15B JUMP JUMPDEST SWAP2 POP POP SWAP3 SWAP2 POP POP JUMP JUMPDEST PUSH1 0x0 PUSH1 0x20 DUP3 DUP5 SUB SLT ISZERO PUSH2 0x1E1 JUMPI PUSH2 0x1E0 PUSH2 0x477 JUMP JUMPDEST JUMPDEST PUSH1 0x0 DUP3 ADD CALLDATALOAD PUSH8 0xFFFFFFFFFFFFFFFF DUP2 GT ISZERO PUSH2 0x1FF JUMPI PUSH2 0x1FE PUSH2 0x472 JUMP JUMPDEST JUMPDEST PUSH2 0x20B DUP5 DUP3 DUP6 ADD PUSH2 0x19D JUMP JUMPDEST SWAP2 POP POP SWAP3 SWAP2 POP POP JUMP JUMPDEST PUSH1 0x0 PUSH2 0x21F DUP3 PUSH2 0x2C5 JUMP JUMPDEST PUSH2 0x229 DUP2 DUP6 PUSH2 0x2D0 JUMP JUMPDEST SWAP4 POP PUSH2 0x239 DUP2 DUP6 PUSH1 0x20 DUP7 ADD PUSH2 0x32E JUMP JUMPDEST PUSH2 0x242 DUP2 PUSH2 0x47C JUMP JUMPDEST DUP5 ADD SWAP2 POP POP SWAP3 SWAP2 POP POP JUMP JUMPDEST PUSH1 0x0 PUSH1 0x20 DUP3 ADD SWAP1 POP DUP2 DUP2 SUB PUSH1 0x0 DUP4 ADD MSTORE PUSH2 0x267 DUP2 DUP5 PUSH2 0x214 JUMP JUMPDEST SWAP1 POP SWAP3 SWAP2 POP POP JUMP JUMPDEST PUSH1 0x0 PUSH2 0x279 PUSH2 0x28A JUMP JUMPDEST SWAP1 POP PUSH2 0x285 DUP3 DUP3 PUSH2 0x361 JUMP JUMPDEST SWAP2 SWAP1 POP JUMP JUMPDEST PUSH1 0x0 PUSH1 0x40 MLOAD SWAP1 POP SWAP1 JUMP JUMPDEST PUSH1 0x0 PUSH8 0xFFFFFFFFFFFFFFFF DUP3 GT ISZERO PUSH2 0x2AF JUMPI PUSH2 0x2AE PUSH2 0x439 JUMP JUMPDEST JUMPDEST PUSH2 0x2B8 DUP3 PUSH2 0x47C JUMP JUMPDEST SWAP1 POP PUSH1 0x20 DUP2 ADD SWAP1 POP SWAP2 SWAP1 POP JUMP JUMPDEST PUSH1 0x0 DUP2 MLOAD SWAP1 POP SWAP2 SWAP1 POP JUMP JUMPDEST PUSH1 0x0 DUP3 DUP3 MSTORE PUSH1 0x20 DUP3 ADD SWAP1 POP SWAP3 SWAP2 POP POP JUMP JUMPDEST PUSH1 0x0 PUSH2 0x2EC DUP3 PUSH2 0x315 JUMP JUMPDEST SWAP2 POP PUSH2 0x2F7 DUP4 PUSH2 0x315 JUMP JUMPDEST SWAP3 POP DUP3 DUP3 LT ISZERO PUSH2 0x30A JUMPI PUSH2 0x309 PUSH2 0x3DB JUMP JUMPDEST JUMPDEST DUP3 DUP3 SUB SWAP1 POP SWAP3 SWAP2 POP POP JUMP JUMPDEST PUSH1 0x0 DUP2 SWAP1 POP SWAP2 SWAP1 POP JUMP JUMPDEST DUP3 DUP2 DUP4 CALLDATACOPY PUSH1 0x0 DUP4 DUP4 ADD MSTORE POP POP POP JUMP JUMPDEST PUSH1 0x0 JUMPDEST DUP4 DUP2 LT ISZERO PUSH2 0x34C JUMPI DUP1 DUP3 ADD MLOAD DUP2 DUP5 ADD MSTORE PUSH1 0x20 DUP2 ADD SWAP1 POP PUSH2 0x331 JUMP JUMPDEST DUP4 DUP2 GT ISZERO PUSH2 0x35B JUMPI PUSH1 0x0 DUP5 DUP5 ADD MSTORE JUMPDEST POP POP POP POP JUMP JUMPDEST PUSH2 0x36A DUP3 PUSH2 0x47C JUMP JUMPDEST DUP2 ADD DUP2 DUP2 LT PUSH8 0xFFFFFFFFFFFFFFFF DUP3 GT OR ISZERO PUSH2 0x389 JUMPI PUSH2 0x388 PUSH2 0x439 JUMP JUMPDEST JUMPDEST DUP1 PUSH1 0x40 MSTORE POP POP POP JUMP JUMPDEST PUSH1 0x0 PUSH2 0x39D DUP3 PUSH2 0x315 JUMP JUMPDEST SWAP2 POP PUSH32 0xFFFFFFFFFFFFFFFFFFFFFFFFFFFFFFFFFFFFFFFFFFFFFFFFFFFFFFFFFFFFFFFF DUP3 EQ ISZERO PUSH2 0x3D0 JUMPI PUSH2 0x3CF PUSH2 0x3DB JUMP JUMPDEST JUMPDEST PUSH1 0x1 DUP3 ADD SWAP1 POP SWAP2 SWAP1 POP JUMP JUMPDEST PUSH32 0x4E487B7100000000000000000000000000000000000000000000000000000000 PUSH1 0x0 MSTORE PUSH1 0x11 PUSH1 0x4 MSTORE PUSH1 0x24 PUSH1 0x0 REVERT JUMPDEST PUSH32 0x4E487B7100000000000000000000000000000000000000000000000000000000 PUSH1 0x0 MSTORE PUSH1 0x32 PUSH1 0x4 MSTORE PUSH1 0x24 PUSH1 0x0 REVERT JUMPDEST PUSH32 0x4E487B7100000000000000000000000000000000000000000000000000000000 PUSH1 0x0 MSTORE PUSH1 0x41 PUSH1 0x4 MSTORE PUSH1 0x24 PUSH1 0x0 REVERT JUMPDEST PUSH1 0x0 DUP1 REVERT JUMPDEST PUSH1 0x0 DUP1 REVERT JUMPDEST PUSH1 0x0 DUP1 REVERT JUMPDEST PUSH1 0x0 DUP1 REVERT JUMPDEST PUSH1 0x0 PUSH1 0x1F NOT PUSH1 0x1F DUP4 ADD AND SWAP1 POP SWAP2 SWAP1 POP JUMP INVALID LOG2 PUSH5 0x6970667358 0x22 SLT KECCAK256 0xEB DUP14 NOT 0xE4 SELFDESTRUCT CODECOPY 0xE2 0xB5 0x2C 0xBF PUSH19 0x46AF244151375281E947FD17D4882AA7CF4463 DUP11 CALLDATACOPY PUSH5 0x736F6C6343 STOP ADDMOD MOD STOP CALLER "
		},
		"gasEstimates": {
			"creation": {
				"codeDepositCost": "243800",
				"executionCost": "287",
				"totalCost": "244087"
			},
			"external": {
				"reverseString(string)": "infinite"
			}
		},
		"methodIdentifiers": {
			"reverseString(string)": "5729c211"
		}
	},
	"abi": [
		{
			"inputs": [
				{
					"internalType": "string",
					"name": "str",
					"type": "string"
				}
			],
			"name": "reverseString",
			"outputs": [
				{
					"internalType": "string",
					"name": "",
					"type": "string"
				}
			],
			"stateMutability": "pure",
			"type": "function"
		}
	]
}