{
	"data": {
		"bytecode": {
			"linkReferences": {},
			"object": "608060405234801561001057600080fd5b5061037f806100206000396000f3fe608060405234801561001057600080fd5b50600436106100415760003560e01c8063b384abef14610046578063b9830ff114610062578063ff9810991461006c575b600080fd5b610060600480360381019061005b91906101f4565b61009c565b005b61006a610118565b005b610086600480360381019061008191906101cb565b61019a565b604051610093919061023f565b60405180910390f35b600080600084815260200190815260200160002054116100e05760018290806001815401808255809150506001900390600052602060002001600090919091909150555b80600080848152602001908152602001600020546100fe919061025a565b600080848152602001908152602001600020819055505050565b60005b60018054905081101561019757600080600060018481548110610167577f4e487b7100000000000000000000000000000000000000000000000000000000600052603260045260246000fd5b9060005260206000200154815260200190815260200160002081905550808061018f906102ba565b91505061011b565b50565b6000806000838152602001908152602001600020549050919050565b6000813590506101c581610332565b92915050565b6000602082840312156101dd57600080fd5b60006101eb848285016101b6565b91505092915050565b6000806040838503121561020757600080fd5b6000610215858286016101b6565b9250506020610226858286016101b6565b9150509250929050565b610239816102b0565b82525050565b60006020820190506102546000830184610230565b92915050565b6000610265826102b0565b9150610270836102b0565b9250827fffffffffffffffffffffffffffffffffffffffffffffffffffffffffffffffff038211156102a5576102a4610303565b5b828201905092915050565b6000819050919050565b60006102c5826102b0565b91507fffffffffffffffffffffffffffffffffffffffffffffffffffffffffffffffff8214156102f8576102f7610303565b5b600182019050919050565b7f4e487b7100000000000000000000000000000000000000000000000000000000600052601160045260246000fd5b61033b816102b0565b811461034657600080fd5b5056fea264697066735822122049aa43d4c3f61658bdfabdbccc372484c65a8f159e67651068f556548ab588b964736f6c63430008030033",
			"opcodes": "PUSH1 0x80 PUSH1 0x40 MSTORE CALLVALUE DUP1 ISZERO PUSH2 0x10 JUMPI PUSH1 0x0 DUP1 REVERT JUMPDEST POP PUSH2 0x37F DUP1 PUSH2 0x20 PUSH1 0x0 CODECOPY PUSH1 0x0 RETURN INVALID PUSH1 0x80 PUSH1 0x40 MSTORE CALLVALUE DUP1 ISZERO PUSH2 0x10 JUMPI PUSH1 0x0 DUP1 REVERT JUMPDEST POP PUSH1 0x4 CALLDATASIZE LT PUSH2 0x41 JUMPI PUSH1 0x0 CALLDATALOAD PUSH1 0xE0 SHR DUP1 PUSH4 0xB384ABEF EQ PUSH2 0x46 JUMPI DUP1 PUSH4 0xB9830FF1 EQ PUSH2 0x62 JUMPI DUP1 PUSH4 0xFF981099 EQ PUSH2 0x6C JUMPI JUMPDEST PUSH1 0x0 DUP1 REVERT JUMPDEST PUSH2 0x60 PUSH1 0x4 DUP1 CALLDATASIZE SUB DUP2 ADD SWAP1 PUSH2 0x5B SWAP2 SWAP1 PUSH2 0x1F4 JUMP JUMPDEST PUSH2 0x9C JUMP JUMPDEST STOP JUMPDEST PUSH2 0x6A PUSH2 0x118 JUMP JUMPDEST STOP JUMPDEST PUSH2 0x86 PUSH1 0x4 DUP1 CALLDATASIZE SUB DUP2 ADD SWAP1 PUSH2 0x81 SWAP2 SWAP1 PUSH2 0x1CB JUMP JUMPDEST PUSH2 0x19A JUMP JUMPDEST PUSH1 0x40 MLOAD PUSH2 0x93 SWAP2 SWAP1 PUSH2 0x23F JUMP JUMPDEST PUSH1 0x40 MLOAD DUP1 SWAP2 SUB SWAP1 RETURN JUMPDEST PUSH1 0x0 DUP1 PUSH1 0x0 DUP5 DUP2 MSTORE PUSH1 0x20 ADD SWAP1 DUP2 MSTORE PUSH1 0x20 ADD PUSH1 0x0 KECCAK256 SLOAD GT PUSH2 0xE0 JUMPI PUSH1 0x1 DUP3 SWAP1 DUP1 PUSH1 0x1 DUP2 SLOAD ADD DUP1 DUP3 SSTORE DUP1 SWAP2 POP POP PUSH1 0x1 SWAP1 SUB SWAP1 PUSH1 0x0 MSTORE PUSH1 0x20 PUSH1 0x0 KECCAK256 ADD PUSH1 0x0 SWAP1 SWAP2 SWAP1 SWAP2 SWAP1 SWAP2 POP SSTORE JUMPDEST DUP1 PUSH1 0x0 DUP1 DUP5 DUP2 MSTORE PUSH1 0x20 ADD SWAP1 DUP2 MSTORE PUSH1 0x20 ADD PUSH1 0x0 KECCAK256 SLOAD PUSH2 0xFE SWAP2 SWAP1 PUSH2 0x25A JUMP JUMPDEST PUSH1 0x0 DUP1 DUP5 DUP2 MSTORE PUSH1 0x20 ADD SWAP1 DUP2 MSTORE PUSH1 0x20 ADD PUSH1 0x0 KECCAK256 DUP2 SWAP1 SSTORE POP POP POP JUMP JUMPDEST PUSH1 0x0 JUMPDEST PUSH1 0x1 DUP1 SLOAD SWAP1 POP DUP2 LT ISZERO PUSH2 0x197 JUMPI PUSH1 0x0 DUP1 PUSH1 0x0 PUSH1 0x1 DUP5 DUP2 SLOAD DUP2 LT PUSH2 0x167 JUMPI PUSH32 0x4E487B7100000000000000000000000000000000000000000000000000000000 PUSH1 0x0 MSTORE PUSH1 0x32 PUSH1 0x4 MSTORE PUSH1 0x24 PUSH1 0x0 REVERT JUMPDEST SWAP1 PUSH1 0x0 MSTORE PUSH1 0x20 PUSH1 0x0 KECCAK256 ADD SLOAD DUP2 MSTORE PUSH1 0x20 ADD SWAP1 DUP2 MSTORE PUSH1 0x20 ADD PUSH1 0x0 KECCAK256 DUP2 SWAP1 SSTORE POP DUP1 DUP1 PUSH2 0x18F SWAP1 PUSH2 0x2BA JUMP JUMPDEST SWAP2 POP POP PUSH2 0x11B JUMP JUMPDEST POP JUMP JUMPDEST PUSH1 0x0 DUP1 PUSH1 0x0 DUP4 DUP2 MSTORE PUSH1 0x20 ADD SWAP1 DUP2 MSTORE PUSH1 0x20 ADD PUSH1 0x0 KECCAK256 SLOAD SWAP1 POP SWAP2 SWAP1 POP JUMP JUMPDEST PUSH1 0x0 DUP2 CALLDATALOAD SWAP1 POP PUSH2 0x1C5 DUP2 PUSH2 0x332 JUMP JUMPDEST SWAP3 SWAP2 POP POP JUMP JUMPDEST PUSH1 0x0 PUSH1 0x20 DUP3 DUP5 SUB SLT ISZERO PUSH2 0x1DD JUMPI PUSH1 0x0 DUP1 REVERT JUMPDEST PUSH1 0x0 PUSH2 0x1EB DUP5 DUP3 DUP6 ADD PUSH2 0x1B6 JUMP JUMPDEST SWAP2 POP POP SWAP3 SWAP2 POP POP JUMP JUMPDEST PUSH1 0x0 DUP1 PUSH1 0x40 DUP4 DUP6 SUB SLT ISZERO PUSH2 0x207 JUMPI PUSH1 0x0 DUP1 REVERT JUMPDEST PUSH1 0x0 PUSH2 0x215 DUP6 DUP3 DUP7 ADD PUSH2 0x1B6 JUMP JUMPDEST SWAP3 POP POP PUSH1 0x20 PUSH2 0x226 DUP6 DUP3 DUP7 ADD PUSH2 0x1B6 JUMP JUMPDEST SWAP2 POP POP SWAP3 POP SWAP3 SWAP1 POP JUMP JUMPDEST PUSH2 0x239 DUP2 PUSH2 0x2B0 JUMP JUMPDEST DUP3 MSTORE POP POP JUMP JUMPDEST PUSH1 0x0 PUSH1 0x20 DUP3 ADD SWAP1 POP PUSH2 0x254 PUSH1 0x0 DUP4 ADD DUP5 PUSH2 0x230 JUMP JUMPDEST SWAP3 SWAP2 POP POP JUMP JUMPDEST PUSH1 0x0 PUSH2 0x265 DUP3 PUSH2 0x2B0 JUMP JUMPDEST SWAP2 POP PUSH2 0x270 DUP4 PUSH2 0x2B0 JUMP JUMPDEST SWAP3 POP DUP3 PUSH32 0xFFFFFFFFFFFFFFFFFFFFFFFFFFFFFFFFFFFFFFFFFFFFFFFFFFFFFFFFFFFFFFFF SUB DUP3 GT ISZERO PUSH2 0x2A5 JUMPI PUSH2 0x2A4 PUSH2 0x303 JUMP JUMPDEST JUMPDEST DUP3 DUP3 ADD SWAP1 POP SWAP3 SWAP2 POP POP JUMP JUMPDEST PUSH1 0x0 DUP2 SWAP1 POP SWAP2 SWAP1 POP JUMP JUMPDEST PUSH1 0x0 PUSH2 0x2C5 DUP3 PUSH2 0x2B0 JUMP JUMPDEST SWAP2 POP PUSH32 0xFFFFFFFFFFFFFFFFFFFFFFFFFFFFFFFFFFFFFFFFFFFFFFFFFFFFFFFFFFFFFFFF DUP3 EQ ISZERO PUSH2 0x2F8 JUMPI PUSH2 0x2F7 PUSH2 0x303 JUMP JUMPDEST JUMPDEST PUSH1 0x1 DUP3 ADD SWAP1 POP SWAP2 SWAP1 POP JUMP JUMPDEST PUSH32 0x4E487B7100000000000000000000000000000000000000000000000000000000 PUSH1 0x0 MSTORE PUSH1 0x11 PUSH1 0x4 MSTORE PUSH1 0x24 PUSH1 0x0 REVERT JUMPDEST PUSH2 0x33B DUP2 PUSH2 0x2B0 JUMP JUMPDEST DUP2 EQ PUSH2 0x346 JUMPI PUSH1 0x0 DUP1 REVERT JUMPDEST POP JUMP INVALID LOG2 PUSH5 0x6970667358 0x22 SLT KECCAK256 0x49 0xAA NUMBER 0xD4 0xC3 0xF6 AND PC 0xBD STATICCALL 0xBD 0xBC 0xCC CALLDATACOPY 0x24 DUP5 0xC6 GAS DUP16 ISZERO SWAP15 PUSH8 0x651068F556548AB5 DUP9 0xB9 PUSH5 0x736F6C6343 STOP ADDMOD SUB STOP CALLER "
		},
		"gasEstimates": {
			"creation": {
				"codeDepositCost": "179000",
				"executionCost": "220",
				"totalCost": "179220"
			},
			"external": {
				"getVotes(uint256)": "infinite",
				"resetVotes()": "infinite",
				"vote(uint256,uint256)": "infinite"
			}
		},
		"methodIdentifiers": {
			"getVotes(uint256)": "ff981099",
			"resetVotes()": "b9830ff1",
			"vote(uint256,uint256)": "b384abef"
		}
	},
	"abi": [
		{
			"inputs": [
				{
					"internalType": "uint256",
					"name": "userId",
					"type": "uint256"
				}
			],
			"name": "getVotes",
			"outputs": [
				{
					"internalType": "uint256",
					"name": "",
					"type": "uint256"
				}
			],
			"stateMutability": "view",
			"type": "function"
		},
		{
			"inputs": [],
			"name": "resetVotes",
			"outputs": [],
			"stateMutability": "nonpayable",
			"type": "function"
		},
		{
			"inputs": [
				{
					"internalType": "uint256",
					"name": "userId",
					"type": "uint256"
				},
				{
					"internalType": "uint256",
					"name": "voteNum",
					"type": "uint256"
				}
			],
			"name": "vote",
			"outputs": [],
			"stateMutability": "nonpayable",
			"type": "function"
		}
	]
}